{
	"util/random_uint_gen.sol": {
		"RandomUintGen": {
			"abi": [
				{
					"inputs": [],
					"name": "randNonce",
					"outputs": [
						{
							"internalType": "uint256",
							"name": "",
							"type": "uint256"
						}
					],
					"stateMutability": "view",
					"type": "function"
				},
				{
					"inputs": [],
					"name": "random",
					"outputs": [
						{
							"internalType": "uint256",
							"name": "",
							"type": "uint256"
						}
					],
					"stateMutability": "view",
					"type": "function"
				},
				{
					"inputs": [],
					"name": "randomGen",
					"outputs": [],
					"stateMutability": "nonpayable",
					"type": "function"
				}
			],
			"devdoc": {
				"kind": "dev",
				"methods": {},
				"version": 1
			},
			"evm": {
				"assembly": "    /* \"util/random_uint_gen.sol\":26:354  contract RandomUintGen {... */\n  mstore(0x40, 0x80)\n  callvalue\n  dup1\n  iszero\n  tag_1\n  jumpi\n  0x00\n  dup1\n  revert\ntag_1:\n  pop\n  dataSize(sub_0)\n  dup1\n  dataOffset(sub_0)\n  0x00\n  codecopy\n  0x00\n  return\nstop\n\nsub_0: assembly {\n        /* \"util/random_uint_gen.sol\":26:354  contract RandomUintGen {... */\n      mstore(0x40, 0x80)\n      callvalue\n      dup1\n      iszero\n      tag_1\n      jumpi\n      0x00\n      dup1\n      revert\n    tag_1:\n      pop\n      jumpi(tag_2, lt(calldatasize, 0x04))\n      shr(0xe0, calldataload(0x00))\n      dup1\n      0x5ec01e4d\n      eq\n      tag_3\n      jumpi\n      dup1\n      0x61e01356\n      eq\n      tag_4\n      jumpi\n      dup1\n      0x81cbba82\n      eq\n      tag_5\n      jumpi\n    tag_2:\n      0x00\n      dup1\n      revert\n        /* \"util/random_uint_gen.sol\":84:102  uint public random */\n    tag_3:\n      tag_6\n      tag_7\n      jump\t// in\n    tag_6:\n      mload(0x40)\n      tag_8\n      swap2\n      swap1\n      tag_9\n      jump\t// in\n    tag_8:\n      mload(0x40)\n      dup1\n      swap2\n      sub\n      swap1\n      return\n        /* \"util/random_uint_gen.sol\":56:77  uint public randNonce */\n    tag_4:\n      tag_10\n      tag_11\n      jump\t// in\n    tag_10:\n      mload(0x40)\n      tag_12\n      swap2\n      swap1\n      tag_9\n      jump\t// in\n    tag_12:\n      mload(0x40)\n      dup1\n      swap2\n      sub\n      swap1\n      return\n        /* \"util/random_uint_gen.sol\":184:350  function randomGen () public{... */\n    tag_5:\n      tag_13\n      tag_14\n      jump\t// in\n    tag_13:\n      stop\n        /* \"util/random_uint_gen.sol\":84:102  uint public random */\n    tag_7:\n      sload(0x01)\n      dup2\n      jump\t// out\n        /* \"util/random_uint_gen.sol\":56:77  uint public randNonce */\n    tag_11:\n      sload(0x00)\n      dup2\n      jump\t// out\n        /* \"util/random_uint_gen.sol\":184:350  function randomGen () public{... */\n    tag_14:\n        /* \"util/random_uint_gen.sol\":232:246  incRandNonce() */\n      tag_16\n        /* \"util/random_uint_gen.sol\":232:244  incRandNonce */\n      tag_17\n        /* \"util/random_uint_gen.sol\":232:246  incRandNonce() */\n      jump\t// in\n    tag_16:\n        /* \"util/random_uint_gen.sol\":300:315  block.timestamp */\n      timestamp\n        /* \"util/random_uint_gen.sol\":317:327  msg.sender */\n      caller\n        /* \"util/random_uint_gen.sol\":329:338  randNonce */\n      sload(0x00)\n        /* \"util/random_uint_gen.sol\":283:339  abi.encodePacked(block.timestamp, msg.sender, randNonce) */\n      add(0x20, mload(0x40))\n      tag_18\n      swap4\n      swap3\n      swap2\n      swap1\n      tag_19\n      jump\t// in\n    tag_18:\n      mload(0x40)\n      0x20\n      dup2\n      dup4\n      sub\n      sub\n      dup2\n      mstore\n      swap1\n      0x40\n      mstore\n        /* \"util/random_uint_gen.sol\":273:340  keccak256(abi.encodePacked(block.timestamp, msg.sender, randNonce)) */\n      dup1\n      mload\n      swap1\n      0x20\n      add\n      keccak256\n        /* \"util/random_uint_gen.sol\":268:341  uint(keccak256(abi.encodePacked(block.timestamp, msg.sender, randNonce))) */\n      0x00\n      shr\n        /* \"util/random_uint_gen.sol\":259:265  random */\n      0x01\n        /* \"util/random_uint_gen.sol\":259:341  random = uint(keccak256(abi.encodePacked(block.timestamp, msg.sender, randNonce))) */\n      dup2\n      swap1\n      sstore\n      pop\n        /* \"util/random_uint_gen.sol\":184:350  function randomGen () public{... */\n      jump\t// out\n        /* \"util/random_uint_gen.sol\":112:175  function incRandNonce() internal {... */\n    tag_17:\n        /* \"util/random_uint_gen.sol\":156:165  randNonce */\n      0x00\n      dup1\n        /* \"util/random_uint_gen.sol\":156:167  randNonce++ */\n      dup2\n      sload\n      dup1\n      swap3\n      swap2\n      swap1\n      tag_21\n      swap1\n      tag_22\n      jump\t// in\n    tag_21:\n      swap2\n      swap1\n      pop\n      sstore\n      pop\n        /* \"util/random_uint_gen.sol\":112:175  function incRandNonce() internal {... */\n      jump\t// out\n        /* \"#utility.yul\":7:84   */\n    tag_23:\n        /* \"#utility.yul\":44:51   */\n      0x00\n        /* \"#utility.yul\":73:78   */\n      dup2\n        /* \"#utility.yul\":62:78   */\n      swap1\n      pop\n        /* \"#utility.yul\":7:84   */\n      swap2\n      swap1\n      pop\n      jump\t// out\n        /* \"#utility.yul\":90:208   */\n    tag_24:\n        /* \"#utility.yul\":177:201   */\n      tag_37\n        /* \"#utility.yul\":195:200   */\n      dup2\n        /* \"#utility.yul\":177:201   */\n      tag_23\n      jump\t// in\n    tag_37:\n        /* \"#utility.yul\":172:175   */\n      dup3\n        /* \"#utility.yul\":165:202   */\n      mstore\n        /* \"#utility.yul\":90:208   */\n      pop\n      pop\n      jump\t// out\n        /* \"#utility.yul\":214:436   */\n    tag_9:\n        /* \"#utility.yul\":307:311   */\n      0x00\n        /* \"#utility.yul\":345:347   */\n      0x20\n        /* \"#utility.yul\":334:343   */\n      dup3\n        /* \"#utility.yul\":330:348   */\n      add\n        /* \"#utility.yul\":322:348   */\n      swap1\n      pop\n        /* \"#utility.yul\":358:429   */\n      tag_39\n        /* \"#utility.yul\":426:427   */\n      0x00\n        /* \"#utility.yul\":415:424   */\n      dup4\n        /* \"#utility.yul\":411:428   */\n      add\n        /* \"#utility.yul\":402:408   */\n      dup5\n        /* \"#utility.yul\":358:429   */\n      tag_24\n      jump\t// in\n    tag_39:\n        /* \"#utility.yul\":214:436   */\n      swap3\n      swap2\n      pop\n      pop\n      jump\t// out\n        /* \"#utility.yul\":442:521   */\n    tag_25:\n        /* \"#utility.yul\":481:488   */\n      0x00\n        /* \"#utility.yul\":510:515   */\n      dup2\n        /* \"#utility.yul\":499:515   */\n      swap1\n      pop\n        /* \"#utility.yul\":442:521   */\n      swap2\n      swap1\n      pop\n      jump\t// out\n        /* \"#utility.yul\":527:684   */\n    tag_26:\n        /* \"#utility.yul\":632:677   */\n      tag_42\n        /* \"#utility.yul\":652:676   */\n      tag_43\n        /* \"#utility.yul\":670:675   */\n      dup3\n        /* \"#utility.yul\":652:676   */\n      tag_23\n      jump\t// in\n    tag_43:\n        /* \"#utility.yul\":632:677   */\n      tag_25\n      jump\t// in\n    tag_42:\n        /* \"#utility.yul\":627:630   */\n      dup3\n        /* \"#utility.yul\":620:678   */\n      mstore\n        /* \"#utility.yul\":527:684   */\n      pop\n      pop\n      jump\t// out\n        /* \"#utility.yul\":690:816   */\n    tag_27:\n        /* \"#utility.yul\":727:734   */\n      0x00\n        /* \"#utility.yul\":767:809   */\n      0xffffffffffffffffffffffffffffffffffffffff\n        /* \"#utility.yul\":760:765   */\n      dup3\n        /* \"#utility.yul\":756:810   */\n      and\n        /* \"#utility.yul\":745:810   */\n      swap1\n      pop\n        /* \"#utility.yul\":690:816   */\n      swap2\n      swap1\n      pop\n      jump\t// out\n        /* \"#utility.yul\":822:918   */\n    tag_28:\n        /* \"#utility.yul\":859:866   */\n      0x00\n        /* \"#utility.yul\":888:912   */\n      tag_46\n        /* \"#utility.yul\":906:911   */\n      dup3\n        /* \"#utility.yul\":888:912   */\n      tag_27\n      jump\t// in\n    tag_46:\n        /* \"#utility.yul\":877:912   */\n      swap1\n      pop\n        /* \"#utility.yul\":822:918   */\n      swap2\n      swap1\n      pop\n      jump\t// out\n        /* \"#utility.yul\":924:1018   */\n    tag_29:\n        /* \"#utility.yul\":957:965   */\n      0x00\n        /* \"#utility.yul\":1005:1010   */\n      dup2\n        /* \"#utility.yul\":1001:1003   */\n      0x60\n        /* \"#utility.yul\":997:1011   */\n      shl\n        /* \"#utility.yul\":976:1011   */\n      swap1\n      pop\n        /* \"#utility.yul\":924:1018   */\n      swap2\n      swap1\n      pop\n      jump\t// out\n        /* \"#utility.yul\":1024:1118   */\n    tag_30:\n        /* \"#utility.yul\":1063:1070   */\n      0x00\n        /* \"#utility.yul\":1092:1112   */\n      tag_49\n        /* \"#utility.yul\":1106:1111   */\n      dup3\n        /* \"#utility.yul\":1092:1112   */\n      tag_29\n      jump\t// in\n    tag_49:\n        /* \"#utility.yul\":1081:1112   */\n      swap1\n      pop\n        /* \"#utility.yul\":1024:1118   */\n      swap2\n      swap1\n      pop\n      jump\t// out\n        /* \"#utility.yul\":1124:1224   */\n    tag_31:\n        /* \"#utility.yul\":1163:1170   */\n      0x00\n        /* \"#utility.yul\":1192:1218   */\n      tag_51\n        /* \"#utility.yul\":1212:1217   */\n      dup3\n        /* \"#utility.yul\":1192:1218   */\n      tag_30\n      jump\t// in\n    tag_51:\n        /* \"#utility.yul\":1181:1218   */\n      swap1\n      pop\n        /* \"#utility.yul\":1124:1224   */\n      swap2\n      swap1\n      pop\n      jump\t// out\n        /* \"#utility.yul\":1230:1387   */\n    tag_32:\n        /* \"#utility.yul\":1335:1380   */\n      tag_53\n        /* \"#utility.yul\":1355:1379   */\n      tag_54\n        /* \"#utility.yul\":1373:1378   */\n      dup3\n        /* \"#utility.yul\":1355:1379   */\n      tag_28\n      jump\t// in\n    tag_54:\n        /* \"#utility.yul\":1335:1380   */\n      tag_31\n      jump\t// in\n    tag_53:\n        /* \"#utility.yul\":1330:1333   */\n      dup3\n        /* \"#utility.yul\":1323:1381   */\n      mstore\n        /* \"#utility.yul\":1230:1387   */\n      pop\n      pop\n      jump\t// out\n        /* \"#utility.yul\":1393:1931   */\n    tag_19:\n        /* \"#utility.yul\":1561:1564   */\n      0x00\n        /* \"#utility.yul\":1576:1651   */\n      tag_56\n        /* \"#utility.yul\":1647:1650   */\n      dup3\n        /* \"#utility.yul\":1638:1644   */\n      dup7\n        /* \"#utility.yul\":1576:1651   */\n      tag_26\n      jump\t// in\n    tag_56:\n        /* \"#utility.yul\":1676:1678   */\n      0x20\n        /* \"#utility.yul\":1671:1674   */\n      dup3\n        /* \"#utility.yul\":1667:1679   */\n      add\n        /* \"#utility.yul\":1660:1679   */\n      swap2\n      pop\n        /* \"#utility.yul\":1689:1764   */\n      tag_57\n        /* \"#utility.yul\":1760:1763   */\n      dup3\n        /* \"#utility.yul\":1751:1757   */\n      dup6\n        /* \"#utility.yul\":1689:1764   */\n      tag_32\n      jump\t// in\n    tag_57:\n        /* \"#utility.yul\":1789:1791   */\n      0x14\n        /* \"#utility.yul\":1784:1787   */\n      dup3\n        /* \"#utility.yul\":1780:1792   */\n      add\n        /* \"#utility.yul\":1773:1792   */\n      swap2\n      pop\n        /* \"#utility.yul\":1802:1877   */\n      tag_58\n        /* \"#utility.yul\":1873:1876   */\n      dup3\n        /* \"#utility.yul\":1864:1870   */\n      dup5\n        /* \"#utility.yul\":1802:1877   */\n      tag_26\n      jump\t// in\n    tag_58:\n        /* \"#utility.yul\":1902:1904   */\n      0x20\n        /* \"#utility.yul\":1897:1900   */\n      dup3\n        /* \"#utility.yul\":1893:1905   */\n      add\n        /* \"#utility.yul\":1886:1905   */\n      swap2\n      pop\n        /* \"#utility.yul\":1922:1925   */\n      dup2\n        /* \"#utility.yul\":1915:1925   */\n      swap1\n      pop\n        /* \"#utility.yul\":1393:1931   */\n      swap5\n      swap4\n      pop\n      pop\n      pop\n      pop\n      jump\t// out\n        /* \"#utility.yul\":1937:2117   */\n    tag_33:\n        /* \"#utility.yul\":1985:2062   */\n      0x4e487b7100000000000000000000000000000000000000000000000000000000\n        /* \"#utility.yul\":1982:1983   */\n      0x00\n        /* \"#utility.yul\":1975:2063   */\n      mstore\n        /* \"#utility.yul\":2082:2086   */\n      0x11\n        /* \"#utility.yul\":2079:2080   */\n      0x04\n        /* \"#utility.yul\":2072:2087   */\n      mstore\n        /* \"#utility.yul\":2106:2110   */\n      0x24\n        /* \"#utility.yul\":2103:2104   */\n      0x00\n        /* \"#utility.yul\":2096:2111   */\n      revert\n        /* \"#utility.yul\":2123:2356   */\n    tag_22:\n        /* \"#utility.yul\":2162:2165   */\n      0x00\n        /* \"#utility.yul\":2185:2209   */\n      tag_61\n        /* \"#utility.yul\":2203:2208   */\n      dup3\n        /* \"#utility.yul\":2185:2209   */\n      tag_23\n      jump\t// in\n    tag_61:\n        /* \"#utility.yul\":2176:2209   */\n      swap2\n      pop\n        /* \"#utility.yul\":2231:2297   */\n      0xffffffffffffffffffffffffffffffffffffffffffffffffffffffffffffffff\n        /* \"#utility.yul\":2224:2229   */\n      dup3\n        /* \"#utility.yul\":2221:2298   */\n      sub\n        /* \"#utility.yul\":2218:2321   */\n      tag_62\n      jumpi\n        /* \"#utility.yul\":2301:2319   */\n      tag_63\n      tag_33\n      jump\t// in\n    tag_63:\n        /* \"#utility.yul\":2218:2321   */\n    tag_62:\n        /* \"#utility.yul\":2348:2349   */\n      0x01\n        /* \"#utility.yul\":2341:2346   */\n      dup3\n        /* \"#utility.yul\":2337:2350   */\n      add\n        /* \"#utility.yul\":2330:2350   */\n      swap1\n      pop\n        /* \"#utility.yul\":2123:2356   */\n      swap2\n      swap1\n      pop\n      jump\t// out\n\n    auxdata: 0xa26469706673582212206f9729fe56f5a40ea244e2d8e56a1401767dc354884b9d593ab191a880210f0364736f6c634300080d0033\n}\n",
				"bytecode": {
					"linkReferences": {},
					"object": "608060405234801561001057600080fd5b506102aa806100206000396000f3fe608060405234801561001057600080fd5b50600436106100415760003560e01c80635ec01e4d1461004657806361e013561461006457806381cbba8214610082575b600080fd5b61004e61008c565b60405161005b919061010a565b60405180910390f35b61006c610092565b604051610079919061010a565b60405180910390f35b61008a610098565b005b60015481565b60005481565b6100a06100d8565b42336000546040516020016100b7939291906101c0565b6040516020818303038152906040528051906020012060001c600181905550565b6000808154809291906100ea9061022c565b9190505550565b6000819050919050565b610104816100f1565b82525050565b600060208201905061011f60008301846100fb565b92915050565b6000819050919050565b61014061013b826100f1565b610125565b82525050565b600073ffffffffffffffffffffffffffffffffffffffff82169050919050565b600061017182610146565b9050919050565b60008160601b9050919050565b600061019082610178565b9050919050565b60006101a282610185565b9050919050565b6101ba6101b582610166565b610197565b82525050565b60006101cc828661012f565b6020820191506101dc82856101a9565b6014820191506101ec828461012f565b602082019150819050949350505050565b7f4e487b7100000000000000000000000000000000000000000000000000000000600052601160045260246000fd5b6000610237826100f1565b91507fffffffffffffffffffffffffffffffffffffffffffffffffffffffffffffffff8203610269576102686101fd565b5b60018201905091905056fea26469706673582212206f9729fe56f5a40ea244e2d8e56a1401767dc354884b9d593ab191a880210f0364736f6c634300080d0033",
					"opcodes": "PUSH1 0x80 PUSH1 0x40 MSTORE CALLVALUE DUP1 ISZERO PUSH2 0x10 JUMPI PUSH1 0x0 DUP1 REVERT JUMPDEST POP PUSH2 0x2AA DUP1 PUSH2 0x20 PUSH1 0x0 CODECOPY PUSH1 0x0 RETURN INVALID PUSH1 0x80 PUSH1 0x40 MSTORE CALLVALUE DUP1 ISZERO PUSH2 0x10 JUMPI PUSH1 0x0 DUP1 REVERT JUMPDEST POP PUSH1 0x4 CALLDATASIZE LT PUSH2 0x41 JUMPI PUSH1 0x0 CALLDATALOAD PUSH1 0xE0 SHR DUP1 PUSH4 0x5EC01E4D EQ PUSH2 0x46 JUMPI DUP1 PUSH4 0x61E01356 EQ PUSH2 0x64 JUMPI DUP1 PUSH4 0x81CBBA82 EQ PUSH2 0x82 JUMPI JUMPDEST PUSH1 0x0 DUP1 REVERT JUMPDEST PUSH2 0x4E PUSH2 0x8C JUMP JUMPDEST PUSH1 0x40 MLOAD PUSH2 0x5B SWAP2 SWAP1 PUSH2 0x10A JUMP JUMPDEST PUSH1 0x40 MLOAD DUP1 SWAP2 SUB SWAP1 RETURN JUMPDEST PUSH2 0x6C PUSH2 0x92 JUMP JUMPDEST PUSH1 0x40 MLOAD PUSH2 0x79 SWAP2 SWAP1 PUSH2 0x10A JUMP JUMPDEST PUSH1 0x40 MLOAD DUP1 SWAP2 SUB SWAP1 RETURN JUMPDEST PUSH2 0x8A PUSH2 0x98 JUMP JUMPDEST STOP JUMPDEST PUSH1 0x1 SLOAD DUP2 JUMP JUMPDEST PUSH1 0x0 SLOAD DUP2 JUMP JUMPDEST PUSH2 0xA0 PUSH2 0xD8 JUMP JUMPDEST TIMESTAMP CALLER PUSH1 0x0 SLOAD PUSH1 0x40 MLOAD PUSH1 0x20 ADD PUSH2 0xB7 SWAP4 SWAP3 SWAP2 SWAP1 PUSH2 0x1C0 JUMP JUMPDEST PUSH1 0x40 MLOAD PUSH1 0x20 DUP2 DUP4 SUB SUB DUP2 MSTORE SWAP1 PUSH1 0x40 MSTORE DUP1 MLOAD SWAP1 PUSH1 0x20 ADD KECCAK256 PUSH1 0x0 SHR PUSH1 0x1 DUP2 SWAP1 SSTORE POP JUMP JUMPDEST PUSH1 0x0 DUP1 DUP2 SLOAD DUP1 SWAP3 SWAP2 SWAP1 PUSH2 0xEA SWAP1 PUSH2 0x22C JUMP JUMPDEST SWAP2 SWAP1 POP SSTORE POP JUMP JUMPDEST PUSH1 0x0 DUP2 SWAP1 POP SWAP2 SWAP1 POP JUMP JUMPDEST PUSH2 0x104 DUP2 PUSH2 0xF1 JUMP JUMPDEST DUP3 MSTORE POP POP JUMP JUMPDEST PUSH1 0x0 PUSH1 0x20 DUP3 ADD SWAP1 POP PUSH2 0x11F PUSH1 0x0 DUP4 ADD DUP5 PUSH2 0xFB JUMP JUMPDEST SWAP3 SWAP2 POP POP JUMP JUMPDEST PUSH1 0x0 DUP2 SWAP1 POP SWAP2 SWAP1 POP JUMP JUMPDEST PUSH2 0x140 PUSH2 0x13B DUP3 PUSH2 0xF1 JUMP JUMPDEST PUSH2 0x125 JUMP JUMPDEST DUP3 MSTORE POP POP JUMP JUMPDEST PUSH1 0x0 PUSH20 0xFFFFFFFFFFFFFFFFFFFFFFFFFFFFFFFFFFFFFFFF DUP3 AND SWAP1 POP SWAP2 SWAP1 POP JUMP JUMPDEST PUSH1 0x0 PUSH2 0x171 DUP3 PUSH2 0x146 JUMP JUMPDEST SWAP1 POP SWAP2 SWAP1 POP JUMP JUMPDEST PUSH1 0x0 DUP2 PUSH1 0x60 SHL SWAP1 POP SWAP2 SWAP1 POP JUMP JUMPDEST PUSH1 0x0 PUSH2 0x190 DUP3 PUSH2 0x178 JUMP JUMPDEST SWAP1 POP SWAP2 SWAP1 POP JUMP JUMPDEST PUSH1 0x0 PUSH2 0x1A2 DUP3 PUSH2 0x185 JUMP JUMPDEST SWAP1 POP SWAP2 SWAP1 POP JUMP JUMPDEST PUSH2 0x1BA PUSH2 0x1B5 DUP3 PUSH2 0x166 JUMP JUMPDEST PUSH2 0x197 JUMP JUMPDEST DUP3 MSTORE POP POP JUMP JUMPDEST PUSH1 0x0 PUSH2 0x1CC DUP3 DUP7 PUSH2 0x12F JUMP JUMPDEST PUSH1 0x20 DUP3 ADD SWAP2 POP PUSH2 0x1DC DUP3 DUP6 PUSH2 0x1A9 JUMP JUMPDEST PUSH1 0x14 DUP3 ADD SWAP2 POP PUSH2 0x1EC DUP3 DUP5 PUSH2 0x12F JUMP JUMPDEST PUSH1 0x20 DUP3 ADD SWAP2 POP DUP2 SWAP1 POP SWAP5 SWAP4 POP POP POP POP JUMP JUMPDEST PUSH32 0x4E487B7100000000000000000000000000000000000000000000000000000000 PUSH1 0x0 MSTORE PUSH1 0x11 PUSH1 0x4 MSTORE PUSH1 0x24 PUSH1 0x0 REVERT JUMPDEST PUSH1 0x0 PUSH2 0x237 DUP3 PUSH2 0xF1 JUMP JUMPDEST SWAP2 POP PUSH32 0xFFFFFFFFFFFFFFFFFFFFFFFFFFFFFFFFFFFFFFFFFFFFFFFFFFFFFFFFFFFFFFFF DUP3 SUB PUSH2 0x269 JUMPI PUSH2 0x268 PUSH2 0x1FD JUMP JUMPDEST JUMPDEST PUSH1 0x1 DUP3 ADD SWAP1 POP SWAP2 SWAP1 POP JUMP INVALID LOG2 PUSH5 0x6970667358 0x22 SLT KECCAK256 PUSH16 0x9729FE56F5A40EA244E2D8E56A140176 PUSH30 0xC354884B9D593AB191A880210F0364736F6C634300080D00330000000000 "
				},
				"gasEstimates": {
					"creation": {
						"codeDepositCost": "136400",
						"executionCost": "183",
						"totalCost": "136583"
					},
					"external": {
						"randNonce()": "2429",
						"random()": "2407",
						"randomGen()": "infinite"
					},
					"internal": {
						"incRandNonce()": "24366"
					}
				},
				"methodIdentifiers": {
					"randNonce()": "61e01356",
					"random()": "5ec01e4d",
					"randomGen()": "81cbba82"
				}
			},
			"userdoc": {
				"kind": "user",
				"methods": {},
				"version": 1
			}
		}
	}
}