{
	"util/random_uint_gen.sol": {
		"RandomUintGen": {
			"abi": [
				{
					"inputs": [],
					"name": "randNonce",
					"outputs": [
						{
							"internalType": "uint256",
							"name": "",
							"type": "uint256"
						}
					],
					"stateMutability": "view",
					"type": "function"
				},
				{
					"inputs": [],
					"name": "random",
					"outputs": [
						{
							"internalType": "uint256",
							"name": "",
							"type": "uint256"
						}
					],
					"stateMutability": "view",
					"type": "function"
				}
			],
			"devdoc": {
				"kind": "dev",
				"methods": {},
				"version": 1
			},
			"evm": {
				"assembly": "    /* \"util/random_uint_gen.sol\":26:215  contract RandomUintGen {... */\n  mstore(0x40, 0x80)\n  callvalue\n  dup1\n  iszero\n  tag_1\n  jumpi\n  0x00\n  dup1\n  revert\ntag_1:\n  pop\n  dataSize(sub_0)\n  dup1\n  dataOffset(sub_0)\n  0x00\n  codecopy\n  0x00\n  return\nstop\n\nsub_0: assembly {\n        /* \"util/random_uint_gen.sol\":26:215  contract RandomUintGen {... */\n      mstore(0x40, 0x80)\n      callvalue\n      dup1\n      iszero\n      tag_1\n      jumpi\n      0x00\n      dup1\n      revert\n    tag_1:\n      pop\n      jumpi(tag_2, lt(calldatasize, 0x04))\n      shr(0xe0, calldataload(0x00))\n      dup1\n      0x5ec01e4d\n      eq\n      tag_3\n      jumpi\n      dup1\n      0x61e01356\n      eq\n      tag_4\n      jumpi\n    tag_2:\n      0x00\n      dup1\n      revert\n        /* \"util/random_uint_gen.sol\":88:211  function random () public view returns (uint){... */\n    tag_3:\n      tag_5\n      tag_6\n      jump\t// in\n    tag_5:\n      mload(0x40)\n      tag_7\n      swap2\n      swap1\n      tag_8\n      jump\t// in\n    tag_7:\n      mload(0x40)\n      dup1\n      swap2\n      sub\n      swap1\n      return\n        /* \"util/random_uint_gen.sol\":56:77  uint public randNonce */\n    tag_4:\n      tag_9\n      tag_10\n      jump\t// in\n    tag_9:\n      mload(0x40)\n      tag_11\n      swap2\n      swap1\n      tag_8\n      jump\t// in\n    tag_11:\n      mload(0x40)\n      dup1\n      swap2\n      sub\n      swap1\n      return\n        /* \"util/random_uint_gen.sol\":88:211  function random () public view returns (uint){... */\n    tag_6:\n        /* \"util/random_uint_gen.sol\":128:132  uint */\n      0x00\n        /* \"util/random_uint_gen.sol\":184:199  block.timestamp */\n      timestamp\n        /* \"util/random_uint_gen.sol\":167:200  abi.encodePacked(block.timestamp) */\n      add(0x20, mload(0x40))\n      tag_13\n      swap2\n      swap1\n      tag_14\n      jump\t// in\n    tag_13:\n      mload(0x40)\n      0x20\n      dup2\n      dup4\n      sub\n      sub\n      dup2\n      mstore\n      swap1\n      0x40\n      mstore\n        /* \"util/random_uint_gen.sol\":157:201  keccak256(abi.encodePacked(block.timestamp)) */\n      dup1\n      mload\n      swap1\n      0x20\n      add\n      keccak256\n        /* \"util/random_uint_gen.sol\":152:202  uint(keccak256(abi.encodePacked(block.timestamp))) */\n      0x00\n      shr\n        /* \"util/random_uint_gen.sol\":145:202  return uint(keccak256(abi.encodePacked(block.timestamp))) */\n      swap1\n      pop\n        /* \"util/random_uint_gen.sol\":88:211  function random () public view returns (uint){... */\n      swap1\n      jump\t// out\n        /* \"util/random_uint_gen.sol\":56:77  uint public randNonce */\n    tag_10:\n      sload(0x00)\n      dup2\n      jump\t// out\n        /* \"#utility.yul\":7:84   */\n    tag_15:\n        /* \"#utility.yul\":44:51   */\n      0x00\n        /* \"#utility.yul\":73:78   */\n      dup2\n        /* \"#utility.yul\":62:78   */\n      swap1\n      pop\n        /* \"#utility.yul\":7:84   */\n      swap2\n      swap1\n      pop\n      jump\t// out\n        /* \"#utility.yul\":90:208   */\n    tag_16:\n        /* \"#utility.yul\":177:201   */\n      tag_22\n        /* \"#utility.yul\":195:200   */\n      dup2\n        /* \"#utility.yul\":177:201   */\n      tag_15\n      jump\t// in\n    tag_22:\n        /* \"#utility.yul\":172:175   */\n      dup3\n        /* \"#utility.yul\":165:202   */\n      mstore\n        /* \"#utility.yul\":90:208   */\n      pop\n      pop\n      jump\t// out\n        /* \"#utility.yul\":214:436   */\n    tag_8:\n        /* \"#utility.yul\":307:311   */\n      0x00\n        /* \"#utility.yul\":345:347   */\n      0x20\n        /* \"#utility.yul\":334:343   */\n      dup3\n        /* \"#utility.yul\":330:348   */\n      add\n        /* \"#utility.yul\":322:348   */\n      swap1\n      pop\n        /* \"#utility.yul\":358:429   */\n      tag_24\n        /* \"#utility.yul\":426:427   */\n      0x00\n        /* \"#utility.yul\":415:424   */\n      dup4\n        /* \"#utility.yul\":411:428   */\n      add\n        /* \"#utility.yul\":402:408   */\n      dup5\n        /* \"#utility.yul\":358:429   */\n      tag_16\n      jump\t// in\n    tag_24:\n        /* \"#utility.yul\":214:436   */\n      swap3\n      swap2\n      pop\n      pop\n      jump\t// out\n        /* \"#utility.yul\":442:521   */\n    tag_17:\n        /* \"#utility.yul\":481:488   */\n      0x00\n        /* \"#utility.yul\":510:515   */\n      dup2\n        /* \"#utility.yul\":499:515   */\n      swap1\n      pop\n        /* \"#utility.yul\":442:521   */\n      swap2\n      swap1\n      pop\n      jump\t// out\n        /* \"#utility.yul\":527:684   */\n    tag_18:\n        /* \"#utility.yul\":632:677   */\n      tag_27\n        /* \"#utility.yul\":652:676   */\n      tag_28\n        /* \"#utility.yul\":670:675   */\n      dup3\n        /* \"#utility.yul\":652:676   */\n      tag_15\n      jump\t// in\n    tag_28:\n        /* \"#utility.yul\":632:677   */\n      tag_17\n      jump\t// in\n    tag_27:\n        /* \"#utility.yul\":627:630   */\n      dup3\n        /* \"#utility.yul\":620:678   */\n      mstore\n        /* \"#utility.yul\":527:684   */\n      pop\n      pop\n      jump\t// out\n        /* \"#utility.yul\":690:946   */\n    tag_14:\n        /* \"#utility.yul\":802:805   */\n      0x00\n        /* \"#utility.yul\":817:892   */\n      tag_30\n        /* \"#utility.yul\":888:891   */\n      dup3\n        /* \"#utility.yul\":879:885   */\n      dup5\n        /* \"#utility.yul\":817:892   */\n      tag_18\n      jump\t// in\n    tag_30:\n        /* \"#utility.yul\":917:919   */\n      0x20\n        /* \"#utility.yul\":912:915   */\n      dup3\n        /* \"#utility.yul\":908:920   */\n      add\n        /* \"#utility.yul\":901:920   */\n      swap2\n      pop\n        /* \"#utility.yul\":937:940   */\n      dup2\n        /* \"#utility.yul\":930:940   */\n      swap1\n      pop\n        /* \"#utility.yul\":690:946   */\n      swap3\n      swap2\n      pop\n      pop\n      jump\t// out\n\n    auxdata: 0xa264697066735822122051b98a4d5af26581b75f562070d469b42c95cc650736aa406dcc02725a228a5664736f6c634300080d0033\n}\n",
				"bytecode": {
					"linkReferences": {},
					"object": "608060405234801561001057600080fd5b50610154806100206000396000f3fe608060405234801561001057600080fd5b50600436106100365760003560e01c80635ec01e4d1461003b57806361e0135614610059575b600080fd5b610043610077565b60405161005091906100c7565b60405180910390f35b6100616100a8565b60405161006e91906100c7565b60405180910390f35b60004260405160200161008a9190610103565b6040516020818303038152906040528051906020012060001c905090565b60005481565b6000819050919050565b6100c1816100ae565b82525050565b60006020820190506100dc60008301846100b8565b92915050565b6000819050919050565b6100fd6100f8826100ae565b6100e2565b82525050565b600061010f82846100ec565b6020820191508190509291505056fea264697066735822122051b98a4d5af26581b75f562070d469b42c95cc650736aa406dcc02725a228a5664736f6c634300080d0033",
					"opcodes": "PUSH1 0x80 PUSH1 0x40 MSTORE CALLVALUE DUP1 ISZERO PUSH2 0x10 JUMPI PUSH1 0x0 DUP1 REVERT JUMPDEST POP PUSH2 0x154 DUP1 PUSH2 0x20 PUSH1 0x0 CODECOPY PUSH1 0x0 RETURN INVALID PUSH1 0x80 PUSH1 0x40 MSTORE CALLVALUE DUP1 ISZERO PUSH2 0x10 JUMPI PUSH1 0x0 DUP1 REVERT JUMPDEST POP PUSH1 0x4 CALLDATASIZE LT PUSH2 0x36 JUMPI PUSH1 0x0 CALLDATALOAD PUSH1 0xE0 SHR DUP1 PUSH4 0x5EC01E4D EQ PUSH2 0x3B JUMPI DUP1 PUSH4 0x61E01356 EQ PUSH2 0x59 JUMPI JUMPDEST PUSH1 0x0 DUP1 REVERT JUMPDEST PUSH2 0x43 PUSH2 0x77 JUMP JUMPDEST PUSH1 0x40 MLOAD PUSH2 0x50 SWAP2 SWAP1 PUSH2 0xC7 JUMP JUMPDEST PUSH1 0x40 MLOAD DUP1 SWAP2 SUB SWAP1 RETURN JUMPDEST PUSH2 0x61 PUSH2 0xA8 JUMP JUMPDEST PUSH1 0x40 MLOAD PUSH2 0x6E SWAP2 SWAP1 PUSH2 0xC7 JUMP JUMPDEST PUSH1 0x40 MLOAD DUP1 SWAP2 SUB SWAP1 RETURN JUMPDEST PUSH1 0x0 TIMESTAMP PUSH1 0x40 MLOAD PUSH1 0x20 ADD PUSH2 0x8A SWAP2 SWAP1 PUSH2 0x103 JUMP JUMPDEST PUSH1 0x40 MLOAD PUSH1 0x20 DUP2 DUP4 SUB SUB DUP2 MSTORE SWAP1 PUSH1 0x40 MSTORE DUP1 MLOAD SWAP1 PUSH1 0x20 ADD KECCAK256 PUSH1 0x0 SHR SWAP1 POP SWAP1 JUMP JUMPDEST PUSH1 0x0 SLOAD DUP2 JUMP JUMPDEST PUSH1 0x0 DUP2 SWAP1 POP SWAP2 SWAP1 POP JUMP JUMPDEST PUSH2 0xC1 DUP2 PUSH2 0xAE JUMP JUMPDEST DUP3 MSTORE POP POP JUMP JUMPDEST PUSH1 0x0 PUSH1 0x20 DUP3 ADD SWAP1 POP PUSH2 0xDC PUSH1 0x0 DUP4 ADD DUP5 PUSH2 0xB8 JUMP JUMPDEST SWAP3 SWAP2 POP POP JUMP JUMPDEST PUSH1 0x0 DUP2 SWAP1 POP SWAP2 SWAP1 POP JUMP JUMPDEST PUSH2 0xFD PUSH2 0xF8 DUP3 PUSH2 0xAE JUMP JUMPDEST PUSH2 0xE2 JUMP JUMPDEST DUP3 MSTORE POP POP JUMP JUMPDEST PUSH1 0x0 PUSH2 0x10F DUP3 DUP5 PUSH2 0xEC JUMP JUMPDEST PUSH1 0x20 DUP3 ADD SWAP2 POP DUP2 SWAP1 POP SWAP3 SWAP2 POP POP JUMP INVALID LOG2 PUSH5 0x6970667358 0x22 SLT KECCAK256 MLOAD 0xB9 DUP11 0x4D GAS CALLCODE PUSH6 0x81B75F562070 0xD4 PUSH10 0xB42C95CC650736AA406D 0xCC MUL PUSH19 0x5A228A5664736F6C634300080D003300000000 "
				},
				"gasEstimates": {
					"creation": {
						"codeDepositCost": "68000",
						"executionCost": "117",
						"totalCost": "68117"
					},
					"external": {
						"randNonce()": "2429",
						"random()": "infinite"
					}
				},
				"methodIdentifiers": {
					"randNonce()": "61e01356",
					"random()": "5ec01e4d"
				}
			},
			"userdoc": {
				"kind": "user",
				"methods": {},
				"version": 1
			}
		}
	}
}