{
	"Libraries2.sol": {
		"woFor": {
			"abi": [
				{
					"inputs": [
						{
							"internalType": "uint256",
							"name": "val",
							"type": "uint256"
						}
					],
					"name": "append",
					"outputs": [],
					"stateMutability": "nonpayable",
					"type": "function"
				},
				{
					"inputs": [
						{
							"internalType": "uint256",
							"name": "",
							"type": "uint256"
						}
					],
					"name": "arr",
					"outputs": [
						{
							"internalType": "uint256",
							"name": "",
							"type": "uint256"
						}
					],
					"stateMutability": "view",
					"type": "function"
				},
				{
					"inputs": [],
					"name": "getArr",
					"outputs": [
						{
							"internalType": "uint256[]",
							"name": "",
							"type": "uint256[]"
						}
					],
					"stateMutability": "view",
					"type": "function"
				},
				{
					"inputs": [
						{
							"internalType": "uint256",
							"name": "_old",
							"type": "uint256"
						},
						{
							"internalType": "uint256",
							"name": "_new",
							"type": "uint256"
						}
					],
					"name": "replace",
					"outputs": [],
					"stateMutability": "nonpayable",
					"type": "function"
				}
			],
			"devdoc": {
				"kind": "dev",
				"methods": {},
				"version": 1
			},
			"evm": {
				"assembly": "    /* \"Libraries2.sol\":281:686  contract woFor{\r... */\n  mstore(0x40, 0x80)\n  callvalue\n  dup1\n  iszero\n  tag_1\n  jumpi\n  0x00\n  dup1\n  revert\ntag_1:\n  pop\n  dataSize(sub_0)\n  dup1\n  dataOffset(sub_0)\n  0x00\n  codecopy\n  0x00\n  return\nstop\n\nsub_0: assembly {\n        /* \"Libraries2.sol\":281:686  contract woFor{\r... */\n      mstore(0x40, 0x80)\n      callvalue\n      dup1\n      iszero\n      tag_1\n      jumpi\n      0x00\n      dup1\n      revert\n    tag_1:\n      pop\n      jumpi(tag_2, lt(calldatasize, 0x04))\n      shr(0xe0, calldataload(0x00))\n      dup1\n      0x71e5ee5f\n      eq\n      tag_3\n      jumpi\n      dup1\n      0xe33b8707\n      eq\n      tag_4\n      jumpi\n      dup1\n      0xe81cf24c\n      eq\n      tag_5\n      jumpi\n      dup1\n      0xfb8cbced\n      eq\n      tag_6\n      jumpi\n    tag_2:\n      0x00\n      dup1\n      revert\n        /* \"Libraries2.sol\":302:319  uint[] public arr */\n    tag_3:\n      tag_7\n      0x04\n      dup1\n      calldatasize\n      sub\n      dup2\n      add\n      swap1\n      tag_8\n      swap2\n      swap1\n      tag_9\n      jump\t// in\n    tag_8:\n      tag_10\n      jump\t// in\n    tag_7:\n      mload(0x40)\n      tag_11\n      swap2\n      swap1\n      tag_12\n      jump\t// in\n    tag_11:\n      mload(0x40)\n      dup1\n      swap2\n      sub\n      swap1\n      return\n        /* \"Libraries2.sol\":328:393  function append(uint val) public {\r... */\n    tag_4:\n      tag_13\n      0x04\n      dup1\n      calldatasize\n      sub\n      dup2\n      add\n      swap1\n      tag_14\n      swap2\n      swap1\n      tag_9\n      jump\t// in\n    tag_14:\n      tag_15\n      jump\t// in\n    tag_13:\n      stop\n        /* \"Libraries2.sol\":401:591  function replace (uint _old, uint _new) public {\r... */\n    tag_5:\n      tag_16\n      0x04\n      dup1\n      calldatasize\n      sub\n      dup2\n      add\n      swap1\n      tag_17\n      swap2\n      swap1\n      tag_18\n      jump\t// in\n    tag_17:\n      tag_19\n      jump\t// in\n    tag_16:\n      stop\n        /* \"Libraries2.sol\":599:683  function getArr () public view returns (uint[] memory) {\r... */\n    tag_6:\n      tag_20\n      tag_21\n      jump\t// in\n    tag_20:\n      mload(0x40)\n      tag_22\n      swap2\n      swap1\n      tag_23\n      jump\t// in\n    tag_22:\n      mload(0x40)\n      dup1\n      swap2\n      sub\n      swap1\n      return\n        /* \"Libraries2.sol\":302:319  uint[] public arr */\n    tag_10:\n      0x00\n      dup2\n      dup2\n      sload\n      dup2\n      lt\n      tag_24\n      jumpi\n      0x00\n      dup1\n      revert\n    tag_24:\n      swap1\n      0x00\n      mstore\n      keccak256(0x00, 0x20)\n      add\n      0x00\n      swap2\n      pop\n      swap1\n      pop\n      sload\n      dup2\n      jump\t// out\n        /* \"Libraries2.sol\":328:393  function append(uint val) public {\r... */\n    tag_15:\n        /* \"Libraries2.sol\":372:375  arr */\n      0x00\n        /* \"Libraries2.sol\":381:384  val */\n      dup2\n        /* \"Libraries2.sol\":372:385  arr.push(val) */\n      swap1\n      dup1\n      0x01\n      dup2\n      sload\n      add\n      dup1\n      dup3\n      sstore\n      dup1\n      swap2\n      pop\n      pop\n      0x01\n      swap1\n      sub\n      swap1\n      0x00\n      mstore\n      keccak256(0x00, 0x20)\n      add\n      0x00\n      swap1\n      swap2\n      swap1\n      swap2\n      swap1\n      swap2\n      pop\n      sstore\n        /* \"Libraries2.sol\":328:393  function append(uint val) public {\r... */\n      pop\n      jump\t// out\n        /* \"Libraries2.sol\":401:591  function replace (uint _old, uint _new) public {\r... */\n    tag_19:\n        /* \"Libraries2.sol\":459:469  uint index */\n      0x00\n        /* \"Libraries2.sol\":472:478  Search */\n      linkerSymbol(\"f53ff5401bba9d0133b3dfab23320e97ed90efbab10920c410148b219f9502a3\")\n        /* \"Libraries2.sol\":472:486  Search.indexOf */\n      0x24fef5c8\n        /* \"Libraries2.sol\":487:490  arr */\n      0x00\n        /* \"Libraries2.sol\":492:496  _old */\n      dup6\n        /* \"Libraries2.sol\":472:497  Search.indexOf(arr, _old) */\n      mload(0x40)\n      dup4\n      0xffffffff\n      and\n      0xe0\n      shl\n      dup2\n      mstore\n      0x04\n      add\n      tag_29\n      swap3\n      swap2\n      swap1\n      tag_30\n      jump\t// in\n    tag_29:\n      0x20\n      mload(0x40)\n      dup1\n      dup4\n      sub\n      dup2\n      dup7\n      dup1\n      extcodesize\n      iszero\n      dup1\n      iszero\n      tag_31\n      jumpi\n      0x00\n      dup1\n      revert\n    tag_31:\n      pop\n      gas\n      delegatecall\n      iszero\n      dup1\n      iszero\n      tag_33\n      jumpi\n      returndatasize\n      0x00\n      dup1\n      returndatacopy\n      revert(0x00, returndatasize)\n    tag_33:\n      pop\n      pop\n      pop\n      pop\n      mload(0x40)\n      returndatasize\n      not(0x1f)\n      0x1f\n      dup3\n      add\n      and\n      dup3\n      add\n      dup1\n      0x40\n      mstore\n      pop\n      dup2\n      add\n      swap1\n      tag_34\n      swap2\n      swap1\n      tag_35\n      jump\t// in\n    tag_34:\n        /* \"Libraries2.sol\":459:497  uint index = Search.indexOf(arr, _old) */\n      swap1\n      pop\n        /* \"Libraries2.sol\":530:532  -1 */\n      0xffffffffffffffffffffffffffffffffffffffffffffffffffffffffffffffff\n        /* \"Libraries2.sol\":512:517  index */\n      dup2\n        /* \"Libraries2.sol\":512:534  index == uint(int(-1)) */\n      eq\n        /* \"Libraries2.sol\":508:583  if (index == uint(int(-1))) arr.push(_new);\r... */\n      iszero\n      tag_36\n      jumpi\n        /* \"Libraries2.sol\":536:539  arr */\n      0x00\n        /* \"Libraries2.sol\":545:549  _new */\n      dup3\n        /* \"Libraries2.sol\":536:550  arr.push(_new) */\n      swap1\n      dup1\n      0x01\n      dup2\n      sload\n      add\n      dup1\n      dup3\n      sstore\n      dup1\n      swap2\n      pop\n      pop\n      0x01\n      swap1\n      sub\n      swap1\n      0x00\n      mstore\n      keccak256(0x00, 0x20)\n      add\n      0x00\n      swap1\n      swap2\n      swap1\n      swap2\n      swap1\n      swap2\n      pop\n      sstore\n        /* \"Libraries2.sol\":508:583  if (index == uint(int(-1))) arr.push(_new);\r... */\n      jump(tag_38)\n    tag_36:\n        /* \"Libraries2.sol\":579:583  _new */\n      dup2\n        /* \"Libraries2.sol\":566:569  arr */\n      0x00\n        /* \"Libraries2.sol\":570:575  index */\n      dup3\n        /* \"Libraries2.sol\":566:576  arr[index] */\n      dup2\n      sload\n      dup2\n      lt\n      tag_39\n      jumpi\n      tag_40\n      tag_41\n      jump\t// in\n    tag_40:\n    tag_39:\n      swap1\n      0x00\n      mstore\n      keccak256(0x00, 0x20)\n      add\n        /* \"Libraries2.sol\":566:583  arr[index] = _new */\n      dup2\n      swap1\n      sstore\n      pop\n        /* \"Libraries2.sol\":508:583  if (index == uint(int(-1))) arr.push(_new);\r... */\n    tag_38:\n        /* \"Libraries2.sol\":448:591  {\r... */\n      pop\n        /* \"Libraries2.sol\":401:591  function replace (uint _old, uint _new) public {\r... */\n      pop\n      pop\n      jump\t// out\n        /* \"Libraries2.sol\":599:683  function getArr () public view returns (uint[] memory) {\r... */\n    tag_21:\n        /* \"Libraries2.sol\":639:652  uint[] memory */\n      0x60\n        /* \"Libraries2.sol\":672:675  arr */\n      0x00\n        /* \"Libraries2.sol\":665:675  return arr */\n      dup1\n      sload\n      dup1\n      0x20\n      mul\n      0x20\n      add\n      mload(0x40)\n      swap1\n      dup2\n      add\n      0x40\n      mstore\n      dup1\n      swap3\n      swap2\n      swap1\n      dup2\n      dup2\n      mstore\n      0x20\n      add\n      dup3\n      dup1\n      sload\n      dup1\n      iszero\n      tag_44\n      jumpi\n      0x20\n      mul\n      dup3\n      add\n      swap2\n      swap1\n      0x00\n      mstore\n      keccak256(0x00, 0x20)\n      swap1\n    tag_45:\n      dup2\n      sload\n      dup2\n      mstore\n      0x20\n      add\n      swap1\n      0x01\n      add\n      swap1\n      dup1\n      dup4\n      gt\n      tag_45\n      jumpi\n    tag_44:\n      pop\n      pop\n      pop\n      pop\n      pop\n      swap1\n      pop\n        /* \"Libraries2.sol\":599:683  function getArr () public view returns (uint[] memory) {\r... */\n      swap1\n      jump\t// out\n        /* \"#utility.yul\":7:146   */\n    tag_47:\n        /* \"#utility.yul\":53:58   */\n      0x00\n        /* \"#utility.yul\":91:97   */\n      dup2\n        /* \"#utility.yul\":78:98   */\n      calldataload\n        /* \"#utility.yul\":69:98   */\n      swap1\n      pop\n        /* \"#utility.yul\":107:140   */\n      tag_49\n        /* \"#utility.yul\":134:139   */\n      dup2\n        /* \"#utility.yul\":107:140   */\n      tag_50\n      jump\t// in\n    tag_49:\n        /* \"#utility.yul\":7:146   */\n      swap3\n      swap2\n      pop\n      pop\n      jump\t// out\n        /* \"#utility.yul\":152:295   */\n    tag_51:\n        /* \"#utility.yul\":209:214   */\n      0x00\n        /* \"#utility.yul\":240:246   */\n      dup2\n        /* \"#utility.yul\":234:247   */\n      mload\n        /* \"#utility.yul\":225:247   */\n      swap1\n      pop\n        /* \"#utility.yul\":256:289   */\n      tag_53\n        /* \"#utility.yul\":283:288   */\n      dup2\n        /* \"#utility.yul\":256:289   */\n      tag_50\n      jump\t// in\n    tag_53:\n        /* \"#utility.yul\":152:295   */\n      swap3\n      swap2\n      pop\n      pop\n      jump\t// out\n        /* \"#utility.yul\":301:630   */\n    tag_9:\n        /* \"#utility.yul\":360:366   */\n      0x00\n        /* \"#utility.yul\":409:411   */\n      0x20\n        /* \"#utility.yul\":397:406   */\n      dup3\n        /* \"#utility.yul\":388:395   */\n      dup5\n        /* \"#utility.yul\":384:407   */\n      sub\n        /* \"#utility.yul\":380:412   */\n      slt\n        /* \"#utility.yul\":377:496   */\n      iszero\n      tag_55\n      jumpi\n        /* \"#utility.yul\":415:494   */\n      tag_56\n      tag_57\n      jump\t// in\n    tag_56:\n        /* \"#utility.yul\":377:496   */\n    tag_55:\n        /* \"#utility.yul\":535:536   */\n      0x00\n        /* \"#utility.yul\":560:613   */\n      tag_58\n        /* \"#utility.yul\":605:612   */\n      dup5\n        /* \"#utility.yul\":596:602   */\n      dup3\n        /* \"#utility.yul\":585:594   */\n      dup6\n        /* \"#utility.yul\":581:603   */\n      add\n        /* \"#utility.yul\":560:613   */\n      tag_47\n      jump\t// in\n    tag_58:\n        /* \"#utility.yul\":550:613   */\n      swap2\n      pop\n        /* \"#utility.yul\":506:623   */\n      pop\n        /* \"#utility.yul\":301:630   */\n      swap3\n      swap2\n      pop\n      pop\n      jump\t// out\n        /* \"#utility.yul\":636:987   */\n    tag_35:\n        /* \"#utility.yul\":706:712   */\n      0x00\n        /* \"#utility.yul\":755:757   */\n      0x20\n        /* \"#utility.yul\":743:752   */\n      dup3\n        /* \"#utility.yul\":734:741   */\n      dup5\n        /* \"#utility.yul\":730:753   */\n      sub\n        /* \"#utility.yul\":726:758   */\n      slt\n        /* \"#utility.yul\":723:842   */\n      iszero\n      tag_60\n      jumpi\n        /* \"#utility.yul\":761:840   */\n      tag_61\n      tag_57\n      jump\t// in\n    tag_61:\n        /* \"#utility.yul\":723:842   */\n    tag_60:\n        /* \"#utility.yul\":881:882   */\n      0x00\n        /* \"#utility.yul\":906:970   */\n      tag_62\n        /* \"#utility.yul\":962:969   */\n      dup5\n        /* \"#utility.yul\":953:959   */\n      dup3\n        /* \"#utility.yul\":942:951   */\n      dup6\n        /* \"#utility.yul\":938:960   */\n      add\n        /* \"#utility.yul\":906:970   */\n      tag_51\n      jump\t// in\n    tag_62:\n        /* \"#utility.yul\":896:970   */\n      swap2\n      pop\n        /* \"#utility.yul\":852:980   */\n      pop\n        /* \"#utility.yul\":636:987   */\n      swap3\n      swap2\n      pop\n      pop\n      jump\t// out\n        /* \"#utility.yul\":993:1467   */\n    tag_18:\n        /* \"#utility.yul\":1061:1067   */\n      0x00\n        /* \"#utility.yul\":1069:1075   */\n      dup1\n        /* \"#utility.yul\":1118:1120   */\n      0x40\n        /* \"#utility.yul\":1106:1115   */\n      dup4\n        /* \"#utility.yul\":1097:1104   */\n      dup6\n        /* \"#utility.yul\":1093:1116   */\n      sub\n        /* \"#utility.yul\":1089:1121   */\n      slt\n        /* \"#utility.yul\":1086:1205   */\n      iszero\n      tag_64\n      jumpi\n        /* \"#utility.yul\":1124:1203   */\n      tag_65\n      tag_57\n      jump\t// in\n    tag_65:\n        /* \"#utility.yul\":1086:1205   */\n    tag_64:\n        /* \"#utility.yul\":1244:1245   */\n      0x00\n        /* \"#utility.yul\":1269:1322   */\n      tag_66\n        /* \"#utility.yul\":1314:1321   */\n      dup6\n        /* \"#utility.yul\":1305:1311   */\n      dup3\n        /* \"#utility.yul\":1294:1303   */\n      dup7\n        /* \"#utility.yul\":1290:1312   */\n      add\n        /* \"#utility.yul\":1269:1322   */\n      tag_47\n      jump\t// in\n    tag_66:\n        /* \"#utility.yul\":1259:1322   */\n      swap3\n      pop\n        /* \"#utility.yul\":1215:1332   */\n      pop\n        /* \"#utility.yul\":1371:1373   */\n      0x20\n        /* \"#utility.yul\":1397:1450   */\n      tag_67\n        /* \"#utility.yul\":1442:1449   */\n      dup6\n        /* \"#utility.yul\":1433:1439   */\n      dup3\n        /* \"#utility.yul\":1422:1431   */\n      dup7\n        /* \"#utility.yul\":1418:1440   */\n      add\n        /* \"#utility.yul\":1397:1450   */\n      tag_47\n      jump\t// in\n    tag_67:\n        /* \"#utility.yul\":1387:1450   */\n      swap2\n      pop\n        /* \"#utility.yul\":1342:1460   */\n      pop\n        /* \"#utility.yul\":993:1467   */\n      swap3\n      pop\n      swap3\n      swap1\n      pop\n      jump\t// out\n        /* \"#utility.yul\":1473:1652   */\n    tag_68:\n        /* \"#utility.yul\":1542:1552   */\n      0x00\n        /* \"#utility.yul\":1563:1609   */\n      tag_70\n        /* \"#utility.yul\":1605:1608   */\n      dup4\n        /* \"#utility.yul\":1597:1603   */\n      dup4\n        /* \"#utility.yul\":1563:1609   */\n      tag_71\n      jump\t// in\n    tag_70:\n        /* \"#utility.yul\":1641:1645   */\n      0x20\n        /* \"#utility.yul\":1636:1639   */\n      dup4\n        /* \"#utility.yul\":1632:1646   */\n      add\n        /* \"#utility.yul\":1618:1646   */\n      swap1\n      pop\n        /* \"#utility.yul\":1473:1652   */\n      swap3\n      swap2\n      pop\n      pop\n      jump\t// out\n        /* \"#utility.yul\":1688:2420   */\n    tag_72:\n        /* \"#utility.yul\":1807:1810   */\n      0x00\n        /* \"#utility.yul\":1836:1890   */\n      tag_74\n        /* \"#utility.yul\":1884:1889   */\n      dup3\n        /* \"#utility.yul\":1836:1890   */\n      tag_75\n      jump\t// in\n    tag_74:\n        /* \"#utility.yul\":1906:1992   */\n      tag_76\n        /* \"#utility.yul\":1985:1991   */\n      dup2\n        /* \"#utility.yul\":1980:1983   */\n      dup6\n        /* \"#utility.yul\":1906:1992   */\n      tag_77\n      jump\t// in\n    tag_76:\n        /* \"#utility.yul\":1899:1992   */\n      swap4\n      pop\n        /* \"#utility.yul\":2016:2072   */\n      tag_78\n        /* \"#utility.yul\":2066:2071   */\n      dup4\n        /* \"#utility.yul\":2016:2072   */\n      tag_79\n      jump\t// in\n    tag_78:\n        /* \"#utility.yul\":2095:2102   */\n      dup1\n        /* \"#utility.yul\":2126:2127   */\n      0x00\n        /* \"#utility.yul\":2111:2395   */\n    tag_80:\n        /* \"#utility.yul\":2136:2142   */\n      dup4\n        /* \"#utility.yul\":2133:2134   */\n      dup2\n        /* \"#utility.yul\":2130:2143   */\n      lt\n        /* \"#utility.yul\":2111:2395   */\n      iszero\n      tag_82\n      jumpi\n        /* \"#utility.yul\":2212:2218   */\n      dup2\n        /* \"#utility.yul\":2206:2219   */\n      mload\n        /* \"#utility.yul\":2239:2302   */\n      tag_83\n        /* \"#utility.yul\":2298:2301   */\n      dup9\n        /* \"#utility.yul\":2283:2296   */\n      dup3\n        /* \"#utility.yul\":2239:2302   */\n      tag_68\n      jump\t// in\n    tag_83:\n        /* \"#utility.yul\":2232:2302   */\n      swap8\n      pop\n        /* \"#utility.yul\":2325:2385   */\n      tag_84\n        /* \"#utility.yul\":2378:2384   */\n      dup4\n        /* \"#utility.yul\":2325:2385   */\n      tag_85\n      jump\t// in\n    tag_84:\n        /* \"#utility.yul\":2315:2385   */\n      swap3\n      pop\n        /* \"#utility.yul\":2171:2395   */\n      pop\n        /* \"#utility.yul\":2158:2159   */\n      0x01\n        /* \"#utility.yul\":2155:2156   */\n      dup2\n        /* \"#utility.yul\":2151:2160   */\n      add\n        /* \"#utility.yul\":2146:2160   */\n      swap1\n      pop\n        /* \"#utility.yul\":2111:2395   */\n      jump(tag_80)\n    tag_82:\n        /* \"#utility.yul\":2115:2129   */\n      pop\n        /* \"#utility.yul\":2411:2414   */\n      dup6\n        /* \"#utility.yul\":2404:2414   */\n      swap4\n      pop\n        /* \"#utility.yul\":1812:2420   */\n      pop\n      pop\n      pop\n        /* \"#utility.yul\":1688:2420   */\n      swap3\n      swap2\n      pop\n      pop\n      jump\t// out\n        /* \"#utility.yul\":2426:2555   */\n    tag_86:\n        /* \"#utility.yul\":2543:2548   */\n      dup1\n        /* \"#utility.yul\":2538:2541   */\n      dup3\n        /* \"#utility.yul\":2531:2549   */\n      mstore\n        /* \"#utility.yul\":2426:2555   */\n      pop\n      pop\n      jump\t// out\n        /* \"#utility.yul\":2561:2669   */\n    tag_71:\n        /* \"#utility.yul\":2638:2662   */\n      tag_89\n        /* \"#utility.yul\":2656:2661   */\n      dup2\n        /* \"#utility.yul\":2638:2662   */\n      tag_90\n      jump\t// in\n    tag_89:\n        /* \"#utility.yul\":2633:2636   */\n      dup3\n        /* \"#utility.yul\":2626:2663   */\n      mstore\n        /* \"#utility.yul\":2561:2669   */\n      pop\n      pop\n      jump\t// out\n        /* \"#utility.yul\":2675:2793   */\n    tag_91:\n        /* \"#utility.yul\":2762:2786   */\n      tag_93\n        /* \"#utility.yul\":2780:2785   */\n      dup2\n        /* \"#utility.yul\":2762:2786   */\n      tag_90\n      jump\t// in\n    tag_93:\n        /* \"#utility.yul\":2757:2760   */\n      dup3\n        /* \"#utility.yul\":2750:2787   */\n      mstore\n        /* \"#utility.yul\":2675:2793   */\n      pop\n      pop\n      jump\t// out\n        /* \"#utility.yul\":2799:2925   */\n    tag_94:\n        /* \"#utility.yul\":2894:2918   */\n      tag_96\n        /* \"#utility.yul\":2912:2917   */\n      dup2\n        /* \"#utility.yul\":2894:2918   */\n      tag_90\n      jump\t// in\n    tag_96:\n        /* \"#utility.yul\":2889:2892   */\n      dup3\n        /* \"#utility.yul\":2882:2919   */\n      mstore\n        /* \"#utility.yul\":2799:2925   */\n      pop\n      pop\n      jump\t// out\n        /* \"#utility.yul\":2931:3304   */\n    tag_23:\n        /* \"#utility.yul\":3074:3078   */\n      0x00\n        /* \"#utility.yul\":3112:3114   */\n      0x20\n        /* \"#utility.yul\":3101:3110   */\n      dup3\n        /* \"#utility.yul\":3097:3115   */\n      add\n        /* \"#utility.yul\":3089:3115   */\n      swap1\n      pop\n        /* \"#utility.yul\":3161:3170   */\n      dup2\n        /* \"#utility.yul\":3155:3159   */\n      dup2\n        /* \"#utility.yul\":3151:3171   */\n      sub\n        /* \"#utility.yul\":3147:3148   */\n      0x00\n        /* \"#utility.yul\":3136:3145   */\n      dup4\n        /* \"#utility.yul\":3132:3149   */\n      add\n        /* \"#utility.yul\":3125:3172   */\n      mstore\n        /* \"#utility.yul\":3189:3297   */\n      tag_98\n        /* \"#utility.yul\":3292:3296   */\n      dup2\n        /* \"#utility.yul\":3283:3289   */\n      dup5\n        /* \"#utility.yul\":3189:3297   */\n      tag_72\n      jump\t// in\n    tag_98:\n        /* \"#utility.yul\":3181:3297   */\n      swap1\n      pop\n        /* \"#utility.yul\":2931:3304   */\n      swap3\n      swap2\n      pop\n      pop\n      jump\t// out\n        /* \"#utility.yul\":3310:3710   */\n    tag_30:\n        /* \"#utility.yul\":3461:3465   */\n      0x00\n        /* \"#utility.yul\":3499:3501   */\n      0x40\n        /* \"#utility.yul\":3488:3497   */\n      dup3\n        /* \"#utility.yul\":3484:3502   */\n      add\n        /* \"#utility.yul\":3476:3502   */\n      swap1\n      pop\n        /* \"#utility.yul\":3512:3613   */\n      tag_100\n        /* \"#utility.yul\":3610:3611   */\n      0x00\n        /* \"#utility.yul\":3599:3608   */\n      dup4\n        /* \"#utility.yul\":3595:3612   */\n      add\n        /* \"#utility.yul\":3586:3592   */\n      dup6\n        /* \"#utility.yul\":3512:3613   */\n      tag_86\n      jump\t// in\n    tag_100:\n        /* \"#utility.yul\":3623:3703   */\n      tag_101\n        /* \"#utility.yul\":3699:3701   */\n      0x20\n        /* \"#utility.yul\":3688:3697   */\n      dup4\n        /* \"#utility.yul\":3684:3702   */\n      add\n        /* \"#utility.yul\":3675:3681   */\n      dup5\n        /* \"#utility.yul\":3623:3703   */\n      tag_94\n      jump\t// in\n    tag_101:\n        /* \"#utility.yul\":3310:3710   */\n      swap4\n      swap3\n      pop\n      pop\n      pop\n      jump\t// out\n        /* \"#utility.yul\":3716:3938   */\n    tag_12:\n        /* \"#utility.yul\":3809:3813   */\n      0x00\n        /* \"#utility.yul\":3847:3849   */\n      0x20\n        /* \"#utility.yul\":3836:3845   */\n      dup3\n        /* \"#utility.yul\":3832:3850   */\n      add\n        /* \"#utility.yul\":3824:3850   */\n      swap1\n      pop\n        /* \"#utility.yul\":3860:3931   */\n      tag_103\n        /* \"#utility.yul\":3928:3929   */\n      0x00\n        /* \"#utility.yul\":3917:3926   */\n      dup4\n        /* \"#utility.yul\":3913:3930   */\n      add\n        /* \"#utility.yul\":3904:3910   */\n      dup5\n        /* \"#utility.yul\":3860:3931   */\n      tag_91\n      jump\t// in\n    tag_103:\n        /* \"#utility.yul\":3716:3938   */\n      swap3\n      swap2\n      pop\n      pop\n      jump\t// out\n        /* \"#utility.yul\":4025:4157   */\n    tag_79:\n        /* \"#utility.yul\":4092:4096   */\n      0x00\n        /* \"#utility.yul\":4115:4118   */\n      dup2\n        /* \"#utility.yul\":4107:4118   */\n      swap1\n      pop\n        /* \"#utility.yul\":4145:4149   */\n      0x20\n        /* \"#utility.yul\":4140:4143   */\n      dup3\n        /* \"#utility.yul\":4136:4150   */\n      add\n        /* \"#utility.yul\":4128:4150   */\n      swap1\n      pop\n        /* \"#utility.yul\":4025:4157   */\n      swap2\n      swap1\n      pop\n      jump\t// out\n        /* \"#utility.yul\":4163:4277   */\n    tag_75:\n        /* \"#utility.yul\":4230:4236   */\n      0x00\n        /* \"#utility.yul\":4264:4269   */\n      dup2\n        /* \"#utility.yul\":4258:4270   */\n      mload\n        /* \"#utility.yul\":4248:4270   */\n      swap1\n      pop\n        /* \"#utility.yul\":4163:4277   */\n      swap2\n      swap1\n      pop\n      jump\t// out\n        /* \"#utility.yul\":4283:4396   */\n    tag_85:\n        /* \"#utility.yul\":4353:4357   */\n      0x00\n        /* \"#utility.yul\":4385:4389   */\n      0x20\n        /* \"#utility.yul\":4380:4383   */\n      dup3\n        /* \"#utility.yul\":4376:4390   */\n      add\n        /* \"#utility.yul\":4368:4390   */\n      swap1\n      pop\n        /* \"#utility.yul\":4283:4396   */\n      swap2\n      swap1\n      pop\n      jump\t// out\n        /* \"#utility.yul\":4402:4586   */\n    tag_77:\n        /* \"#utility.yul\":4501:4512   */\n      0x00\n        /* \"#utility.yul\":4535:4541   */\n      dup3\n        /* \"#utility.yul\":4530:4533   */\n      dup3\n        /* \"#utility.yul\":4523:4542   */\n      mstore\n        /* \"#utility.yul\":4575:4579   */\n      0x20\n        /* \"#utility.yul\":4570:4573   */\n      dup3\n        /* \"#utility.yul\":4566:4580   */\n      add\n        /* \"#utility.yul\":4551:4580   */\n      swap1\n      pop\n        /* \"#utility.yul\":4402:4586   */\n      swap3\n      swap2\n      pop\n      pop\n      jump\t// out\n        /* \"#utility.yul\":4592:4669   */\n    tag_90:\n        /* \"#utility.yul\":4629:4636   */\n      0x00\n        /* \"#utility.yul\":4658:4663   */\n      dup2\n        /* \"#utility.yul\":4647:4663   */\n      swap1\n      pop\n        /* \"#utility.yul\":4592:4669   */\n      swap2\n      swap1\n      pop\n      jump\t// out\n        /* \"#utility.yul\":4675:4855   */\n    tag_41:\n        /* \"#utility.yul\":4723:4800   */\n      0x4e487b7100000000000000000000000000000000000000000000000000000000\n        /* \"#utility.yul\":4720:4721   */\n      0x00\n        /* \"#utility.yul\":4713:4801   */\n      mstore\n        /* \"#utility.yul\":4820:4824   */\n      0x32\n        /* \"#utility.yul\":4817:4818   */\n      0x04\n        /* \"#utility.yul\":4810:4825   */\n      mstore\n        /* \"#utility.yul\":4844:4848   */\n      0x24\n        /* \"#utility.yul\":4841:4842   */\n      0x00\n        /* \"#utility.yul\":4834:4849   */\n      revert\n        /* \"#utility.yul\":4984:5101   */\n    tag_57:\n        /* \"#utility.yul\":5093:5094   */\n      0x00\n        /* \"#utility.yul\":5090:5091   */\n      dup1\n        /* \"#utility.yul\":5083:5095   */\n      revert\n        /* \"#utility.yul\":5107:5229   */\n    tag_50:\n        /* \"#utility.yul\":5180:5204   */\n      tag_116\n        /* \"#utility.yul\":5198:5203   */\n      dup2\n        /* \"#utility.yul\":5180:5204   */\n      tag_90\n      jump\t// in\n    tag_116:\n        /* \"#utility.yul\":5173:5178   */\n      dup2\n        /* \"#utility.yul\":5170:5205   */\n      eq\n        /* \"#utility.yul\":5160:5223   */\n      tag_117\n      jumpi\n        /* \"#utility.yul\":5219:5220   */\n      0x00\n        /* \"#utility.yul\":5216:5217   */\n      dup1\n        /* \"#utility.yul\":5209:5221   */\n      revert\n        /* \"#utility.yul\":5160:5223   */\n    tag_117:\n        /* \"#utility.yul\":5107:5229   */\n      pop\n      jump\t// out\n\n    auxdata: 0xa264697066735822122041c5c5b96bba772130a9d1fdd46fcf30e0470f6e02930a0968424ed9e169437e64736f6c63430008070033\n}\n",
				"bytecode": {
					"linkReferences": {
						"Libraries2.sol": {
							"Search": [
								{
									"length": 20,
									"start": 331
								}
							]
						}
					},
					"object": "608060405234801561001057600080fd5b50610524806100206000396000f3fe608060405234801561001057600080fd5b506004361061004c5760003560e01c806371e5ee5f14610051578063e33b870714610081578063e81cf24c1461009d578063fb8cbced146100b9575b600080fd5b61006b600480360381019061006691906102b6565b6100d7565b6040516100789190610445565b60405180910390f35b61009b600480360381019061009691906102b6565b6100fb565b005b6100b760048036038101906100b29190610310565b610127565b005b6100c1610234565b6040516100ce91906103fa565b60405180910390f35b600081815481106100e757600080fd5b906000526020600020016000915090505481565b600081908060018154018082558091505060019003906000526020600020016000909190919091505550565b600073__$f53ff5401bba9d0133b3dfab23320e97ed$__6324fef5c86000856040518363ffffffff1660e01b815260040161016392919061041c565b60206040518083038186803b15801561017b57600080fd5b505af415801561018f573d6000803e3d6000fd5b505050506040513d601f19601f820116820180604052508101906101b391906102e3565b90507fffffffffffffffffffffffffffffffffffffffffffffffffffffffffffffffff81141561020b57600082908060018154018082558091505060019003906000526020600020016000909190919091505561022f565b81600082815481106102205761021f6104a3565b5b90600052602060002001819055505b505050565b6060600080548060200260200160405190810160405280929190818152602001828054801561028257602002820191906000526020600020905b81548152602001906001019080831161026e575b5050505050905090565b60008135905061029b816104d7565b92915050565b6000815190506102b0816104d7565b92915050565b6000602082840312156102cc576102cb6104d2565b5b60006102da8482850161028c565b91505092915050565b6000602082840312156102f9576102f86104d2565b5b6000610307848285016102a1565b91505092915050565b60008060408385031215610327576103266104d2565b5b60006103358582860161028c565b92505060206103468582860161028c565b9150509250929050565b600061035c83836103cd565b60208301905092915050565b600061037382610470565b61037d8185610488565b935061038883610460565b8060005b838110156103b95781516103a08882610350565b97506103ab8361047b565b92505060018101905061038c565b5085935050505092915050565b8082525050565b6103d681610499565b82525050565b6103e581610499565b82525050565b6103f481610499565b82525050565b600060208201905081810360008301526104148184610368565b905092915050565b600060408201905061043160008301856103c6565b61043e60208301846103eb565b9392505050565b600060208201905061045a60008301846103dc565b92915050565b6000819050602082019050919050565b600081519050919050565b6000602082019050919050565b600082825260208201905092915050565b6000819050919050565b7f4e487b7100000000000000000000000000000000000000000000000000000000600052603260045260246000fd5b600080fd5b6104e081610499565b81146104eb57600080fd5b5056fea264697066735822122041c5c5b96bba772130a9d1fdd46fcf30e0470f6e02930a0968424ed9e169437e64736f6c63430008070033",
					"opcodes": "PUSH1 0x80 PUSH1 0x40 MSTORE CALLVALUE DUP1 ISZERO PUSH2 0x10 JUMPI PUSH1 0x0 DUP1 REVERT JUMPDEST POP PUSH2 0x524 DUP1 PUSH2 0x20 PUSH1 0x0 CODECOPY PUSH1 0x0 RETURN INVALID PUSH1 0x80 PUSH1 0x40 MSTORE CALLVALUE DUP1 ISZERO PUSH2 0x10 JUMPI PUSH1 0x0 DUP1 REVERT JUMPDEST POP PUSH1 0x4 CALLDATASIZE LT PUSH2 0x4C JUMPI PUSH1 0x0 CALLDATALOAD PUSH1 0xE0 SHR DUP1 PUSH4 0x71E5EE5F EQ PUSH2 0x51 JUMPI DUP1 PUSH4 0xE33B8707 EQ PUSH2 0x81 JUMPI DUP1 PUSH4 0xE81CF24C EQ PUSH2 0x9D JUMPI DUP1 PUSH4 0xFB8CBCED EQ PUSH2 0xB9 JUMPI JUMPDEST PUSH1 0x0 DUP1 REVERT JUMPDEST PUSH2 0x6B PUSH1 0x4 DUP1 CALLDATASIZE SUB DUP2 ADD SWAP1 PUSH2 0x66 SWAP2 SWAP1 PUSH2 0x2B6 JUMP JUMPDEST PUSH2 0xD7 JUMP JUMPDEST PUSH1 0x40 MLOAD PUSH2 0x78 SWAP2 SWAP1 PUSH2 0x445 JUMP JUMPDEST PUSH1 0x40 MLOAD DUP1 SWAP2 SUB SWAP1 RETURN JUMPDEST PUSH2 0x9B PUSH1 0x4 DUP1 CALLDATASIZE SUB DUP2 ADD SWAP1 PUSH2 0x96 SWAP2 SWAP1 PUSH2 0x2B6 JUMP JUMPDEST PUSH2 0xFB JUMP JUMPDEST STOP JUMPDEST PUSH2 0xB7 PUSH1 0x4 DUP1 CALLDATASIZE SUB DUP2 ADD SWAP1 PUSH2 0xB2 SWAP2 SWAP1 PUSH2 0x310 JUMP JUMPDEST PUSH2 0x127 JUMP JUMPDEST STOP JUMPDEST PUSH2 0xC1 PUSH2 0x234 JUMP JUMPDEST PUSH1 0x40 MLOAD PUSH2 0xCE SWAP2 SWAP1 PUSH2 0x3FA JUMP JUMPDEST PUSH1 0x40 MLOAD DUP1 SWAP2 SUB SWAP1 RETURN JUMPDEST PUSH1 0x0 DUP2 DUP2 SLOAD DUP2 LT PUSH2 0xE7 JUMPI PUSH1 0x0 DUP1 REVERT JUMPDEST SWAP1 PUSH1 0x0 MSTORE PUSH1 0x20 PUSH1 0x0 KECCAK256 ADD PUSH1 0x0 SWAP2 POP SWAP1 POP SLOAD DUP2 JUMP JUMPDEST PUSH1 0x0 DUP2 SWAP1 DUP1 PUSH1 0x1 DUP2 SLOAD ADD DUP1 DUP3 SSTORE DUP1 SWAP2 POP POP PUSH1 0x1 SWAP1 SUB SWAP1 PUSH1 0x0 MSTORE PUSH1 0x20 PUSH1 0x0 KECCAK256 ADD PUSH1 0x0 SWAP1 SWAP2 SWAP1 SWAP2 SWAP1 SWAP2 POP SSTORE POP JUMP JUMPDEST PUSH1 0x0 PUSH20 0x0 PUSH4 0x24FEF5C8 PUSH1 0x0 DUP6 PUSH1 0x40 MLOAD DUP4 PUSH4 0xFFFFFFFF AND PUSH1 0xE0 SHL DUP2 MSTORE PUSH1 0x4 ADD PUSH2 0x163 SWAP3 SWAP2 SWAP1 PUSH2 0x41C JUMP JUMPDEST PUSH1 0x20 PUSH1 0x40 MLOAD DUP1 DUP4 SUB DUP2 DUP7 DUP1 EXTCODESIZE ISZERO DUP1 ISZERO PUSH2 0x17B JUMPI PUSH1 0x0 DUP1 REVERT JUMPDEST POP GAS DELEGATECALL ISZERO DUP1 ISZERO PUSH2 0x18F JUMPI RETURNDATASIZE PUSH1 0x0 DUP1 RETURNDATACOPY RETURNDATASIZE PUSH1 0x0 REVERT JUMPDEST POP POP POP POP PUSH1 0x40 MLOAD RETURNDATASIZE PUSH1 0x1F NOT PUSH1 0x1F DUP3 ADD AND DUP3 ADD DUP1 PUSH1 0x40 MSTORE POP DUP2 ADD SWAP1 PUSH2 0x1B3 SWAP2 SWAP1 PUSH2 0x2E3 JUMP JUMPDEST SWAP1 POP PUSH32 0xFFFFFFFFFFFFFFFFFFFFFFFFFFFFFFFFFFFFFFFFFFFFFFFFFFFFFFFFFFFFFFFF DUP2 EQ ISZERO PUSH2 0x20B JUMPI PUSH1 0x0 DUP3 SWAP1 DUP1 PUSH1 0x1 DUP2 SLOAD ADD DUP1 DUP3 SSTORE DUP1 SWAP2 POP POP PUSH1 0x1 SWAP1 SUB SWAP1 PUSH1 0x0 MSTORE PUSH1 0x20 PUSH1 0x0 KECCAK256 ADD PUSH1 0x0 SWAP1 SWAP2 SWAP1 SWAP2 SWAP1 SWAP2 POP SSTORE PUSH2 0x22F JUMP JUMPDEST DUP2 PUSH1 0x0 DUP3 DUP2 SLOAD DUP2 LT PUSH2 0x220 JUMPI PUSH2 0x21F PUSH2 0x4A3 JUMP JUMPDEST JUMPDEST SWAP1 PUSH1 0x0 MSTORE PUSH1 0x20 PUSH1 0x0 KECCAK256 ADD DUP2 SWAP1 SSTORE POP JUMPDEST POP POP POP JUMP JUMPDEST PUSH1 0x60 PUSH1 0x0 DUP1 SLOAD DUP1 PUSH1 0x20 MUL PUSH1 0x20 ADD PUSH1 0x40 MLOAD SWAP1 DUP2 ADD PUSH1 0x40 MSTORE DUP1 SWAP3 SWAP2 SWAP1 DUP2 DUP2 MSTORE PUSH1 0x20 ADD DUP3 DUP1 SLOAD DUP1 ISZERO PUSH2 0x282 JUMPI PUSH1 0x20 MUL DUP3 ADD SWAP2 SWAP1 PUSH1 0x0 MSTORE PUSH1 0x20 PUSH1 0x0 KECCAK256 SWAP1 JUMPDEST DUP2 SLOAD DUP2 MSTORE PUSH1 0x20 ADD SWAP1 PUSH1 0x1 ADD SWAP1 DUP1 DUP4 GT PUSH2 0x26E JUMPI JUMPDEST POP POP POP POP POP SWAP1 POP SWAP1 JUMP JUMPDEST PUSH1 0x0 DUP2 CALLDATALOAD SWAP1 POP PUSH2 0x29B DUP2 PUSH2 0x4D7 JUMP JUMPDEST SWAP3 SWAP2 POP POP JUMP JUMPDEST PUSH1 0x0 DUP2 MLOAD SWAP1 POP PUSH2 0x2B0 DUP2 PUSH2 0x4D7 JUMP JUMPDEST SWAP3 SWAP2 POP POP JUMP JUMPDEST PUSH1 0x0 PUSH1 0x20 DUP3 DUP5 SUB SLT ISZERO PUSH2 0x2CC JUMPI PUSH2 0x2CB PUSH2 0x4D2 JUMP JUMPDEST JUMPDEST PUSH1 0x0 PUSH2 0x2DA DUP5 DUP3 DUP6 ADD PUSH2 0x28C JUMP JUMPDEST SWAP2 POP POP SWAP3 SWAP2 POP POP JUMP JUMPDEST PUSH1 0x0 PUSH1 0x20 DUP3 DUP5 SUB SLT ISZERO PUSH2 0x2F9 JUMPI PUSH2 0x2F8 PUSH2 0x4D2 JUMP JUMPDEST JUMPDEST PUSH1 0x0 PUSH2 0x307 DUP5 DUP3 DUP6 ADD PUSH2 0x2A1 JUMP JUMPDEST SWAP2 POP POP SWAP3 SWAP2 POP POP JUMP JUMPDEST PUSH1 0x0 DUP1 PUSH1 0x40 DUP4 DUP6 SUB SLT ISZERO PUSH2 0x327 JUMPI PUSH2 0x326 PUSH2 0x4D2 JUMP JUMPDEST JUMPDEST PUSH1 0x0 PUSH2 0x335 DUP6 DUP3 DUP7 ADD PUSH2 0x28C JUMP JUMPDEST SWAP3 POP POP PUSH1 0x20 PUSH2 0x346 DUP6 DUP3 DUP7 ADD PUSH2 0x28C JUMP JUMPDEST SWAP2 POP POP SWAP3 POP SWAP3 SWAP1 POP JUMP JUMPDEST PUSH1 0x0 PUSH2 0x35C DUP4 DUP4 PUSH2 0x3CD JUMP JUMPDEST PUSH1 0x20 DUP4 ADD SWAP1 POP SWAP3 SWAP2 POP POP JUMP JUMPDEST PUSH1 0x0 PUSH2 0x373 DUP3 PUSH2 0x470 JUMP JUMPDEST PUSH2 0x37D DUP2 DUP6 PUSH2 0x488 JUMP JUMPDEST SWAP4 POP PUSH2 0x388 DUP4 PUSH2 0x460 JUMP JUMPDEST DUP1 PUSH1 0x0 JUMPDEST DUP4 DUP2 LT ISZERO PUSH2 0x3B9 JUMPI DUP2 MLOAD PUSH2 0x3A0 DUP9 DUP3 PUSH2 0x350 JUMP JUMPDEST SWAP8 POP PUSH2 0x3AB DUP4 PUSH2 0x47B JUMP JUMPDEST SWAP3 POP POP PUSH1 0x1 DUP2 ADD SWAP1 POP PUSH2 0x38C JUMP JUMPDEST POP DUP6 SWAP4 POP POP POP POP SWAP3 SWAP2 POP POP JUMP JUMPDEST DUP1 DUP3 MSTORE POP POP JUMP JUMPDEST PUSH2 0x3D6 DUP2 PUSH2 0x499 JUMP JUMPDEST DUP3 MSTORE POP POP JUMP JUMPDEST PUSH2 0x3E5 DUP2 PUSH2 0x499 JUMP JUMPDEST DUP3 MSTORE POP POP JUMP JUMPDEST PUSH2 0x3F4 DUP2 PUSH2 0x499 JUMP JUMPDEST DUP3 MSTORE POP POP JUMP JUMPDEST PUSH1 0x0 PUSH1 0x20 DUP3 ADD SWAP1 POP DUP2 DUP2 SUB PUSH1 0x0 DUP4 ADD MSTORE PUSH2 0x414 DUP2 DUP5 PUSH2 0x368 JUMP JUMPDEST SWAP1 POP SWAP3 SWAP2 POP POP JUMP JUMPDEST PUSH1 0x0 PUSH1 0x40 DUP3 ADD SWAP1 POP PUSH2 0x431 PUSH1 0x0 DUP4 ADD DUP6 PUSH2 0x3C6 JUMP JUMPDEST PUSH2 0x43E PUSH1 0x20 DUP4 ADD DUP5 PUSH2 0x3EB JUMP JUMPDEST SWAP4 SWAP3 POP POP POP JUMP JUMPDEST PUSH1 0x0 PUSH1 0x20 DUP3 ADD SWAP1 POP PUSH2 0x45A PUSH1 0x0 DUP4 ADD DUP5 PUSH2 0x3DC JUMP JUMPDEST SWAP3 SWAP2 POP POP JUMP JUMPDEST PUSH1 0x0 DUP2 SWAP1 POP PUSH1 0x20 DUP3 ADD SWAP1 POP SWAP2 SWAP1 POP JUMP JUMPDEST PUSH1 0x0 DUP2 MLOAD SWAP1 POP SWAP2 SWAP1 POP JUMP JUMPDEST PUSH1 0x0 PUSH1 0x20 DUP3 ADD SWAP1 POP SWAP2 SWAP1 POP JUMP JUMPDEST PUSH1 0x0 DUP3 DUP3 MSTORE PUSH1 0x20 DUP3 ADD SWAP1 POP SWAP3 SWAP2 POP POP JUMP JUMPDEST PUSH1 0x0 DUP2 SWAP1 POP SWAP2 SWAP1 POP JUMP JUMPDEST PUSH32 0x4E487B7100000000000000000000000000000000000000000000000000000000 PUSH1 0x0 MSTORE PUSH1 0x32 PUSH1 0x4 MSTORE PUSH1 0x24 PUSH1 0x0 REVERT JUMPDEST PUSH1 0x0 DUP1 REVERT JUMPDEST PUSH2 0x4E0 DUP2 PUSH2 0x499 JUMP JUMPDEST DUP2 EQ PUSH2 0x4EB JUMPI PUSH1 0x0 DUP1 REVERT JUMPDEST POP JUMP INVALID LOG2 PUSH5 0x6970667358 0x22 SLT KECCAK256 COINBASE 0xC5 0xC5 0xB9 PUSH12 0xBA772130A9D1FDD46FCF30E0 SELFBALANCE 0xF PUSH15 0x2930A0968424ED9E169437E64736F PUSH13 0x63430008070033000000000000 "
				},
				"gasEstimates": {
					"creation": {
						"codeDepositCost": "263200",
						"executionCost": "306",
						"totalCost": "263506"
					},
					"external": {
						"append(uint256)": "46829",
						"arr(uint256)": "infinite",
						"getArr()": "infinite",
						"replace(uint256,uint256)": "infinite"
					}
				},
				"methodIdentifiers": {
					"append(uint256)": "e33b8707",
					"arr(uint256)": "71e5ee5f",
					"getArr()": "fb8cbced",
					"replace(uint256,uint256)": "e81cf24c"
				}
			},
			"userdoc": {
				"kind": "user",
				"methods": {},
				"version": 1
			}
		}
	}
}