{
	"Libraries2.sol": {
		"woFor": {
			"abi": [
				{
					"inputs": [
						{
							"internalType": "uint256",
							"name": "val",
							"type": "uint256"
						}
					],
					"name": "append",
					"outputs": [],
					"stateMutability": "nonpayable",
					"type": "function"
				},
				{
					"inputs": [
						{
							"internalType": "uint256",
							"name": "",
							"type": "uint256"
						}
					],
					"name": "arr",
					"outputs": [
						{
							"internalType": "uint256",
							"name": "",
							"type": "uint256"
						}
					],
					"stateMutability": "view",
					"type": "function"
				},
				{
					"inputs": [
						{
							"internalType": "uint256",
							"name": "_old",
							"type": "uint256"
						},
						{
							"internalType": "uint256",
							"name": "_new",
							"type": "uint256"
						}
					],
					"name": "replace",
					"outputs": [],
					"stateMutability": "nonpayable",
					"type": "function"
				}
			],
			"devdoc": {
				"kind": "dev",
				"methods": {},
				"version": 1
			},
			"evm": {
				"assembly": "    /* \"Libraries2.sol\":281:593  contract woFor{... */\n  mstore(0x40, 0x80)\n  callvalue\n  dup1\n  iszero\n  tag_1\n  jumpi\n  0x00\n  dup1\n  revert\ntag_1:\n  pop\n  dataSize(sub_0)\n  dup1\n  dataOffset(sub_0)\n  0x00\n  codecopy\n  0x00\n  return\nstop\n\nsub_0: assembly {\n        /* \"Libraries2.sol\":281:593  contract woFor{... */\n      mstore(0x40, 0x80)\n      callvalue\n      dup1\n      iszero\n      tag_1\n      jumpi\n      0x00\n      dup1\n      revert\n    tag_1:\n      pop\n      jumpi(tag_2, lt(calldatasize, 0x04))\n      shr(0xe0, calldataload(0x00))\n      dup1\n      0x71e5ee5f\n      eq\n      tag_3\n      jumpi\n      dup1\n      0xe33b8707\n      eq\n      tag_4\n      jumpi\n      dup1\n      0xe81cf24c\n      eq\n      tag_5\n      jumpi\n    tag_2:\n      0x00\n      dup1\n      revert\n        /* \"Libraries2.sol\":302:319  uint[] public arr */\n    tag_3:\n      tag_6\n      0x04\n      dup1\n      calldatasize\n      sub\n      dup2\n      add\n      swap1\n      tag_7\n      swap2\n      swap1\n      tag_8\n      jump\t// in\n    tag_7:\n      tag_9\n      jump\t// in\n    tag_6:\n      mload(0x40)\n      tag_10\n      swap2\n      swap1\n      tag_11\n      jump\t// in\n    tag_10:\n      mload(0x40)\n      dup1\n      swap2\n      sub\n      swap1\n      return\n        /* \"Libraries2.sol\":328:393  function append(uint val) public {... */\n    tag_4:\n      tag_12\n      0x04\n      dup1\n      calldatasize\n      sub\n      dup2\n      add\n      swap1\n      tag_13\n      swap2\n      swap1\n      tag_8\n      jump\t// in\n    tag_13:\n      tag_14\n      jump\t// in\n    tag_12:\n      stop\n        /* \"Libraries2.sol\":401:590  function replace (uint _old, uint _new) public {... */\n    tag_5:\n      tag_15\n      0x04\n      dup1\n      calldatasize\n      sub\n      dup2\n      add\n      swap1\n      tag_16\n      swap2\n      swap1\n      tag_17\n      jump\t// in\n    tag_16:\n      tag_18\n      jump\t// in\n    tag_15:\n      stop\n        /* \"Libraries2.sol\":302:319  uint[] public arr */\n    tag_9:\n      0x00\n      dup2\n      dup2\n      sload\n      dup2\n      lt\n      tag_19\n      jumpi\n      0x00\n      dup1\n      revert\n    tag_19:\n      swap1\n      0x00\n      mstore\n      keccak256(0x00, 0x20)\n      add\n      0x00\n      swap2\n      pop\n      swap1\n      pop\n      sload\n      dup2\n      jump\t// out\n        /* \"Libraries2.sol\":328:393  function append(uint val) public {... */\n    tag_14:\n        /* \"Libraries2.sol\":372:375  arr */\n      0x00\n        /* \"Libraries2.sol\":381:384  val */\n      dup2\n        /* \"Libraries2.sol\":372:385  arr.push(val) */\n      swap1\n      dup1\n      0x01\n      dup2\n      sload\n      add\n      dup1\n      dup3\n      sstore\n      dup1\n      swap2\n      pop\n      pop\n      0x01\n      swap1\n      sub\n      swap1\n      0x00\n      mstore\n      keccak256(0x00, 0x20)\n      add\n      0x00\n      swap1\n      swap2\n      swap1\n      swap2\n      swap1\n      swap2\n      pop\n      sstore\n        /* \"Libraries2.sol\":328:393  function append(uint val) public {... */\n      pop\n      jump\t// out\n        /* \"Libraries2.sol\":401:590  function replace (uint _old, uint _new) public {... */\n    tag_18:\n        /* \"Libraries2.sol\":459:469  uint index */\n      0x00\n        /* \"Libraries2.sol\":472:478  Search */\n      linkerSymbol(\"f53ff5401bba9d0133b3dfab23320e97ed90efbab10920c410148b219f9502a3\")\n        /* \"Libraries2.sol\":472:486  Search.indexOf */\n      0x24fef5c8\n        /* \"Libraries2.sol\":487:490  arr */\n      0x00\n        /* \"Libraries2.sol\":492:496  _old */\n      dup6\n        /* \"Libraries2.sol\":472:497  Search.indexOf(arr, _old) */\n      mload(0x40)\n      dup4\n      0xffffffff\n      and\n      0xe0\n      shl\n      dup2\n      mstore\n      0x04\n      add\n      tag_24\n      swap3\n      swap2\n      swap1\n      tag_25\n      jump\t// in\n    tag_24:\n      0x20\n      mload(0x40)\n      dup1\n      dup4\n      sub\n      dup2\n      dup7\n      gas\n      delegatecall\n      iszero\n      dup1\n      iszero\n      tag_27\n      jumpi\n      returndatasize\n      0x00\n      dup1\n      returndatacopy\n      revert(0x00, returndatasize)\n    tag_27:\n      pop\n      pop\n      pop\n      pop\n      mload(0x40)\n      returndatasize\n      not(0x1f)\n      0x1f\n      dup3\n      add\n      and\n      dup3\n      add\n      dup1\n      0x40\n      mstore\n      pop\n      dup2\n      add\n      swap1\n      tag_28\n      swap2\n      swap1\n      tag_29\n      jump\t// in\n    tag_28:\n        /* \"Libraries2.sol\":459:497  uint index = Search.indexOf(arr, _old) */\n      swap1\n      pop\n        /* \"Libraries2.sol\":530:531  1 */\n      0x01\n        /* \"Libraries2.sol\":512:517  index */\n      dup2\n        /* \"Libraries2.sol\":512:533  index == uint(int(1)) */\n      sub\n        /* \"Libraries2.sol\":508:582  if (index == uint(int(1))) arr.push(_new);... */\n      tag_30\n      jumpi\n        /* \"Libraries2.sol\":535:538  arr */\n      0x00\n        /* \"Libraries2.sol\":544:548  _new */\n      dup3\n        /* \"Libraries2.sol\":535:549  arr.push(_new) */\n      swap1\n      dup1\n      0x01\n      dup2\n      sload\n      add\n      dup1\n      dup3\n      sstore\n      dup1\n      swap2\n      pop\n      pop\n      0x01\n      swap1\n      sub\n      swap1\n      0x00\n      mstore\n      keccak256(0x00, 0x20)\n      add\n      0x00\n      swap1\n      swap2\n      swap1\n      swap2\n      swap1\n      swap2\n      pop\n      sstore\n        /* \"Libraries2.sol\":508:582  if (index == uint(int(1))) arr.push(_new);... */\n      jump(tag_32)\n    tag_30:\n        /* \"Libraries2.sol\":578:582  _new */\n      dup2\n        /* \"Libraries2.sol\":565:568  arr */\n      0x00\n        /* \"Libraries2.sol\":569:574  index */\n      dup3\n        /* \"Libraries2.sol\":565:575  arr[index] */\n      dup2\n      sload\n      dup2\n      lt\n      tag_33\n      jumpi\n      tag_34\n      tag_35\n      jump\t// in\n    tag_34:\n    tag_33:\n      swap1\n      0x00\n      mstore\n      keccak256(0x00, 0x20)\n      add\n        /* \"Libraries2.sol\":565:582  arr[index] = _new */\n      dup2\n      swap1\n      sstore\n      pop\n        /* \"Libraries2.sol\":508:582  if (index == uint(int(1))) arr.push(_new);... */\n    tag_32:\n        /* \"Libraries2.sol\":448:590  {... */\n      pop\n        /* \"Libraries2.sol\":401:590  function replace (uint _old, uint _new) public {... */\n      pop\n      pop\n      jump\t// out\n        /* \"#utility.yul\":88:205   */\n    tag_38:\n        /* \"#utility.yul\":197:198   */\n      0x00\n        /* \"#utility.yul\":194:195   */\n      dup1\n        /* \"#utility.yul\":187:199   */\n      revert\n        /* \"#utility.yul\":334:411   */\n    tag_40:\n        /* \"#utility.yul\":371:378   */\n      0x00\n        /* \"#utility.yul\":400:405   */\n      dup2\n        /* \"#utility.yul\":389:405   */\n      swap1\n      pop\n        /* \"#utility.yul\":334:411   */\n      swap2\n      swap1\n      pop\n      jump\t// out\n        /* \"#utility.yul\":417:539   */\n    tag_41:\n        /* \"#utility.yul\":490:514   */\n      tag_53\n        /* \"#utility.yul\":508:513   */\n      dup2\n        /* \"#utility.yul\":490:514   */\n      tag_40\n      jump\t// in\n    tag_53:\n        /* \"#utility.yul\":483:488   */\n      dup2\n        /* \"#utility.yul\":480:515   */\n      eq\n        /* \"#utility.yul\":470:533   */\n      tag_54\n      jumpi\n        /* \"#utility.yul\":529:530   */\n      0x00\n        /* \"#utility.yul\":526:527   */\n      dup1\n        /* \"#utility.yul\":519:531   */\n      revert\n        /* \"#utility.yul\":470:533   */\n    tag_54:\n        /* \"#utility.yul\":417:539   */\n      pop\n      jump\t// out\n        /* \"#utility.yul\":545:684   */\n    tag_42:\n        /* \"#utility.yul\":591:596   */\n      0x00\n        /* \"#utility.yul\":629:635   */\n      dup2\n        /* \"#utility.yul\":616:636   */\n      calldataload\n        /* \"#utility.yul\":607:636   */\n      swap1\n      pop\n        /* \"#utility.yul\":645:678   */\n      tag_56\n        /* \"#utility.yul\":672:677   */\n      dup2\n        /* \"#utility.yul\":645:678   */\n      tag_41\n      jump\t// in\n    tag_56:\n        /* \"#utility.yul\":545:684   */\n      swap3\n      swap2\n      pop\n      pop\n      jump\t// out\n        /* \"#utility.yul\":690:1019   */\n    tag_8:\n        /* \"#utility.yul\":749:755   */\n      0x00\n        /* \"#utility.yul\":798:800   */\n      0x20\n        /* \"#utility.yul\":786:795   */\n      dup3\n        /* \"#utility.yul\":777:784   */\n      dup5\n        /* \"#utility.yul\":773:796   */\n      sub\n        /* \"#utility.yul\":769:801   */\n      slt\n        /* \"#utility.yul\":766:885   */\n      iszero\n      tag_58\n      jumpi\n        /* \"#utility.yul\":804:883   */\n      tag_59\n      tag_38\n      jump\t// in\n    tag_59:\n        /* \"#utility.yul\":766:885   */\n    tag_58:\n        /* \"#utility.yul\":924:925   */\n      0x00\n        /* \"#utility.yul\":949:1002   */\n      tag_60\n        /* \"#utility.yul\":994:1001   */\n      dup5\n        /* \"#utility.yul\":985:991   */\n      dup3\n        /* \"#utility.yul\":974:983   */\n      dup6\n        /* \"#utility.yul\":970:992   */\n      add\n        /* \"#utility.yul\":949:1002   */\n      tag_42\n      jump\t// in\n    tag_60:\n        /* \"#utility.yul\":939:1002   */\n      swap2\n      pop\n        /* \"#utility.yul\":895:1012   */\n      pop\n        /* \"#utility.yul\":690:1019   */\n      swap3\n      swap2\n      pop\n      pop\n      jump\t// out\n        /* \"#utility.yul\":1025:1143   */\n    tag_43:\n        /* \"#utility.yul\":1112:1136   */\n      tag_62\n        /* \"#utility.yul\":1130:1135   */\n      dup2\n        /* \"#utility.yul\":1112:1136   */\n      tag_40\n      jump\t// in\n    tag_62:\n        /* \"#utility.yul\":1107:1110   */\n      dup3\n        /* \"#utility.yul\":1100:1137   */\n      mstore\n        /* \"#utility.yul\":1025:1143   */\n      pop\n      pop\n      jump\t// out\n        /* \"#utility.yul\":1149:1371   */\n    tag_11:\n        /* \"#utility.yul\":1242:1246   */\n      0x00\n        /* \"#utility.yul\":1280:1282   */\n      0x20\n        /* \"#utility.yul\":1269:1278   */\n      dup3\n        /* \"#utility.yul\":1265:1283   */\n      add\n        /* \"#utility.yul\":1257:1283   */\n      swap1\n      pop\n        /* \"#utility.yul\":1293:1364   */\n      tag_64\n        /* \"#utility.yul\":1361:1362   */\n      0x00\n        /* \"#utility.yul\":1350:1359   */\n      dup4\n        /* \"#utility.yul\":1346:1363   */\n      add\n        /* \"#utility.yul\":1337:1343   */\n      dup5\n        /* \"#utility.yul\":1293:1364   */\n      tag_43\n      jump\t// in\n    tag_64:\n        /* \"#utility.yul\":1149:1371   */\n      swap3\n      swap2\n      pop\n      pop\n      jump\t// out\n        /* \"#utility.yul\":1377:1851   */\n    tag_17:\n        /* \"#utility.yul\":1445:1451   */\n      0x00\n        /* \"#utility.yul\":1453:1459   */\n      dup1\n        /* \"#utility.yul\":1502:1504   */\n      0x40\n        /* \"#utility.yul\":1490:1499   */\n      dup4\n        /* \"#utility.yul\":1481:1488   */\n      dup6\n        /* \"#utility.yul\":1477:1500   */\n      sub\n        /* \"#utility.yul\":1473:1505   */\n      slt\n        /* \"#utility.yul\":1470:1589   */\n      iszero\n      tag_66\n      jumpi\n        /* \"#utility.yul\":1508:1587   */\n      tag_67\n      tag_38\n      jump\t// in\n    tag_67:\n        /* \"#utility.yul\":1470:1589   */\n    tag_66:\n        /* \"#utility.yul\":1628:1629   */\n      0x00\n        /* \"#utility.yul\":1653:1706   */\n      tag_68\n        /* \"#utility.yul\":1698:1705   */\n      dup6\n        /* \"#utility.yul\":1689:1695   */\n      dup3\n        /* \"#utility.yul\":1678:1687   */\n      dup7\n        /* \"#utility.yul\":1674:1696   */\n      add\n        /* \"#utility.yul\":1653:1706   */\n      tag_42\n      jump\t// in\n    tag_68:\n        /* \"#utility.yul\":1643:1706   */\n      swap3\n      pop\n        /* \"#utility.yul\":1599:1716   */\n      pop\n        /* \"#utility.yul\":1755:1757   */\n      0x20\n        /* \"#utility.yul\":1781:1834   */\n      tag_69\n        /* \"#utility.yul\":1826:1833   */\n      dup6\n        /* \"#utility.yul\":1817:1823   */\n      dup3\n        /* \"#utility.yul\":1806:1815   */\n      dup7\n        /* \"#utility.yul\":1802:1824   */\n      add\n        /* \"#utility.yul\":1781:1834   */\n      tag_42\n      jump\t// in\n    tag_69:\n        /* \"#utility.yul\":1771:1834   */\n      swap2\n      pop\n        /* \"#utility.yul\":1726:1844   */\n      pop\n        /* \"#utility.yul\":1377:1851   */\n      swap3\n      pop\n      swap3\n      swap1\n      pop\n      jump\t// out\n        /* \"#utility.yul\":1857:1986   */\n    tag_44:\n        /* \"#utility.yul\":1974:1979   */\n      dup1\n        /* \"#utility.yul\":1969:1972   */\n      dup3\n        /* \"#utility.yul\":1962:1980   */\n      mstore\n        /* \"#utility.yul\":1857:1986   */\n      pop\n      pop\n      jump\t// out\n        /* \"#utility.yul\":1992:2118   */\n    tag_45:\n        /* \"#utility.yul\":2087:2111   */\n      tag_72\n        /* \"#utility.yul\":2105:2110   */\n      dup2\n        /* \"#utility.yul\":2087:2111   */\n      tag_40\n      jump\t// in\n    tag_72:\n        /* \"#utility.yul\":2082:2085   */\n      dup3\n        /* \"#utility.yul\":2075:2112   */\n      mstore\n        /* \"#utility.yul\":1992:2118   */\n      pop\n      pop\n      jump\t// out\n        /* \"#utility.yul\":2124:2524   */\n    tag_25:\n        /* \"#utility.yul\":2275:2279   */\n      0x00\n        /* \"#utility.yul\":2313:2315   */\n      0x40\n        /* \"#utility.yul\":2302:2311   */\n      dup3\n        /* \"#utility.yul\":2298:2316   */\n      add\n        /* \"#utility.yul\":2290:2316   */\n      swap1\n      pop\n        /* \"#utility.yul\":2326:2427   */\n      tag_74\n        /* \"#utility.yul\":2424:2425   */\n      0x00\n        /* \"#utility.yul\":2413:2422   */\n      dup4\n        /* \"#utility.yul\":2409:2426   */\n      add\n        /* \"#utility.yul\":2400:2406   */\n      dup6\n        /* \"#utility.yul\":2326:2427   */\n      tag_44\n      jump\t// in\n    tag_74:\n        /* \"#utility.yul\":2437:2517   */\n      tag_75\n        /* \"#utility.yul\":2513:2515   */\n      0x20\n        /* \"#utility.yul\":2502:2511   */\n      dup4\n        /* \"#utility.yul\":2498:2516   */\n      add\n        /* \"#utility.yul\":2489:2495   */\n      dup5\n        /* \"#utility.yul\":2437:2517   */\n      tag_45\n      jump\t// in\n    tag_75:\n        /* \"#utility.yul\":2124:2524   */\n      swap4\n      swap3\n      pop\n      pop\n      pop\n      jump\t// out\n        /* \"#utility.yul\":2530:2673   */\n    tag_46:\n        /* \"#utility.yul\":2587:2592   */\n      0x00\n        /* \"#utility.yul\":2618:2624   */\n      dup2\n        /* \"#utility.yul\":2612:2625   */\n      mload\n        /* \"#utility.yul\":2603:2625   */\n      swap1\n      pop\n        /* \"#utility.yul\":2634:2667   */\n      tag_77\n        /* \"#utility.yul\":2661:2666   */\n      dup2\n        /* \"#utility.yul\":2634:2667   */\n      tag_41\n      jump\t// in\n    tag_77:\n        /* \"#utility.yul\":2530:2673   */\n      swap3\n      swap2\n      pop\n      pop\n      jump\t// out\n        /* \"#utility.yul\":2679:3030   */\n    tag_29:\n        /* \"#utility.yul\":2749:2755   */\n      0x00\n        /* \"#utility.yul\":2798:2800   */\n      0x20\n        /* \"#utility.yul\":2786:2795   */\n      dup3\n        /* \"#utility.yul\":2777:2784   */\n      dup5\n        /* \"#utility.yul\":2773:2796   */\n      sub\n        /* \"#utility.yul\":2769:2801   */\n      slt\n        /* \"#utility.yul\":2766:2885   */\n      iszero\n      tag_79\n      jumpi\n        /* \"#utility.yul\":2804:2883   */\n      tag_80\n      tag_38\n      jump\t// in\n    tag_80:\n        /* \"#utility.yul\":2766:2885   */\n    tag_79:\n        /* \"#utility.yul\":2924:2925   */\n      0x00\n        /* \"#utility.yul\":2949:3013   */\n      tag_81\n        /* \"#utility.yul\":3005:3012   */\n      dup5\n        /* \"#utility.yul\":2996:3002   */\n      dup3\n        /* \"#utility.yul\":2985:2994   */\n      dup6\n        /* \"#utility.yul\":2981:3003   */\n      add\n        /* \"#utility.yul\":2949:3013   */\n      tag_46\n      jump\t// in\n    tag_81:\n        /* \"#utility.yul\":2939:3013   */\n      swap2\n      pop\n        /* \"#utility.yul\":2895:3023   */\n      pop\n        /* \"#utility.yul\":2679:3030   */\n      swap3\n      swap2\n      pop\n      pop\n      jump\t// out\n        /* \"#utility.yul\":3036:3216   */\n    tag_35:\n        /* \"#utility.yul\":3084:3161   */\n      0x4e487b7100000000000000000000000000000000000000000000000000000000\n        /* \"#utility.yul\":3081:3082   */\n      0x00\n        /* \"#utility.yul\":3074:3162   */\n      mstore\n        /* \"#utility.yul\":3181:3185   */\n      0x32\n        /* \"#utility.yul\":3178:3179   */\n      0x04\n        /* \"#utility.yul\":3171:3186   */\n      mstore\n        /* \"#utility.yul\":3205:3209   */\n      0x24\n        /* \"#utility.yul\":3202:3203   */\n      0x00\n        /* \"#utility.yul\":3195:3210   */\n      revert\n\n    auxdata: 0xa264697066735822122015038d153eda58138a04c6ecb7613dfa1a72e2b8984f8652a9e2373847978d6764736f6c634300080d0033\n}\n",
				"bytecode": {
					"linkReferences": {
						"Libraries2.sol": {
							"Search": [
								{
									"length": 20,
									"start": 290
								}
							]
						}
					},
					"object": "608060405234801561001057600080fd5b50610394806100206000396000f3fe608060405234801561001057600080fd5b50600436106100415760003560e01c806371e5ee5f14610046578063e33b870714610076578063e81cf24c14610092575b600080fd5b610060600480360381019061005b9190610217565b6100ae565b60405161006d9190610253565b60405180910390f35b610090600480360381019061008b9190610217565b6100d2565b005b6100ac60048036038101906100a7919061026e565b6100fe565b005b600081815481106100be57600080fd5b906000526020600020016000915090505481565b600081908060018154018082558091505060019003906000526020600020016000909190919091505550565b600073__$f53ff5401bba9d0133b3dfab23320e97ed$__6324fef5c86000856040518363ffffffff1660e01b815260040161013a9291906102c4565b602060405180830381865af4158015610157573d6000803e3d6000fd5b505050506040513d601f19601f8201168201806040525081019061017b9190610302565b9050600181036101b35760008290806001815401808255809150506001900390600052602060002001600090919091909150556101d7565b81600082815481106101c8576101c761032f565b5b90600052602060002001819055505b505050565b600080fd5b6000819050919050565b6101f4816101e1565b81146101ff57600080fd5b50565b600081359050610211816101eb565b92915050565b60006020828403121561022d5761022c6101dc565b5b600061023b84828501610202565b91505092915050565b61024d816101e1565b82525050565b60006020820190506102686000830184610244565b92915050565b60008060408385031215610285576102846101dc565b5b600061029385828601610202565b92505060206102a485828601610202565b9150509250929050565b8082525050565b6102be816101e1565b82525050565b60006040820190506102d960008301856102ae565b6102e660208301846102b5565b9392505050565b6000815190506102fc816101eb565b92915050565b600060208284031215610318576103176101dc565b5b6000610326848285016102ed565b91505092915050565b7f4e487b7100000000000000000000000000000000000000000000000000000000600052603260045260246000fdfea264697066735822122015038d153eda58138a04c6ecb7613dfa1a72e2b8984f8652a9e2373847978d6764736f6c634300080d0033",
					"opcodes": "PUSH1 0x80 PUSH1 0x40 MSTORE CALLVALUE DUP1 ISZERO PUSH2 0x10 JUMPI PUSH1 0x0 DUP1 REVERT JUMPDEST POP PUSH2 0x394 DUP1 PUSH2 0x20 PUSH1 0x0 CODECOPY PUSH1 0x0 RETURN INVALID PUSH1 0x80 PUSH1 0x40 MSTORE CALLVALUE DUP1 ISZERO PUSH2 0x10 JUMPI PUSH1 0x0 DUP1 REVERT JUMPDEST POP PUSH1 0x4 CALLDATASIZE LT PUSH2 0x41 JUMPI PUSH1 0x0 CALLDATALOAD PUSH1 0xE0 SHR DUP1 PUSH4 0x71E5EE5F EQ PUSH2 0x46 JUMPI DUP1 PUSH4 0xE33B8707 EQ PUSH2 0x76 JUMPI DUP1 PUSH4 0xE81CF24C EQ PUSH2 0x92 JUMPI JUMPDEST PUSH1 0x0 DUP1 REVERT JUMPDEST PUSH2 0x60 PUSH1 0x4 DUP1 CALLDATASIZE SUB DUP2 ADD SWAP1 PUSH2 0x5B SWAP2 SWAP1 PUSH2 0x217 JUMP JUMPDEST PUSH2 0xAE JUMP JUMPDEST PUSH1 0x40 MLOAD PUSH2 0x6D SWAP2 SWAP1 PUSH2 0x253 JUMP JUMPDEST PUSH1 0x40 MLOAD DUP1 SWAP2 SUB SWAP1 RETURN JUMPDEST PUSH2 0x90 PUSH1 0x4 DUP1 CALLDATASIZE SUB DUP2 ADD SWAP1 PUSH2 0x8B SWAP2 SWAP1 PUSH2 0x217 JUMP JUMPDEST PUSH2 0xD2 JUMP JUMPDEST STOP JUMPDEST PUSH2 0xAC PUSH1 0x4 DUP1 CALLDATASIZE SUB DUP2 ADD SWAP1 PUSH2 0xA7 SWAP2 SWAP1 PUSH2 0x26E JUMP JUMPDEST PUSH2 0xFE JUMP JUMPDEST STOP JUMPDEST PUSH1 0x0 DUP2 DUP2 SLOAD DUP2 LT PUSH2 0xBE JUMPI PUSH1 0x0 DUP1 REVERT JUMPDEST SWAP1 PUSH1 0x0 MSTORE PUSH1 0x20 PUSH1 0x0 KECCAK256 ADD PUSH1 0x0 SWAP2 POP SWAP1 POP SLOAD DUP2 JUMP JUMPDEST PUSH1 0x0 DUP2 SWAP1 DUP1 PUSH1 0x1 DUP2 SLOAD ADD DUP1 DUP3 SSTORE DUP1 SWAP2 POP POP PUSH1 0x1 SWAP1 SUB SWAP1 PUSH1 0x0 MSTORE PUSH1 0x20 PUSH1 0x0 KECCAK256 ADD PUSH1 0x0 SWAP1 SWAP2 SWAP1 SWAP2 SWAP1 SWAP2 POP SSTORE POP JUMP JUMPDEST PUSH1 0x0 PUSH20 0x0 PUSH4 0x24FEF5C8 PUSH1 0x0 DUP6 PUSH1 0x40 MLOAD DUP4 PUSH4 0xFFFFFFFF AND PUSH1 0xE0 SHL DUP2 MSTORE PUSH1 0x4 ADD PUSH2 0x13A SWAP3 SWAP2 SWAP1 PUSH2 0x2C4 JUMP JUMPDEST PUSH1 0x20 PUSH1 0x40 MLOAD DUP1 DUP4 SUB DUP2 DUP7 GAS DELEGATECALL ISZERO DUP1 ISZERO PUSH2 0x157 JUMPI RETURNDATASIZE PUSH1 0x0 DUP1 RETURNDATACOPY RETURNDATASIZE PUSH1 0x0 REVERT JUMPDEST POP POP POP POP PUSH1 0x40 MLOAD RETURNDATASIZE PUSH1 0x1F NOT PUSH1 0x1F DUP3 ADD AND DUP3 ADD DUP1 PUSH1 0x40 MSTORE POP DUP2 ADD SWAP1 PUSH2 0x17B SWAP2 SWAP1 PUSH2 0x302 JUMP JUMPDEST SWAP1 POP PUSH1 0x1 DUP2 SUB PUSH2 0x1B3 JUMPI PUSH1 0x0 DUP3 SWAP1 DUP1 PUSH1 0x1 DUP2 SLOAD ADD DUP1 DUP3 SSTORE DUP1 SWAP2 POP POP PUSH1 0x1 SWAP1 SUB SWAP1 PUSH1 0x0 MSTORE PUSH1 0x20 PUSH1 0x0 KECCAK256 ADD PUSH1 0x0 SWAP1 SWAP2 SWAP1 SWAP2 SWAP1 SWAP2 POP SSTORE PUSH2 0x1D7 JUMP JUMPDEST DUP2 PUSH1 0x0 DUP3 DUP2 SLOAD DUP2 LT PUSH2 0x1C8 JUMPI PUSH2 0x1C7 PUSH2 0x32F JUMP JUMPDEST JUMPDEST SWAP1 PUSH1 0x0 MSTORE PUSH1 0x20 PUSH1 0x0 KECCAK256 ADD DUP2 SWAP1 SSTORE POP JUMPDEST POP POP POP JUMP JUMPDEST PUSH1 0x0 DUP1 REVERT JUMPDEST PUSH1 0x0 DUP2 SWAP1 POP SWAP2 SWAP1 POP JUMP JUMPDEST PUSH2 0x1F4 DUP2 PUSH2 0x1E1 JUMP JUMPDEST DUP2 EQ PUSH2 0x1FF JUMPI PUSH1 0x0 DUP1 REVERT JUMPDEST POP JUMP JUMPDEST PUSH1 0x0 DUP2 CALLDATALOAD SWAP1 POP PUSH2 0x211 DUP2 PUSH2 0x1EB JUMP JUMPDEST SWAP3 SWAP2 POP POP JUMP JUMPDEST PUSH1 0x0 PUSH1 0x20 DUP3 DUP5 SUB SLT ISZERO PUSH2 0x22D JUMPI PUSH2 0x22C PUSH2 0x1DC JUMP JUMPDEST JUMPDEST PUSH1 0x0 PUSH2 0x23B DUP5 DUP3 DUP6 ADD PUSH2 0x202 JUMP JUMPDEST SWAP2 POP POP SWAP3 SWAP2 POP POP JUMP JUMPDEST PUSH2 0x24D DUP2 PUSH2 0x1E1 JUMP JUMPDEST DUP3 MSTORE POP POP JUMP JUMPDEST PUSH1 0x0 PUSH1 0x20 DUP3 ADD SWAP1 POP PUSH2 0x268 PUSH1 0x0 DUP4 ADD DUP5 PUSH2 0x244 JUMP JUMPDEST SWAP3 SWAP2 POP POP JUMP JUMPDEST PUSH1 0x0 DUP1 PUSH1 0x40 DUP4 DUP6 SUB SLT ISZERO PUSH2 0x285 JUMPI PUSH2 0x284 PUSH2 0x1DC JUMP JUMPDEST JUMPDEST PUSH1 0x0 PUSH2 0x293 DUP6 DUP3 DUP7 ADD PUSH2 0x202 JUMP JUMPDEST SWAP3 POP POP PUSH1 0x20 PUSH2 0x2A4 DUP6 DUP3 DUP7 ADD PUSH2 0x202 JUMP JUMPDEST SWAP2 POP POP SWAP3 POP SWAP3 SWAP1 POP JUMP JUMPDEST DUP1 DUP3 MSTORE POP POP JUMP JUMPDEST PUSH2 0x2BE DUP2 PUSH2 0x1E1 JUMP JUMPDEST DUP3 MSTORE POP POP JUMP JUMPDEST PUSH1 0x0 PUSH1 0x40 DUP3 ADD SWAP1 POP PUSH2 0x2D9 PUSH1 0x0 DUP4 ADD DUP6 PUSH2 0x2AE JUMP JUMPDEST PUSH2 0x2E6 PUSH1 0x20 DUP4 ADD DUP5 PUSH2 0x2B5 JUMP JUMPDEST SWAP4 SWAP3 POP POP POP JUMP JUMPDEST PUSH1 0x0 DUP2 MLOAD SWAP1 POP PUSH2 0x2FC DUP2 PUSH2 0x1EB JUMP JUMPDEST SWAP3 SWAP2 POP POP JUMP JUMPDEST PUSH1 0x0 PUSH1 0x20 DUP3 DUP5 SUB SLT ISZERO PUSH2 0x318 JUMPI PUSH2 0x317 PUSH2 0x1DC JUMP JUMPDEST JUMPDEST PUSH1 0x0 PUSH2 0x326 DUP5 DUP3 DUP6 ADD PUSH2 0x2ED JUMP JUMPDEST SWAP2 POP POP SWAP3 SWAP2 POP POP JUMP JUMPDEST PUSH32 0x4E487B7100000000000000000000000000000000000000000000000000000000 PUSH1 0x0 MSTORE PUSH1 0x32 PUSH1 0x4 MSTORE PUSH1 0x24 PUSH1 0x0 REVERT INVALID LOG2 PUSH5 0x6970667358 0x22 SLT KECCAK256 ISZERO SUB DUP14 ISZERO RETURNDATACOPY 0xDA PC SGT DUP11 DIV 0xC6 0xEC 0xB7 PUSH2 0x3DFA BYTE PUSH19 0xE2B8984F8652A9E2373847978D6764736F6C63 NUMBER STOP ADDMOD 0xD STOP CALLER "
				},
				"gasEstimates": {
					"creation": {
						"codeDepositCost": "183200",
						"executionCost": "226",
						"totalCost": "183426"
					},
					"external": {
						"append(uint256)": "46829",
						"arr(uint256)": "infinite",
						"replace(uint256,uint256)": "infinite"
					}
				},
				"methodIdentifiers": {
					"append(uint256)": "e33b8707",
					"arr(uint256)": "71e5ee5f",
					"replace(uint256,uint256)": "e81cf24c"
				}
			},
			"userdoc": {
				"kind": "user",
				"methods": {},
				"version": 1
			}
		}
	}
}