{
	"Libraries2.sol": {
		"woFor": {
			"abi": [
				{
					"inputs": [
						{
							"internalType": "uint256",
							"name": "val",
							"type": "uint256"
						}
					],
					"name": "append",
					"outputs": [],
					"stateMutability": "nonpayable",
					"type": "function"
				},
				{
					"inputs": [
						{
							"internalType": "uint256",
							"name": "",
							"type": "uint256"
						}
					],
					"name": "arr",
					"outputs": [
						{
							"internalType": "uint256",
							"name": "",
							"type": "uint256"
						}
					],
					"stateMutability": "view",
					"type": "function"
				},
				{
					"inputs": [],
					"name": "getArr",
					"outputs": [
						{
							"internalType": "uint256[]",
							"name": "",
							"type": "uint256[]"
						}
					],
					"stateMutability": "view",
					"type": "function"
				},
				{
					"inputs": [
						{
							"internalType": "uint256",
							"name": "_old",
							"type": "uint256"
						},
						{
							"internalType": "uint256",
							"name": "_new",
							"type": "uint256"
						}
					],
					"name": "replace",
					"outputs": [],
					"stateMutability": "nonpayable",
					"type": "function"
				}
			],
			"devdoc": {
				"kind": "dev",
				"methods": {},
				"version": 1
			},
			"evm": {
				"assembly": "    /* \"Libraries2.sol\":281:686  contract woFor{... */\n  mstore(0x40, 0x80)\n  callvalue\n  dup1\n  iszero\n  tag_1\n  jumpi\n  0x00\n  dup1\n  revert\ntag_1:\n  pop\n  dataSize(sub_0)\n  dup1\n  dataOffset(sub_0)\n  0x00\n  codecopy\n  0x00\n  return\nstop\n\nsub_0: assembly {\n        /* \"Libraries2.sol\":281:686  contract woFor{... */\n      mstore(0x40, 0x80)\n      callvalue\n      dup1\n      iszero\n      tag_1\n      jumpi\n      0x00\n      dup1\n      revert\n    tag_1:\n      pop\n      jumpi(tag_2, lt(calldatasize, 0x04))\n      shr(0xe0, calldataload(0x00))\n      dup1\n      0x71e5ee5f\n      eq\n      tag_3\n      jumpi\n      dup1\n      0xe33b8707\n      eq\n      tag_4\n      jumpi\n      dup1\n      0xe81cf24c\n      eq\n      tag_5\n      jumpi\n      dup1\n      0xfb8cbced\n      eq\n      tag_6\n      jumpi\n    tag_2:\n      0x00\n      dup1\n      revert\n        /* \"Libraries2.sol\":302:319  uint[] public arr */\n    tag_3:\n      tag_7\n      0x04\n      dup1\n      calldatasize\n      sub\n      dup2\n      add\n      swap1\n      tag_8\n      swap2\n      swap1\n      tag_9\n      jump\t// in\n    tag_8:\n      tag_10\n      jump\t// in\n    tag_7:\n      mload(0x40)\n      tag_11\n      swap2\n      swap1\n      tag_12\n      jump\t// in\n    tag_11:\n      mload(0x40)\n      dup1\n      swap2\n      sub\n      swap1\n      return\n        /* \"Libraries2.sol\":328:393  function append(uint val) public {... */\n    tag_4:\n      tag_13\n      0x04\n      dup1\n      calldatasize\n      sub\n      dup2\n      add\n      swap1\n      tag_14\n      swap2\n      swap1\n      tag_9\n      jump\t// in\n    tag_14:\n      tag_15\n      jump\t// in\n    tag_13:\n      stop\n        /* \"Libraries2.sol\":401:591  function replace (uint _old, uint _new) public {... */\n    tag_5:\n      tag_16\n      0x04\n      dup1\n      calldatasize\n      sub\n      dup2\n      add\n      swap1\n      tag_17\n      swap2\n      swap1\n      tag_18\n      jump\t// in\n    tag_17:\n      tag_19\n      jump\t// in\n    tag_16:\n      stop\n        /* \"Libraries2.sol\":599:683  function getArr () public view returns (uint[] memory) {... */\n    tag_6:\n      tag_20\n      tag_21\n      jump\t// in\n    tag_20:\n      mload(0x40)\n      tag_22\n      swap2\n      swap1\n      tag_23\n      jump\t// in\n    tag_22:\n      mload(0x40)\n      dup1\n      swap2\n      sub\n      swap1\n      return\n        /* \"Libraries2.sol\":302:319  uint[] public arr */\n    tag_10:\n      0x00\n      dup2\n      dup2\n      sload\n      dup2\n      lt\n      tag_24\n      jumpi\n      0x00\n      dup1\n      revert\n    tag_24:\n      swap1\n      0x00\n      mstore\n      keccak256(0x00, 0x20)\n      add\n      0x00\n      swap2\n      pop\n      swap1\n      pop\n      sload\n      dup2\n      jump\t// out\n        /* \"Libraries2.sol\":328:393  function append(uint val) public {... */\n    tag_15:\n        /* \"Libraries2.sol\":372:375  arr */\n      0x00\n        /* \"Libraries2.sol\":381:384  val */\n      dup2\n        /* \"Libraries2.sol\":372:385  arr.push(val) */\n      swap1\n      dup1\n      0x01\n      dup2\n      sload\n      add\n      dup1\n      dup3\n      sstore\n      dup1\n      swap2\n      pop\n      pop\n      0x01\n      swap1\n      sub\n      swap1\n      0x00\n      mstore\n      keccak256(0x00, 0x20)\n      add\n      0x00\n      swap1\n      swap2\n      swap1\n      swap2\n      swap1\n      swap2\n      pop\n      sstore\n        /* \"Libraries2.sol\":328:393  function append(uint val) public {... */\n      pop\n      jump\t// out\n        /* \"Libraries2.sol\":401:591  function replace (uint _old, uint _new) public {... */\n    tag_19:\n        /* \"Libraries2.sol\":459:469  uint index */\n      0x00\n        /* \"Libraries2.sol\":472:478  Search */\n      linkerSymbol(\"f53ff5401bba9d0133b3dfab23320e97ed90efbab10920c410148b219f9502a3\")\n        /* \"Libraries2.sol\":472:486  Search.indexOf */\n      0x24fef5c8\n        /* \"Libraries2.sol\":487:490  arr */\n      0x00\n        /* \"Libraries2.sol\":492:496  _old */\n      dup6\n        /* \"Libraries2.sol\":472:497  Search.indexOf(arr, _old) */\n      mload(0x40)\n      dup4\n      0xffffffff\n      and\n      0xe0\n      shl\n      dup2\n      mstore\n      0x04\n      add\n      tag_29\n      swap3\n      swap2\n      swap1\n      tag_30\n      jump\t// in\n    tag_29:\n      0x20\n      mload(0x40)\n      dup1\n      dup4\n      sub\n      dup2\n      dup7\n      gas\n      delegatecall\n      iszero\n      dup1\n      iszero\n      tag_32\n      jumpi\n      returndatasize\n      0x00\n      dup1\n      returndatacopy\n      revert(0x00, returndatasize)\n    tag_32:\n      pop\n      pop\n      pop\n      pop\n      mload(0x40)\n      returndatasize\n      not(0x1f)\n      0x1f\n      dup3\n      add\n      and\n      dup3\n      add\n      dup1\n      0x40\n      mstore\n      pop\n      dup2\n      add\n      swap1\n      tag_33\n      swap2\n      swap1\n      tag_34\n      jump\t// in\n    tag_33:\n        /* \"Libraries2.sol\":459:497  uint index = Search.indexOf(arr, _old) */\n      swap1\n      pop\n        /* \"Libraries2.sol\":530:532  -1 */\n      0xffffffffffffffffffffffffffffffffffffffffffffffffffffffffffffffff\n        /* \"Libraries2.sol\":512:517  index */\n      dup2\n        /* \"Libraries2.sol\":512:534  index == uint(int(-1)) */\n      sub\n        /* \"Libraries2.sol\":508:583  if (index == uint(int(-1))) arr.push(_new);... */\n      tag_35\n      jumpi\n        /* \"Libraries2.sol\":536:539  arr */\n      0x00\n        /* \"Libraries2.sol\":545:549  _new */\n      dup3\n        /* \"Libraries2.sol\":536:550  arr.push(_new) */\n      swap1\n      dup1\n      0x01\n      dup2\n      sload\n      add\n      dup1\n      dup3\n      sstore\n      dup1\n      swap2\n      pop\n      pop\n      0x01\n      swap1\n      sub\n      swap1\n      0x00\n      mstore\n      keccak256(0x00, 0x20)\n      add\n      0x00\n      swap1\n      swap2\n      swap1\n      swap2\n      swap1\n      swap2\n      pop\n      sstore\n        /* \"Libraries2.sol\":508:583  if (index == uint(int(-1))) arr.push(_new);... */\n      jump(tag_37)\n    tag_35:\n        /* \"Libraries2.sol\":579:583  _new */\n      dup2\n        /* \"Libraries2.sol\":566:569  arr */\n      0x00\n        /* \"Libraries2.sol\":570:575  index */\n      dup3\n        /* \"Libraries2.sol\":566:576  arr[index] */\n      dup2\n      sload\n      dup2\n      lt\n      tag_38\n      jumpi\n      tag_39\n      tag_40\n      jump\t// in\n    tag_39:\n    tag_38:\n      swap1\n      0x00\n      mstore\n      keccak256(0x00, 0x20)\n      add\n        /* \"Libraries2.sol\":566:583  arr[index] = _new */\n      dup2\n      swap1\n      sstore\n      pop\n        /* \"Libraries2.sol\":508:583  if (index == uint(int(-1))) arr.push(_new);... */\n    tag_37:\n        /* \"Libraries2.sol\":448:591  {... */\n      pop\n        /* \"Libraries2.sol\":401:591  function replace (uint _old, uint _new) public {... */\n      pop\n      pop\n      jump\t// out\n        /* \"Libraries2.sol\":599:683  function getArr () public view returns (uint[] memory) {... */\n    tag_21:\n        /* \"Libraries2.sol\":639:652  uint[] memory */\n      0x60\n        /* \"Libraries2.sol\":672:675  arr */\n      0x00\n        /* \"Libraries2.sol\":665:675  return arr */\n      dup1\n      sload\n      dup1\n      0x20\n      mul\n      0x20\n      add\n      mload(0x40)\n      swap1\n      dup2\n      add\n      0x40\n      mstore\n      dup1\n      swap3\n      swap2\n      swap1\n      dup2\n      dup2\n      mstore\n      0x20\n      add\n      dup3\n      dup1\n      sload\n      dup1\n      iszero\n      tag_43\n      jumpi\n      0x20\n      mul\n      dup3\n      add\n      swap2\n      swap1\n      0x00\n      mstore\n      keccak256(0x00, 0x20)\n      swap1\n    tag_44:\n      dup2\n      sload\n      dup2\n      mstore\n      0x20\n      add\n      swap1\n      0x01\n      add\n      swap1\n      dup1\n      dup4\n      gt\n      tag_44\n      jumpi\n    tag_43:\n      pop\n      pop\n      pop\n      pop\n      pop\n      swap1\n      pop\n        /* \"Libraries2.sol\":599:683  function getArr () public view returns (uint[] memory) {... */\n      swap1\n      jump\t// out\n        /* \"#utility.yul\":88:205   */\n    tag_46:\n        /* \"#utility.yul\":197:198   */\n      0x00\n        /* \"#utility.yul\":194:195   */\n      dup1\n        /* \"#utility.yul\":187:199   */\n      revert\n        /* \"#utility.yul\":334:411   */\n    tag_48:\n        /* \"#utility.yul\":371:378   */\n      0x00\n        /* \"#utility.yul\":400:405   */\n      dup2\n        /* \"#utility.yul\":389:405   */\n      swap1\n      pop\n        /* \"#utility.yul\":334:411   */\n      swap2\n      swap1\n      pop\n      jump\t// out\n        /* \"#utility.yul\":417:539   */\n    tag_49:\n        /* \"#utility.yul\":490:514   */\n      tag_68\n        /* \"#utility.yul\":508:513   */\n      dup2\n        /* \"#utility.yul\":490:514   */\n      tag_48\n      jump\t// in\n    tag_68:\n        /* \"#utility.yul\":483:488   */\n      dup2\n        /* \"#utility.yul\":480:515   */\n      eq\n        /* \"#utility.yul\":470:533   */\n      tag_69\n      jumpi\n        /* \"#utility.yul\":529:530   */\n      0x00\n        /* \"#utility.yul\":526:527   */\n      dup1\n        /* \"#utility.yul\":519:531   */\n      revert\n        /* \"#utility.yul\":470:533   */\n    tag_69:\n        /* \"#utility.yul\":417:539   */\n      pop\n      jump\t// out\n        /* \"#utility.yul\":545:684   */\n    tag_50:\n        /* \"#utility.yul\":591:596   */\n      0x00\n        /* \"#utility.yul\":629:635   */\n      dup2\n        /* \"#utility.yul\":616:636   */\n      calldataload\n        /* \"#utility.yul\":607:636   */\n      swap1\n      pop\n        /* \"#utility.yul\":645:678   */\n      tag_71\n        /* \"#utility.yul\":672:677   */\n      dup2\n        /* \"#utility.yul\":645:678   */\n      tag_49\n      jump\t// in\n    tag_71:\n        /* \"#utility.yul\":545:684   */\n      swap3\n      swap2\n      pop\n      pop\n      jump\t// out\n        /* \"#utility.yul\":690:1019   */\n    tag_9:\n        /* \"#utility.yul\":749:755   */\n      0x00\n        /* \"#utility.yul\":798:800   */\n      0x20\n        /* \"#utility.yul\":786:795   */\n      dup3\n        /* \"#utility.yul\":777:784   */\n      dup5\n        /* \"#utility.yul\":773:796   */\n      sub\n        /* \"#utility.yul\":769:801   */\n      slt\n        /* \"#utility.yul\":766:885   */\n      iszero\n      tag_73\n      jumpi\n        /* \"#utility.yul\":804:883   */\n      tag_74\n      tag_46\n      jump\t// in\n    tag_74:\n        /* \"#utility.yul\":766:885   */\n    tag_73:\n        /* \"#utility.yul\":924:925   */\n      0x00\n        /* \"#utility.yul\":949:1002   */\n      tag_75\n        /* \"#utility.yul\":994:1001   */\n      dup5\n        /* \"#utility.yul\":985:991   */\n      dup3\n        /* \"#utility.yul\":974:983   */\n      dup6\n        /* \"#utility.yul\":970:992   */\n      add\n        /* \"#utility.yul\":949:1002   */\n      tag_50\n      jump\t// in\n    tag_75:\n        /* \"#utility.yul\":939:1002   */\n      swap2\n      pop\n        /* \"#utility.yul\":895:1012   */\n      pop\n        /* \"#utility.yul\":690:1019   */\n      swap3\n      swap2\n      pop\n      pop\n      jump\t// out\n        /* \"#utility.yul\":1025:1143   */\n    tag_51:\n        /* \"#utility.yul\":1112:1136   */\n      tag_77\n        /* \"#utility.yul\":1130:1135   */\n      dup2\n        /* \"#utility.yul\":1112:1136   */\n      tag_48\n      jump\t// in\n    tag_77:\n        /* \"#utility.yul\":1107:1110   */\n      dup3\n        /* \"#utility.yul\":1100:1137   */\n      mstore\n        /* \"#utility.yul\":1025:1143   */\n      pop\n      pop\n      jump\t// out\n        /* \"#utility.yul\":1149:1371   */\n    tag_12:\n        /* \"#utility.yul\":1242:1246   */\n      0x00\n        /* \"#utility.yul\":1280:1282   */\n      0x20\n        /* \"#utility.yul\":1269:1278   */\n      dup3\n        /* \"#utility.yul\":1265:1283   */\n      add\n        /* \"#utility.yul\":1257:1283   */\n      swap1\n      pop\n        /* \"#utility.yul\":1293:1364   */\n      tag_79\n        /* \"#utility.yul\":1361:1362   */\n      0x00\n        /* \"#utility.yul\":1350:1359   */\n      dup4\n        /* \"#utility.yul\":1346:1363   */\n      add\n        /* \"#utility.yul\":1337:1343   */\n      dup5\n        /* \"#utility.yul\":1293:1364   */\n      tag_51\n      jump\t// in\n    tag_79:\n        /* \"#utility.yul\":1149:1371   */\n      swap3\n      swap2\n      pop\n      pop\n      jump\t// out\n        /* \"#utility.yul\":1377:1851   */\n    tag_18:\n        /* \"#utility.yul\":1445:1451   */\n      0x00\n        /* \"#utility.yul\":1453:1459   */\n      dup1\n        /* \"#utility.yul\":1502:1504   */\n      0x40\n        /* \"#utility.yul\":1490:1499   */\n      dup4\n        /* \"#utility.yul\":1481:1488   */\n      dup6\n        /* \"#utility.yul\":1477:1500   */\n      sub\n        /* \"#utility.yul\":1473:1505   */\n      slt\n        /* \"#utility.yul\":1470:1589   */\n      iszero\n      tag_81\n      jumpi\n        /* \"#utility.yul\":1508:1587   */\n      tag_82\n      tag_46\n      jump\t// in\n    tag_82:\n        /* \"#utility.yul\":1470:1589   */\n    tag_81:\n        /* \"#utility.yul\":1628:1629   */\n      0x00\n        /* \"#utility.yul\":1653:1706   */\n      tag_83\n        /* \"#utility.yul\":1698:1705   */\n      dup6\n        /* \"#utility.yul\":1689:1695   */\n      dup3\n        /* \"#utility.yul\":1678:1687   */\n      dup7\n        /* \"#utility.yul\":1674:1696   */\n      add\n        /* \"#utility.yul\":1653:1706   */\n      tag_50\n      jump\t// in\n    tag_83:\n        /* \"#utility.yul\":1643:1706   */\n      swap3\n      pop\n        /* \"#utility.yul\":1599:1716   */\n      pop\n        /* \"#utility.yul\":1755:1757   */\n      0x20\n        /* \"#utility.yul\":1781:1834   */\n      tag_84\n        /* \"#utility.yul\":1826:1833   */\n      dup6\n        /* \"#utility.yul\":1817:1823   */\n      dup3\n        /* \"#utility.yul\":1806:1815   */\n      dup7\n        /* \"#utility.yul\":1802:1824   */\n      add\n        /* \"#utility.yul\":1781:1834   */\n      tag_50\n      jump\t// in\n    tag_84:\n        /* \"#utility.yul\":1771:1834   */\n      swap2\n      pop\n        /* \"#utility.yul\":1726:1844   */\n      pop\n        /* \"#utility.yul\":1377:1851   */\n      swap3\n      pop\n      swap3\n      swap1\n      pop\n      jump\t// out\n        /* \"#utility.yul\":1857:1971   */\n    tag_52:\n        /* \"#utility.yul\":1924:1930   */\n      0x00\n        /* \"#utility.yul\":1958:1963   */\n      dup2\n        /* \"#utility.yul\":1952:1964   */\n      mload\n        /* \"#utility.yul\":1942:1964   */\n      swap1\n      pop\n        /* \"#utility.yul\":1857:1971   */\n      swap2\n      swap1\n      pop\n      jump\t// out\n        /* \"#utility.yul\":1977:2161   */\n    tag_53:\n        /* \"#utility.yul\":2076:2087   */\n      0x00\n        /* \"#utility.yul\":2110:2116   */\n      dup3\n        /* \"#utility.yul\":2105:2108   */\n      dup3\n        /* \"#utility.yul\":2098:2117   */\n      mstore\n        /* \"#utility.yul\":2150:2154   */\n      0x20\n        /* \"#utility.yul\":2145:2148   */\n      dup3\n        /* \"#utility.yul\":2141:2155   */\n      add\n        /* \"#utility.yul\":2126:2155   */\n      swap1\n      pop\n        /* \"#utility.yul\":1977:2161   */\n      swap3\n      swap2\n      pop\n      pop\n      jump\t// out\n        /* \"#utility.yul\":2167:2299   */\n    tag_54:\n        /* \"#utility.yul\":2234:2238   */\n      0x00\n        /* \"#utility.yul\":2257:2260   */\n      dup2\n        /* \"#utility.yul\":2249:2260   */\n      swap1\n      pop\n        /* \"#utility.yul\":2287:2291   */\n      0x20\n        /* \"#utility.yul\":2282:2285   */\n      dup3\n        /* \"#utility.yul\":2278:2292   */\n      add\n        /* \"#utility.yul\":2270:2292   */\n      swap1\n      pop\n        /* \"#utility.yul\":2167:2299   */\n      swap2\n      swap1\n      pop\n      jump\t// out\n        /* \"#utility.yul\":2305:2413   */\n    tag_55:\n        /* \"#utility.yul\":2382:2406   */\n      tag_89\n        /* \"#utility.yul\":2400:2405   */\n      dup2\n        /* \"#utility.yul\":2382:2406   */\n      tag_48\n      jump\t// in\n    tag_89:\n        /* \"#utility.yul\":2377:2380   */\n      dup3\n        /* \"#utility.yul\":2370:2407   */\n      mstore\n        /* \"#utility.yul\":2305:2413   */\n      pop\n      pop\n      jump\t// out\n        /* \"#utility.yul\":2419:2598   */\n    tag_56:\n        /* \"#utility.yul\":2488:2498   */\n      0x00\n        /* \"#utility.yul\":2509:2555   */\n      tag_91\n        /* \"#utility.yul\":2551:2554   */\n      dup4\n        /* \"#utility.yul\":2543:2549   */\n      dup4\n        /* \"#utility.yul\":2509:2555   */\n      tag_55\n      jump\t// in\n    tag_91:\n        /* \"#utility.yul\":2587:2591   */\n      0x20\n        /* \"#utility.yul\":2582:2585   */\n      dup4\n        /* \"#utility.yul\":2578:2592   */\n      add\n        /* \"#utility.yul\":2564:2592   */\n      swap1\n      pop\n        /* \"#utility.yul\":2419:2598   */\n      swap3\n      swap2\n      pop\n      pop\n      jump\t// out\n        /* \"#utility.yul\":2604:2717   */\n    tag_57:\n        /* \"#utility.yul\":2674:2678   */\n      0x00\n        /* \"#utility.yul\":2706:2710   */\n      0x20\n        /* \"#utility.yul\":2701:2704   */\n      dup3\n        /* \"#utility.yul\":2697:2711   */\n      add\n        /* \"#utility.yul\":2689:2711   */\n      swap1\n      pop\n        /* \"#utility.yul\":2604:2717   */\n      swap2\n      swap1\n      pop\n      jump\t// out\n        /* \"#utility.yul\":2753:3485   */\n    tag_58:\n        /* \"#utility.yul\":2872:2875   */\n      0x00\n        /* \"#utility.yul\":2901:2955   */\n      tag_94\n        /* \"#utility.yul\":2949:2954   */\n      dup3\n        /* \"#utility.yul\":2901:2955   */\n      tag_52\n      jump\t// in\n    tag_94:\n        /* \"#utility.yul\":2971:3057   */\n      tag_95\n        /* \"#utility.yul\":3050:3056   */\n      dup2\n        /* \"#utility.yul\":3045:3048   */\n      dup6\n        /* \"#utility.yul\":2971:3057   */\n      tag_53\n      jump\t// in\n    tag_95:\n        /* \"#utility.yul\":2964:3057   */\n      swap4\n      pop\n        /* \"#utility.yul\":3081:3137   */\n      tag_96\n        /* \"#utility.yul\":3131:3136   */\n      dup4\n        /* \"#utility.yul\":3081:3137   */\n      tag_54\n      jump\t// in\n    tag_96:\n        /* \"#utility.yul\":3160:3167   */\n      dup1\n        /* \"#utility.yul\":3191:3192   */\n      0x00\n        /* \"#utility.yul\":3176:3460   */\n    tag_97:\n        /* \"#utility.yul\":3201:3207   */\n      dup4\n        /* \"#utility.yul\":3198:3199   */\n      dup2\n        /* \"#utility.yul\":3195:3208   */\n      lt\n        /* \"#utility.yul\":3176:3460   */\n      iszero\n      tag_99\n      jumpi\n        /* \"#utility.yul\":3277:3283   */\n      dup2\n        /* \"#utility.yul\":3271:3284   */\n      mload\n        /* \"#utility.yul\":3304:3367   */\n      tag_100\n        /* \"#utility.yul\":3363:3366   */\n      dup9\n        /* \"#utility.yul\":3348:3361   */\n      dup3\n        /* \"#utility.yul\":3304:3367   */\n      tag_56\n      jump\t// in\n    tag_100:\n        /* \"#utility.yul\":3297:3367   */\n      swap8\n      pop\n        /* \"#utility.yul\":3390:3450   */\n      tag_101\n        /* \"#utility.yul\":3443:3449   */\n      dup4\n        /* \"#utility.yul\":3390:3450   */\n      tag_57\n      jump\t// in\n    tag_101:\n        /* \"#utility.yul\":3380:3450   */\n      swap3\n      pop\n        /* \"#utility.yul\":3236:3460   */\n      pop\n        /* \"#utility.yul\":3223:3224   */\n      0x01\n        /* \"#utility.yul\":3220:3221   */\n      dup2\n        /* \"#utility.yul\":3216:3225   */\n      add\n        /* \"#utility.yul\":3211:3225   */\n      swap1\n      pop\n        /* \"#utility.yul\":3176:3460   */\n      jump(tag_97)\n    tag_99:\n        /* \"#utility.yul\":3180:3194   */\n      pop\n        /* \"#utility.yul\":3476:3479   */\n      dup6\n        /* \"#utility.yul\":3469:3479   */\n      swap4\n      pop\n        /* \"#utility.yul\":2877:3485   */\n      pop\n      pop\n      pop\n        /* \"#utility.yul\":2753:3485   */\n      swap3\n      swap2\n      pop\n      pop\n      jump\t// out\n        /* \"#utility.yul\":3491:3864   */\n    tag_23:\n        /* \"#utility.yul\":3634:3638   */\n      0x00\n        /* \"#utility.yul\":3672:3674   */\n      0x20\n        /* \"#utility.yul\":3661:3670   */\n      dup3\n        /* \"#utility.yul\":3657:3675   */\n      add\n        /* \"#utility.yul\":3649:3675   */\n      swap1\n      pop\n        /* \"#utility.yul\":3721:3730   */\n      dup2\n        /* \"#utility.yul\":3715:3719   */\n      dup2\n        /* \"#utility.yul\":3711:3731   */\n      sub\n        /* \"#utility.yul\":3707:3708   */\n      0x00\n        /* \"#utility.yul\":3696:3705   */\n      dup4\n        /* \"#utility.yul\":3692:3709   */\n      add\n        /* \"#utility.yul\":3685:3732   */\n      mstore\n        /* \"#utility.yul\":3749:3857   */\n      tag_103\n        /* \"#utility.yul\":3852:3856   */\n      dup2\n        /* \"#utility.yul\":3843:3849   */\n      dup5\n        /* \"#utility.yul\":3749:3857   */\n      tag_58\n      jump\t// in\n    tag_103:\n        /* \"#utility.yul\":3741:3857   */\n      swap1\n      pop\n        /* \"#utility.yul\":3491:3864   */\n      swap3\n      swap2\n      pop\n      pop\n      jump\t// out\n        /* \"#utility.yul\":3870:3999   */\n    tag_59:\n        /* \"#utility.yul\":3987:3992   */\n      dup1\n        /* \"#utility.yul\":3982:3985   */\n      dup3\n        /* \"#utility.yul\":3975:3993   */\n      mstore\n        /* \"#utility.yul\":3870:3999   */\n      pop\n      pop\n      jump\t// out\n        /* \"#utility.yul\":4005:4131   */\n    tag_60:\n        /* \"#utility.yul\":4100:4124   */\n      tag_106\n        /* \"#utility.yul\":4118:4123   */\n      dup2\n        /* \"#utility.yul\":4100:4124   */\n      tag_48\n      jump\t// in\n    tag_106:\n        /* \"#utility.yul\":4095:4098   */\n      dup3\n        /* \"#utility.yul\":4088:4125   */\n      mstore\n        /* \"#utility.yul\":4005:4131   */\n      pop\n      pop\n      jump\t// out\n        /* \"#utility.yul\":4137:4537   */\n    tag_30:\n        /* \"#utility.yul\":4288:4292   */\n      0x00\n        /* \"#utility.yul\":4326:4328   */\n      0x40\n        /* \"#utility.yul\":4315:4324   */\n      dup3\n        /* \"#utility.yul\":4311:4329   */\n      add\n        /* \"#utility.yul\":4303:4329   */\n      swap1\n      pop\n        /* \"#utility.yul\":4339:4440   */\n      tag_108\n        /* \"#utility.yul\":4437:4438   */\n      0x00\n        /* \"#utility.yul\":4426:4435   */\n      dup4\n        /* \"#utility.yul\":4422:4439   */\n      add\n        /* \"#utility.yul\":4413:4419   */\n      dup6\n        /* \"#utility.yul\":4339:4440   */\n      tag_59\n      jump\t// in\n    tag_108:\n        /* \"#utility.yul\":4450:4530   */\n      tag_109\n        /* \"#utility.yul\":4526:4528   */\n      0x20\n        /* \"#utility.yul\":4515:4524   */\n      dup4\n        /* \"#utility.yul\":4511:4529   */\n      add\n        /* \"#utility.yul\":4502:4508   */\n      dup5\n        /* \"#utility.yul\":4450:4530   */\n      tag_60\n      jump\t// in\n    tag_109:\n        /* \"#utility.yul\":4137:4537   */\n      swap4\n      swap3\n      pop\n      pop\n      pop\n      jump\t// out\n        /* \"#utility.yul\":4543:4686   */\n    tag_61:\n        /* \"#utility.yul\":4600:4605   */\n      0x00\n        /* \"#utility.yul\":4631:4637   */\n      dup2\n        /* \"#utility.yul\":4625:4638   */\n      mload\n        /* \"#utility.yul\":4616:4638   */\n      swap1\n      pop\n        /* \"#utility.yul\":4647:4680   */\n      tag_111\n        /* \"#utility.yul\":4674:4679   */\n      dup2\n        /* \"#utility.yul\":4647:4680   */\n      tag_49\n      jump\t// in\n    tag_111:\n        /* \"#utility.yul\":4543:4686   */\n      swap3\n      swap2\n      pop\n      pop\n      jump\t// out\n        /* \"#utility.yul\":4692:5043   */\n    tag_34:\n        /* \"#utility.yul\":4762:4768   */\n      0x00\n        /* \"#utility.yul\":4811:4813   */\n      0x20\n        /* \"#utility.yul\":4799:4808   */\n      dup3\n        /* \"#utility.yul\":4790:4797   */\n      dup5\n        /* \"#utility.yul\":4786:4809   */\n      sub\n        /* \"#utility.yul\":4782:4814   */\n      slt\n        /* \"#utility.yul\":4779:4898   */\n      iszero\n      tag_113\n      jumpi\n        /* \"#utility.yul\":4817:4896   */\n      tag_114\n      tag_46\n      jump\t// in\n    tag_114:\n        /* \"#utility.yul\":4779:4898   */\n    tag_113:\n        /* \"#utility.yul\":4937:4938   */\n      0x00\n        /* \"#utility.yul\":4962:5026   */\n      tag_115\n        /* \"#utility.yul\":5018:5025   */\n      dup5\n        /* \"#utility.yul\":5009:5015   */\n      dup3\n        /* \"#utility.yul\":4998:5007   */\n      dup6\n        /* \"#utility.yul\":4994:5016   */\n      add\n        /* \"#utility.yul\":4962:5026   */\n      tag_61\n      jump\t// in\n    tag_115:\n        /* \"#utility.yul\":4952:5026   */\n      swap2\n      pop\n        /* \"#utility.yul\":4908:5036   */\n      pop\n        /* \"#utility.yul\":4692:5043   */\n      swap3\n      swap2\n      pop\n      pop\n      jump\t// out\n        /* \"#utility.yul\":5049:5229   */\n    tag_40:\n        /* \"#utility.yul\":5097:5174   */\n      0x4e487b7100000000000000000000000000000000000000000000000000000000\n        /* \"#utility.yul\":5094:5095   */\n      0x00\n        /* \"#utility.yul\":5087:5175   */\n      mstore\n        /* \"#utility.yul\":5194:5198   */\n      0x32\n        /* \"#utility.yul\":5191:5192   */\n      0x04\n        /* \"#utility.yul\":5184:5199   */\n      mstore\n        /* \"#utility.yul\":5218:5222   */\n      0x24\n        /* \"#utility.yul\":5215:5216   */\n      0x00\n        /* \"#utility.yul\":5208:5223   */\n      revert\n\n    auxdata: 0xa264697066735822122047493fa28a492ceab7163226f2c0ee2b302c7d6708d0b6bc7a7820388664386c64736f6c634300080d0033\n}\n",
				"bytecode": {
					"linkReferences": {
						"Libraries2.sol": {
							"Search": [
								{
									"length": 20,
									"start": 331
								}
							]
						}
					},
					"object": "608060405234801561001057600080fd5b50610514806100206000396000f3fe608060405234801561001057600080fd5b506004361061004c5760003560e01c806371e5ee5f14610051578063e33b870714610081578063e81cf24c1461009d578063fb8cbced146100b9575b600080fd5b61006b600480360381019061006691906102b7565b6100d7565b60405161007891906102f3565b60405180910390f35b61009b600480360381019061009691906102b7565b6100fb565b005b6100b760048036038101906100b2919061030e565b610127565b005b6100c1610224565b6040516100ce919061040c565b60405180910390f35b600081815481106100e757600080fd5b906000526020600020016000915090505481565b600081908060018154018082558091505060019003906000526020600020016000909190919091505550565b600073__$f53ff5401bba9d0133b3dfab23320e97ed$__6324fef5c86000856040518363ffffffff1660e01b8152600401610163929190610444565b602060405180830381865af4158015610180573d6000803e3d6000fd5b505050506040513d601f19601f820116820180604052508101906101a49190610482565b90507fffffffffffffffffffffffffffffffffffffffffffffffffffffffffffffffff81036101fb57600082908060018154018082558091505060019003906000526020600020016000909190919091505561021f565b81600082815481106102105761020f6104af565b5b90600052602060002001819055505b505050565b6060600080548060200260200160405190810160405280929190818152602001828054801561027257602002820191906000526020600020905b81548152602001906001019080831161025e575b5050505050905090565b600080fd5b6000819050919050565b61029481610281565b811461029f57600080fd5b50565b6000813590506102b18161028b565b92915050565b6000602082840312156102cd576102cc61027c565b5b60006102db848285016102a2565b91505092915050565b6102ed81610281565b82525050565b600060208201905061030860008301846102e4565b92915050565b600080604083850312156103255761032461027c565b5b6000610333858286016102a2565b9250506020610344858286016102a2565b9150509250929050565b600081519050919050565b600082825260208201905092915050565b6000819050602082019050919050565b61038381610281565b82525050565b6000610395838361037a565b60208301905092915050565b6000602082019050919050565b60006103b98261034e565b6103c38185610359565b93506103ce8361036a565b8060005b838110156103ff5781516103e68882610389565b97506103f1836103a1565b9250506001810190506103d2565b5085935050505092915050565b6000602082019050818103600083015261042681846103ae565b905092915050565b8082525050565b61043e81610281565b82525050565b6000604082019050610459600083018561042e565b6104666020830184610435565b9392505050565b60008151905061047c8161028b565b92915050565b6000602082840312156104985761049761027c565b5b60006104a68482850161046d565b91505092915050565b7f4e487b7100000000000000000000000000000000000000000000000000000000600052603260045260246000fdfea264697066735822122047493fa28a492ceab7163226f2c0ee2b302c7d6708d0b6bc7a7820388664386c64736f6c634300080d0033",
					"opcodes": "PUSH1 0x80 PUSH1 0x40 MSTORE CALLVALUE DUP1 ISZERO PUSH2 0x10 JUMPI PUSH1 0x0 DUP1 REVERT JUMPDEST POP PUSH2 0x514 DUP1 PUSH2 0x20 PUSH1 0x0 CODECOPY PUSH1 0x0 RETURN INVALID PUSH1 0x80 PUSH1 0x40 MSTORE CALLVALUE DUP1 ISZERO PUSH2 0x10 JUMPI PUSH1 0x0 DUP1 REVERT JUMPDEST POP PUSH1 0x4 CALLDATASIZE LT PUSH2 0x4C JUMPI PUSH1 0x0 CALLDATALOAD PUSH1 0xE0 SHR DUP1 PUSH4 0x71E5EE5F EQ PUSH2 0x51 JUMPI DUP1 PUSH4 0xE33B8707 EQ PUSH2 0x81 JUMPI DUP1 PUSH4 0xE81CF24C EQ PUSH2 0x9D JUMPI DUP1 PUSH4 0xFB8CBCED EQ PUSH2 0xB9 JUMPI JUMPDEST PUSH1 0x0 DUP1 REVERT JUMPDEST PUSH2 0x6B PUSH1 0x4 DUP1 CALLDATASIZE SUB DUP2 ADD SWAP1 PUSH2 0x66 SWAP2 SWAP1 PUSH2 0x2B7 JUMP JUMPDEST PUSH2 0xD7 JUMP JUMPDEST PUSH1 0x40 MLOAD PUSH2 0x78 SWAP2 SWAP1 PUSH2 0x2F3 JUMP JUMPDEST PUSH1 0x40 MLOAD DUP1 SWAP2 SUB SWAP1 RETURN JUMPDEST PUSH2 0x9B PUSH1 0x4 DUP1 CALLDATASIZE SUB DUP2 ADD SWAP1 PUSH2 0x96 SWAP2 SWAP1 PUSH2 0x2B7 JUMP JUMPDEST PUSH2 0xFB JUMP JUMPDEST STOP JUMPDEST PUSH2 0xB7 PUSH1 0x4 DUP1 CALLDATASIZE SUB DUP2 ADD SWAP1 PUSH2 0xB2 SWAP2 SWAP1 PUSH2 0x30E JUMP JUMPDEST PUSH2 0x127 JUMP JUMPDEST STOP JUMPDEST PUSH2 0xC1 PUSH2 0x224 JUMP JUMPDEST PUSH1 0x40 MLOAD PUSH2 0xCE SWAP2 SWAP1 PUSH2 0x40C JUMP JUMPDEST PUSH1 0x40 MLOAD DUP1 SWAP2 SUB SWAP1 RETURN JUMPDEST PUSH1 0x0 DUP2 DUP2 SLOAD DUP2 LT PUSH2 0xE7 JUMPI PUSH1 0x0 DUP1 REVERT JUMPDEST SWAP1 PUSH1 0x0 MSTORE PUSH1 0x20 PUSH1 0x0 KECCAK256 ADD PUSH1 0x0 SWAP2 POP SWAP1 POP SLOAD DUP2 JUMP JUMPDEST PUSH1 0x0 DUP2 SWAP1 DUP1 PUSH1 0x1 DUP2 SLOAD ADD DUP1 DUP3 SSTORE DUP1 SWAP2 POP POP PUSH1 0x1 SWAP1 SUB SWAP1 PUSH1 0x0 MSTORE PUSH1 0x20 PUSH1 0x0 KECCAK256 ADD PUSH1 0x0 SWAP1 SWAP2 SWAP1 SWAP2 SWAP1 SWAP2 POP SSTORE POP JUMP JUMPDEST PUSH1 0x0 PUSH20 0x0 PUSH4 0x24FEF5C8 PUSH1 0x0 DUP6 PUSH1 0x40 MLOAD DUP4 PUSH4 0xFFFFFFFF AND PUSH1 0xE0 SHL DUP2 MSTORE PUSH1 0x4 ADD PUSH2 0x163 SWAP3 SWAP2 SWAP1 PUSH2 0x444 JUMP JUMPDEST PUSH1 0x20 PUSH1 0x40 MLOAD DUP1 DUP4 SUB DUP2 DUP7 GAS DELEGATECALL ISZERO DUP1 ISZERO PUSH2 0x180 JUMPI RETURNDATASIZE PUSH1 0x0 DUP1 RETURNDATACOPY RETURNDATASIZE PUSH1 0x0 REVERT JUMPDEST POP POP POP POP PUSH1 0x40 MLOAD RETURNDATASIZE PUSH1 0x1F NOT PUSH1 0x1F DUP3 ADD AND DUP3 ADD DUP1 PUSH1 0x40 MSTORE POP DUP2 ADD SWAP1 PUSH2 0x1A4 SWAP2 SWAP1 PUSH2 0x482 JUMP JUMPDEST SWAP1 POP PUSH32 0xFFFFFFFFFFFFFFFFFFFFFFFFFFFFFFFFFFFFFFFFFFFFFFFFFFFFFFFFFFFFFFFF DUP2 SUB PUSH2 0x1FB JUMPI PUSH1 0x0 DUP3 SWAP1 DUP1 PUSH1 0x1 DUP2 SLOAD ADD DUP1 DUP3 SSTORE DUP1 SWAP2 POP POP PUSH1 0x1 SWAP1 SUB SWAP1 PUSH1 0x0 MSTORE PUSH1 0x20 PUSH1 0x0 KECCAK256 ADD PUSH1 0x0 SWAP1 SWAP2 SWAP1 SWAP2 SWAP1 SWAP2 POP SSTORE PUSH2 0x21F JUMP JUMPDEST DUP2 PUSH1 0x0 DUP3 DUP2 SLOAD DUP2 LT PUSH2 0x210 JUMPI PUSH2 0x20F PUSH2 0x4AF JUMP JUMPDEST JUMPDEST SWAP1 PUSH1 0x0 MSTORE PUSH1 0x20 PUSH1 0x0 KECCAK256 ADD DUP2 SWAP1 SSTORE POP JUMPDEST POP POP POP JUMP JUMPDEST PUSH1 0x60 PUSH1 0x0 DUP1 SLOAD DUP1 PUSH1 0x20 MUL PUSH1 0x20 ADD PUSH1 0x40 MLOAD SWAP1 DUP2 ADD PUSH1 0x40 MSTORE DUP1 SWAP3 SWAP2 SWAP1 DUP2 DUP2 MSTORE PUSH1 0x20 ADD DUP3 DUP1 SLOAD DUP1 ISZERO PUSH2 0x272 JUMPI PUSH1 0x20 MUL DUP3 ADD SWAP2 SWAP1 PUSH1 0x0 MSTORE PUSH1 0x20 PUSH1 0x0 KECCAK256 SWAP1 JUMPDEST DUP2 SLOAD DUP2 MSTORE PUSH1 0x20 ADD SWAP1 PUSH1 0x1 ADD SWAP1 DUP1 DUP4 GT PUSH2 0x25E JUMPI JUMPDEST POP POP POP POP POP SWAP1 POP SWAP1 JUMP JUMPDEST PUSH1 0x0 DUP1 REVERT JUMPDEST PUSH1 0x0 DUP2 SWAP1 POP SWAP2 SWAP1 POP JUMP JUMPDEST PUSH2 0x294 DUP2 PUSH2 0x281 JUMP JUMPDEST DUP2 EQ PUSH2 0x29F JUMPI PUSH1 0x0 DUP1 REVERT JUMPDEST POP JUMP JUMPDEST PUSH1 0x0 DUP2 CALLDATALOAD SWAP1 POP PUSH2 0x2B1 DUP2 PUSH2 0x28B JUMP JUMPDEST SWAP3 SWAP2 POP POP JUMP JUMPDEST PUSH1 0x0 PUSH1 0x20 DUP3 DUP5 SUB SLT ISZERO PUSH2 0x2CD JUMPI PUSH2 0x2CC PUSH2 0x27C JUMP JUMPDEST JUMPDEST PUSH1 0x0 PUSH2 0x2DB DUP5 DUP3 DUP6 ADD PUSH2 0x2A2 JUMP JUMPDEST SWAP2 POP POP SWAP3 SWAP2 POP POP JUMP JUMPDEST PUSH2 0x2ED DUP2 PUSH2 0x281 JUMP JUMPDEST DUP3 MSTORE POP POP JUMP JUMPDEST PUSH1 0x0 PUSH1 0x20 DUP3 ADD SWAP1 POP PUSH2 0x308 PUSH1 0x0 DUP4 ADD DUP5 PUSH2 0x2E4 JUMP JUMPDEST SWAP3 SWAP2 POP POP JUMP JUMPDEST PUSH1 0x0 DUP1 PUSH1 0x40 DUP4 DUP6 SUB SLT ISZERO PUSH2 0x325 JUMPI PUSH2 0x324 PUSH2 0x27C JUMP JUMPDEST JUMPDEST PUSH1 0x0 PUSH2 0x333 DUP6 DUP3 DUP7 ADD PUSH2 0x2A2 JUMP JUMPDEST SWAP3 POP POP PUSH1 0x20 PUSH2 0x344 DUP6 DUP3 DUP7 ADD PUSH2 0x2A2 JUMP JUMPDEST SWAP2 POP POP SWAP3 POP SWAP3 SWAP1 POP JUMP JUMPDEST PUSH1 0x0 DUP2 MLOAD SWAP1 POP SWAP2 SWAP1 POP JUMP JUMPDEST PUSH1 0x0 DUP3 DUP3 MSTORE PUSH1 0x20 DUP3 ADD SWAP1 POP SWAP3 SWAP2 POP POP JUMP JUMPDEST PUSH1 0x0 DUP2 SWAP1 POP PUSH1 0x20 DUP3 ADD SWAP1 POP SWAP2 SWAP1 POP JUMP JUMPDEST PUSH2 0x383 DUP2 PUSH2 0x281 JUMP JUMPDEST DUP3 MSTORE POP POP JUMP JUMPDEST PUSH1 0x0 PUSH2 0x395 DUP4 DUP4 PUSH2 0x37A JUMP JUMPDEST PUSH1 0x20 DUP4 ADD SWAP1 POP SWAP3 SWAP2 POP POP JUMP JUMPDEST PUSH1 0x0 PUSH1 0x20 DUP3 ADD SWAP1 POP SWAP2 SWAP1 POP JUMP JUMPDEST PUSH1 0x0 PUSH2 0x3B9 DUP3 PUSH2 0x34E JUMP JUMPDEST PUSH2 0x3C3 DUP2 DUP6 PUSH2 0x359 JUMP JUMPDEST SWAP4 POP PUSH2 0x3CE DUP4 PUSH2 0x36A JUMP JUMPDEST DUP1 PUSH1 0x0 JUMPDEST DUP4 DUP2 LT ISZERO PUSH2 0x3FF JUMPI DUP2 MLOAD PUSH2 0x3E6 DUP9 DUP3 PUSH2 0x389 JUMP JUMPDEST SWAP8 POP PUSH2 0x3F1 DUP4 PUSH2 0x3A1 JUMP JUMPDEST SWAP3 POP POP PUSH1 0x1 DUP2 ADD SWAP1 POP PUSH2 0x3D2 JUMP JUMPDEST POP DUP6 SWAP4 POP POP POP POP SWAP3 SWAP2 POP POP JUMP JUMPDEST PUSH1 0x0 PUSH1 0x20 DUP3 ADD SWAP1 POP DUP2 DUP2 SUB PUSH1 0x0 DUP4 ADD MSTORE PUSH2 0x426 DUP2 DUP5 PUSH2 0x3AE JUMP JUMPDEST SWAP1 POP SWAP3 SWAP2 POP POP JUMP JUMPDEST DUP1 DUP3 MSTORE POP POP JUMP JUMPDEST PUSH2 0x43E DUP2 PUSH2 0x281 JUMP JUMPDEST DUP3 MSTORE POP POP JUMP JUMPDEST PUSH1 0x0 PUSH1 0x40 DUP3 ADD SWAP1 POP PUSH2 0x459 PUSH1 0x0 DUP4 ADD DUP6 PUSH2 0x42E JUMP JUMPDEST PUSH2 0x466 PUSH1 0x20 DUP4 ADD DUP5 PUSH2 0x435 JUMP JUMPDEST SWAP4 SWAP3 POP POP POP JUMP JUMPDEST PUSH1 0x0 DUP2 MLOAD SWAP1 POP PUSH2 0x47C DUP2 PUSH2 0x28B JUMP JUMPDEST SWAP3 SWAP2 POP POP JUMP JUMPDEST PUSH1 0x0 PUSH1 0x20 DUP3 DUP5 SUB SLT ISZERO PUSH2 0x498 JUMPI PUSH2 0x497 PUSH2 0x27C JUMP JUMPDEST JUMPDEST PUSH1 0x0 PUSH2 0x4A6 DUP5 DUP3 DUP6 ADD PUSH2 0x46D JUMP JUMPDEST SWAP2 POP POP SWAP3 SWAP2 POP POP JUMP JUMPDEST PUSH32 0x4E487B7100000000000000000000000000000000000000000000000000000000 PUSH1 0x0 MSTORE PUSH1 0x32 PUSH1 0x4 MSTORE PUSH1 0x24 PUSH1 0x0 REVERT INVALID LOG2 PUSH5 0x6970667358 0x22 SLT KECCAK256 SELFBALANCE 0x49 EXTCODEHASH LOG2 DUP11 0x49 0x2C 0xEA 0xB7 AND ORIGIN 0x26 CALLCODE 0xC0 0xEE 0x2B ADDRESS 0x2C PUSH30 0x6708D0B6BC7A7820388664386C64736F6C634300080D0033000000000000 "
				},
				"gasEstimates": {
					"creation": {
						"codeDepositCost": "260000",
						"executionCost": "300",
						"totalCost": "260300"
					},
					"external": {
						"append(uint256)": "46829",
						"arr(uint256)": "infinite",
						"getArr()": "infinite",
						"replace(uint256,uint256)": "infinite"
					}
				},
				"methodIdentifiers": {
					"append(uint256)": "e33b8707",
					"arr(uint256)": "71e5ee5f",
					"getArr()": "fb8cbced",
					"replace(uint256,uint256)": "e81cf24c"
				}
			},
			"userdoc": {
				"kind": "user",
				"methods": {},
				"version": 1
			}
		}
	}
}