{
	"WallT1.0/MainContract.sol": {
		"Wallt1": {
			"abi": [
				{
					"anonymous": false,
					"inputs": [
						{
							"indexed": true,
							"internalType": "address",
							"name": "previousOwner",
							"type": "address"
						},
						{
							"indexed": true,
							"internalType": "address",
							"name": "newOwner",
							"type": "address"
						}
					],
					"name": "OwnershipTransferred",
					"type": "event"
				},
				{
					"stateMutability": "payable",
					"type": "fallback"
				},
				{
					"inputs": [
						{
							"internalType": "address",
							"name": "",
							"type": "address"
						}
					],
					"name": "allowance",
					"outputs": [
						{
							"internalType": "uint256",
							"name": "",
							"type": "uint256"
						}
					],
					"stateMutability": "view",
					"type": "function"
				},
				{
					"inputs": [],
					"name": "owner",
					"outputs": [
						{
							"internalType": "address",
							"name": "",
							"type": "address"
						}
					],
					"stateMutability": "view",
					"type": "function"
				},
				{
					"inputs": [],
					"name": "renounceOwnership",
					"outputs": [],
					"stateMutability": "nonpayable",
					"type": "function"
				},
				{
					"inputs": [
						{
							"internalType": "address",
							"name": "_member",
							"type": "address"
						},
						{
							"internalType": "uint256",
							"name": "_allowance",
							"type": "uint256"
						}
					],
					"name": "setAllowance",
					"outputs": [],
					"stateMutability": "nonpayable",
					"type": "function"
				},
				{
					"inputs": [
						{
							"internalType": "address",
							"name": "newOwner",
							"type": "address"
						}
					],
					"name": "transferOwnership",
					"outputs": [],
					"stateMutability": "nonpayable",
					"type": "function"
				},
				{
					"inputs": [
						{
							"internalType": "address payable",
							"name": "_to",
							"type": "address"
						},
						{
							"internalType": "uint256",
							"name": "_amount",
							"type": "uint256"
						}
					],
					"name": "withdrawFunds",
					"outputs": [],
					"stateMutability": "nonpayable",
					"type": "function"
				}
			],
			"devdoc": {
				"kind": "dev",
				"methods": {
					"owner()": {
						"details": "Returns the address of the current owner."
					},
					"renounceOwnership()": {
						"details": "Leaves the contract without owner. It will not be possible to call `onlyOwner` functions anymore. Can only be called by the current owner. NOTE: Renouncing ownership will leave the contract without an owner, thereby removing any functionality that is only available to the owner."
					},
					"transferOwnership(address)": {
						"details": "Transfers ownership of the contract to a new account (`newOwner`). Can only be called by the current owner."
					}
				},
				"version": 1
			},
			"evm": {
				"assembly": "    /* \"WallT1.0/MainContract.sol\":136:1008  contract Wallt1 is Ownable{\r... */\n  mstore(0x40, 0x80)\n  callvalue\n  dup1\n  iszero\n  tag_1\n  jumpi\n  0x00\n  dup1\n  revert\ntag_1:\n  pop\n    /* \"https://github.com/OpenZeppelin/openzeppelin-contracts/blob/master/contracts/access/Ownable.sol\":921:953  _transferOwnership(_msgSender()) */\n  tag_4\n    /* \"https://github.com/OpenZeppelin/openzeppelin-contracts/blob/master/contracts/access/Ownable.sol\":940:952  _msgSender() */\n  tag_5\n    /* \"https://github.com/OpenZeppelin/openzeppelin-contracts/blob/master/contracts/access/Ownable.sol\":940:950  _msgSender */\n  shl(0x20, tag_6)\n    /* \"https://github.com/OpenZeppelin/openzeppelin-contracts/blob/master/contracts/access/Ownable.sol\":940:952  _msgSender() */\n  0x20\n  shr\n  jump\t// in\ntag_5:\n    /* \"https://github.com/OpenZeppelin/openzeppelin-contracts/blob/master/contracts/access/Ownable.sol\":921:939  _transferOwnership */\n  shl(0x20, tag_7)\n    /* \"https://github.com/OpenZeppelin/openzeppelin-contracts/blob/master/contracts/access/Ownable.sol\":921:953  _transferOwnership(_msgSender()) */\n  0x20\n  shr\n  jump\t// in\ntag_4:\n    /* \"WallT1.0/MainContract.sol\":136:1008  contract Wallt1 is Ownable{\r... */\n  jump(tag_8)\n    /* \"https://github.com/OpenZeppelin/openzeppelin-contracts/blob/master/contracts/utils/Context.sol\":640:736  function _msgSender() internal view virtual returns (address) {... */\ntag_6:\n    /* \"https://github.com/OpenZeppelin/openzeppelin-contracts/blob/master/contracts/utils/Context.sol\":693:700  address */\n  0x00\n    /* \"https://github.com/OpenZeppelin/openzeppelin-contracts/blob/master/contracts/utils/Context.sol\":719:729  msg.sender */\n  caller\n    /* \"https://github.com/OpenZeppelin/openzeppelin-contracts/blob/master/contracts/utils/Context.sol\":712:729  return msg.sender */\n  swap1\n  pop\n    /* \"https://github.com/OpenZeppelin/openzeppelin-contracts/blob/master/contracts/utils/Context.sol\":640:736  function _msgSender() internal view virtual returns (address) {... */\n  swap1\n  jump\t// out\n    /* \"https://github.com/OpenZeppelin/openzeppelin-contracts/blob/master/contracts/access/Ownable.sol\":2270:2457  function _transferOwnership(address newOwner) internal virtual {... */\ntag_7:\n    /* \"https://github.com/OpenZeppelin/openzeppelin-contracts/blob/master/contracts/access/Ownable.sol\":2343:2359  address oldOwner */\n  0x00\n    /* \"https://github.com/OpenZeppelin/openzeppelin-contracts/blob/master/contracts/access/Ownable.sol\":2362:2368  _owner */\n  dup1\n  0x00\n  swap1\n  sload\n  swap1\n  0x0100\n  exp\n  swap1\n  div\n  0xffffffffffffffffffffffffffffffffffffffff\n  and\n    /* \"https://github.com/OpenZeppelin/openzeppelin-contracts/blob/master/contracts/access/Ownable.sol\":2343:2368  address oldOwner = _owner */\n  swap1\n  pop\n    /* \"https://github.com/OpenZeppelin/openzeppelin-contracts/blob/master/contracts/access/Ownable.sol\":2387:2395  newOwner */\n  dup2\n    /* \"https://github.com/OpenZeppelin/openzeppelin-contracts/blob/master/contracts/access/Ownable.sol\":2378:2384  _owner */\n  0x00\n  dup1\n    /* \"https://github.com/OpenZeppelin/openzeppelin-contracts/blob/master/contracts/access/Ownable.sol\":2378:2395  _owner = newOwner */\n  0x0100\n  exp\n  dup2\n  sload\n  dup2\n  0xffffffffffffffffffffffffffffffffffffffff\n  mul\n  not\n  and\n  swap1\n  dup4\n  0xffffffffffffffffffffffffffffffffffffffff\n  and\n  mul\n  or\n  swap1\n  sstore\n  pop\n    /* \"https://github.com/OpenZeppelin/openzeppelin-contracts/blob/master/contracts/access/Ownable.sol\":2441:2449  newOwner */\n  dup2\n    /* \"https://github.com/OpenZeppelin/openzeppelin-contracts/blob/master/contracts/access/Ownable.sol\":2410:2450  OwnershipTransferred(oldOwner, newOwner) */\n  0xffffffffffffffffffffffffffffffffffffffff\n  and\n    /* \"https://github.com/OpenZeppelin/openzeppelin-contracts/blob/master/contracts/access/Ownable.sol\":2431:2439  oldOwner */\n  dup2\n    /* \"https://github.com/OpenZeppelin/openzeppelin-contracts/blob/master/contracts/access/Ownable.sol\":2410:2450  OwnershipTransferred(oldOwner, newOwner) */\n  0xffffffffffffffffffffffffffffffffffffffff\n  and\n  0x8be0079c531659141344cd1fd0a4f28419497f9722a3daafe3b4186f6b6457e0\n  mload(0x40)\n  mload(0x40)\n  dup1\n  swap2\n  sub\n  swap1\n  log3\n    /* \"https://github.com/OpenZeppelin/openzeppelin-contracts/blob/master/contracts/access/Ownable.sol\":2333:2457  {... */\n  pop\n    /* \"https://github.com/OpenZeppelin/openzeppelin-contracts/blob/master/contracts/access/Ownable.sol\":2270:2457  function _transferOwnership(address newOwner) internal virtual {... */\n  pop\n  jump\t// out\n    /* \"WallT1.0/MainContract.sol\":136:1008  contract Wallt1 is Ownable{\r... */\ntag_8:\n  dataSize(sub_0)\n  dup1\n  dataOffset(sub_0)\n  0x00\n  codecopy\n  0x00\n  return\nstop\n\nsub_0: assembly {\n        /* \"WallT1.0/MainContract.sol\":136:1008  contract Wallt1 is Ownable{\r... */\n      mstore(0x40, 0x80)\n      jumpi(tag_1, lt(calldatasize, 0x04))\n      shr(0xe0, calldataload(0x00))\n      dup1\n      0x310ec4a7\n      eq\n      tag_3\n      jumpi\n      dup1\n      0x3e5beab9\n      eq\n      tag_4\n      jumpi\n      dup1\n      0x715018a6\n      eq\n      tag_5\n      jumpi\n      dup1\n      0x8da5cb5b\n      eq\n      tag_6\n      jumpi\n      dup1\n      0xc1075329\n      eq\n      tag_7\n      jumpi\n      dup1\n      0xf2fde38b\n      eq\n      tag_8\n      jumpi\n      jump(tag_2)\n    tag_1:\n    tag_2:\n      stop\n        /* \"WallT1.0/MainContract.sol\":222:345  function setAllowance (address _member, uint _allowance) public onlyOwner{\r... */\n    tag_3:\n      callvalue\n      dup1\n      iszero\n      tag_11\n      jumpi\n      0x00\n      dup1\n      revert\n    tag_11:\n      pop\n      tag_12\n      0x04\n      dup1\n      calldatasize\n      sub\n      dup2\n      add\n      swap1\n      tag_13\n      swap2\n      swap1\n      tag_14\n      jump\t// in\n    tag_13:\n      tag_15\n      jump\t// in\n    tag_12:\n      stop\n        /* \"WallT1.0/MainContract.sol\":171:213  mapping (address => uint) public allowance */\n    tag_4:\n      callvalue\n      dup1\n      iszero\n      tag_16\n      jumpi\n      0x00\n      dup1\n      revert\n    tag_16:\n      pop\n      tag_17\n      0x04\n      dup1\n      calldatasize\n      sub\n      dup2\n      add\n      swap1\n      tag_18\n      swap2\n      swap1\n      tag_19\n      jump\t// in\n    tag_18:\n      tag_20\n      jump\t// in\n    tag_17:\n      mload(0x40)\n      tag_21\n      swap2\n      swap1\n      tag_22\n      jump\t// in\n    tag_21:\n      mload(0x40)\n      dup1\n      swap2\n      sub\n      swap1\n      return\n        /* \"https://github.com/OpenZeppelin/openzeppelin-contracts/blob/master/contracts/access/Ownable.sol\":1668:1769  function renounceOwnership() public virtual onlyOwner {... */\n    tag_5:\n      callvalue\n      dup1\n      iszero\n      tag_23\n      jumpi\n      0x00\n      dup1\n      revert\n    tag_23:\n      pop\n      tag_24\n      tag_25\n      jump\t// in\n    tag_24:\n      stop\n        /* \"https://github.com/OpenZeppelin/openzeppelin-contracts/blob/master/contracts/access/Ownable.sol\":1036:1121  function owner() public view virtual returns (address) {... */\n    tag_6:\n      callvalue\n      dup1\n      iszero\n      tag_26\n      jumpi\n      0x00\n      dup1\n      revert\n    tag_26:\n      pop\n      tag_27\n      tag_28\n      jump\t// in\n    tag_27:\n      mload(0x40)\n      tag_29\n      swap2\n      swap1\n      tag_30\n      jump\t// in\n    tag_29:\n      mload(0x40)\n      dup1\n      swap2\n      sub\n      swap1\n      return\n        /* \"WallT1.0/MainContract.sol\":690:1003  function withdrawFunds(address payable _to, uint _amount) public ownerOrAllowed(_amount){\r... */\n    tag_7:\n      callvalue\n      dup1\n      iszero\n      tag_31\n      jumpi\n      0x00\n      dup1\n      revert\n    tag_31:\n      pop\n      tag_32\n      0x04\n      dup1\n      calldatasize\n      sub\n      dup2\n      add\n      swap1\n      tag_33\n      swap2\n      swap1\n      tag_34\n      jump\t// in\n    tag_33:\n      tag_35\n      jump\t// in\n    tag_32:\n      stop\n        /* \"https://github.com/OpenZeppelin/openzeppelin-contracts/blob/master/contracts/access/Ownable.sol\":1918:2116  function transferOwnership(address newOwner) public virtual onlyOwner {... */\n    tag_8:\n      callvalue\n      dup1\n      iszero\n      tag_36\n      jumpi\n      0x00\n      dup1\n      revert\n    tag_36:\n      pop\n      tag_37\n      0x04\n      dup1\n      calldatasize\n      sub\n      dup2\n      add\n      swap1\n      tag_38\n      swap2\n      swap1\n      tag_19\n      jump\t// in\n    tag_38:\n      tag_39\n      jump\t// in\n    tag_37:\n      stop\n        /* \"WallT1.0/MainContract.sol\":222:345  function setAllowance (address _member, uint _allowance) public onlyOwner{\r... */\n    tag_15:\n        /* \"https://github.com/OpenZeppelin/openzeppelin-contracts/blob/master/contracts/access/Ownable.sol\":1259:1271  _msgSender() */\n      tag_41\n        /* \"https://github.com/OpenZeppelin/openzeppelin-contracts/blob/master/contracts/access/Ownable.sol\":1259:1269  _msgSender */\n      tag_42\n        /* \"https://github.com/OpenZeppelin/openzeppelin-contracts/blob/master/contracts/access/Ownable.sol\":1259:1271  _msgSender() */\n      jump\t// in\n    tag_41:\n        /* \"https://github.com/OpenZeppelin/openzeppelin-contracts/blob/master/contracts/access/Ownable.sol\":1248:1271  owner() == _msgSender() */\n      0xffffffffffffffffffffffffffffffffffffffff\n      and\n        /* \"https://github.com/OpenZeppelin/openzeppelin-contracts/blob/master/contracts/access/Ownable.sol\":1248:1255  owner() */\n      tag_43\n        /* \"https://github.com/OpenZeppelin/openzeppelin-contracts/blob/master/contracts/access/Ownable.sol\":1248:1253  owner */\n      tag_28\n        /* \"https://github.com/OpenZeppelin/openzeppelin-contracts/blob/master/contracts/access/Ownable.sol\":1248:1255  owner() */\n      jump\t// in\n    tag_43:\n        /* \"https://github.com/OpenZeppelin/openzeppelin-contracts/blob/master/contracts/access/Ownable.sol\":1248:1271  owner() == _msgSender() */\n      0xffffffffffffffffffffffffffffffffffffffff\n      and\n      eq\n        /* \"https://github.com/OpenZeppelin/openzeppelin-contracts/blob/master/contracts/access/Ownable.sol\":1240:1308  require(owner() == _msgSender(), \"Ownable: caller is not the owner\") */\n      tag_44\n      jumpi\n      mload(0x40)\n      0x08c379a000000000000000000000000000000000000000000000000000000000\n      dup2\n      mstore\n      0x04\n      add\n      tag_45\n      swap1\n      tag_46\n      jump\t// in\n    tag_45:\n      mload(0x40)\n      dup1\n      swap2\n      sub\n      swap1\n      revert\n    tag_44:\n        /* \"WallT1.0/MainContract.sol\":327:337  _allowance */\n      dup1\n        /* \"WallT1.0/MainContract.sol\":306:315  allowance */\n      0x01\n        /* \"WallT1.0/MainContract.sol\":306:324  allowance[_member] */\n      0x00\n        /* \"WallT1.0/MainContract.sol\":316:323  _member */\n      dup5\n        /* \"WallT1.0/MainContract.sol\":306:324  allowance[_member] */\n      0xffffffffffffffffffffffffffffffffffffffff\n      and\n      0xffffffffffffffffffffffffffffffffffffffff\n      and\n      dup2\n      mstore\n      0x20\n      add\n      swap1\n      dup2\n      mstore\n      0x20\n      add\n      0x00\n      keccak256\n        /* \"WallT1.0/MainContract.sol\":306:337  allowance[_member] = _allowance */\n      dup2\n      swap1\n      sstore\n      pop\n        /* \"WallT1.0/MainContract.sol\":222:345  function setAllowance (address _member, uint _allowance) public onlyOwner{\r... */\n      pop\n      pop\n      jump\t// out\n        /* \"WallT1.0/MainContract.sol\":171:213  mapping (address => uint) public allowance */\n    tag_20:\n      mstore(0x20, 0x01)\n      dup1\n      0x00\n      mstore\n      keccak256(0x00, 0x40)\n      0x00\n      swap2\n      pop\n      swap1\n      pop\n      sload\n      dup2\n      jump\t// out\n        /* \"https://github.com/OpenZeppelin/openzeppelin-contracts/blob/master/contracts/access/Ownable.sol\":1668:1769  function renounceOwnership() public virtual onlyOwner {... */\n    tag_25:\n        /* \"https://github.com/OpenZeppelin/openzeppelin-contracts/blob/master/contracts/access/Ownable.sol\":1259:1271  _msgSender() */\n      tag_49\n        /* \"https://github.com/OpenZeppelin/openzeppelin-contracts/blob/master/contracts/access/Ownable.sol\":1259:1269  _msgSender */\n      tag_42\n        /* \"https://github.com/OpenZeppelin/openzeppelin-contracts/blob/master/contracts/access/Ownable.sol\":1259:1271  _msgSender() */\n      jump\t// in\n    tag_49:\n        /* \"https://github.com/OpenZeppelin/openzeppelin-contracts/blob/master/contracts/access/Ownable.sol\":1248:1271  owner() == _msgSender() */\n      0xffffffffffffffffffffffffffffffffffffffff\n      and\n        /* \"https://github.com/OpenZeppelin/openzeppelin-contracts/blob/master/contracts/access/Ownable.sol\":1248:1255  owner() */\n      tag_50\n        /* \"https://github.com/OpenZeppelin/openzeppelin-contracts/blob/master/contracts/access/Ownable.sol\":1248:1253  owner */\n      tag_28\n        /* \"https://github.com/OpenZeppelin/openzeppelin-contracts/blob/master/contracts/access/Ownable.sol\":1248:1255  owner() */\n      jump\t// in\n    tag_50:\n        /* \"https://github.com/OpenZeppelin/openzeppelin-contracts/blob/master/contracts/access/Ownable.sol\":1248:1271  owner() == _msgSender() */\n      0xffffffffffffffffffffffffffffffffffffffff\n      and\n      eq\n        /* \"https://github.com/OpenZeppelin/openzeppelin-contracts/blob/master/contracts/access/Ownable.sol\":1240:1308  require(owner() == _msgSender(), \"Ownable: caller is not the owner\") */\n      tag_51\n      jumpi\n      mload(0x40)\n      0x08c379a000000000000000000000000000000000000000000000000000000000\n      dup2\n      mstore\n      0x04\n      add\n      tag_52\n      swap1\n      tag_46\n      jump\t// in\n    tag_52:\n      mload(0x40)\n      dup1\n      swap2\n      sub\n      swap1\n      revert\n    tag_51:\n        /* \"https://github.com/OpenZeppelin/openzeppelin-contracts/blob/master/contracts/access/Ownable.sol\":1732:1762  _transferOwnership(address(0)) */\n      tag_54\n        /* \"https://github.com/OpenZeppelin/openzeppelin-contracts/blob/master/contracts/access/Ownable.sol\":1759:1760  0 */\n      0x00\n        /* \"https://github.com/OpenZeppelin/openzeppelin-contracts/blob/master/contracts/access/Ownable.sol\":1732:1750  _transferOwnership */\n      tag_55\n        /* \"https://github.com/OpenZeppelin/openzeppelin-contracts/blob/master/contracts/access/Ownable.sol\":1732:1762  _transferOwnership(address(0)) */\n      jump\t// in\n    tag_54:\n        /* \"https://github.com/OpenZeppelin/openzeppelin-contracts/blob/master/contracts/access/Ownable.sol\":1668:1769  function renounceOwnership() public virtual onlyOwner {... */\n      jump\t// out\n        /* \"https://github.com/OpenZeppelin/openzeppelin-contracts/blob/master/contracts/access/Ownable.sol\":1036:1121  function owner() public view virtual returns (address) {... */\n    tag_28:\n        /* \"https://github.com/OpenZeppelin/openzeppelin-contracts/blob/master/contracts/access/Ownable.sol\":1082:1089  address */\n      0x00\n        /* \"https://github.com/OpenZeppelin/openzeppelin-contracts/blob/master/contracts/access/Ownable.sol\":1108:1114  _owner */\n      dup1\n      0x00\n      swap1\n      sload\n      swap1\n      0x0100\n      exp\n      swap1\n      div\n      0xffffffffffffffffffffffffffffffffffffffff\n      and\n        /* \"https://github.com/OpenZeppelin/openzeppelin-contracts/blob/master/contracts/access/Ownable.sol\":1101:1114  return _owner */\n      swap1\n      pop\n        /* \"https://github.com/OpenZeppelin/openzeppelin-contracts/blob/master/contracts/access/Ownable.sol\":1036:1121  function owner() public view virtual returns (address) {... */\n      swap1\n      jump\t// out\n        /* \"WallT1.0/MainContract.sol\":690:1003  function withdrawFunds(address payable _to, uint _amount) public ownerOrAllowed(_amount){\r... */\n    tag_35:\n        /* \"WallT1.0/MainContract.sol\":770:777  _amount */\n      dup1\n        /* \"WallT1.0/MainContract.sol\":425:432  owner() */\n      tag_58\n        /* \"WallT1.0/MainContract.sol\":425:430  owner */\n      tag_28\n        /* \"WallT1.0/MainContract.sol\":425:432  owner() */\n      jump\t// in\n    tag_58:\n        /* \"WallT1.0/MainContract.sol\":411:432  msg.sender == owner() */\n      0xffffffffffffffffffffffffffffffffffffffff\n      and\n        /* \"WallT1.0/MainContract.sol\":411:421  msg.sender */\n      caller\n        /* \"WallT1.0/MainContract.sol\":411:432  msg.sender == owner() */\n      0xffffffffffffffffffffffffffffffffffffffff\n      and\n      eq\n        /* \"WallT1.0/MainContract.sol\":411:468  msg.sender == owner() || allowance[msg.sender] >= _amount */\n      dup1\n      tag_59\n      jumpi\n      pop\n        /* \"WallT1.0/MainContract.sol\":461:468  _amount */\n      dup1\n        /* \"WallT1.0/MainContract.sol\":436:445  allowance */\n      0x01\n        /* \"WallT1.0/MainContract.sol\":436:457  allowance[msg.sender] */\n      0x00\n        /* \"WallT1.0/MainContract.sol\":446:456  msg.sender */\n      caller\n        /* \"WallT1.0/MainContract.sol\":436:457  allowance[msg.sender] */\n      0xffffffffffffffffffffffffffffffffffffffff\n      and\n      0xffffffffffffffffffffffffffffffffffffffff\n      and\n      dup2\n      mstore\n      0x20\n      add\n      swap1\n      dup2\n      mstore\n      0x20\n      add\n      0x00\n      keccak256\n      sload\n        /* \"WallT1.0/MainContract.sol\":436:468  allowance[msg.sender] >= _amount */\n      lt\n      iszero\n        /* \"WallT1.0/MainContract.sol\":411:468  msg.sender == owner() || allowance[msg.sender] >= _amount */\n    tag_59:\n        /* \"WallT1.0/MainContract.sol\":403:494  require(msg.sender == owner() || allowance[msg.sender] >= _amount, \"You are not allowed!!\") */\n      tag_60\n      jumpi\n      mload(0x40)\n      0x08c379a000000000000000000000000000000000000000000000000000000000\n      dup2\n      mstore\n      0x04\n      add\n      tag_61\n      swap1\n      tag_62\n      jump\t// in\n    tag_61:\n      mload(0x40)\n      dup1\n      swap2\n      sub\n      swap1\n      revert\n    tag_60:\n        /* \"WallT1.0/MainContract.sol\":809:830  address(this).balance */\n      selfbalance\n        /* \"WallT1.0/MainContract.sol\":798:805  _amount */\n      dup3\n        /* \"WallT1.0/MainContract.sol\":798:830  _amount <= address(this).balance */\n      gt\n      iszero\n        /* \"WallT1.0/MainContract.sol\":789:862  require (_amount <= address(this).balance, \"Insufficient WallT balance.\") */\n      tag_64\n      jumpi\n      mload(0x40)\n      0x08c379a000000000000000000000000000000000000000000000000000000000\n      dup2\n      mstore\n      0x04\n      add\n      tag_65\n      swap1\n      tag_66\n      jump\t// in\n    tag_65:\n      mload(0x40)\n      dup1\n      swap2\n      sub\n      swap1\n      revert\n    tag_64:\n        /* \"WallT1.0/MainContract.sol\":891:898  owner() */\n      tag_67\n        /* \"WallT1.0/MainContract.sol\":891:896  owner */\n      tag_28\n        /* \"WallT1.0/MainContract.sol\":891:898  owner() */\n      jump\t// in\n    tag_67:\n        /* \"WallT1.0/MainContract.sol\":877:898  msg.sender != owner() */\n      0xffffffffffffffffffffffffffffffffffffffff\n      and\n        /* \"WallT1.0/MainContract.sol\":877:887  msg.sender */\n      caller\n        /* \"WallT1.0/MainContract.sol\":877:898  msg.sender != owner() */\n      0xffffffffffffffffffffffffffffffffffffffff\n      and\n      eq\n        /* \"WallT1.0/MainContract.sol\":873:962  if (msg.sender != owner()){\r... */\n      tag_68\n      jumpi\n        /* \"WallT1.0/MainContract.sol\":914:950  reduceAllowance(msg.sender, _amount) */\n      tag_69\n        /* \"WallT1.0/MainContract.sol\":930:940  msg.sender */\n      caller\n        /* \"WallT1.0/MainContract.sol\":942:949  _amount */\n      dup4\n        /* \"WallT1.0/MainContract.sol\":914:929  reduceAllowance */\n      tag_70\n        /* \"WallT1.0/MainContract.sol\":914:950  reduceAllowance(msg.sender, _amount) */\n      jump\t// in\n    tag_69:\n        /* \"WallT1.0/MainContract.sol\":873:962  if (msg.sender != owner()){\r... */\n    tag_68:\n        /* \"WallT1.0/MainContract.sol\":972:975  _to */\n      dup3\n        /* \"WallT1.0/MainContract.sol\":972:984  _to.transfer */\n      0xffffffffffffffffffffffffffffffffffffffff\n      and\n        /* \"WallT1.0/MainContract.sol\":972:993  _to.transfer(_amount) */\n      0x08fc\n        /* \"WallT1.0/MainContract.sol\":985:992  _amount */\n      dup4\n        /* \"WallT1.0/MainContract.sol\":972:993  _to.transfer(_amount) */\n      swap1\n      dup2\n      iszero\n      mul\n      swap1\n      mload(0x40)\n      0x00\n      mload(0x40)\n      dup1\n      dup4\n      sub\n      dup2\n      dup6\n      dup9\n      dup9\n      call\n      swap4\n      pop\n      pop\n      pop\n      pop\n      iszero\n      dup1\n      iszero\n      tag_72\n      jumpi\n      returndatasize\n      0x00\n      dup1\n      returndatacopy\n      revert(0x00, returndatasize)\n    tag_72:\n      pop\n        /* \"WallT1.0/MainContract.sol\":690:1003  function withdrawFunds(address payable _to, uint _amount) public ownerOrAllowed(_amount){\r... */\n      pop\n      pop\n      pop\n      jump\t// out\n        /* \"https://github.com/OpenZeppelin/openzeppelin-contracts/blob/master/contracts/access/Ownable.sol\":1918:2116  function transferOwnership(address newOwner) public virtual onlyOwner {... */\n    tag_39:\n        /* \"https://github.com/OpenZeppelin/openzeppelin-contracts/blob/master/contracts/access/Ownable.sol\":1259:1271  _msgSender() */\n      tag_74\n        /* \"https://github.com/OpenZeppelin/openzeppelin-contracts/blob/master/contracts/access/Ownable.sol\":1259:1269  _msgSender */\n      tag_42\n        /* \"https://github.com/OpenZeppelin/openzeppelin-contracts/blob/master/contracts/access/Ownable.sol\":1259:1271  _msgSender() */\n      jump\t// in\n    tag_74:\n        /* \"https://github.com/OpenZeppelin/openzeppelin-contracts/blob/master/contracts/access/Ownable.sol\":1248:1271  owner() == _msgSender() */\n      0xffffffffffffffffffffffffffffffffffffffff\n      and\n        /* \"https://github.com/OpenZeppelin/openzeppelin-contracts/blob/master/contracts/access/Ownable.sol\":1248:1255  owner() */\n      tag_75\n        /* \"https://github.com/OpenZeppelin/openzeppelin-contracts/blob/master/contracts/access/Ownable.sol\":1248:1253  owner */\n      tag_28\n        /* \"https://github.com/OpenZeppelin/openzeppelin-contracts/blob/master/contracts/access/Ownable.sol\":1248:1255  owner() */\n      jump\t// in\n    tag_75:\n        /* \"https://github.com/OpenZeppelin/openzeppelin-contracts/blob/master/contracts/access/Ownable.sol\":1248:1271  owner() == _msgSender() */\n      0xffffffffffffffffffffffffffffffffffffffff\n      and\n      eq\n        /* \"https://github.com/OpenZeppelin/openzeppelin-contracts/blob/master/contracts/access/Ownable.sol\":1240:1308  require(owner() == _msgSender(), \"Ownable: caller is not the owner\") */\n      tag_76\n      jumpi\n      mload(0x40)\n      0x08c379a000000000000000000000000000000000000000000000000000000000\n      dup2\n      mstore\n      0x04\n      add\n      tag_77\n      swap1\n      tag_46\n      jump\t// in\n    tag_77:\n      mload(0x40)\n      dup1\n      swap2\n      sub\n      swap1\n      revert\n    tag_76:\n        /* \"https://github.com/OpenZeppelin/openzeppelin-contracts/blob/master/contracts/access/Ownable.sol\":2026:2027  0 */\n      0x00\n        /* \"https://github.com/OpenZeppelin/openzeppelin-contracts/blob/master/contracts/access/Ownable.sol\":2006:2028  newOwner != address(0) */\n      0xffffffffffffffffffffffffffffffffffffffff\n      and\n        /* \"https://github.com/OpenZeppelin/openzeppelin-contracts/blob/master/contracts/access/Ownable.sol\":2006:2014  newOwner */\n      dup2\n        /* \"https://github.com/OpenZeppelin/openzeppelin-contracts/blob/master/contracts/access/Ownable.sol\":2006:2028  newOwner != address(0) */\n      0xffffffffffffffffffffffffffffffffffffffff\n      and\n      eq\n      iszero\n        /* \"https://github.com/OpenZeppelin/openzeppelin-contracts/blob/master/contracts/access/Ownable.sol\":1998:2071  require(newOwner != address(0), \"Ownable: new owner is the zero address\") */\n      tag_79\n      jumpi\n      mload(0x40)\n      0x08c379a000000000000000000000000000000000000000000000000000000000\n      dup2\n      mstore\n      0x04\n      add\n      tag_80\n      swap1\n      tag_81\n      jump\t// in\n    tag_80:\n      mload(0x40)\n      dup1\n      swap2\n      sub\n      swap1\n      revert\n    tag_79:\n        /* \"https://github.com/OpenZeppelin/openzeppelin-contracts/blob/master/contracts/access/Ownable.sol\":2081:2109  _transferOwnership(newOwner) */\n      tag_82\n        /* \"https://github.com/OpenZeppelin/openzeppelin-contracts/blob/master/contracts/access/Ownable.sol\":2100:2108  newOwner */\n      dup2\n        /* \"https://github.com/OpenZeppelin/openzeppelin-contracts/blob/master/contracts/access/Ownable.sol\":2081:2099  _transferOwnership */\n      tag_55\n        /* \"https://github.com/OpenZeppelin/openzeppelin-contracts/blob/master/contracts/access/Ownable.sol\":2081:2109  _transferOwnership(newOwner) */\n      jump\t// in\n    tag_82:\n        /* \"https://github.com/OpenZeppelin/openzeppelin-contracts/blob/master/contracts/access/Ownable.sol\":1918:2116  function transferOwnership(address newOwner) public virtual onlyOwner {... */\n      pop\n      jump\t// out\n        /* \"https://github.com/OpenZeppelin/openzeppelin-contracts/blob/master/contracts/utils/Context.sol\":640:736  function _msgSender() internal view virtual returns (address) {... */\n    tag_42:\n        /* \"https://github.com/OpenZeppelin/openzeppelin-contracts/blob/master/contracts/utils/Context.sol\":693:700  address */\n      0x00\n        /* \"https://github.com/OpenZeppelin/openzeppelin-contracts/blob/master/contracts/utils/Context.sol\":719:729  msg.sender */\n      caller\n        /* \"https://github.com/OpenZeppelin/openzeppelin-contracts/blob/master/contracts/utils/Context.sol\":712:729  return msg.sender */\n      swap1\n      pop\n        /* \"https://github.com/OpenZeppelin/openzeppelin-contracts/blob/master/contracts/utils/Context.sol\":640:736  function _msgSender() internal view virtual returns (address) {... */\n      swap1\n      jump\t// out\n        /* \"https://github.com/OpenZeppelin/openzeppelin-contracts/blob/master/contracts/access/Ownable.sol\":2270:2457  function _transferOwnership(address newOwner) internal virtual {... */\n    tag_55:\n        /* \"https://github.com/OpenZeppelin/openzeppelin-contracts/blob/master/contracts/access/Ownable.sol\":2343:2359  address oldOwner */\n      0x00\n        /* \"https://github.com/OpenZeppelin/openzeppelin-contracts/blob/master/contracts/access/Ownable.sol\":2362:2368  _owner */\n      dup1\n      0x00\n      swap1\n      sload\n      swap1\n      0x0100\n      exp\n      swap1\n      div\n      0xffffffffffffffffffffffffffffffffffffffff\n      and\n        /* \"https://github.com/OpenZeppelin/openzeppelin-contracts/blob/master/contracts/access/Ownable.sol\":2343:2368  address oldOwner = _owner */\n      swap1\n      pop\n        /* \"https://github.com/OpenZeppelin/openzeppelin-contracts/blob/master/contracts/access/Ownable.sol\":2387:2395  newOwner */\n      dup2\n        /* \"https://github.com/OpenZeppelin/openzeppelin-contracts/blob/master/contracts/access/Ownable.sol\":2378:2384  _owner */\n      0x00\n      dup1\n        /* \"https://github.com/OpenZeppelin/openzeppelin-contracts/blob/master/contracts/access/Ownable.sol\":2378:2395  _owner = newOwner */\n      0x0100\n      exp\n      dup2\n      sload\n      dup2\n      0xffffffffffffffffffffffffffffffffffffffff\n      mul\n      not\n      and\n      swap1\n      dup4\n      0xffffffffffffffffffffffffffffffffffffffff\n      and\n      mul\n      or\n      swap1\n      sstore\n      pop\n        /* \"https://github.com/OpenZeppelin/openzeppelin-contracts/blob/master/contracts/access/Ownable.sol\":2441:2449  newOwner */\n      dup2\n        /* \"https://github.com/OpenZeppelin/openzeppelin-contracts/blob/master/contracts/access/Ownable.sol\":2410:2450  OwnershipTransferred(oldOwner, newOwner) */\n      0xffffffffffffffffffffffffffffffffffffffff\n      and\n        /* \"https://github.com/OpenZeppelin/openzeppelin-contracts/blob/master/contracts/access/Ownable.sol\":2431:2439  oldOwner */\n      dup2\n        /* \"https://github.com/OpenZeppelin/openzeppelin-contracts/blob/master/contracts/access/Ownable.sol\":2410:2450  OwnershipTransferred(oldOwner, newOwner) */\n      0xffffffffffffffffffffffffffffffffffffffff\n      and\n      0x8be0079c531659141344cd1fd0a4f28419497f9722a3daafe3b4186f6b6457e0\n      mload(0x40)\n      mload(0x40)\n      dup1\n      swap2\n      sub\n      swap1\n      log3\n        /* \"https://github.com/OpenZeppelin/openzeppelin-contracts/blob/master/contracts/access/Ownable.sol\":2333:2457  {... */\n      pop\n        /* \"https://github.com/OpenZeppelin/openzeppelin-contracts/blob/master/contracts/access/Ownable.sol\":2270:2457  function _transferOwnership(address newOwner) internal virtual {... */\n      pop\n      jump\t// out\n        /* \"WallT1.0/MainContract.sol\":522:636  function reduceAllowance (address _member, uint _amount) internal {\r... */\n    tag_70:\n        /* \"WallT1.0/MainContract.sol\":621:628  _amount */\n      dup1\n        /* \"WallT1.0/MainContract.sol\":599:608  allowance */\n      0x01\n        /* \"WallT1.0/MainContract.sol\":599:617  allowance[_member] */\n      0x00\n        /* \"WallT1.0/MainContract.sol\":609:616  _member */\n      dup5\n        /* \"WallT1.0/MainContract.sol\":599:617  allowance[_member] */\n      0xffffffffffffffffffffffffffffffffffffffff\n      and\n      0xffffffffffffffffffffffffffffffffffffffff\n      and\n      dup2\n      mstore\n      0x20\n      add\n      swap1\n      dup2\n      mstore\n      0x20\n      add\n      0x00\n      keccak256\n      0x00\n        /* \"WallT1.0/MainContract.sol\":599:628  allowance[_member] -= _amount */\n      dup3\n      dup3\n      sload\n      tag_86\n      swap2\n      swap1\n      tag_87\n      jump\t// in\n    tag_86:\n      swap3\n      pop\n      pop\n      dup2\n      swap1\n      sstore\n      pop\n        /* \"WallT1.0/MainContract.sol\":522:636  function reduceAllowance (address _member, uint _amount) internal {\r... */\n      pop\n      pop\n      jump\t// out\n        /* \"#utility.yul\":7:146   */\n    tag_89:\n        /* \"#utility.yul\":53:58   */\n      0x00\n        /* \"#utility.yul\":91:97   */\n      dup2\n        /* \"#utility.yul\":78:98   */\n      calldataload\n        /* \"#utility.yul\":69:98   */\n      swap1\n      pop\n        /* \"#utility.yul\":107:140   */\n      tag_91\n        /* \"#utility.yul\":134:139   */\n      dup2\n        /* \"#utility.yul\":107:140   */\n      tag_92\n      jump\t// in\n    tag_91:\n        /* \"#utility.yul\":7:146   */\n      swap3\n      swap2\n      pop\n      pop\n      jump\t// out\n        /* \"#utility.yul\":152:307   */\n    tag_93:\n        /* \"#utility.yul\":206:211   */\n      0x00\n        /* \"#utility.yul\":244:250   */\n      dup2\n        /* \"#utility.yul\":231:251   */\n      calldataload\n        /* \"#utility.yul\":222:251   */\n      swap1\n      pop\n        /* \"#utility.yul\":260:301   */\n      tag_95\n        /* \"#utility.yul\":295:300   */\n      dup2\n        /* \"#utility.yul\":260:301   */\n      tag_96\n      jump\t// in\n    tag_95:\n        /* \"#utility.yul\":152:307   */\n      swap3\n      swap2\n      pop\n      pop\n      jump\t// out\n        /* \"#utility.yul\":313:452   */\n    tag_97:\n        /* \"#utility.yul\":359:364   */\n      0x00\n        /* \"#utility.yul\":397:403   */\n      dup2\n        /* \"#utility.yul\":384:404   */\n      calldataload\n        /* \"#utility.yul\":375:404   */\n      swap1\n      pop\n        /* \"#utility.yul\":413:446   */\n      tag_99\n        /* \"#utility.yul\":440:445   */\n      dup2\n        /* \"#utility.yul\":413:446   */\n      tag_100\n      jump\t// in\n    tag_99:\n        /* \"#utility.yul\":313:452   */\n      swap3\n      swap2\n      pop\n      pop\n      jump\t// out\n        /* \"#utility.yul\":458:787   */\n    tag_19:\n        /* \"#utility.yul\":517:523   */\n      0x00\n        /* \"#utility.yul\":566:568   */\n      0x20\n        /* \"#utility.yul\":554:563   */\n      dup3\n        /* \"#utility.yul\":545:552   */\n      dup5\n        /* \"#utility.yul\":541:564   */\n      sub\n        /* \"#utility.yul\":537:569   */\n      slt\n        /* \"#utility.yul\":534:653   */\n      iszero\n      tag_102\n      jumpi\n        /* \"#utility.yul\":572:651   */\n      tag_103\n      tag_104\n      jump\t// in\n    tag_103:\n        /* \"#utility.yul\":534:653   */\n    tag_102:\n        /* \"#utility.yul\":692:693   */\n      0x00\n        /* \"#utility.yul\":717:770   */\n      tag_105\n        /* \"#utility.yul\":762:769   */\n      dup5\n        /* \"#utility.yul\":753:759   */\n      dup3\n        /* \"#utility.yul\":742:751   */\n      dup6\n        /* \"#utility.yul\":738:760   */\n      add\n        /* \"#utility.yul\":717:770   */\n      tag_89\n      jump\t// in\n    tag_105:\n        /* \"#utility.yul\":707:770   */\n      swap2\n      pop\n        /* \"#utility.yul\":663:780   */\n      pop\n        /* \"#utility.yul\":458:787   */\n      swap3\n      swap2\n      pop\n      pop\n      jump\t// out\n        /* \"#utility.yul\":793:1283   */\n    tag_34:\n        /* \"#utility.yul\":869:875   */\n      0x00\n        /* \"#utility.yul\":877:883   */\n      dup1\n        /* \"#utility.yul\":926:928   */\n      0x40\n        /* \"#utility.yul\":914:923   */\n      dup4\n        /* \"#utility.yul\":905:912   */\n      dup6\n        /* \"#utility.yul\":901:924   */\n      sub\n        /* \"#utility.yul\":897:929   */\n      slt\n        /* \"#utility.yul\":894:1013   */\n      iszero\n      tag_107\n      jumpi\n        /* \"#utility.yul\":932:1011   */\n      tag_108\n      tag_104\n      jump\t// in\n    tag_108:\n        /* \"#utility.yul\":894:1013   */\n    tag_107:\n        /* \"#utility.yul\":1052:1053   */\n      0x00\n        /* \"#utility.yul\":1077:1138   */\n      tag_109\n        /* \"#utility.yul\":1130:1137   */\n      dup6\n        /* \"#utility.yul\":1121:1127   */\n      dup3\n        /* \"#utility.yul\":1110:1119   */\n      dup7\n        /* \"#utility.yul\":1106:1128   */\n      add\n        /* \"#utility.yul\":1077:1138   */\n      tag_93\n      jump\t// in\n    tag_109:\n        /* \"#utility.yul\":1067:1138   */\n      swap3\n      pop\n        /* \"#utility.yul\":1023:1148   */\n      pop\n        /* \"#utility.yul\":1187:1189   */\n      0x20\n        /* \"#utility.yul\":1213:1266   */\n      tag_110\n        /* \"#utility.yul\":1258:1265   */\n      dup6\n        /* \"#utility.yul\":1249:1255   */\n      dup3\n        /* \"#utility.yul\":1238:1247   */\n      dup7\n        /* \"#utility.yul\":1234:1256   */\n      add\n        /* \"#utility.yul\":1213:1266   */\n      tag_97\n      jump\t// in\n    tag_110:\n        /* \"#utility.yul\":1203:1266   */\n      swap2\n      pop\n        /* \"#utility.yul\":1158:1276   */\n      pop\n        /* \"#utility.yul\":793:1283   */\n      swap3\n      pop\n      swap3\n      swap1\n      pop\n      jump\t// out\n        /* \"#utility.yul\":1289:1763   */\n    tag_14:\n        /* \"#utility.yul\":1357:1363   */\n      0x00\n        /* \"#utility.yul\":1365:1371   */\n      dup1\n        /* \"#utility.yul\":1414:1416   */\n      0x40\n        /* \"#utility.yul\":1402:1411   */\n      dup4\n        /* \"#utility.yul\":1393:1400   */\n      dup6\n        /* \"#utility.yul\":1389:1412   */\n      sub\n        /* \"#utility.yul\":1385:1417   */\n      slt\n        /* \"#utility.yul\":1382:1501   */\n      iszero\n      tag_112\n      jumpi\n        /* \"#utility.yul\":1420:1499   */\n      tag_113\n      tag_104\n      jump\t// in\n    tag_113:\n        /* \"#utility.yul\":1382:1501   */\n    tag_112:\n        /* \"#utility.yul\":1540:1541   */\n      0x00\n        /* \"#utility.yul\":1565:1618   */\n      tag_114\n        /* \"#utility.yul\":1610:1617   */\n      dup6\n        /* \"#utility.yul\":1601:1607   */\n      dup3\n        /* \"#utility.yul\":1590:1599   */\n      dup7\n        /* \"#utility.yul\":1586:1608   */\n      add\n        /* \"#utility.yul\":1565:1618   */\n      tag_89\n      jump\t// in\n    tag_114:\n        /* \"#utility.yul\":1555:1618   */\n      swap3\n      pop\n        /* \"#utility.yul\":1511:1628   */\n      pop\n        /* \"#utility.yul\":1667:1669   */\n      0x20\n        /* \"#utility.yul\":1693:1746   */\n      tag_115\n        /* \"#utility.yul\":1738:1745   */\n      dup6\n        /* \"#utility.yul\":1729:1735   */\n      dup3\n        /* \"#utility.yul\":1718:1727   */\n      dup7\n        /* \"#utility.yul\":1714:1736   */\n      add\n        /* \"#utility.yul\":1693:1746   */\n      tag_97\n      jump\t// in\n    tag_115:\n        /* \"#utility.yul\":1683:1746   */\n      swap2\n      pop\n        /* \"#utility.yul\":1638:1756   */\n      pop\n        /* \"#utility.yul\":1289:1763   */\n      swap3\n      pop\n      swap3\n      swap1\n      pop\n      jump\t// out\n        /* \"#utility.yul\":1769:1887   */\n    tag_116:\n        /* \"#utility.yul\":1856:1880   */\n      tag_118\n        /* \"#utility.yul\":1874:1879   */\n      dup2\n        /* \"#utility.yul\":1856:1880   */\n      tag_119\n      jump\t// in\n    tag_118:\n        /* \"#utility.yul\":1851:1854   */\n      dup3\n        /* \"#utility.yul\":1844:1881   */\n      mstore\n        /* \"#utility.yul\":1769:1887   */\n      pop\n      pop\n      jump\t// out\n        /* \"#utility.yul\":1893:2259   */\n    tag_120:\n        /* \"#utility.yul\":2035:2038   */\n      0x00\n        /* \"#utility.yul\":2056:2123   */\n      tag_122\n        /* \"#utility.yul\":2120:2122   */\n      0x26\n        /* \"#utility.yul\":2115:2118   */\n      dup4\n        /* \"#utility.yul\":2056:2123   */\n      tag_123\n      jump\t// in\n    tag_122:\n        /* \"#utility.yul\":2049:2123   */\n      swap2\n      pop\n        /* \"#utility.yul\":2132:2225   */\n      tag_124\n        /* \"#utility.yul\":2221:2224   */\n      dup3\n        /* \"#utility.yul\":2132:2225   */\n      tag_125\n      jump\t// in\n    tag_124:\n        /* \"#utility.yul\":2250:2252   */\n      0x40\n        /* \"#utility.yul\":2245:2248   */\n      dup3\n        /* \"#utility.yul\":2241:2253   */\n      add\n        /* \"#utility.yul\":2234:2253   */\n      swap1\n      pop\n        /* \"#utility.yul\":1893:2259   */\n      swap2\n      swap1\n      pop\n      jump\t// out\n        /* \"#utility.yul\":2265:2631   */\n    tag_126:\n        /* \"#utility.yul\":2407:2410   */\n      0x00\n        /* \"#utility.yul\":2428:2495   */\n      tag_128\n        /* \"#utility.yul\":2492:2494   */\n      0x20\n        /* \"#utility.yul\":2487:2490   */\n      dup4\n        /* \"#utility.yul\":2428:2495   */\n      tag_123\n      jump\t// in\n    tag_128:\n        /* \"#utility.yul\":2421:2495   */\n      swap2\n      pop\n        /* \"#utility.yul\":2504:2597   */\n      tag_129\n        /* \"#utility.yul\":2593:2596   */\n      dup3\n        /* \"#utility.yul\":2504:2597   */\n      tag_130\n      jump\t// in\n    tag_129:\n        /* \"#utility.yul\":2622:2624   */\n      0x20\n        /* \"#utility.yul\":2617:2620   */\n      dup3\n        /* \"#utility.yul\":2613:2625   */\n      add\n        /* \"#utility.yul\":2606:2625   */\n      swap1\n      pop\n        /* \"#utility.yul\":2265:2631   */\n      swap2\n      swap1\n      pop\n      jump\t// out\n        /* \"#utility.yul\":2637:3003   */\n    tag_131:\n        /* \"#utility.yul\":2779:2782   */\n      0x00\n        /* \"#utility.yul\":2800:2867   */\n      tag_133\n        /* \"#utility.yul\":2864:2866   */\n      0x1b\n        /* \"#utility.yul\":2859:2862   */\n      dup4\n        /* \"#utility.yul\":2800:2867   */\n      tag_123\n      jump\t// in\n    tag_133:\n        /* \"#utility.yul\":2793:2867   */\n      swap2\n      pop\n        /* \"#utility.yul\":2876:2969   */\n      tag_134\n        /* \"#utility.yul\":2965:2968   */\n      dup3\n        /* \"#utility.yul\":2876:2969   */\n      tag_135\n      jump\t// in\n    tag_134:\n        /* \"#utility.yul\":2994:2996   */\n      0x20\n        /* \"#utility.yul\":2989:2992   */\n      dup3\n        /* \"#utility.yul\":2985:2997   */\n      add\n        /* \"#utility.yul\":2978:2997   */\n      swap1\n      pop\n        /* \"#utility.yul\":2637:3003   */\n      swap2\n      swap1\n      pop\n      jump\t// out\n        /* \"#utility.yul\":3009:3375   */\n    tag_136:\n        /* \"#utility.yul\":3151:3154   */\n      0x00\n        /* \"#utility.yul\":3172:3239   */\n      tag_138\n        /* \"#utility.yul\":3236:3238   */\n      0x15\n        /* \"#utility.yul\":3231:3234   */\n      dup4\n        /* \"#utility.yul\":3172:3239   */\n      tag_123\n      jump\t// in\n    tag_138:\n        /* \"#utility.yul\":3165:3239   */\n      swap2\n      pop\n        /* \"#utility.yul\":3248:3341   */\n      tag_139\n        /* \"#utility.yul\":3337:3340   */\n      dup3\n        /* \"#utility.yul\":3248:3341   */\n      tag_140\n      jump\t// in\n    tag_139:\n        /* \"#utility.yul\":3366:3368   */\n      0x20\n        /* \"#utility.yul\":3361:3364   */\n      dup3\n        /* \"#utility.yul\":3357:3369   */\n      add\n        /* \"#utility.yul\":3350:3369   */\n      swap1\n      pop\n        /* \"#utility.yul\":3009:3375   */\n      swap2\n      swap1\n      pop\n      jump\t// out\n        /* \"#utility.yul\":3381:3499   */\n    tag_141:\n        /* \"#utility.yul\":3468:3492   */\n      tag_143\n        /* \"#utility.yul\":3486:3491   */\n      dup2\n        /* \"#utility.yul\":3468:3492   */\n      tag_144\n      jump\t// in\n    tag_143:\n        /* \"#utility.yul\":3463:3466   */\n      dup3\n        /* \"#utility.yul\":3456:3493   */\n      mstore\n        /* \"#utility.yul\":3381:3499   */\n      pop\n      pop\n      jump\t// out\n        /* \"#utility.yul\":3505:3727   */\n    tag_30:\n        /* \"#utility.yul\":3598:3602   */\n      0x00\n        /* \"#utility.yul\":3636:3638   */\n      0x20\n        /* \"#utility.yul\":3625:3634   */\n      dup3\n        /* \"#utility.yul\":3621:3639   */\n      add\n        /* \"#utility.yul\":3613:3639   */\n      swap1\n      pop\n        /* \"#utility.yul\":3649:3720   */\n      tag_146\n        /* \"#utility.yul\":3717:3718   */\n      0x00\n        /* \"#utility.yul\":3706:3715   */\n      dup4\n        /* \"#utility.yul\":3702:3719   */\n      add\n        /* \"#utility.yul\":3693:3699   */\n      dup5\n        /* \"#utility.yul\":3649:3720   */\n      tag_116\n      jump\t// in\n    tag_146:\n        /* \"#utility.yul\":3505:3727   */\n      swap3\n      swap2\n      pop\n      pop\n      jump\t// out\n        /* \"#utility.yul\":3733:4152   */\n    tag_81:\n        /* \"#utility.yul\":3899:3903   */\n      0x00\n        /* \"#utility.yul\":3937:3939   */\n      0x20\n        /* \"#utility.yul\":3926:3935   */\n      dup3\n        /* \"#utility.yul\":3922:3940   */\n      add\n        /* \"#utility.yul\":3914:3940   */\n      swap1\n      pop\n        /* \"#utility.yul\":3986:3995   */\n      dup2\n        /* \"#utility.yul\":3980:3984   */\n      dup2\n        /* \"#utility.yul\":3976:3996   */\n      sub\n        /* \"#utility.yul\":3972:3973   */\n      0x00\n        /* \"#utility.yul\":3961:3970   */\n      dup4\n        /* \"#utility.yul\":3957:3974   */\n      add\n        /* \"#utility.yul\":3950:3997   */\n      mstore\n        /* \"#utility.yul\":4014:4145   */\n      tag_148\n        /* \"#utility.yul\":4140:4144   */\n      dup2\n        /* \"#utility.yul\":4014:4145   */\n      tag_120\n      jump\t// in\n    tag_148:\n        /* \"#utility.yul\":4006:4145   */\n      swap1\n      pop\n        /* \"#utility.yul\":3733:4152   */\n      swap2\n      swap1\n      pop\n      jump\t// out\n        /* \"#utility.yul\":4158:4577   */\n    tag_46:\n        /* \"#utility.yul\":4324:4328   */\n      0x00\n        /* \"#utility.yul\":4362:4364   */\n      0x20\n        /* \"#utility.yul\":4351:4360   */\n      dup3\n        /* \"#utility.yul\":4347:4365   */\n      add\n        /* \"#utility.yul\":4339:4365   */\n      swap1\n      pop\n        /* \"#utility.yul\":4411:4420   */\n      dup2\n        /* \"#utility.yul\":4405:4409   */\n      dup2\n        /* \"#utility.yul\":4401:4421   */\n      sub\n        /* \"#utility.yul\":4397:4398   */\n      0x00\n        /* \"#utility.yul\":4386:4395   */\n      dup4\n        /* \"#utility.yul\":4382:4399   */\n      add\n        /* \"#utility.yul\":4375:4422   */\n      mstore\n        /* \"#utility.yul\":4439:4570   */\n      tag_150\n        /* \"#utility.yul\":4565:4569   */\n      dup2\n        /* \"#utility.yul\":4439:4570   */\n      tag_126\n      jump\t// in\n    tag_150:\n        /* \"#utility.yul\":4431:4570   */\n      swap1\n      pop\n        /* \"#utility.yul\":4158:4577   */\n      swap2\n      swap1\n      pop\n      jump\t// out\n        /* \"#utility.yul\":4583:5002   */\n    tag_66:\n        /* \"#utility.yul\":4749:4753   */\n      0x00\n        /* \"#utility.yul\":4787:4789   */\n      0x20\n        /* \"#utility.yul\":4776:4785   */\n      dup3\n        /* \"#utility.yul\":4772:4790   */\n      add\n        /* \"#utility.yul\":4764:4790   */\n      swap1\n      pop\n        /* \"#utility.yul\":4836:4845   */\n      dup2\n        /* \"#utility.yul\":4830:4834   */\n      dup2\n        /* \"#utility.yul\":4826:4846   */\n      sub\n        /* \"#utility.yul\":4822:4823   */\n      0x00\n        /* \"#utility.yul\":4811:4820   */\n      dup4\n        /* \"#utility.yul\":4807:4824   */\n      add\n        /* \"#utility.yul\":4800:4847   */\n      mstore\n        /* \"#utility.yul\":4864:4995   */\n      tag_152\n        /* \"#utility.yul\":4990:4994   */\n      dup2\n        /* \"#utility.yul\":4864:4995   */\n      tag_131\n      jump\t// in\n    tag_152:\n        /* \"#utility.yul\":4856:4995   */\n      swap1\n      pop\n        /* \"#utility.yul\":4583:5002   */\n      swap2\n      swap1\n      pop\n      jump\t// out\n        /* \"#utility.yul\":5008:5427   */\n    tag_62:\n        /* \"#utility.yul\":5174:5178   */\n      0x00\n        /* \"#utility.yul\":5212:5214   */\n      0x20\n        /* \"#utility.yul\":5201:5210   */\n      dup3\n        /* \"#utility.yul\":5197:5215   */\n      add\n        /* \"#utility.yul\":5189:5215   */\n      swap1\n      pop\n        /* \"#utility.yul\":5261:5270   */\n      dup2\n        /* \"#utility.yul\":5255:5259   */\n      dup2\n        /* \"#utility.yul\":5251:5271   */\n      sub\n        /* \"#utility.yul\":5247:5248   */\n      0x00\n        /* \"#utility.yul\":5236:5245   */\n      dup4\n        /* \"#utility.yul\":5232:5249   */\n      add\n        /* \"#utility.yul\":5225:5272   */\n      mstore\n        /* \"#utility.yul\":5289:5420   */\n      tag_154\n        /* \"#utility.yul\":5415:5419   */\n      dup2\n        /* \"#utility.yul\":5289:5420   */\n      tag_136\n      jump\t// in\n    tag_154:\n        /* \"#utility.yul\":5281:5420   */\n      swap1\n      pop\n        /* \"#utility.yul\":5008:5427   */\n      swap2\n      swap1\n      pop\n      jump\t// out\n        /* \"#utility.yul\":5433:5655   */\n    tag_22:\n        /* \"#utility.yul\":5526:5530   */\n      0x00\n        /* \"#utility.yul\":5564:5566   */\n      0x20\n        /* \"#utility.yul\":5553:5562   */\n      dup3\n        /* \"#utility.yul\":5549:5567   */\n      add\n        /* \"#utility.yul\":5541:5567   */\n      swap1\n      pop\n        /* \"#utility.yul\":5577:5648   */\n      tag_156\n        /* \"#utility.yul\":5645:5646   */\n      0x00\n        /* \"#utility.yul\":5634:5643   */\n      dup4\n        /* \"#utility.yul\":5630:5647   */\n      add\n        /* \"#utility.yul\":5621:5627   */\n      dup5\n        /* \"#utility.yul\":5577:5648   */\n      tag_141\n      jump\t// in\n    tag_156:\n        /* \"#utility.yul\":5433:5655   */\n      swap3\n      swap2\n      pop\n      pop\n      jump\t// out\n        /* \"#utility.yul\":5742:5911   */\n    tag_123:\n        /* \"#utility.yul\":5826:5837   */\n      0x00\n        /* \"#utility.yul\":5860:5866   */\n      dup3\n        /* \"#utility.yul\":5855:5858   */\n      dup3\n        /* \"#utility.yul\":5848:5867   */\n      mstore\n        /* \"#utility.yul\":5900:5904   */\n      0x20\n        /* \"#utility.yul\":5895:5898   */\n      dup3\n        /* \"#utility.yul\":5891:5905   */\n      add\n        /* \"#utility.yul\":5876:5905   */\n      swap1\n      pop\n        /* \"#utility.yul\":5742:5911   */\n      swap3\n      swap2\n      pop\n      pop\n      jump\t// out\n        /* \"#utility.yul\":5917:6108   */\n    tag_87:\n        /* \"#utility.yul\":5957:5961   */\n      0x00\n        /* \"#utility.yul\":5977:5997   */\n      tag_161\n        /* \"#utility.yul\":5995:5996   */\n      dup3\n        /* \"#utility.yul\":5977:5997   */\n      tag_144\n      jump\t// in\n    tag_161:\n        /* \"#utility.yul\":5972:5997   */\n      swap2\n      pop\n        /* \"#utility.yul\":6011:6031   */\n      tag_162\n        /* \"#utility.yul\":6029:6030   */\n      dup4\n        /* \"#utility.yul\":6011:6031   */\n      tag_144\n      jump\t// in\n    tag_162:\n        /* \"#utility.yul\":6006:6031   */\n      swap3\n      pop\n        /* \"#utility.yul\":6050:6051   */\n      dup3\n        /* \"#utility.yul\":6047:6048   */\n      dup3\n        /* \"#utility.yul\":6044:6052   */\n      lt\n        /* \"#utility.yul\":6041:6075   */\n      iszero\n      tag_163\n      jumpi\n        /* \"#utility.yul\":6055:6073   */\n      tag_164\n      tag_165\n      jump\t// in\n    tag_164:\n        /* \"#utility.yul\":6041:6075   */\n    tag_163:\n        /* \"#utility.yul\":6100:6101   */\n      dup3\n        /* \"#utility.yul\":6097:6098   */\n      dup3\n        /* \"#utility.yul\":6093:6102   */\n      sub\n        /* \"#utility.yul\":6085:6102   */\n      swap1\n      pop\n        /* \"#utility.yul\":5917:6108   */\n      swap3\n      swap2\n      pop\n      pop\n      jump\t// out\n        /* \"#utility.yul\":6114:6210   */\n    tag_119:\n        /* \"#utility.yul\":6151:6158   */\n      0x00\n        /* \"#utility.yul\":6180:6204   */\n      tag_167\n        /* \"#utility.yul\":6198:6203   */\n      dup3\n        /* \"#utility.yul\":6180:6204   */\n      tag_168\n      jump\t// in\n    tag_167:\n        /* \"#utility.yul\":6169:6204   */\n      swap1\n      pop\n        /* \"#utility.yul\":6114:6210   */\n      swap2\n      swap1\n      pop\n      jump\t// out\n        /* \"#utility.yul\":6216:6320   */\n    tag_169:\n        /* \"#utility.yul\":6261:6268   */\n      0x00\n        /* \"#utility.yul\":6290:6314   */\n      tag_171\n        /* \"#utility.yul\":6308:6313   */\n      dup3\n        /* \"#utility.yul\":6290:6314   */\n      tag_168\n      jump\t// in\n    tag_171:\n        /* \"#utility.yul\":6279:6314   */\n      swap1\n      pop\n        /* \"#utility.yul\":6216:6320   */\n      swap2\n      swap1\n      pop\n      jump\t// out\n        /* \"#utility.yul\":6326:6452   */\n    tag_168:\n        /* \"#utility.yul\":6363:6370   */\n      0x00\n        /* \"#utility.yul\":6403:6445   */\n      0xffffffffffffffffffffffffffffffffffffffff\n        /* \"#utility.yul\":6396:6401   */\n      dup3\n        /* \"#utility.yul\":6392:6446   */\n      and\n        /* \"#utility.yul\":6381:6446   */\n      swap1\n      pop\n        /* \"#utility.yul\":6326:6452   */\n      swap2\n      swap1\n      pop\n      jump\t// out\n        /* \"#utility.yul\":6458:6535   */\n    tag_144:\n        /* \"#utility.yul\":6495:6502   */\n      0x00\n        /* \"#utility.yul\":6524:6529   */\n      dup2\n        /* \"#utility.yul\":6513:6529   */\n      swap1\n      pop\n        /* \"#utility.yul\":6458:6535   */\n      swap2\n      swap1\n      pop\n      jump\t// out\n        /* \"#utility.yul\":6541:6721   */\n    tag_165:\n        /* \"#utility.yul\":6589:6666   */\n      0x4e487b7100000000000000000000000000000000000000000000000000000000\n        /* \"#utility.yul\":6586:6587   */\n      0x00\n        /* \"#utility.yul\":6579:6667   */\n      mstore\n        /* \"#utility.yul\":6686:6690   */\n      0x11\n        /* \"#utility.yul\":6683:6684   */\n      0x04\n        /* \"#utility.yul\":6676:6691   */\n      mstore\n        /* \"#utility.yul\":6710:6714   */\n      0x24\n        /* \"#utility.yul\":6707:6708   */\n      0x00\n        /* \"#utility.yul\":6700:6715   */\n      revert\n        /* \"#utility.yul\":6850:6967   */\n    tag_104:\n        /* \"#utility.yul\":6959:6960   */\n      0x00\n        /* \"#utility.yul\":6956:6957   */\n      dup1\n        /* \"#utility.yul\":6949:6961   */\n      revert\n        /* \"#utility.yul\":6973:7198   */\n    tag_125:\n        /* \"#utility.yul\":7113:7147   */\n      0x4f776e61626c653a206e6577206f776e657220697320746865207a65726f2061\n        /* \"#utility.yul\":7109:7110   */\n      0x00\n        /* \"#utility.yul\":7101:7107   */\n      dup3\n        /* \"#utility.yul\":7097:7111   */\n      add\n        /* \"#utility.yul\":7090:7148   */\n      mstore\n        /* \"#utility.yul\":7182:7190   */\n      0x6464726573730000000000000000000000000000000000000000000000000000\n        /* \"#utility.yul\":7177:7179   */\n      0x20\n        /* \"#utility.yul\":7169:7175   */\n      dup3\n        /* \"#utility.yul\":7165:7180   */\n      add\n        /* \"#utility.yul\":7158:7191   */\n      mstore\n        /* \"#utility.yul\":6973:7198   */\n      pop\n      jump\t// out\n        /* \"#utility.yul\":7204:7386   */\n    tag_130:\n        /* \"#utility.yul\":7344:7378   */\n      0x4f776e61626c653a2063616c6c6572206973206e6f7420746865206f776e6572\n        /* \"#utility.yul\":7340:7341   */\n      0x00\n        /* \"#utility.yul\":7332:7338   */\n      dup3\n        /* \"#utility.yul\":7328:7342   */\n      add\n        /* \"#utility.yul\":7321:7379   */\n      mstore\n        /* \"#utility.yul\":7204:7386   */\n      pop\n      jump\t// out\n        /* \"#utility.yul\":7392:7569   */\n    tag_135:\n        /* \"#utility.yul\":7532:7561   */\n      0x496e73756666696369656e742057616c6c542062616c616e63652e0000000000\n        /* \"#utility.yul\":7528:7529   */\n      0x00\n        /* \"#utility.yul\":7520:7526   */\n      dup3\n        /* \"#utility.yul\":7516:7530   */\n      add\n        /* \"#utility.yul\":7509:7562   */\n      mstore\n        /* \"#utility.yul\":7392:7569   */\n      pop\n      jump\t// out\n        /* \"#utility.yul\":7575:7746   */\n    tag_140:\n        /* \"#utility.yul\":7715:7738   */\n      0x596f7520617265206e6f7420616c6c6f77656421210000000000000000000000\n        /* \"#utility.yul\":7711:7712   */\n      0x00\n        /* \"#utility.yul\":7703:7709   */\n      dup3\n        /* \"#utility.yul\":7699:7713   */\n      add\n        /* \"#utility.yul\":7692:7739   */\n      mstore\n        /* \"#utility.yul\":7575:7746   */\n      pop\n      jump\t// out\n        /* \"#utility.yul\":7752:7874   */\n    tag_92:\n        /* \"#utility.yul\":7825:7849   */\n      tag_183\n        /* \"#utility.yul\":7843:7848   */\n      dup2\n        /* \"#utility.yul\":7825:7849   */\n      tag_119\n      jump\t// in\n    tag_183:\n        /* \"#utility.yul\":7818:7823   */\n      dup2\n        /* \"#utility.yul\":7815:7850   */\n      eq\n        /* \"#utility.yul\":7805:7868   */\n      tag_184\n      jumpi\n        /* \"#utility.yul\":7864:7865   */\n      0x00\n        /* \"#utility.yul\":7861:7862   */\n      dup1\n        /* \"#utility.yul\":7854:7866   */\n      revert\n        /* \"#utility.yul\":7805:7868   */\n    tag_184:\n        /* \"#utility.yul\":7752:7874   */\n      pop\n      jump\t// out\n        /* \"#utility.yul\":7880:8018   */\n    tag_96:\n        /* \"#utility.yul\":7961:7993   */\n      tag_186\n        /* \"#utility.yul\":7987:7992   */\n      dup2\n        /* \"#utility.yul\":7961:7993   */\n      tag_169\n      jump\t// in\n    tag_186:\n        /* \"#utility.yul\":7954:7959   */\n      dup2\n        /* \"#utility.yul\":7951:7994   */\n      eq\n        /* \"#utility.yul\":7941:8012   */\n      tag_187\n      jumpi\n        /* \"#utility.yul\":8008:8009   */\n      0x00\n        /* \"#utility.yul\":8005:8006   */\n      dup1\n        /* \"#utility.yul\":7998:8010   */\n      revert\n        /* \"#utility.yul\":7941:8012   */\n    tag_187:\n        /* \"#utility.yul\":7880:8018   */\n      pop\n      jump\t// out\n        /* \"#utility.yul\":8024:8146   */\n    tag_100:\n        /* \"#utility.yul\":8097:8121   */\n      tag_189\n        /* \"#utility.yul\":8115:8120   */\n      dup2\n        /* \"#utility.yul\":8097:8121   */\n      tag_144\n      jump\t// in\n    tag_189:\n        /* \"#utility.yul\":8090:8095   */\n      dup2\n        /* \"#utility.yul\":8087:8122   */\n      eq\n        /* \"#utility.yul\":8077:8140   */\n      tag_190\n      jumpi\n        /* \"#utility.yul\":8136:8137   */\n      0x00\n        /* \"#utility.yul\":8133:8134   */\n      dup1\n        /* \"#utility.yul\":8126:8138   */\n      revert\n        /* \"#utility.yul\":8077:8140   */\n    tag_190:\n        /* \"#utility.yul\":8024:8146   */\n      pop\n      jump\t// out\n\n    auxdata: 0xa2646970667358221220f9d9c00caf758023c2aa5fd95bca3b8c7705eef5c8f1e44652e7e634f848b73464736f6c63430008070033\n}\n",
				"bytecode": {
					"linkReferences": {},
					"object": "608060405234801561001057600080fd5b5061002d61002261003260201b60201c565b61003a60201b60201c565b6100fe565b600033905090565b60008060009054906101000a900473ffffffffffffffffffffffffffffffffffffffff169050816000806101000a81548173ffffffffffffffffffffffffffffffffffffffff021916908373ffffffffffffffffffffffffffffffffffffffff1602179055508173ffffffffffffffffffffffffffffffffffffffff168173ffffffffffffffffffffffffffffffffffffffff167f8be0079c531659141344cd1fd0a4f28419497f9722a3daafe3b4186f6b6457e060405160405180910390a35050565b610aed8061010d6000396000f3fe6080604052600436106100595760003560e01c8063310ec4a71461005c5780633e5beab914610085578063715018a6146100c25780638da5cb5b146100d9578063c107532914610104578063f2fde38b1461012d5761005a565b5b005b34801561006857600080fd5b50610083600480360381019061007e9190610741565b610156565b005b34801561009157600080fd5b506100ac60048036038101906100a791906106d4565b61021a565b6040516100b991906108c6565b60405180910390f35b3480156100ce57600080fd5b506100d7610232565b005b3480156100e557600080fd5b506100ee6102ba565b6040516100fb919061082b565b60405180910390f35b34801561011057600080fd5b5061012b60048036038101906101269190610701565b6102e3565b005b34801561013957600080fd5b50610154600480360381019061014f91906106d4565b610477565b005b61015e61056f565b73ffffffffffffffffffffffffffffffffffffffff1661017c6102ba565b73ffffffffffffffffffffffffffffffffffffffff16146101d2576040517f08c379a00000000000000000000000000000000000000000000000000000000081526004016101c990610866565b60405180910390fd5b80600160008473ffffffffffffffffffffffffffffffffffffffff1673ffffffffffffffffffffffffffffffffffffffff168152602001908152602001600020819055505050565b60016020528060005260406000206000915090505481565b61023a61056f565b73ffffffffffffffffffffffffffffffffffffffff166102586102ba565b73ffffffffffffffffffffffffffffffffffffffff16146102ae576040517f08c379a00000000000000000000000000000000000000000000000000000000081526004016102a590610866565b60405180910390fd5b6102b86000610577565b565b60008060009054906101000a900473ffffffffffffffffffffffffffffffffffffffff16905090565b806102ec6102ba565b73ffffffffffffffffffffffffffffffffffffffff163373ffffffffffffffffffffffffffffffffffffffff161480610364575080600160003373ffffffffffffffffffffffffffffffffffffffff1673ffffffffffffffffffffffffffffffffffffffff1681526020019081526020016000205410155b6103a3576040517f08c379a000000000000000000000000000000000000000000000000000000000815260040161039a906108a6565b60405180910390fd5b478211156103e6576040517f08c379a00000000000000000000000000000000000000000000000000000000081526004016103dd90610886565b60405180910390fd5b6103ee6102ba565b73ffffffffffffffffffffffffffffffffffffffff163373ffffffffffffffffffffffffffffffffffffffff161461042b5761042a338361063b565b5b8273ffffffffffffffffffffffffffffffffffffffff166108fc839081150290604051600060405180830381858888f19350505050158015610471573d6000803e3d6000fd5b50505050565b61047f61056f565b73ffffffffffffffffffffffffffffffffffffffff1661049d6102ba565b73ffffffffffffffffffffffffffffffffffffffff16146104f3576040517f08c379a00000000000000000000000000000000000000000000000000000000081526004016104ea90610866565b60405180910390fd5b600073ffffffffffffffffffffffffffffffffffffffff168173ffffffffffffffffffffffffffffffffffffffff161415610563576040517f08c379a000000000000000000000000000000000000000000000000000000000815260040161055a90610846565b60405180910390fd5b61056c81610577565b50565b600033905090565b60008060009054906101000a900473ffffffffffffffffffffffffffffffffffffffff169050816000806101000a81548173ffffffffffffffffffffffffffffffffffffffff021916908373ffffffffffffffffffffffffffffffffffffffff1602179055508173ffffffffffffffffffffffffffffffffffffffff168173ffffffffffffffffffffffffffffffffffffffff167f8be0079c531659141344cd1fd0a4f28419497f9722a3daafe3b4186f6b6457e060405160405180910390a35050565b80600160008473ffffffffffffffffffffffffffffffffffffffff1673ffffffffffffffffffffffffffffffffffffffff168152602001908152602001600020600082825461068a91906108f2565b925050819055505050565b6000813590506106a481610a72565b92915050565b6000813590506106b981610a89565b92915050565b6000813590506106ce81610aa0565b92915050565b6000602082840312156106ea576106e96109a3565b5b60006106f884828501610695565b91505092915050565b60008060408385031215610718576107176109a3565b5b6000610726858286016106aa565b9250506020610737858286016106bf565b9150509250929050565b60008060408385031215610758576107576109a3565b5b600061076685828601610695565b9250506020610777858286016106bf565b9150509250929050565b61078a81610926565b82525050565b600061079d6026836108e1565b91506107a8826109a8565b604082019050919050565b60006107c06020836108e1565b91506107cb826109f7565b602082019050919050565b60006107e3601b836108e1565b91506107ee82610a20565b602082019050919050565b60006108066015836108e1565b915061081182610a49565b602082019050919050565b6108258161096a565b82525050565b60006020820190506108406000830184610781565b92915050565b6000602082019050818103600083015261085f81610790565b9050919050565b6000602082019050818103600083015261087f816107b3565b9050919050565b6000602082019050818103600083015261089f816107d6565b9050919050565b600060208201905081810360008301526108bf816107f9565b9050919050565b60006020820190506108db600083018461081c565b92915050565b600082825260208201905092915050565b60006108fd8261096a565b91506109088361096a565b92508282101561091b5761091a610974565b5b828203905092915050565b60006109318261094a565b9050919050565b60006109438261094a565b9050919050565b600073ffffffffffffffffffffffffffffffffffffffff82169050919050565b6000819050919050565b7f4e487b7100000000000000000000000000000000000000000000000000000000600052601160045260246000fd5b600080fd5b7f4f776e61626c653a206e6577206f776e657220697320746865207a65726f206160008201527f6464726573730000000000000000000000000000000000000000000000000000602082015250565b7f4f776e61626c653a2063616c6c6572206973206e6f7420746865206f776e6572600082015250565b7f496e73756666696369656e742057616c6c542062616c616e63652e0000000000600082015250565b7f596f7520617265206e6f7420616c6c6f77656421210000000000000000000000600082015250565b610a7b81610926565b8114610a8657600080fd5b50565b610a9281610938565b8114610a9d57600080fd5b50565b610aa98161096a565b8114610ab457600080fd5b5056fea2646970667358221220f9d9c00caf758023c2aa5fd95bca3b8c7705eef5c8f1e44652e7e634f848b73464736f6c63430008070033",
					"opcodes": "PUSH1 0x80 PUSH1 0x40 MSTORE CALLVALUE DUP1 ISZERO PUSH2 0x10 JUMPI PUSH1 0x0 DUP1 REVERT JUMPDEST POP PUSH2 0x2D PUSH2 0x22 PUSH2 0x32 PUSH1 0x20 SHL PUSH1 0x20 SHR JUMP JUMPDEST PUSH2 0x3A PUSH1 0x20 SHL PUSH1 0x20 SHR JUMP JUMPDEST PUSH2 0xFE JUMP JUMPDEST PUSH1 0x0 CALLER SWAP1 POP SWAP1 JUMP JUMPDEST PUSH1 0x0 DUP1 PUSH1 0x0 SWAP1 SLOAD SWAP1 PUSH2 0x100 EXP SWAP1 DIV PUSH20 0xFFFFFFFFFFFFFFFFFFFFFFFFFFFFFFFFFFFFFFFF AND SWAP1 POP DUP2 PUSH1 0x0 DUP1 PUSH2 0x100 EXP DUP2 SLOAD DUP2 PUSH20 0xFFFFFFFFFFFFFFFFFFFFFFFFFFFFFFFFFFFFFFFF MUL NOT AND SWAP1 DUP4 PUSH20 0xFFFFFFFFFFFFFFFFFFFFFFFFFFFFFFFFFFFFFFFF AND MUL OR SWAP1 SSTORE POP DUP2 PUSH20 0xFFFFFFFFFFFFFFFFFFFFFFFFFFFFFFFFFFFFFFFF AND DUP2 PUSH20 0xFFFFFFFFFFFFFFFFFFFFFFFFFFFFFFFFFFFFFFFF AND PUSH32 0x8BE0079C531659141344CD1FD0A4F28419497F9722A3DAAFE3B4186F6B6457E0 PUSH1 0x40 MLOAD PUSH1 0x40 MLOAD DUP1 SWAP2 SUB SWAP1 LOG3 POP POP JUMP JUMPDEST PUSH2 0xAED DUP1 PUSH2 0x10D PUSH1 0x0 CODECOPY PUSH1 0x0 RETURN INVALID PUSH1 0x80 PUSH1 0x40 MSTORE PUSH1 0x4 CALLDATASIZE LT PUSH2 0x59 JUMPI PUSH1 0x0 CALLDATALOAD PUSH1 0xE0 SHR DUP1 PUSH4 0x310EC4A7 EQ PUSH2 0x5C JUMPI DUP1 PUSH4 0x3E5BEAB9 EQ PUSH2 0x85 JUMPI DUP1 PUSH4 0x715018A6 EQ PUSH2 0xC2 JUMPI DUP1 PUSH4 0x8DA5CB5B EQ PUSH2 0xD9 JUMPI DUP1 PUSH4 0xC1075329 EQ PUSH2 0x104 JUMPI DUP1 PUSH4 0xF2FDE38B EQ PUSH2 0x12D JUMPI PUSH2 0x5A JUMP JUMPDEST JUMPDEST STOP JUMPDEST CALLVALUE DUP1 ISZERO PUSH2 0x68 JUMPI PUSH1 0x0 DUP1 REVERT JUMPDEST POP PUSH2 0x83 PUSH1 0x4 DUP1 CALLDATASIZE SUB DUP2 ADD SWAP1 PUSH2 0x7E SWAP2 SWAP1 PUSH2 0x741 JUMP JUMPDEST PUSH2 0x156 JUMP JUMPDEST STOP JUMPDEST CALLVALUE DUP1 ISZERO PUSH2 0x91 JUMPI PUSH1 0x0 DUP1 REVERT JUMPDEST POP PUSH2 0xAC PUSH1 0x4 DUP1 CALLDATASIZE SUB DUP2 ADD SWAP1 PUSH2 0xA7 SWAP2 SWAP1 PUSH2 0x6D4 JUMP JUMPDEST PUSH2 0x21A JUMP JUMPDEST PUSH1 0x40 MLOAD PUSH2 0xB9 SWAP2 SWAP1 PUSH2 0x8C6 JUMP JUMPDEST PUSH1 0x40 MLOAD DUP1 SWAP2 SUB SWAP1 RETURN JUMPDEST CALLVALUE DUP1 ISZERO PUSH2 0xCE JUMPI PUSH1 0x0 DUP1 REVERT JUMPDEST POP PUSH2 0xD7 PUSH2 0x232 JUMP JUMPDEST STOP JUMPDEST CALLVALUE DUP1 ISZERO PUSH2 0xE5 JUMPI PUSH1 0x0 DUP1 REVERT JUMPDEST POP PUSH2 0xEE PUSH2 0x2BA JUMP JUMPDEST PUSH1 0x40 MLOAD PUSH2 0xFB SWAP2 SWAP1 PUSH2 0x82B JUMP JUMPDEST PUSH1 0x40 MLOAD DUP1 SWAP2 SUB SWAP1 RETURN JUMPDEST CALLVALUE DUP1 ISZERO PUSH2 0x110 JUMPI PUSH1 0x0 DUP1 REVERT JUMPDEST POP PUSH2 0x12B PUSH1 0x4 DUP1 CALLDATASIZE SUB DUP2 ADD SWAP1 PUSH2 0x126 SWAP2 SWAP1 PUSH2 0x701 JUMP JUMPDEST PUSH2 0x2E3 JUMP JUMPDEST STOP JUMPDEST CALLVALUE DUP1 ISZERO PUSH2 0x139 JUMPI PUSH1 0x0 DUP1 REVERT JUMPDEST POP PUSH2 0x154 PUSH1 0x4 DUP1 CALLDATASIZE SUB DUP2 ADD SWAP1 PUSH2 0x14F SWAP2 SWAP1 PUSH2 0x6D4 JUMP JUMPDEST PUSH2 0x477 JUMP JUMPDEST STOP JUMPDEST PUSH2 0x15E PUSH2 0x56F JUMP JUMPDEST PUSH20 0xFFFFFFFFFFFFFFFFFFFFFFFFFFFFFFFFFFFFFFFF AND PUSH2 0x17C PUSH2 0x2BA JUMP JUMPDEST PUSH20 0xFFFFFFFFFFFFFFFFFFFFFFFFFFFFFFFFFFFFFFFF AND EQ PUSH2 0x1D2 JUMPI PUSH1 0x40 MLOAD PUSH32 0x8C379A000000000000000000000000000000000000000000000000000000000 DUP2 MSTORE PUSH1 0x4 ADD PUSH2 0x1C9 SWAP1 PUSH2 0x866 JUMP JUMPDEST PUSH1 0x40 MLOAD DUP1 SWAP2 SUB SWAP1 REVERT JUMPDEST DUP1 PUSH1 0x1 PUSH1 0x0 DUP5 PUSH20 0xFFFFFFFFFFFFFFFFFFFFFFFFFFFFFFFFFFFFFFFF AND PUSH20 0xFFFFFFFFFFFFFFFFFFFFFFFFFFFFFFFFFFFFFFFF AND DUP2 MSTORE PUSH1 0x20 ADD SWAP1 DUP2 MSTORE PUSH1 0x20 ADD PUSH1 0x0 KECCAK256 DUP2 SWAP1 SSTORE POP POP POP JUMP JUMPDEST PUSH1 0x1 PUSH1 0x20 MSTORE DUP1 PUSH1 0x0 MSTORE PUSH1 0x40 PUSH1 0x0 KECCAK256 PUSH1 0x0 SWAP2 POP SWAP1 POP SLOAD DUP2 JUMP JUMPDEST PUSH2 0x23A PUSH2 0x56F JUMP JUMPDEST PUSH20 0xFFFFFFFFFFFFFFFFFFFFFFFFFFFFFFFFFFFFFFFF AND PUSH2 0x258 PUSH2 0x2BA JUMP JUMPDEST PUSH20 0xFFFFFFFFFFFFFFFFFFFFFFFFFFFFFFFFFFFFFFFF AND EQ PUSH2 0x2AE JUMPI PUSH1 0x40 MLOAD PUSH32 0x8C379A000000000000000000000000000000000000000000000000000000000 DUP2 MSTORE PUSH1 0x4 ADD PUSH2 0x2A5 SWAP1 PUSH2 0x866 JUMP JUMPDEST PUSH1 0x40 MLOAD DUP1 SWAP2 SUB SWAP1 REVERT JUMPDEST PUSH2 0x2B8 PUSH1 0x0 PUSH2 0x577 JUMP JUMPDEST JUMP JUMPDEST PUSH1 0x0 DUP1 PUSH1 0x0 SWAP1 SLOAD SWAP1 PUSH2 0x100 EXP SWAP1 DIV PUSH20 0xFFFFFFFFFFFFFFFFFFFFFFFFFFFFFFFFFFFFFFFF AND SWAP1 POP SWAP1 JUMP JUMPDEST DUP1 PUSH2 0x2EC PUSH2 0x2BA JUMP JUMPDEST PUSH20 0xFFFFFFFFFFFFFFFFFFFFFFFFFFFFFFFFFFFFFFFF AND CALLER PUSH20 0xFFFFFFFFFFFFFFFFFFFFFFFFFFFFFFFFFFFFFFFF AND EQ DUP1 PUSH2 0x364 JUMPI POP DUP1 PUSH1 0x1 PUSH1 0x0 CALLER PUSH20 0xFFFFFFFFFFFFFFFFFFFFFFFFFFFFFFFFFFFFFFFF AND PUSH20 0xFFFFFFFFFFFFFFFFFFFFFFFFFFFFFFFFFFFFFFFF AND DUP2 MSTORE PUSH1 0x20 ADD SWAP1 DUP2 MSTORE PUSH1 0x20 ADD PUSH1 0x0 KECCAK256 SLOAD LT ISZERO JUMPDEST PUSH2 0x3A3 JUMPI PUSH1 0x40 MLOAD PUSH32 0x8C379A000000000000000000000000000000000000000000000000000000000 DUP2 MSTORE PUSH1 0x4 ADD PUSH2 0x39A SWAP1 PUSH2 0x8A6 JUMP JUMPDEST PUSH1 0x40 MLOAD DUP1 SWAP2 SUB SWAP1 REVERT JUMPDEST SELFBALANCE DUP3 GT ISZERO PUSH2 0x3E6 JUMPI PUSH1 0x40 MLOAD PUSH32 0x8C379A000000000000000000000000000000000000000000000000000000000 DUP2 MSTORE PUSH1 0x4 ADD PUSH2 0x3DD SWAP1 PUSH2 0x886 JUMP JUMPDEST PUSH1 0x40 MLOAD DUP1 SWAP2 SUB SWAP1 REVERT JUMPDEST PUSH2 0x3EE PUSH2 0x2BA JUMP JUMPDEST PUSH20 0xFFFFFFFFFFFFFFFFFFFFFFFFFFFFFFFFFFFFFFFF AND CALLER PUSH20 0xFFFFFFFFFFFFFFFFFFFFFFFFFFFFFFFFFFFFFFFF AND EQ PUSH2 0x42B JUMPI PUSH2 0x42A CALLER DUP4 PUSH2 0x63B JUMP JUMPDEST JUMPDEST DUP3 PUSH20 0xFFFFFFFFFFFFFFFFFFFFFFFFFFFFFFFFFFFFFFFF AND PUSH2 0x8FC DUP4 SWAP1 DUP2 ISZERO MUL SWAP1 PUSH1 0x40 MLOAD PUSH1 0x0 PUSH1 0x40 MLOAD DUP1 DUP4 SUB DUP2 DUP6 DUP9 DUP9 CALL SWAP4 POP POP POP POP ISZERO DUP1 ISZERO PUSH2 0x471 JUMPI RETURNDATASIZE PUSH1 0x0 DUP1 RETURNDATACOPY RETURNDATASIZE PUSH1 0x0 REVERT JUMPDEST POP POP POP POP JUMP JUMPDEST PUSH2 0x47F PUSH2 0x56F JUMP JUMPDEST PUSH20 0xFFFFFFFFFFFFFFFFFFFFFFFFFFFFFFFFFFFFFFFF AND PUSH2 0x49D PUSH2 0x2BA JUMP JUMPDEST PUSH20 0xFFFFFFFFFFFFFFFFFFFFFFFFFFFFFFFFFFFFFFFF AND EQ PUSH2 0x4F3 JUMPI PUSH1 0x40 MLOAD PUSH32 0x8C379A000000000000000000000000000000000000000000000000000000000 DUP2 MSTORE PUSH1 0x4 ADD PUSH2 0x4EA SWAP1 PUSH2 0x866 JUMP JUMPDEST PUSH1 0x40 MLOAD DUP1 SWAP2 SUB SWAP1 REVERT JUMPDEST PUSH1 0x0 PUSH20 0xFFFFFFFFFFFFFFFFFFFFFFFFFFFFFFFFFFFFFFFF AND DUP2 PUSH20 0xFFFFFFFFFFFFFFFFFFFFFFFFFFFFFFFFFFFFFFFF AND EQ ISZERO PUSH2 0x563 JUMPI PUSH1 0x40 MLOAD PUSH32 0x8C379A000000000000000000000000000000000000000000000000000000000 DUP2 MSTORE PUSH1 0x4 ADD PUSH2 0x55A SWAP1 PUSH2 0x846 JUMP JUMPDEST PUSH1 0x40 MLOAD DUP1 SWAP2 SUB SWAP1 REVERT JUMPDEST PUSH2 0x56C DUP2 PUSH2 0x577 JUMP JUMPDEST POP JUMP JUMPDEST PUSH1 0x0 CALLER SWAP1 POP SWAP1 JUMP JUMPDEST PUSH1 0x0 DUP1 PUSH1 0x0 SWAP1 SLOAD SWAP1 PUSH2 0x100 EXP SWAP1 DIV PUSH20 0xFFFFFFFFFFFFFFFFFFFFFFFFFFFFFFFFFFFFFFFF AND SWAP1 POP DUP2 PUSH1 0x0 DUP1 PUSH2 0x100 EXP DUP2 SLOAD DUP2 PUSH20 0xFFFFFFFFFFFFFFFFFFFFFFFFFFFFFFFFFFFFFFFF MUL NOT AND SWAP1 DUP4 PUSH20 0xFFFFFFFFFFFFFFFFFFFFFFFFFFFFFFFFFFFFFFFF AND MUL OR SWAP1 SSTORE POP DUP2 PUSH20 0xFFFFFFFFFFFFFFFFFFFFFFFFFFFFFFFFFFFFFFFF AND DUP2 PUSH20 0xFFFFFFFFFFFFFFFFFFFFFFFFFFFFFFFFFFFFFFFF AND PUSH32 0x8BE0079C531659141344CD1FD0A4F28419497F9722A3DAAFE3B4186F6B6457E0 PUSH1 0x40 MLOAD PUSH1 0x40 MLOAD DUP1 SWAP2 SUB SWAP1 LOG3 POP POP JUMP JUMPDEST DUP1 PUSH1 0x1 PUSH1 0x0 DUP5 PUSH20 0xFFFFFFFFFFFFFFFFFFFFFFFFFFFFFFFFFFFFFFFF AND PUSH20 0xFFFFFFFFFFFFFFFFFFFFFFFFFFFFFFFFFFFFFFFF AND DUP2 MSTORE PUSH1 0x20 ADD SWAP1 DUP2 MSTORE PUSH1 0x20 ADD PUSH1 0x0 KECCAK256 PUSH1 0x0 DUP3 DUP3 SLOAD PUSH2 0x68A SWAP2 SWAP1 PUSH2 0x8F2 JUMP JUMPDEST SWAP3 POP POP DUP2 SWAP1 SSTORE POP POP POP JUMP JUMPDEST PUSH1 0x0 DUP2 CALLDATALOAD SWAP1 POP PUSH2 0x6A4 DUP2 PUSH2 0xA72 JUMP JUMPDEST SWAP3 SWAP2 POP POP JUMP JUMPDEST PUSH1 0x0 DUP2 CALLDATALOAD SWAP1 POP PUSH2 0x6B9 DUP2 PUSH2 0xA89 JUMP JUMPDEST SWAP3 SWAP2 POP POP JUMP JUMPDEST PUSH1 0x0 DUP2 CALLDATALOAD SWAP1 POP PUSH2 0x6CE DUP2 PUSH2 0xAA0 JUMP JUMPDEST SWAP3 SWAP2 POP POP JUMP JUMPDEST PUSH1 0x0 PUSH1 0x20 DUP3 DUP5 SUB SLT ISZERO PUSH2 0x6EA JUMPI PUSH2 0x6E9 PUSH2 0x9A3 JUMP JUMPDEST JUMPDEST PUSH1 0x0 PUSH2 0x6F8 DUP5 DUP3 DUP6 ADD PUSH2 0x695 JUMP JUMPDEST SWAP2 POP POP SWAP3 SWAP2 POP POP JUMP JUMPDEST PUSH1 0x0 DUP1 PUSH1 0x40 DUP4 DUP6 SUB SLT ISZERO PUSH2 0x718 JUMPI PUSH2 0x717 PUSH2 0x9A3 JUMP JUMPDEST JUMPDEST PUSH1 0x0 PUSH2 0x726 DUP6 DUP3 DUP7 ADD PUSH2 0x6AA JUMP JUMPDEST SWAP3 POP POP PUSH1 0x20 PUSH2 0x737 DUP6 DUP3 DUP7 ADD PUSH2 0x6BF JUMP JUMPDEST SWAP2 POP POP SWAP3 POP SWAP3 SWAP1 POP JUMP JUMPDEST PUSH1 0x0 DUP1 PUSH1 0x40 DUP4 DUP6 SUB SLT ISZERO PUSH2 0x758 JUMPI PUSH2 0x757 PUSH2 0x9A3 JUMP JUMPDEST JUMPDEST PUSH1 0x0 PUSH2 0x766 DUP6 DUP3 DUP7 ADD PUSH2 0x695 JUMP JUMPDEST SWAP3 POP POP PUSH1 0x20 PUSH2 0x777 DUP6 DUP3 DUP7 ADD PUSH2 0x6BF JUMP JUMPDEST SWAP2 POP POP SWAP3 POP SWAP3 SWAP1 POP JUMP JUMPDEST PUSH2 0x78A DUP2 PUSH2 0x926 JUMP JUMPDEST DUP3 MSTORE POP POP JUMP JUMPDEST PUSH1 0x0 PUSH2 0x79D PUSH1 0x26 DUP4 PUSH2 0x8E1 JUMP JUMPDEST SWAP2 POP PUSH2 0x7A8 DUP3 PUSH2 0x9A8 JUMP JUMPDEST PUSH1 0x40 DUP3 ADD SWAP1 POP SWAP2 SWAP1 POP JUMP JUMPDEST PUSH1 0x0 PUSH2 0x7C0 PUSH1 0x20 DUP4 PUSH2 0x8E1 JUMP JUMPDEST SWAP2 POP PUSH2 0x7CB DUP3 PUSH2 0x9F7 JUMP JUMPDEST PUSH1 0x20 DUP3 ADD SWAP1 POP SWAP2 SWAP1 POP JUMP JUMPDEST PUSH1 0x0 PUSH2 0x7E3 PUSH1 0x1B DUP4 PUSH2 0x8E1 JUMP JUMPDEST SWAP2 POP PUSH2 0x7EE DUP3 PUSH2 0xA20 JUMP JUMPDEST PUSH1 0x20 DUP3 ADD SWAP1 POP SWAP2 SWAP1 POP JUMP JUMPDEST PUSH1 0x0 PUSH2 0x806 PUSH1 0x15 DUP4 PUSH2 0x8E1 JUMP JUMPDEST SWAP2 POP PUSH2 0x811 DUP3 PUSH2 0xA49 JUMP JUMPDEST PUSH1 0x20 DUP3 ADD SWAP1 POP SWAP2 SWAP1 POP JUMP JUMPDEST PUSH2 0x825 DUP2 PUSH2 0x96A JUMP JUMPDEST DUP3 MSTORE POP POP JUMP JUMPDEST PUSH1 0x0 PUSH1 0x20 DUP3 ADD SWAP1 POP PUSH2 0x840 PUSH1 0x0 DUP4 ADD DUP5 PUSH2 0x781 JUMP JUMPDEST SWAP3 SWAP2 POP POP JUMP JUMPDEST PUSH1 0x0 PUSH1 0x20 DUP3 ADD SWAP1 POP DUP2 DUP2 SUB PUSH1 0x0 DUP4 ADD MSTORE PUSH2 0x85F DUP2 PUSH2 0x790 JUMP JUMPDEST SWAP1 POP SWAP2 SWAP1 POP JUMP JUMPDEST PUSH1 0x0 PUSH1 0x20 DUP3 ADD SWAP1 POP DUP2 DUP2 SUB PUSH1 0x0 DUP4 ADD MSTORE PUSH2 0x87F DUP2 PUSH2 0x7B3 JUMP JUMPDEST SWAP1 POP SWAP2 SWAP1 POP JUMP JUMPDEST PUSH1 0x0 PUSH1 0x20 DUP3 ADD SWAP1 POP DUP2 DUP2 SUB PUSH1 0x0 DUP4 ADD MSTORE PUSH2 0x89F DUP2 PUSH2 0x7D6 JUMP JUMPDEST SWAP1 POP SWAP2 SWAP1 POP JUMP JUMPDEST PUSH1 0x0 PUSH1 0x20 DUP3 ADD SWAP1 POP DUP2 DUP2 SUB PUSH1 0x0 DUP4 ADD MSTORE PUSH2 0x8BF DUP2 PUSH2 0x7F9 JUMP JUMPDEST SWAP1 POP SWAP2 SWAP1 POP JUMP JUMPDEST PUSH1 0x0 PUSH1 0x20 DUP3 ADD SWAP1 POP PUSH2 0x8DB PUSH1 0x0 DUP4 ADD DUP5 PUSH2 0x81C JUMP JUMPDEST SWAP3 SWAP2 POP POP JUMP JUMPDEST PUSH1 0x0 DUP3 DUP3 MSTORE PUSH1 0x20 DUP3 ADD SWAP1 POP SWAP3 SWAP2 POP POP JUMP JUMPDEST PUSH1 0x0 PUSH2 0x8FD DUP3 PUSH2 0x96A JUMP JUMPDEST SWAP2 POP PUSH2 0x908 DUP4 PUSH2 0x96A JUMP JUMPDEST SWAP3 POP DUP3 DUP3 LT ISZERO PUSH2 0x91B JUMPI PUSH2 0x91A PUSH2 0x974 JUMP JUMPDEST JUMPDEST DUP3 DUP3 SUB SWAP1 POP SWAP3 SWAP2 POP POP JUMP JUMPDEST PUSH1 0x0 PUSH2 0x931 DUP3 PUSH2 0x94A JUMP JUMPDEST SWAP1 POP SWAP2 SWAP1 POP JUMP JUMPDEST PUSH1 0x0 PUSH2 0x943 DUP3 PUSH2 0x94A JUMP JUMPDEST SWAP1 POP SWAP2 SWAP1 POP JUMP JUMPDEST PUSH1 0x0 PUSH20 0xFFFFFFFFFFFFFFFFFFFFFFFFFFFFFFFFFFFFFFFF DUP3 AND SWAP1 POP SWAP2 SWAP1 POP JUMP JUMPDEST PUSH1 0x0 DUP2 SWAP1 POP SWAP2 SWAP1 POP JUMP JUMPDEST PUSH32 0x4E487B7100000000000000000000000000000000000000000000000000000000 PUSH1 0x0 MSTORE PUSH1 0x11 PUSH1 0x4 MSTORE PUSH1 0x24 PUSH1 0x0 REVERT JUMPDEST PUSH1 0x0 DUP1 REVERT JUMPDEST PUSH32 0x4F776E61626C653A206E6577206F776E657220697320746865207A65726F2061 PUSH1 0x0 DUP3 ADD MSTORE PUSH32 0x6464726573730000000000000000000000000000000000000000000000000000 PUSH1 0x20 DUP3 ADD MSTORE POP JUMP JUMPDEST PUSH32 0x4F776E61626C653A2063616C6C6572206973206E6F7420746865206F776E6572 PUSH1 0x0 DUP3 ADD MSTORE POP JUMP JUMPDEST PUSH32 0x496E73756666696369656E742057616C6C542062616C616E63652E0000000000 PUSH1 0x0 DUP3 ADD MSTORE POP JUMP JUMPDEST PUSH32 0x596F7520617265206E6F7420616C6C6F77656421210000000000000000000000 PUSH1 0x0 DUP3 ADD MSTORE POP JUMP JUMPDEST PUSH2 0xA7B DUP2 PUSH2 0x926 JUMP JUMPDEST DUP2 EQ PUSH2 0xA86 JUMPI PUSH1 0x0 DUP1 REVERT JUMPDEST POP JUMP JUMPDEST PUSH2 0xA92 DUP2 PUSH2 0x938 JUMP JUMPDEST DUP2 EQ PUSH2 0xA9D JUMPI PUSH1 0x0 DUP1 REVERT JUMPDEST POP JUMP JUMPDEST PUSH2 0xAA9 DUP2 PUSH2 0x96A JUMP JUMPDEST DUP2 EQ PUSH2 0xAB4 JUMPI PUSH1 0x0 DUP1 REVERT JUMPDEST POP JUMP INVALID LOG2 PUSH5 0x6970667358 0x22 SLT KECCAK256 0xF9 0xD9 0xC0 0xC 0xAF PUSH22 0x8023C2AA5FD95BCA3B8C7705EEF5C8F1E44652E7E634 0xF8 BASEFEE 0xB7 CALLVALUE PUSH5 0x736F6C6343 STOP ADDMOD SMOD STOP CALLER "
				},
				"gasEstimates": {
					"creation": {
						"codeDepositCost": "559400",
						"executionCost": "infinite",
						"totalCost": "infinite"
					},
					"external": {
						"": "195",
						"allowance(address)": "2814",
						"owner()": "2566",
						"renounceOwnership()": "30396",
						"setAllowance(address,uint256)": "25050",
						"transferOwnership(address)": "30811",
						"withdrawFunds(address,uint256)": "infinite"
					},
					"internal": {
						"reduceAllowance(address,uint256)": "infinite"
					}
				},
				"methodIdentifiers": {
					"allowance(address)": "3e5beab9",
					"owner()": "8da5cb5b",
					"renounceOwnership()": "715018a6",
					"setAllowance(address,uint256)": "310ec4a7",
					"transferOwnership(address)": "f2fde38b",
					"withdrawFunds(address,uint256)": "c1075329"
				}
			},
			"userdoc": {
				"kind": "user",
				"methods": {},
				"version": 1
			}
		}
	}
}