{
	"WallT1.0/WallT_Main.sol": {
		"Wallt1": {
			"abi": [
				{
					"anonymous": false,
					"inputs": [
						{
							"indexed": true,
							"internalType": "address",
							"name": "previousOwner",
							"type": "address"
						},
						{
							"indexed": true,
							"internalType": "address",
							"name": "newOwner",
							"type": "address"
						}
					],
					"name": "OwnershipTransferred",
					"type": "event"
				},
				{
					"anonymous": false,
					"inputs": [
						{
							"indexed": true,
							"internalType": "address",
							"name": "_member",
							"type": "address"
						},
						{
							"indexed": true,
							"internalType": "address",
							"name": "changer",
							"type": "address"
						},
						{
							"indexed": false,
							"internalType": "uint256",
							"name": "_oldAmount",
							"type": "uint256"
						},
						{
							"indexed": false,
							"internalType": "uint256",
							"name": "_newAmount",
							"type": "uint256"
						}
					],
					"name": "allowanceChanged",
					"type": "event"
				},
				{
					"anonymous": false,
					"inputs": [
						{
							"indexed": true,
							"internalType": "address",
							"name": "_depositor",
							"type": "address"
						},
						{
							"indexed": false,
							"internalType": "uint256",
							"name": "_amount",
							"type": "uint256"
						}
					],
					"name": "fundsDeposited",
					"type": "event"
				},
				{
					"anonymous": false,
					"inputs": [
						{
							"indexed": true,
							"internalType": "address",
							"name": "_beneficiary",
							"type": "address"
						},
						{
							"indexed": false,
							"internalType": "uint256",
							"name": "_amount",
							"type": "uint256"
						}
					],
					"name": "fundsWithdrawn",
					"type": "event"
				},
				{
					"stateMutability": "payable",
					"type": "fallback"
				},
				{
					"inputs": [
						{
							"internalType": "address",
							"name": "",
							"type": "address"
						}
					],
					"name": "allowance",
					"outputs": [
						{
							"internalType": "uint256",
							"name": "",
							"type": "uint256"
						}
					],
					"stateMutability": "view",
					"type": "function"
				},
				{
					"inputs": [],
					"name": "getWalletBalance",
					"outputs": [
						{
							"internalType": "uint256",
							"name": "",
							"type": "uint256"
						}
					],
					"stateMutability": "view",
					"type": "function"
				},
				{
					"inputs": [],
					"name": "owner",
					"outputs": [
						{
							"internalType": "address",
							"name": "",
							"type": "address"
						}
					],
					"stateMutability": "view",
					"type": "function"
				},
				{
					"inputs": [],
					"name": "renounceOwnership",
					"outputs": [],
					"stateMutability": "nonpayable",
					"type": "function"
				},
				{
					"inputs": [
						{
							"internalType": "address",
							"name": "_member",
							"type": "address"
						},
						{
							"internalType": "uint256",
							"name": "_allowance",
							"type": "uint256"
						}
					],
					"name": "setAllowance",
					"outputs": [],
					"stateMutability": "nonpayable",
					"type": "function"
				},
				{
					"inputs": [
						{
							"internalType": "address",
							"name": "newOwner",
							"type": "address"
						}
					],
					"name": "transferOwnership",
					"outputs": [],
					"stateMutability": "nonpayable",
					"type": "function"
				},
				{
					"inputs": [
						{
							"internalType": "address payable",
							"name": "_to",
							"type": "address"
						},
						{
							"internalType": "uint256",
							"name": "_amount",
							"type": "uint256"
						}
					],
					"name": "withdrawFunds",
					"outputs": [],
					"stateMutability": "nonpayable",
					"type": "function"
				}
			],
			"devdoc": {
				"kind": "dev",
				"methods": {
					"owner()": {
						"details": "Returns the address of the current owner."
					},
					"renounceOwnership()": {
						"details": "Leaves the contract without owner. It will not be possible to call `onlyOwner` functions anymore. Can only be called by the current owner. NOTE: Renouncing ownership will leave the contract without an owner, thereby removing any functionality that is only available to the owner."
					},
					"transferOwnership(address)": {
						"details": "Transfers ownership of the contract to a new account (`newOwner`). Can only be called by the current owner."
					}
				},
				"version": 1
			},
			"evm": {
				"assembly": "    /* \"WallT1.0/WallT_Main.sol\":146:896  contract Wallt1 is Allowance{... */\n  mstore(0x40, 0x80)\n  callvalue\n  dup1\n  iszero\n  tag_1\n  jumpi\n  0x00\n  dup1\n  revert\ntag_1:\n  pop\n    /* \"https://github.com/OpenZeppelin/openzeppelin-contracts/blob/master/contracts/access/Ownable.sol\":921:953  _transferOwnership(_msgSender()) */\n  tag_4\n    /* \"https://github.com/OpenZeppelin/openzeppelin-contracts/blob/master/contracts/access/Ownable.sol\":940:952  _msgSender() */\n  tag_5\n    /* \"https://github.com/OpenZeppelin/openzeppelin-contracts/blob/master/contracts/access/Ownable.sol\":940:950  _msgSender */\n  shl(0x20, tag_6)\n    /* \"https://github.com/OpenZeppelin/openzeppelin-contracts/blob/master/contracts/access/Ownable.sol\":940:952  _msgSender() */\n  0x20\n  shr\n  jump\t// in\ntag_5:\n    /* \"https://github.com/OpenZeppelin/openzeppelin-contracts/blob/master/contracts/access/Ownable.sol\":921:939  _transferOwnership */\n  shl(0x20, tag_7)\n    /* \"https://github.com/OpenZeppelin/openzeppelin-contracts/blob/master/contracts/access/Ownable.sol\":921:953  _transferOwnership(_msgSender()) */\n  0x20\n  shr\n  jump\t// in\ntag_4:\n    /* \"WallT1.0/WallT_Main.sol\":146:896  contract Wallt1 is Allowance{... */\n  jump(tag_8)\n    /* \"https://github.com/OpenZeppelin/openzeppelin-contracts/blob/master/contracts/utils/Context.sol\":640:736  function _msgSender() internal view virtual returns (address) {... */\ntag_6:\n    /* \"https://github.com/OpenZeppelin/openzeppelin-contracts/blob/master/contracts/utils/Context.sol\":693:700  address */\n  0x00\n    /* \"https://github.com/OpenZeppelin/openzeppelin-contracts/blob/master/contracts/utils/Context.sol\":719:729  msg.sender */\n  caller\n    /* \"https://github.com/OpenZeppelin/openzeppelin-contracts/blob/master/contracts/utils/Context.sol\":712:729  return msg.sender */\n  swap1\n  pop\n    /* \"https://github.com/OpenZeppelin/openzeppelin-contracts/blob/master/contracts/utils/Context.sol\":640:736  function _msgSender() internal view virtual returns (address) {... */\n  swap1\n  jump\t// out\n    /* \"https://github.com/OpenZeppelin/openzeppelin-contracts/blob/master/contracts/access/Ownable.sol\":2270:2457  function _transferOwnership(address newOwner) internal virtual {... */\ntag_7:\n    /* \"https://github.com/OpenZeppelin/openzeppelin-contracts/blob/master/contracts/access/Ownable.sol\":2343:2359  address oldOwner */\n  0x00\n    /* \"https://github.com/OpenZeppelin/openzeppelin-contracts/blob/master/contracts/access/Ownable.sol\":2362:2368  _owner */\n  dup1\n  0x00\n  swap1\n  sload\n  swap1\n  0x0100\n  exp\n  swap1\n  div\n  0xffffffffffffffffffffffffffffffffffffffff\n  and\n    /* \"https://github.com/OpenZeppelin/openzeppelin-contracts/blob/master/contracts/access/Ownable.sol\":2343:2368  address oldOwner = _owner */\n  swap1\n  pop\n    /* \"https://github.com/OpenZeppelin/openzeppelin-contracts/blob/master/contracts/access/Ownable.sol\":2387:2395  newOwner */\n  dup2\n    /* \"https://github.com/OpenZeppelin/openzeppelin-contracts/blob/master/contracts/access/Ownable.sol\":2378:2384  _owner */\n  0x00\n  dup1\n    /* \"https://github.com/OpenZeppelin/openzeppelin-contracts/blob/master/contracts/access/Ownable.sol\":2378:2395  _owner = newOwner */\n  0x0100\n  exp\n  dup2\n  sload\n  dup2\n  0xffffffffffffffffffffffffffffffffffffffff\n  mul\n  not\n  and\n  swap1\n  dup4\n  0xffffffffffffffffffffffffffffffffffffffff\n  and\n  mul\n  or\n  swap1\n  sstore\n  pop\n    /* \"https://github.com/OpenZeppelin/openzeppelin-contracts/blob/master/contracts/access/Ownable.sol\":2441:2449  newOwner */\n  dup2\n    /* \"https://github.com/OpenZeppelin/openzeppelin-contracts/blob/master/contracts/access/Ownable.sol\":2410:2450  OwnershipTransferred(oldOwner, newOwner) */\n  0xffffffffffffffffffffffffffffffffffffffff\n  and\n    /* \"https://github.com/OpenZeppelin/openzeppelin-contracts/blob/master/contracts/access/Ownable.sol\":2431:2439  oldOwner */\n  dup2\n    /* \"https://github.com/OpenZeppelin/openzeppelin-contracts/blob/master/contracts/access/Ownable.sol\":2410:2450  OwnershipTransferred(oldOwner, newOwner) */\n  0xffffffffffffffffffffffffffffffffffffffff\n  and\n  0x8be0079c531659141344cd1fd0a4f28419497f9722a3daafe3b4186f6b6457e0\n  mload(0x40)\n  mload(0x40)\n  dup1\n  swap2\n  sub\n  swap1\n  log3\n    /* \"https://github.com/OpenZeppelin/openzeppelin-contracts/blob/master/contracts/access/Ownable.sol\":2333:2457  {... */\n  pop\n    /* \"https://github.com/OpenZeppelin/openzeppelin-contracts/blob/master/contracts/access/Ownable.sol\":2270:2457  function _transferOwnership(address newOwner) internal virtual {... */\n  pop\n  jump\t// out\n    /* \"WallT1.0/WallT_Main.sol\":146:896  contract Wallt1 is Allowance{... */\ntag_8:\n  dataSize(sub_0)\n  dup1\n  dataOffset(sub_0)\n  0x00\n  codecopy\n  0x00\n  return\nstop\n\nsub_0: assembly {\n        /* \"WallT1.0/WallT_Main.sol\":146:896  contract Wallt1 is Allowance{... */\n      mstore(0x40, 0x80)\n      jumpi(tag_1, lt(calldatasize, 0x04))\n      shr(0xe0, calldataload(0x00))\n      dup1\n      0x715018a6\n      gt\n      tag_10\n      jumpi\n      dup1\n      0x715018a6\n      eq\n      tag_6\n      jumpi\n      dup1\n      0x8da5cb5b\n      eq\n      tag_7\n      jumpi\n      dup1\n      0xc1075329\n      eq\n      tag_8\n      jumpi\n      dup1\n      0xf2fde38b\n      eq\n      tag_9\n      jumpi\n      jump(tag_2)\n    tag_10:\n      dup1\n      0x310ec4a7\n      eq\n      tag_3\n      jumpi\n      dup1\n      0x329a27e7\n      eq\n      tag_4\n      jumpi\n      dup1\n      0x3e5beab9\n      eq\n      tag_5\n      jumpi\n      jump(tag_2)\n    tag_1:\n    tag_2:\n        /* \"WallT1.0/WallT_Main.sol\":496:506  msg.sender */\n      caller\n        /* \"WallT1.0/WallT_Main.sol\":481:518  fundsDeposited(msg.sender, msg.value) */\n      0xffffffffffffffffffffffffffffffffffffffff\n      and\n      0xa0237b7b3e1727ecc208904784abf18c6b22f5c44f97dab6ef7d99baaefedfee\n        /* \"WallT1.0/WallT_Main.sol\":508:517  msg.value */\n      callvalue\n        /* \"WallT1.0/WallT_Main.sol\":481:518  fundsDeposited(msg.sender, msg.value) */\n      mload(0x40)\n      tag_13\n      swap2\n      swap1\n      tag_14\n      jump\t// in\n    tag_13:\n      mload(0x40)\n      dup1\n      swap2\n      sub\n      swap1\n      log2\n        /* \"WallT1.0/WallT_Main.sol\":146:896  contract Wallt1 is Allowance{... */\n      stop\n        /* \"WallT1.0/Allowance.sol\":373:581  function setAllowance (address _member, uint _allowance) public onlyOwner{... */\n    tag_3:\n      callvalue\n      dup1\n      iszero\n      tag_15\n      jumpi\n      0x00\n      dup1\n      revert\n    tag_15:\n      pop\n      tag_16\n      0x04\n      dup1\n      calldatasize\n      sub\n      dup2\n      add\n      swap1\n      tag_17\n      swap2\n      swap1\n      tag_18\n      jump\t// in\n    tag_17:\n      tag_19\n      jump\t// in\n    tag_16:\n      stop\n        /* \"WallT1.0/WallT_Main.sol\":327:429  function getWalletBalance() public view returns (uint) {... */\n    tag_4:\n      callvalue\n      dup1\n      iszero\n      tag_20\n      jumpi\n      0x00\n      dup1\n      revert\n    tag_20:\n      pop\n      tag_21\n      tag_22\n      jump\t// in\n    tag_21:\n      mload(0x40)\n      tag_23\n      swap2\n      swap1\n      tag_14\n      jump\t// in\n    tag_23:\n      mload(0x40)\n      dup1\n      swap2\n      sub\n      swap1\n      return\n        /* \"WallT1.0/Allowance.sol\":322:364  mapping (address => uint) public allowance */\n    tag_5:\n      callvalue\n      dup1\n      iszero\n      tag_24\n      jumpi\n      0x00\n      dup1\n      revert\n    tag_24:\n      pop\n      tag_25\n      0x04\n      dup1\n      calldatasize\n      sub\n      dup2\n      add\n      swap1\n      tag_26\n      swap2\n      swap1\n      tag_27\n      jump\t// in\n    tag_26:\n      tag_28\n      jump\t// in\n    tag_25:\n      mload(0x40)\n      tag_29\n      swap2\n      swap1\n      tag_14\n      jump\t// in\n    tag_29:\n      mload(0x40)\n      dup1\n      swap2\n      sub\n      swap1\n      return\n        /* \"https://github.com/OpenZeppelin/openzeppelin-contracts/blob/master/contracts/access/Ownable.sol\":1668:1769  function renounceOwnership() public virtual onlyOwner {... */\n    tag_6:\n      callvalue\n      dup1\n      iszero\n      tag_30\n      jumpi\n      0x00\n      dup1\n      revert\n    tag_30:\n      pop\n      tag_31\n      tag_32\n      jump\t// in\n    tag_31:\n      stop\n        /* \"https://github.com/OpenZeppelin/openzeppelin-contracts/blob/master/contracts/access/Ownable.sol\":1036:1121  function owner() public view virtual returns (address) {... */\n    tag_7:\n      callvalue\n      dup1\n      iszero\n      tag_33\n      jumpi\n      0x00\n      dup1\n      revert\n    tag_33:\n      pop\n      tag_34\n      tag_35\n      jump\t// in\n    tag_34:\n      mload(0x40)\n      tag_36\n      swap2\n      swap1\n      tag_37\n      jump\t// in\n    tag_36:\n      mload(0x40)\n      dup1\n      swap2\n      sub\n      swap1\n      return\n        /* \"WallT1.0/WallT_Main.sol\":534:891  function withdrawFunds(address payable _to, uint _amount) public ownerOrAllowed(_amount){... */\n    tag_8:\n      callvalue\n      dup1\n      iszero\n      tag_38\n      jumpi\n      0x00\n      dup1\n      revert\n    tag_38:\n      pop\n      tag_39\n      0x04\n      dup1\n      calldatasize\n      sub\n      dup2\n      add\n      swap1\n      tag_40\n      swap2\n      swap1\n      tag_41\n      jump\t// in\n    tag_40:\n      tag_42\n      jump\t// in\n    tag_39:\n      stop\n        /* \"https://github.com/OpenZeppelin/openzeppelin-contracts/blob/master/contracts/access/Ownable.sol\":1918:2116  function transferOwnership(address newOwner) public virtual onlyOwner {... */\n    tag_9:\n      callvalue\n      dup1\n      iszero\n      tag_43\n      jumpi\n      0x00\n      dup1\n      revert\n    tag_43:\n      pop\n      tag_44\n      0x04\n      dup1\n      calldatasize\n      sub\n      dup2\n      add\n      swap1\n      tag_45\n      swap2\n      swap1\n      tag_27\n      jump\t// in\n    tag_45:\n      tag_46\n      jump\t// in\n    tag_44:\n      stop\n        /* \"WallT1.0/Allowance.sol\":373:581  function setAllowance (address _member, uint _allowance) public onlyOwner{... */\n    tag_19:\n        /* \"https://github.com/OpenZeppelin/openzeppelin-contracts/blob/master/contracts/access/Ownable.sol\":1259:1271  _msgSender() */\n      tag_48\n        /* \"https://github.com/OpenZeppelin/openzeppelin-contracts/blob/master/contracts/access/Ownable.sol\":1259:1269  _msgSender */\n      tag_49\n        /* \"https://github.com/OpenZeppelin/openzeppelin-contracts/blob/master/contracts/access/Ownable.sol\":1259:1271  _msgSender() */\n      jump\t// in\n    tag_48:\n        /* \"https://github.com/OpenZeppelin/openzeppelin-contracts/blob/master/contracts/access/Ownable.sol\":1248:1271  owner() == _msgSender() */\n      0xffffffffffffffffffffffffffffffffffffffff\n      and\n        /* \"https://github.com/OpenZeppelin/openzeppelin-contracts/blob/master/contracts/access/Ownable.sol\":1248:1255  owner() */\n      tag_50\n        /* \"https://github.com/OpenZeppelin/openzeppelin-contracts/blob/master/contracts/access/Ownable.sol\":1248:1253  owner */\n      tag_35\n        /* \"https://github.com/OpenZeppelin/openzeppelin-contracts/blob/master/contracts/access/Ownable.sol\":1248:1255  owner() */\n      jump\t// in\n    tag_50:\n        /* \"https://github.com/OpenZeppelin/openzeppelin-contracts/blob/master/contracts/access/Ownable.sol\":1248:1271  owner() == _msgSender() */\n      0xffffffffffffffffffffffffffffffffffffffff\n      and\n      eq\n        /* \"https://github.com/OpenZeppelin/openzeppelin-contracts/blob/master/contracts/access/Ownable.sol\":1240:1308  require(owner() == _msgSender(), \"Ownable: caller is not the owner\") */\n      tag_51\n      jumpi\n      mload(0x40)\n      0x08c379a000000000000000000000000000000000000000000000000000000000\n      dup2\n      mstore\n      0x04\n      add\n      tag_52\n      swap1\n      tag_53\n      jump\t// in\n    tag_52:\n      mload(0x40)\n      dup1\n      swap2\n      sub\n      swap1\n      revert\n    tag_51:\n        /* \"WallT1.0/Allowance.sol\":488:498  msg.sender */\n      caller\n        /* \"WallT1.0/Allowance.sol\":462:531  allowanceChanged(_member, msg.sender, allowance[_member], _allowance) */\n      0xffffffffffffffffffffffffffffffffffffffff\n      and\n        /* \"WallT1.0/Allowance.sol\":479:486  _member */\n      dup3\n        /* \"WallT1.0/Allowance.sol\":462:531  allowanceChanged(_member, msg.sender, allowance[_member], _allowance) */\n      0xffffffffffffffffffffffffffffffffffffffff\n      and\n      0x96798bba4b94a2230e56e98161b1b80164fe3e9c5a30176e53c96c2e2347fda8\n        /* \"WallT1.0/Allowance.sol\":500:509  allowance */\n      0x01\n        /* \"WallT1.0/Allowance.sol\":500:518  allowance[_member] */\n      0x00\n        /* \"WallT1.0/Allowance.sol\":510:517  _member */\n      dup7\n        /* \"WallT1.0/Allowance.sol\":500:518  allowance[_member] */\n      0xffffffffffffffffffffffffffffffffffffffff\n      and\n      0xffffffffffffffffffffffffffffffffffffffff\n      and\n      dup2\n      mstore\n      0x20\n      add\n      swap1\n      dup2\n      mstore\n      0x20\n      add\n      0x00\n      keccak256\n      sload\n        /* \"WallT1.0/Allowance.sol\":520:530  _allowance */\n      dup5\n        /* \"WallT1.0/Allowance.sol\":462:531  allowanceChanged(_member, msg.sender, allowance[_member], _allowance) */\n      mload(0x40)\n      tag_55\n      swap3\n      swap2\n      swap1\n      tag_56\n      jump\t// in\n    tag_55:\n      mload(0x40)\n      dup1\n      swap2\n      sub\n      swap1\n      log3\n        /* \"WallT1.0/Allowance.sol\":563:573  _allowance */\n      dup1\n        /* \"WallT1.0/Allowance.sol\":542:551  allowance */\n      0x01\n        /* \"WallT1.0/Allowance.sol\":542:560  allowance[_member] */\n      0x00\n        /* \"WallT1.0/Allowance.sol\":552:559  _member */\n      dup5\n        /* \"WallT1.0/Allowance.sol\":542:560  allowance[_member] */\n      0xffffffffffffffffffffffffffffffffffffffff\n      and\n      0xffffffffffffffffffffffffffffffffffffffff\n      and\n      dup2\n      mstore\n      0x20\n      add\n      swap1\n      dup2\n      mstore\n      0x20\n      add\n      0x00\n      keccak256\n        /* \"WallT1.0/Allowance.sol\":542:573  allowance[_member] = _allowance */\n      dup2\n      swap1\n      sstore\n      pop\n        /* \"WallT1.0/Allowance.sol\":373:581  function setAllowance (address _member, uint _allowance) public onlyOwner{... */\n      pop\n      pop\n      jump\t// out\n        /* \"WallT1.0/WallT_Main.sol\":327:429  function getWalletBalance() public view returns (uint) {... */\n    tag_22:\n        /* \"WallT1.0/WallT_Main.sol\":376:380  uint */\n      0x00\n        /* \"WallT1.0/WallT_Main.sol\":400:421  address(this).balance */\n      selfbalance\n        /* \"WallT1.0/WallT_Main.sol\":393:421  return address(this).balance */\n      swap1\n      pop\n        /* \"WallT1.0/WallT_Main.sol\":327:429  function getWalletBalance() public view returns (uint) {... */\n      swap1\n      jump\t// out\n        /* \"WallT1.0/Allowance.sol\":322:364  mapping (address => uint) public allowance */\n    tag_28:\n      mstore(0x20, 0x01)\n      dup1\n      0x00\n      mstore\n      keccak256(0x00, 0x40)\n      0x00\n      swap2\n      pop\n      swap1\n      pop\n      sload\n      dup2\n      jump\t// out\n        /* \"https://github.com/OpenZeppelin/openzeppelin-contracts/blob/master/contracts/access/Ownable.sol\":1668:1769  function renounceOwnership() public virtual onlyOwner {... */\n    tag_32:\n        /* \"https://github.com/OpenZeppelin/openzeppelin-contracts/blob/master/contracts/access/Ownable.sol\":1259:1271  _msgSender() */\n      tag_59\n        /* \"https://github.com/OpenZeppelin/openzeppelin-contracts/blob/master/contracts/access/Ownable.sol\":1259:1269  _msgSender */\n      tag_49\n        /* \"https://github.com/OpenZeppelin/openzeppelin-contracts/blob/master/contracts/access/Ownable.sol\":1259:1271  _msgSender() */\n      jump\t// in\n    tag_59:\n        /* \"https://github.com/OpenZeppelin/openzeppelin-contracts/blob/master/contracts/access/Ownable.sol\":1248:1271  owner() == _msgSender() */\n      0xffffffffffffffffffffffffffffffffffffffff\n      and\n        /* \"https://github.com/OpenZeppelin/openzeppelin-contracts/blob/master/contracts/access/Ownable.sol\":1248:1255  owner() */\n      tag_60\n        /* \"https://github.com/OpenZeppelin/openzeppelin-contracts/blob/master/contracts/access/Ownable.sol\":1248:1253  owner */\n      tag_35\n        /* \"https://github.com/OpenZeppelin/openzeppelin-contracts/blob/master/contracts/access/Ownable.sol\":1248:1255  owner() */\n      jump\t// in\n    tag_60:\n        /* \"https://github.com/OpenZeppelin/openzeppelin-contracts/blob/master/contracts/access/Ownable.sol\":1248:1271  owner() == _msgSender() */\n      0xffffffffffffffffffffffffffffffffffffffff\n      and\n      eq\n        /* \"https://github.com/OpenZeppelin/openzeppelin-contracts/blob/master/contracts/access/Ownable.sol\":1240:1308  require(owner() == _msgSender(), \"Ownable: caller is not the owner\") */\n      tag_61\n      jumpi\n      mload(0x40)\n      0x08c379a000000000000000000000000000000000000000000000000000000000\n      dup2\n      mstore\n      0x04\n      add\n      tag_62\n      swap1\n      tag_53\n      jump\t// in\n    tag_62:\n      mload(0x40)\n      dup1\n      swap2\n      sub\n      swap1\n      revert\n    tag_61:\n        /* \"https://github.com/OpenZeppelin/openzeppelin-contracts/blob/master/contracts/access/Ownable.sol\":1732:1762  _transferOwnership(address(0)) */\n      tag_64\n        /* \"https://github.com/OpenZeppelin/openzeppelin-contracts/blob/master/contracts/access/Ownable.sol\":1759:1760  0 */\n      0x00\n        /* \"https://github.com/OpenZeppelin/openzeppelin-contracts/blob/master/contracts/access/Ownable.sol\":1732:1750  _transferOwnership */\n      tag_65\n        /* \"https://github.com/OpenZeppelin/openzeppelin-contracts/blob/master/contracts/access/Ownable.sol\":1732:1762  _transferOwnership(address(0)) */\n      jump\t// in\n    tag_64:\n        /* \"https://github.com/OpenZeppelin/openzeppelin-contracts/blob/master/contracts/access/Ownable.sol\":1668:1769  function renounceOwnership() public virtual onlyOwner {... */\n      jump\t// out\n        /* \"https://github.com/OpenZeppelin/openzeppelin-contracts/blob/master/contracts/access/Ownable.sol\":1036:1121  function owner() public view virtual returns (address) {... */\n    tag_35:\n        /* \"https://github.com/OpenZeppelin/openzeppelin-contracts/blob/master/contracts/access/Ownable.sol\":1082:1089  address */\n      0x00\n        /* \"https://github.com/OpenZeppelin/openzeppelin-contracts/blob/master/contracts/access/Ownable.sol\":1108:1114  _owner */\n      dup1\n      0x00\n      swap1\n      sload\n      swap1\n      0x0100\n      exp\n      swap1\n      div\n      0xffffffffffffffffffffffffffffffffffffffff\n      and\n        /* \"https://github.com/OpenZeppelin/openzeppelin-contracts/blob/master/contracts/access/Ownable.sol\":1101:1114  return _owner */\n      swap1\n      pop\n        /* \"https://github.com/OpenZeppelin/openzeppelin-contracts/blob/master/contracts/access/Ownable.sol\":1036:1121  function owner() public view virtual returns (address) {... */\n      swap1\n      jump\t// out\n        /* \"WallT1.0/WallT_Main.sol\":534:891  function withdrawFunds(address payable _to, uint _amount) public ownerOrAllowed(_amount){... */\n    tag_42:\n        /* \"WallT1.0/WallT_Main.sol\":614:621  _amount */\n      dup1\n        /* \"WallT1.0/Allowance.sol\":661:668  owner() */\n      tag_68\n        /* \"WallT1.0/Allowance.sol\":661:666  owner */\n      tag_35\n        /* \"WallT1.0/Allowance.sol\":661:668  owner() */\n      jump\t// in\n    tag_68:\n        /* \"WallT1.0/Allowance.sol\":647:668  msg.sender == owner() */\n      0xffffffffffffffffffffffffffffffffffffffff\n      and\n        /* \"WallT1.0/Allowance.sol\":647:657  msg.sender */\n      caller\n        /* \"WallT1.0/Allowance.sol\":647:668  msg.sender == owner() */\n      0xffffffffffffffffffffffffffffffffffffffff\n      and\n      eq\n        /* \"WallT1.0/Allowance.sol\":647:704  msg.sender == owner() || allowance[msg.sender] >= _amount */\n      dup1\n      tag_69\n      jumpi\n      pop\n        /* \"WallT1.0/Allowance.sol\":697:704  _amount */\n      dup1\n        /* \"WallT1.0/Allowance.sol\":672:681  allowance */\n      0x01\n        /* \"WallT1.0/Allowance.sol\":672:693  allowance[msg.sender] */\n      0x00\n        /* \"WallT1.0/Allowance.sol\":682:692  msg.sender */\n      caller\n        /* \"WallT1.0/Allowance.sol\":672:693  allowance[msg.sender] */\n      0xffffffffffffffffffffffffffffffffffffffff\n      and\n      0xffffffffffffffffffffffffffffffffffffffff\n      and\n      dup2\n      mstore\n      0x20\n      add\n      swap1\n      dup2\n      mstore\n      0x20\n      add\n      0x00\n      keccak256\n      sload\n        /* \"WallT1.0/Allowance.sol\":672:704  allowance[msg.sender] >= _amount */\n      lt\n      iszero\n        /* \"WallT1.0/Allowance.sol\":647:704  msg.sender == owner() || allowance[msg.sender] >= _amount */\n    tag_69:\n        /* \"WallT1.0/Allowance.sol\":639:730  require(msg.sender == owner() || allowance[msg.sender] >= _amount, \"You are not allowed!!\") */\n      tag_70\n      jumpi\n      mload(0x40)\n      0x08c379a000000000000000000000000000000000000000000000000000000000\n      dup2\n      mstore\n      0x04\n      add\n      tag_71\n      swap1\n      tag_72\n      jump\t// in\n    tag_71:\n      mload(0x40)\n      dup1\n      swap2\n      sub\n      swap1\n      revert\n    tag_70:\n        /* \"WallT1.0/WallT_Main.sol\":653:674  address(this).balance */\n      selfbalance\n        /* \"WallT1.0/WallT_Main.sol\":642:649  _amount */\n      dup3\n        /* \"WallT1.0/WallT_Main.sol\":642:674  _amount <= address(this).balance */\n      gt\n      iszero\n        /* \"WallT1.0/WallT_Main.sol\":633:706  require (_amount <= address(this).balance, \"Insufficient WallT balance.\") */\n      tag_74\n      jumpi\n      mload(0x40)\n      0x08c379a000000000000000000000000000000000000000000000000000000000\n      dup2\n      mstore\n      0x04\n      add\n      tag_75\n      swap1\n      tag_76\n      jump\t// in\n    tag_75:\n      mload(0x40)\n      dup1\n      swap2\n      sub\n      swap1\n      revert\n    tag_74:\n        /* \"WallT1.0/WallT_Main.sol\":735:742  owner() */\n      tag_77\n        /* \"WallT1.0/WallT_Main.sol\":735:740  owner */\n      tag_35\n        /* \"WallT1.0/WallT_Main.sol\":735:742  owner() */\n      jump\t// in\n    tag_77:\n        /* \"WallT1.0/WallT_Main.sol\":721:742  msg.sender != owner() */\n      0xffffffffffffffffffffffffffffffffffffffff\n      and\n        /* \"WallT1.0/WallT_Main.sol\":721:731  msg.sender */\n      caller\n        /* \"WallT1.0/WallT_Main.sol\":721:742  msg.sender != owner() */\n      0xffffffffffffffffffffffffffffffffffffffff\n      and\n      eq\n        /* \"WallT1.0/WallT_Main.sol\":717:806  if (msg.sender != owner()){... */\n      tag_78\n      jumpi\n        /* \"WallT1.0/WallT_Main.sol\":758:794  reduceAllowance(msg.sender, _amount) */\n      tag_79\n        /* \"WallT1.0/WallT_Main.sol\":774:784  msg.sender */\n      caller\n        /* \"WallT1.0/WallT_Main.sol\":786:793  _amount */\n      dup4\n        /* \"WallT1.0/WallT_Main.sol\":758:773  reduceAllowance */\n      tag_80\n        /* \"WallT1.0/WallT_Main.sol\":758:794  reduceAllowance(msg.sender, _amount) */\n      jump\t// in\n    tag_79:\n        /* \"WallT1.0/WallT_Main.sol\":717:806  if (msg.sender != owner()){... */\n    tag_78:\n        /* \"WallT1.0/WallT_Main.sol\":836:839  _to */\n      dup3\n        /* \"WallT1.0/WallT_Main.sol\":821:849  fundsWithdrawn(_to, _amount) */\n      0xffffffffffffffffffffffffffffffffffffffff\n      and\n      0x8a43c200a722669df503c8997c4ae4af96d8849cba45c39bccf948d45223e770\n        /* \"WallT1.0/WallT_Main.sol\":841:848  _amount */\n      dup4\n        /* \"WallT1.0/WallT_Main.sol\":821:849  fundsWithdrawn(_to, _amount) */\n      mload(0x40)\n      tag_81\n      swap2\n      swap1\n      tag_14\n      jump\t// in\n    tag_81:\n      mload(0x40)\n      dup1\n      swap2\n      sub\n      swap1\n      log2\n        /* \"WallT1.0/WallT_Main.sol\":860:863  _to */\n      dup3\n        /* \"WallT1.0/WallT_Main.sol\":860:872  _to.transfer */\n      0xffffffffffffffffffffffffffffffffffffffff\n      and\n        /* \"WallT1.0/WallT_Main.sol\":860:881  _to.transfer(_amount) */\n      0x08fc\n        /* \"WallT1.0/WallT_Main.sol\":873:880  _amount */\n      dup4\n        /* \"WallT1.0/WallT_Main.sol\":860:881  _to.transfer(_amount) */\n      swap1\n      dup2\n      iszero\n      mul\n      swap1\n      mload(0x40)\n      0x00\n      mload(0x40)\n      dup1\n      dup4\n      sub\n      dup2\n      dup6\n      dup9\n      dup9\n      call\n      swap4\n      pop\n      pop\n      pop\n      pop\n      iszero\n      dup1\n      iszero\n      tag_83\n      jumpi\n      returndatasize\n      0x00\n      dup1\n      returndatacopy\n      revert(0x00, returndatasize)\n    tag_83:\n      pop\n        /* \"WallT1.0/WallT_Main.sol\":534:891  function withdrawFunds(address payable _to, uint _amount) public ownerOrAllowed(_amount){... */\n      pop\n      pop\n      pop\n      jump\t// out\n        /* \"https://github.com/OpenZeppelin/openzeppelin-contracts/blob/master/contracts/access/Ownable.sol\":1918:2116  function transferOwnership(address newOwner) public virtual onlyOwner {... */\n    tag_46:\n        /* \"https://github.com/OpenZeppelin/openzeppelin-contracts/blob/master/contracts/access/Ownable.sol\":1259:1271  _msgSender() */\n      tag_85\n        /* \"https://github.com/OpenZeppelin/openzeppelin-contracts/blob/master/contracts/access/Ownable.sol\":1259:1269  _msgSender */\n      tag_49\n        /* \"https://github.com/OpenZeppelin/openzeppelin-contracts/blob/master/contracts/access/Ownable.sol\":1259:1271  _msgSender() */\n      jump\t// in\n    tag_85:\n        /* \"https://github.com/OpenZeppelin/openzeppelin-contracts/blob/master/contracts/access/Ownable.sol\":1248:1271  owner() == _msgSender() */\n      0xffffffffffffffffffffffffffffffffffffffff\n      and\n        /* \"https://github.com/OpenZeppelin/openzeppelin-contracts/blob/master/contracts/access/Ownable.sol\":1248:1255  owner() */\n      tag_86\n        /* \"https://github.com/OpenZeppelin/openzeppelin-contracts/blob/master/contracts/access/Ownable.sol\":1248:1253  owner */\n      tag_35\n        /* \"https://github.com/OpenZeppelin/openzeppelin-contracts/blob/master/contracts/access/Ownable.sol\":1248:1255  owner() */\n      jump\t// in\n    tag_86:\n        /* \"https://github.com/OpenZeppelin/openzeppelin-contracts/blob/master/contracts/access/Ownable.sol\":1248:1271  owner() == _msgSender() */\n      0xffffffffffffffffffffffffffffffffffffffff\n      and\n      eq\n        /* \"https://github.com/OpenZeppelin/openzeppelin-contracts/blob/master/contracts/access/Ownable.sol\":1240:1308  require(owner() == _msgSender(), \"Ownable: caller is not the owner\") */\n      tag_87\n      jumpi\n      mload(0x40)\n      0x08c379a000000000000000000000000000000000000000000000000000000000\n      dup2\n      mstore\n      0x04\n      add\n      tag_88\n      swap1\n      tag_53\n      jump\t// in\n    tag_88:\n      mload(0x40)\n      dup1\n      swap2\n      sub\n      swap1\n      revert\n    tag_87:\n        /* \"https://github.com/OpenZeppelin/openzeppelin-contracts/blob/master/contracts/access/Ownable.sol\":2026:2027  0 */\n      0x00\n        /* \"https://github.com/OpenZeppelin/openzeppelin-contracts/blob/master/contracts/access/Ownable.sol\":2006:2028  newOwner != address(0) */\n      0xffffffffffffffffffffffffffffffffffffffff\n      and\n        /* \"https://github.com/OpenZeppelin/openzeppelin-contracts/blob/master/contracts/access/Ownable.sol\":2006:2014  newOwner */\n      dup2\n        /* \"https://github.com/OpenZeppelin/openzeppelin-contracts/blob/master/contracts/access/Ownable.sol\":2006:2028  newOwner != address(0) */\n      0xffffffffffffffffffffffffffffffffffffffff\n      and\n      sub\n        /* \"https://github.com/OpenZeppelin/openzeppelin-contracts/blob/master/contracts/access/Ownable.sol\":1998:2071  require(newOwner != address(0), \"Ownable: new owner is the zero address\") */\n      tag_90\n      jumpi\n      mload(0x40)\n      0x08c379a000000000000000000000000000000000000000000000000000000000\n      dup2\n      mstore\n      0x04\n      add\n      tag_91\n      swap1\n      tag_92\n      jump\t// in\n    tag_91:\n      mload(0x40)\n      dup1\n      swap2\n      sub\n      swap1\n      revert\n    tag_90:\n        /* \"https://github.com/OpenZeppelin/openzeppelin-contracts/blob/master/contracts/access/Ownable.sol\":2081:2109  _transferOwnership(newOwner) */\n      tag_93\n        /* \"https://github.com/OpenZeppelin/openzeppelin-contracts/blob/master/contracts/access/Ownable.sol\":2100:2108  newOwner */\n      dup2\n        /* \"https://github.com/OpenZeppelin/openzeppelin-contracts/blob/master/contracts/access/Ownable.sol\":2081:2099  _transferOwnership */\n      tag_65\n        /* \"https://github.com/OpenZeppelin/openzeppelin-contracts/blob/master/contracts/access/Ownable.sol\":2081:2109  _transferOwnership(newOwner) */\n      jump\t// in\n    tag_93:\n        /* \"https://github.com/OpenZeppelin/openzeppelin-contracts/blob/master/contracts/access/Ownable.sol\":1918:2116  function transferOwnership(address newOwner) public virtual onlyOwner {... */\n      pop\n      jump\t// out\n        /* \"https://github.com/OpenZeppelin/openzeppelin-contracts/blob/master/contracts/utils/Context.sol\":640:736  function _msgSender() internal view virtual returns (address) {... */\n    tag_49:\n        /* \"https://github.com/OpenZeppelin/openzeppelin-contracts/blob/master/contracts/utils/Context.sol\":693:700  address */\n      0x00\n        /* \"https://github.com/OpenZeppelin/openzeppelin-contracts/blob/master/contracts/utils/Context.sol\":719:729  msg.sender */\n      caller\n        /* \"https://github.com/OpenZeppelin/openzeppelin-contracts/blob/master/contracts/utils/Context.sol\":712:729  return msg.sender */\n      swap1\n      pop\n        /* \"https://github.com/OpenZeppelin/openzeppelin-contracts/blob/master/contracts/utils/Context.sol\":640:736  function _msgSender() internal view virtual returns (address) {... */\n      swap1\n      jump\t// out\n        /* \"https://github.com/OpenZeppelin/openzeppelin-contracts/blob/master/contracts/access/Ownable.sol\":2270:2457  function _transferOwnership(address newOwner) internal virtual {... */\n    tag_65:\n        /* \"https://github.com/OpenZeppelin/openzeppelin-contracts/blob/master/contracts/access/Ownable.sol\":2343:2359  address oldOwner */\n      0x00\n        /* \"https://github.com/OpenZeppelin/openzeppelin-contracts/blob/master/contracts/access/Ownable.sol\":2362:2368  _owner */\n      dup1\n      0x00\n      swap1\n      sload\n      swap1\n      0x0100\n      exp\n      swap1\n      div\n      0xffffffffffffffffffffffffffffffffffffffff\n      and\n        /* \"https://github.com/OpenZeppelin/openzeppelin-contracts/blob/master/contracts/access/Ownable.sol\":2343:2368  address oldOwner = _owner */\n      swap1\n      pop\n        /* \"https://github.com/OpenZeppelin/openzeppelin-contracts/blob/master/contracts/access/Ownable.sol\":2387:2395  newOwner */\n      dup2\n        /* \"https://github.com/OpenZeppelin/openzeppelin-contracts/blob/master/contracts/access/Ownable.sol\":2378:2384  _owner */\n      0x00\n      dup1\n        /* \"https://github.com/OpenZeppelin/openzeppelin-contracts/blob/master/contracts/access/Ownable.sol\":2378:2395  _owner = newOwner */\n      0x0100\n      exp\n      dup2\n      sload\n      dup2\n      0xffffffffffffffffffffffffffffffffffffffff\n      mul\n      not\n      and\n      swap1\n      dup4\n      0xffffffffffffffffffffffffffffffffffffffff\n      and\n      mul\n      or\n      swap1\n      sstore\n      pop\n        /* \"https://github.com/OpenZeppelin/openzeppelin-contracts/blob/master/contracts/access/Ownable.sol\":2441:2449  newOwner */\n      dup2\n        /* \"https://github.com/OpenZeppelin/openzeppelin-contracts/blob/master/contracts/access/Ownable.sol\":2410:2450  OwnershipTransferred(oldOwner, newOwner) */\n      0xffffffffffffffffffffffffffffffffffffffff\n      and\n        /* \"https://github.com/OpenZeppelin/openzeppelin-contracts/blob/master/contracts/access/Ownable.sol\":2431:2439  oldOwner */\n      dup2\n        /* \"https://github.com/OpenZeppelin/openzeppelin-contracts/blob/master/contracts/access/Ownable.sol\":2410:2450  OwnershipTransferred(oldOwner, newOwner) */\n      0xffffffffffffffffffffffffffffffffffffffff\n      and\n      0x8be0079c531659141344cd1fd0a4f28419497f9722a3daafe3b4186f6b6457e0\n      mload(0x40)\n      mload(0x40)\n      dup1\n      swap2\n      sub\n      swap1\n      log3\n        /* \"https://github.com/OpenZeppelin/openzeppelin-contracts/blob/master/contracts/access/Ownable.sol\":2333:2457  {... */\n      pop\n        /* \"https://github.com/OpenZeppelin/openzeppelin-contracts/blob/master/contracts/access/Ownable.sol\":2270:2457  function _transferOwnership(address newOwner) internal virtual {... */\n      pop\n      jump\t// out\n        /* \"WallT1.0/Allowance.sol\":758:973  function reduceAllowance (address _member, uint _amount) internal {... */\n    tag_80:\n        /* \"WallT1.0/Allowance.sol\":866:876  msg.sender */\n      caller\n        /* \"WallT1.0/Allowance.sol\":840:925  allowanceChanged(_member, msg.sender, allowance[_member], allowance[_member]-_amount) */\n      0xffffffffffffffffffffffffffffffffffffffff\n      and\n        /* \"WallT1.0/Allowance.sol\":857:864  _member */\n      dup3\n        /* \"WallT1.0/Allowance.sol\":840:925  allowanceChanged(_member, msg.sender, allowance[_member], allowance[_member]-_amount) */\n      0xffffffffffffffffffffffffffffffffffffffff\n      and\n      0x96798bba4b94a2230e56e98161b1b80164fe3e9c5a30176e53c96c2e2347fda8\n        /* \"WallT1.0/Allowance.sol\":878:887  allowance */\n      0x01\n        /* \"WallT1.0/Allowance.sol\":878:896  allowance[_member] */\n      0x00\n        /* \"WallT1.0/Allowance.sol\":888:895  _member */\n      dup7\n        /* \"WallT1.0/Allowance.sol\":878:896  allowance[_member] */\n      0xffffffffffffffffffffffffffffffffffffffff\n      and\n      0xffffffffffffffffffffffffffffffffffffffff\n      and\n      dup2\n      mstore\n      0x20\n      add\n      swap1\n      dup2\n      mstore\n      0x20\n      add\n      0x00\n      keccak256\n      sload\n        /* \"WallT1.0/Allowance.sol\":917:924  _amount */\n      dup5\n        /* \"WallT1.0/Allowance.sol\":898:907  allowance */\n      0x01\n        /* \"WallT1.0/Allowance.sol\":898:916  allowance[_member] */\n      0x00\n        /* \"WallT1.0/Allowance.sol\":908:915  _member */\n      dup9\n        /* \"WallT1.0/Allowance.sol\":898:916  allowance[_member] */\n      0xffffffffffffffffffffffffffffffffffffffff\n      and\n      0xffffffffffffffffffffffffffffffffffffffff\n      and\n      dup2\n      mstore\n      0x20\n      add\n      swap1\n      dup2\n      mstore\n      0x20\n      add\n      0x00\n      keccak256\n      sload\n        /* \"WallT1.0/Allowance.sol\":898:924  allowance[_member]-_amount */\n      tag_97\n      swap2\n      swap1\n      tag_98\n      jump\t// in\n    tag_97:\n        /* \"WallT1.0/Allowance.sol\":840:925  allowanceChanged(_member, msg.sender, allowance[_member], allowance[_member]-_amount) */\n      mload(0x40)\n      tag_99\n      swap3\n      swap2\n      swap1\n      tag_56\n      jump\t// in\n    tag_99:\n      mload(0x40)\n      dup1\n      swap2\n      sub\n      swap1\n      log3\n        /* \"WallT1.0/Allowance.sol\":958:965  _amount */\n      dup1\n        /* \"WallT1.0/Allowance.sol\":936:945  allowance */\n      0x01\n        /* \"WallT1.0/Allowance.sol\":936:954  allowance[_member] */\n      0x00\n        /* \"WallT1.0/Allowance.sol\":946:953  _member */\n      dup5\n        /* \"WallT1.0/Allowance.sol\":936:954  allowance[_member] */\n      0xffffffffffffffffffffffffffffffffffffffff\n      and\n      0xffffffffffffffffffffffffffffffffffffffff\n      and\n      dup2\n      mstore\n      0x20\n      add\n      swap1\n      dup2\n      mstore\n      0x20\n      add\n      0x00\n      keccak256\n      0x00\n        /* \"WallT1.0/Allowance.sol\":936:965  allowance[_member] -= _amount */\n      dup3\n      dup3\n      sload\n      tag_100\n      swap2\n      swap1\n      tag_98\n      jump\t// in\n    tag_100:\n      swap3\n      pop\n      pop\n      dup2\n      swap1\n      sstore\n      pop\n        /* \"WallT1.0/Allowance.sol\":758:973  function reduceAllowance (address _member, uint _amount) internal {... */\n      pop\n      pop\n      jump\t// out\n        /* \"#utility.yul\":7:84   */\n    tag_101:\n        /* \"#utility.yul\":44:51   */\n      0x00\n        /* \"#utility.yul\":73:78   */\n      dup2\n        /* \"#utility.yul\":62:78   */\n      swap1\n      pop\n        /* \"#utility.yul\":7:84   */\n      swap2\n      swap1\n      pop\n      jump\t// out\n        /* \"#utility.yul\":90:208   */\n    tag_102:\n        /* \"#utility.yul\":177:201   */\n      tag_129\n        /* \"#utility.yul\":195:200   */\n      dup2\n        /* \"#utility.yul\":177:201   */\n      tag_101\n      jump\t// in\n    tag_129:\n        /* \"#utility.yul\":172:175   */\n      dup3\n        /* \"#utility.yul\":165:202   */\n      mstore\n        /* \"#utility.yul\":90:208   */\n      pop\n      pop\n      jump\t// out\n        /* \"#utility.yul\":214:436   */\n    tag_14:\n        /* \"#utility.yul\":307:311   */\n      0x00\n        /* \"#utility.yul\":345:347   */\n      0x20\n        /* \"#utility.yul\":334:343   */\n      dup3\n        /* \"#utility.yul\":330:348   */\n      add\n        /* \"#utility.yul\":322:348   */\n      swap1\n      pop\n        /* \"#utility.yul\":358:429   */\n      tag_131\n        /* \"#utility.yul\":426:427   */\n      0x00\n        /* \"#utility.yul\":415:424   */\n      dup4\n        /* \"#utility.yul\":411:428   */\n      add\n        /* \"#utility.yul\":402:408   */\n      dup5\n        /* \"#utility.yul\":358:429   */\n      tag_102\n      jump\t// in\n    tag_131:\n        /* \"#utility.yul\":214:436   */\n      swap3\n      swap2\n      pop\n      pop\n      jump\t// out\n        /* \"#utility.yul\":523:640   */\n    tag_104:\n        /* \"#utility.yul\":632:633   */\n      0x00\n        /* \"#utility.yul\":629:630   */\n      dup1\n        /* \"#utility.yul\":622:634   */\n      revert\n        /* \"#utility.yul\":769:895   */\n    tag_106:\n        /* \"#utility.yul\":806:813   */\n      0x00\n        /* \"#utility.yul\":846:888   */\n      0xffffffffffffffffffffffffffffffffffffffff\n        /* \"#utility.yul\":839:844   */\n      dup3\n        /* \"#utility.yul\":835:889   */\n      and\n        /* \"#utility.yul\":824:889   */\n      swap1\n      pop\n        /* \"#utility.yul\":769:895   */\n      swap2\n      swap1\n      pop\n      jump\t// out\n        /* \"#utility.yul\":901:997   */\n    tag_107:\n        /* \"#utility.yul\":938:945   */\n      0x00\n        /* \"#utility.yul\":967:991   */\n      tag_137\n        /* \"#utility.yul\":985:990   */\n      dup3\n        /* \"#utility.yul\":967:991   */\n      tag_106\n      jump\t// in\n    tag_137:\n        /* \"#utility.yul\":956:991   */\n      swap1\n      pop\n        /* \"#utility.yul\":901:997   */\n      swap2\n      swap1\n      pop\n      jump\t// out\n        /* \"#utility.yul\":1003:1125   */\n    tag_108:\n        /* \"#utility.yul\":1076:1100   */\n      tag_139\n        /* \"#utility.yul\":1094:1099   */\n      dup2\n        /* \"#utility.yul\":1076:1100   */\n      tag_107\n      jump\t// in\n    tag_139:\n        /* \"#utility.yul\":1069:1074   */\n      dup2\n        /* \"#utility.yul\":1066:1101   */\n      eq\n        /* \"#utility.yul\":1056:1119   */\n      tag_140\n      jumpi\n        /* \"#utility.yul\":1115:1116   */\n      0x00\n        /* \"#utility.yul\":1112:1113   */\n      dup1\n        /* \"#utility.yul\":1105:1117   */\n      revert\n        /* \"#utility.yul\":1056:1119   */\n    tag_140:\n        /* \"#utility.yul\":1003:1125   */\n      pop\n      jump\t// out\n        /* \"#utility.yul\":1131:1270   */\n    tag_109:\n        /* \"#utility.yul\":1177:1182   */\n      0x00\n        /* \"#utility.yul\":1215:1221   */\n      dup2\n        /* \"#utility.yul\":1202:1222   */\n      calldataload\n        /* \"#utility.yul\":1193:1222   */\n      swap1\n      pop\n        /* \"#utility.yul\":1231:1264   */\n      tag_142\n        /* \"#utility.yul\":1258:1263   */\n      dup2\n        /* \"#utility.yul\":1231:1264   */\n      tag_108\n      jump\t// in\n    tag_142:\n        /* \"#utility.yul\":1131:1270   */\n      swap3\n      swap2\n      pop\n      pop\n      jump\t// out\n        /* \"#utility.yul\":1276:1398   */\n    tag_110:\n        /* \"#utility.yul\":1349:1373   */\n      tag_144\n        /* \"#utility.yul\":1367:1372   */\n      dup2\n        /* \"#utility.yul\":1349:1373   */\n      tag_101\n      jump\t// in\n    tag_144:\n        /* \"#utility.yul\":1342:1347   */\n      dup2\n        /* \"#utility.yul\":1339:1374   */\n      eq\n        /* \"#utility.yul\":1329:1392   */\n      tag_145\n      jumpi\n        /* \"#utility.yul\":1388:1389   */\n      0x00\n        /* \"#utility.yul\":1385:1386   */\n      dup1\n        /* \"#utility.yul\":1378:1390   */\n      revert\n        /* \"#utility.yul\":1329:1392   */\n    tag_145:\n        /* \"#utility.yul\":1276:1398   */\n      pop\n      jump\t// out\n        /* \"#utility.yul\":1404:1543   */\n    tag_111:\n        /* \"#utility.yul\":1450:1455   */\n      0x00\n        /* \"#utility.yul\":1488:1494   */\n      dup2\n        /* \"#utility.yul\":1475:1495   */\n      calldataload\n        /* \"#utility.yul\":1466:1495   */\n      swap1\n      pop\n        /* \"#utility.yul\":1504:1537   */\n      tag_147\n        /* \"#utility.yul\":1531:1536   */\n      dup2\n        /* \"#utility.yul\":1504:1537   */\n      tag_110\n      jump\t// in\n    tag_147:\n        /* \"#utility.yul\":1404:1543   */\n      swap3\n      swap2\n      pop\n      pop\n      jump\t// out\n        /* \"#utility.yul\":1549:2023   */\n    tag_18:\n        /* \"#utility.yul\":1617:1623   */\n      0x00\n        /* \"#utility.yul\":1625:1631   */\n      dup1\n        /* \"#utility.yul\":1674:1676   */\n      0x40\n        /* \"#utility.yul\":1662:1671   */\n      dup4\n        /* \"#utility.yul\":1653:1660   */\n      dup6\n        /* \"#utility.yul\":1649:1672   */\n      sub\n        /* \"#utility.yul\":1645:1677   */\n      slt\n        /* \"#utility.yul\":1642:1761   */\n      iszero\n      tag_149\n      jumpi\n        /* \"#utility.yul\":1680:1759   */\n      tag_150\n      tag_104\n      jump\t// in\n    tag_150:\n        /* \"#utility.yul\":1642:1761   */\n    tag_149:\n        /* \"#utility.yul\":1800:1801   */\n      0x00\n        /* \"#utility.yul\":1825:1878   */\n      tag_151\n        /* \"#utility.yul\":1870:1877   */\n      dup6\n        /* \"#utility.yul\":1861:1867   */\n      dup3\n        /* \"#utility.yul\":1850:1859   */\n      dup7\n        /* \"#utility.yul\":1846:1868   */\n      add\n        /* \"#utility.yul\":1825:1878   */\n      tag_109\n      jump\t// in\n    tag_151:\n        /* \"#utility.yul\":1815:1878   */\n      swap3\n      pop\n        /* \"#utility.yul\":1771:1888   */\n      pop\n        /* \"#utility.yul\":1927:1929   */\n      0x20\n        /* \"#utility.yul\":1953:2006   */\n      tag_152\n        /* \"#utility.yul\":1998:2005   */\n      dup6\n        /* \"#utility.yul\":1989:1995   */\n      dup3\n        /* \"#utility.yul\":1978:1987   */\n      dup7\n        /* \"#utility.yul\":1974:1996   */\n      add\n        /* \"#utility.yul\":1953:2006   */\n      tag_111\n      jump\t// in\n    tag_152:\n        /* \"#utility.yul\":1943:2006   */\n      swap2\n      pop\n        /* \"#utility.yul\":1898:2016   */\n      pop\n        /* \"#utility.yul\":1549:2023   */\n      swap3\n      pop\n      swap3\n      swap1\n      pop\n      jump\t// out\n        /* \"#utility.yul\":2029:2358   */\n    tag_27:\n        /* \"#utility.yul\":2088:2094   */\n      0x00\n        /* \"#utility.yul\":2137:2139   */\n      0x20\n        /* \"#utility.yul\":2125:2134   */\n      dup3\n        /* \"#utility.yul\":2116:2123   */\n      dup5\n        /* \"#utility.yul\":2112:2135   */\n      sub\n        /* \"#utility.yul\":2108:2140   */\n      slt\n        /* \"#utility.yul\":2105:2224   */\n      iszero\n      tag_154\n      jumpi\n        /* \"#utility.yul\":2143:2222   */\n      tag_155\n      tag_104\n      jump\t// in\n    tag_155:\n        /* \"#utility.yul\":2105:2224   */\n    tag_154:\n        /* \"#utility.yul\":2263:2264   */\n      0x00\n        /* \"#utility.yul\":2288:2341   */\n      tag_156\n        /* \"#utility.yul\":2333:2340   */\n      dup5\n        /* \"#utility.yul\":2324:2330   */\n      dup3\n        /* \"#utility.yul\":2313:2322   */\n      dup6\n        /* \"#utility.yul\":2309:2331   */\n      add\n        /* \"#utility.yul\":2288:2341   */\n      tag_109\n      jump\t// in\n    tag_156:\n        /* \"#utility.yul\":2278:2341   */\n      swap2\n      pop\n        /* \"#utility.yul\":2234:2351   */\n      pop\n        /* \"#utility.yul\":2029:2358   */\n      swap3\n      swap2\n      pop\n      pop\n      jump\t// out\n        /* \"#utility.yul\":2364:2482   */\n    tag_112:\n        /* \"#utility.yul\":2451:2475   */\n      tag_158\n        /* \"#utility.yul\":2469:2474   */\n      dup2\n        /* \"#utility.yul\":2451:2475   */\n      tag_107\n      jump\t// in\n    tag_158:\n        /* \"#utility.yul\":2446:2449   */\n      dup3\n        /* \"#utility.yul\":2439:2476   */\n      mstore\n        /* \"#utility.yul\":2364:2482   */\n      pop\n      pop\n      jump\t// out\n        /* \"#utility.yul\":2488:2710   */\n    tag_37:\n        /* \"#utility.yul\":2581:2585   */\n      0x00\n        /* \"#utility.yul\":2619:2621   */\n      0x20\n        /* \"#utility.yul\":2608:2617   */\n      dup3\n        /* \"#utility.yul\":2604:2622   */\n      add\n        /* \"#utility.yul\":2596:2622   */\n      swap1\n      pop\n        /* \"#utility.yul\":2632:2703   */\n      tag_160\n        /* \"#utility.yul\":2700:2701   */\n      0x00\n        /* \"#utility.yul\":2689:2698   */\n      dup4\n        /* \"#utility.yul\":2685:2702   */\n      add\n        /* \"#utility.yul\":2676:2682   */\n      dup5\n        /* \"#utility.yul\":2632:2703   */\n      tag_112\n      jump\t// in\n    tag_160:\n        /* \"#utility.yul\":2488:2710   */\n      swap3\n      swap2\n      pop\n      pop\n      jump\t// out\n        /* \"#utility.yul\":2716:2820   */\n    tag_113:\n        /* \"#utility.yul\":2761:2768   */\n      0x00\n        /* \"#utility.yul\":2790:2814   */\n      tag_162\n        /* \"#utility.yul\":2808:2813   */\n      dup3\n        /* \"#utility.yul\":2790:2814   */\n      tag_106\n      jump\t// in\n    tag_162:\n        /* \"#utility.yul\":2779:2814   */\n      swap1\n      pop\n        /* \"#utility.yul\":2716:2820   */\n      swap2\n      swap1\n      pop\n      jump\t// out\n        /* \"#utility.yul\":2826:2964   */\n    tag_114:\n        /* \"#utility.yul\":2907:2939   */\n      tag_164\n        /* \"#utility.yul\":2933:2938   */\n      dup2\n        /* \"#utility.yul\":2907:2939   */\n      tag_113\n      jump\t// in\n    tag_164:\n        /* \"#utility.yul\":2900:2905   */\n      dup2\n        /* \"#utility.yul\":2897:2940   */\n      eq\n        /* \"#utility.yul\":2887:2958   */\n      tag_165\n      jumpi\n        /* \"#utility.yul\":2954:2955   */\n      0x00\n        /* \"#utility.yul\":2951:2952   */\n      dup1\n        /* \"#utility.yul\":2944:2956   */\n      revert\n        /* \"#utility.yul\":2887:2958   */\n    tag_165:\n        /* \"#utility.yul\":2826:2964   */\n      pop\n      jump\t// out\n        /* \"#utility.yul\":2970:3125   */\n    tag_115:\n        /* \"#utility.yul\":3024:3029   */\n      0x00\n        /* \"#utility.yul\":3062:3068   */\n      dup2\n        /* \"#utility.yul\":3049:3069   */\n      calldataload\n        /* \"#utility.yul\":3040:3069   */\n      swap1\n      pop\n        /* \"#utility.yul\":3078:3119   */\n      tag_167\n        /* \"#utility.yul\":3113:3118   */\n      dup2\n        /* \"#utility.yul\":3078:3119   */\n      tag_114\n      jump\t// in\n    tag_167:\n        /* \"#utility.yul\":2970:3125   */\n      swap3\n      swap2\n      pop\n      pop\n      jump\t// out\n        /* \"#utility.yul\":3131:3621   */\n    tag_41:\n        /* \"#utility.yul\":3207:3213   */\n      0x00\n        /* \"#utility.yul\":3215:3221   */\n      dup1\n        /* \"#utility.yul\":3264:3266   */\n      0x40\n        /* \"#utility.yul\":3252:3261   */\n      dup4\n        /* \"#utility.yul\":3243:3250   */\n      dup6\n        /* \"#utility.yul\":3239:3262   */\n      sub\n        /* \"#utility.yul\":3235:3267   */\n      slt\n        /* \"#utility.yul\":3232:3351   */\n      iszero\n      tag_169\n      jumpi\n        /* \"#utility.yul\":3270:3349   */\n      tag_170\n      tag_104\n      jump\t// in\n    tag_170:\n        /* \"#utility.yul\":3232:3351   */\n    tag_169:\n        /* \"#utility.yul\":3390:3391   */\n      0x00\n        /* \"#utility.yul\":3415:3476   */\n      tag_171\n        /* \"#utility.yul\":3468:3475   */\n      dup6\n        /* \"#utility.yul\":3459:3465   */\n      dup3\n        /* \"#utility.yul\":3448:3457   */\n      dup7\n        /* \"#utility.yul\":3444:3466   */\n      add\n        /* \"#utility.yul\":3415:3476   */\n      tag_115\n      jump\t// in\n    tag_171:\n        /* \"#utility.yul\":3405:3476   */\n      swap3\n      pop\n        /* \"#utility.yul\":3361:3486   */\n      pop\n        /* \"#utility.yul\":3525:3527   */\n      0x20\n        /* \"#utility.yul\":3551:3604   */\n      tag_172\n        /* \"#utility.yul\":3596:3603   */\n      dup6\n        /* \"#utility.yul\":3587:3593   */\n      dup3\n        /* \"#utility.yul\":3576:3585   */\n      dup7\n        /* \"#utility.yul\":3572:3594   */\n      add\n        /* \"#utility.yul\":3551:3604   */\n      tag_111\n      jump\t// in\n    tag_172:\n        /* \"#utility.yul\":3541:3604   */\n      swap2\n      pop\n        /* \"#utility.yul\":3496:3614   */\n      pop\n        /* \"#utility.yul\":3131:3621   */\n      swap3\n      pop\n      swap3\n      swap1\n      pop\n      jump\t// out\n        /* \"#utility.yul\":3627:3796   */\n    tag_116:\n        /* \"#utility.yul\":3711:3722   */\n      0x00\n        /* \"#utility.yul\":3745:3751   */\n      dup3\n        /* \"#utility.yul\":3740:3743   */\n      dup3\n        /* \"#utility.yul\":3733:3752   */\n      mstore\n        /* \"#utility.yul\":3785:3789   */\n      0x20\n        /* \"#utility.yul\":3780:3783   */\n      dup3\n        /* \"#utility.yul\":3776:3790   */\n      add\n        /* \"#utility.yul\":3761:3790   */\n      swap1\n      pop\n        /* \"#utility.yul\":3627:3796   */\n      swap3\n      swap2\n      pop\n      pop\n      jump\t// out\n        /* \"#utility.yul\":3802:3984   */\n    tag_117:\n        /* \"#utility.yul\":3942:3976   */\n      0x4f776e61626c653a2063616c6c6572206973206e6f7420746865206f776e6572\n        /* \"#utility.yul\":3938:3939   */\n      0x00\n        /* \"#utility.yul\":3930:3936   */\n      dup3\n        /* \"#utility.yul\":3926:3940   */\n      add\n        /* \"#utility.yul\":3919:3977   */\n      mstore\n        /* \"#utility.yul\":3802:3984   */\n      pop\n      jump\t// out\n        /* \"#utility.yul\":3990:4356   */\n    tag_118:\n        /* \"#utility.yul\":4132:4135   */\n      0x00\n        /* \"#utility.yul\":4153:4220   */\n      tag_176\n        /* \"#utility.yul\":4217:4219   */\n      0x20\n        /* \"#utility.yul\":4212:4215   */\n      dup4\n        /* \"#utility.yul\":4153:4220   */\n      tag_116\n      jump\t// in\n    tag_176:\n        /* \"#utility.yul\":4146:4220   */\n      swap2\n      pop\n        /* \"#utility.yul\":4229:4322   */\n      tag_177\n        /* \"#utility.yul\":4318:4321   */\n      dup3\n        /* \"#utility.yul\":4229:4322   */\n      tag_117\n      jump\t// in\n    tag_177:\n        /* \"#utility.yul\":4347:4349   */\n      0x20\n        /* \"#utility.yul\":4342:4345   */\n      dup3\n        /* \"#utility.yul\":4338:4350   */\n      add\n        /* \"#utility.yul\":4331:4350   */\n      swap1\n      pop\n        /* \"#utility.yul\":3990:4356   */\n      swap2\n      swap1\n      pop\n      jump\t// out\n        /* \"#utility.yul\":4362:4781   */\n    tag_53:\n        /* \"#utility.yul\":4528:4532   */\n      0x00\n        /* \"#utility.yul\":4566:4568   */\n      0x20\n        /* \"#utility.yul\":4555:4564   */\n      dup3\n        /* \"#utility.yul\":4551:4569   */\n      add\n        /* \"#utility.yul\":4543:4569   */\n      swap1\n      pop\n        /* \"#utility.yul\":4615:4624   */\n      dup2\n        /* \"#utility.yul\":4609:4613   */\n      dup2\n        /* \"#utility.yul\":4605:4625   */\n      sub\n        /* \"#utility.yul\":4601:4602   */\n      0x00\n        /* \"#utility.yul\":4590:4599   */\n      dup4\n        /* \"#utility.yul\":4586:4603   */\n      add\n        /* \"#utility.yul\":4579:4626   */\n      mstore\n        /* \"#utility.yul\":4643:4774   */\n      tag_179\n        /* \"#utility.yul\":4769:4773   */\n      dup2\n        /* \"#utility.yul\":4643:4774   */\n      tag_118\n      jump\t// in\n    tag_179:\n        /* \"#utility.yul\":4635:4774   */\n      swap1\n      pop\n        /* \"#utility.yul\":4362:4781   */\n      swap2\n      swap1\n      pop\n      jump\t// out\n        /* \"#utility.yul\":4787:5119   */\n    tag_56:\n        /* \"#utility.yul\":4908:4912   */\n      0x00\n        /* \"#utility.yul\":4946:4948   */\n      0x40\n        /* \"#utility.yul\":4935:4944   */\n      dup3\n        /* \"#utility.yul\":4931:4949   */\n      add\n        /* \"#utility.yul\":4923:4949   */\n      swap1\n      pop\n        /* \"#utility.yul\":4959:5030   */\n      tag_181\n        /* \"#utility.yul\":5027:5028   */\n      0x00\n        /* \"#utility.yul\":5016:5025   */\n      dup4\n        /* \"#utility.yul\":5012:5029   */\n      add\n        /* \"#utility.yul\":5003:5009   */\n      dup6\n        /* \"#utility.yul\":4959:5030   */\n      tag_102\n      jump\t// in\n    tag_181:\n        /* \"#utility.yul\":5040:5112   */\n      tag_182\n        /* \"#utility.yul\":5108:5110   */\n      0x20\n        /* \"#utility.yul\":5097:5106   */\n      dup4\n        /* \"#utility.yul\":5093:5111   */\n      add\n        /* \"#utility.yul\":5084:5090   */\n      dup5\n        /* \"#utility.yul\":5040:5112   */\n      tag_102\n      jump\t// in\n    tag_182:\n        /* \"#utility.yul\":4787:5119   */\n      swap4\n      swap3\n      pop\n      pop\n      pop\n      jump\t// out\n        /* \"#utility.yul\":5125:5296   */\n    tag_119:\n        /* \"#utility.yul\":5265:5288   */\n      0x596f7520617265206e6f7420616c6c6f77656421210000000000000000000000\n        /* \"#utility.yul\":5261:5262   */\n      0x00\n        /* \"#utility.yul\":5253:5259   */\n      dup3\n        /* \"#utility.yul\":5249:5263   */\n      add\n        /* \"#utility.yul\":5242:5289   */\n      mstore\n        /* \"#utility.yul\":5125:5296   */\n      pop\n      jump\t// out\n        /* \"#utility.yul\":5302:5668   */\n    tag_120:\n        /* \"#utility.yul\":5444:5447   */\n      0x00\n        /* \"#utility.yul\":5465:5532   */\n      tag_185\n        /* \"#utility.yul\":5529:5531   */\n      0x15\n        /* \"#utility.yul\":5524:5527   */\n      dup4\n        /* \"#utility.yul\":5465:5532   */\n      tag_116\n      jump\t// in\n    tag_185:\n        /* \"#utility.yul\":5458:5532   */\n      swap2\n      pop\n        /* \"#utility.yul\":5541:5634   */\n      tag_186\n        /* \"#utility.yul\":5630:5633   */\n      dup3\n        /* \"#utility.yul\":5541:5634   */\n      tag_119\n      jump\t// in\n    tag_186:\n        /* \"#utility.yul\":5659:5661   */\n      0x20\n        /* \"#utility.yul\":5654:5657   */\n      dup3\n        /* \"#utility.yul\":5650:5662   */\n      add\n        /* \"#utility.yul\":5643:5662   */\n      swap1\n      pop\n        /* \"#utility.yul\":5302:5668   */\n      swap2\n      swap1\n      pop\n      jump\t// out\n        /* \"#utility.yul\":5674:6093   */\n    tag_72:\n        /* \"#utility.yul\":5840:5844   */\n      0x00\n        /* \"#utility.yul\":5878:5880   */\n      0x20\n        /* \"#utility.yul\":5867:5876   */\n      dup3\n        /* \"#utility.yul\":5863:5881   */\n      add\n        /* \"#utility.yul\":5855:5881   */\n      swap1\n      pop\n        /* \"#utility.yul\":5927:5936   */\n      dup2\n        /* \"#utility.yul\":5921:5925   */\n      dup2\n        /* \"#utility.yul\":5917:5937   */\n      sub\n        /* \"#utility.yul\":5913:5914   */\n      0x00\n        /* \"#utility.yul\":5902:5911   */\n      dup4\n        /* \"#utility.yul\":5898:5915   */\n      add\n        /* \"#utility.yul\":5891:5938   */\n      mstore\n        /* \"#utility.yul\":5955:6086   */\n      tag_188\n        /* \"#utility.yul\":6081:6085   */\n      dup2\n        /* \"#utility.yul\":5955:6086   */\n      tag_120\n      jump\t// in\n    tag_188:\n        /* \"#utility.yul\":5947:6086   */\n      swap1\n      pop\n        /* \"#utility.yul\":5674:6093   */\n      swap2\n      swap1\n      pop\n      jump\t// out\n        /* \"#utility.yul\":6099:6276   */\n    tag_121:\n        /* \"#utility.yul\":6239:6268   */\n      0x496e73756666696369656e742057616c6c542062616c616e63652e0000000000\n        /* \"#utility.yul\":6235:6236   */\n      0x00\n        /* \"#utility.yul\":6227:6233   */\n      dup3\n        /* \"#utility.yul\":6223:6237   */\n      add\n        /* \"#utility.yul\":6216:6269   */\n      mstore\n        /* \"#utility.yul\":6099:6276   */\n      pop\n      jump\t// out\n        /* \"#utility.yul\":6282:6648   */\n    tag_122:\n        /* \"#utility.yul\":6424:6427   */\n      0x00\n        /* \"#utility.yul\":6445:6512   */\n      tag_191\n        /* \"#utility.yul\":6509:6511   */\n      0x1b\n        /* \"#utility.yul\":6504:6507   */\n      dup4\n        /* \"#utility.yul\":6445:6512   */\n      tag_116\n      jump\t// in\n    tag_191:\n        /* \"#utility.yul\":6438:6512   */\n      swap2\n      pop\n        /* \"#utility.yul\":6521:6614   */\n      tag_192\n        /* \"#utility.yul\":6610:6613   */\n      dup3\n        /* \"#utility.yul\":6521:6614   */\n      tag_121\n      jump\t// in\n    tag_192:\n        /* \"#utility.yul\":6639:6641   */\n      0x20\n        /* \"#utility.yul\":6634:6637   */\n      dup3\n        /* \"#utility.yul\":6630:6642   */\n      add\n        /* \"#utility.yul\":6623:6642   */\n      swap1\n      pop\n        /* \"#utility.yul\":6282:6648   */\n      swap2\n      swap1\n      pop\n      jump\t// out\n        /* \"#utility.yul\":6654:7073   */\n    tag_76:\n        /* \"#utility.yul\":6820:6824   */\n      0x00\n        /* \"#utility.yul\":6858:6860   */\n      0x20\n        /* \"#utility.yul\":6847:6856   */\n      dup3\n        /* \"#utility.yul\":6843:6861   */\n      add\n        /* \"#utility.yul\":6835:6861   */\n      swap1\n      pop\n        /* \"#utility.yul\":6907:6916   */\n      dup2\n        /* \"#utility.yul\":6901:6905   */\n      dup2\n        /* \"#utility.yul\":6897:6917   */\n      sub\n        /* \"#utility.yul\":6893:6894   */\n      0x00\n        /* \"#utility.yul\":6882:6891   */\n      dup4\n        /* \"#utility.yul\":6878:6895   */\n      add\n        /* \"#utility.yul\":6871:6918   */\n      mstore\n        /* \"#utility.yul\":6935:7066   */\n      tag_194\n        /* \"#utility.yul\":7061:7065   */\n      dup2\n        /* \"#utility.yul\":6935:7066   */\n      tag_122\n      jump\t// in\n    tag_194:\n        /* \"#utility.yul\":6927:7066   */\n      swap1\n      pop\n        /* \"#utility.yul\":6654:7073   */\n      swap2\n      swap1\n      pop\n      jump\t// out\n        /* \"#utility.yul\":7079:7304   */\n    tag_123:\n        /* \"#utility.yul\":7219:7253   */\n      0x4f776e61626c653a206e6577206f776e657220697320746865207a65726f2061\n        /* \"#utility.yul\":7215:7216   */\n      0x00\n        /* \"#utility.yul\":7207:7213   */\n      dup3\n        /* \"#utility.yul\":7203:7217   */\n      add\n        /* \"#utility.yul\":7196:7254   */\n      mstore\n        /* \"#utility.yul\":7288:7296   */\n      0x6464726573730000000000000000000000000000000000000000000000000000\n        /* \"#utility.yul\":7283:7285   */\n      0x20\n        /* \"#utility.yul\":7275:7281   */\n      dup3\n        /* \"#utility.yul\":7271:7286   */\n      add\n        /* \"#utility.yul\":7264:7297   */\n      mstore\n        /* \"#utility.yul\":7079:7304   */\n      pop\n      jump\t// out\n        /* \"#utility.yul\":7310:7676   */\n    tag_124:\n        /* \"#utility.yul\":7452:7455   */\n      0x00\n        /* \"#utility.yul\":7473:7540   */\n      tag_197\n        /* \"#utility.yul\":7537:7539   */\n      0x26\n        /* \"#utility.yul\":7532:7535   */\n      dup4\n        /* \"#utility.yul\":7473:7540   */\n      tag_116\n      jump\t// in\n    tag_197:\n        /* \"#utility.yul\":7466:7540   */\n      swap2\n      pop\n        /* \"#utility.yul\":7549:7642   */\n      tag_198\n        /* \"#utility.yul\":7638:7641   */\n      dup3\n        /* \"#utility.yul\":7549:7642   */\n      tag_123\n      jump\t// in\n    tag_198:\n        /* \"#utility.yul\":7667:7669   */\n      0x40\n        /* \"#utility.yul\":7662:7665   */\n      dup3\n        /* \"#utility.yul\":7658:7670   */\n      add\n        /* \"#utility.yul\":7651:7670   */\n      swap1\n      pop\n        /* \"#utility.yul\":7310:7676   */\n      swap2\n      swap1\n      pop\n      jump\t// out\n        /* \"#utility.yul\":7682:8101   */\n    tag_92:\n        /* \"#utility.yul\":7848:7852   */\n      0x00\n        /* \"#utility.yul\":7886:7888   */\n      0x20\n        /* \"#utility.yul\":7875:7884   */\n      dup3\n        /* \"#utility.yul\":7871:7889   */\n      add\n        /* \"#utility.yul\":7863:7889   */\n      swap1\n      pop\n        /* \"#utility.yul\":7935:7944   */\n      dup2\n        /* \"#utility.yul\":7929:7933   */\n      dup2\n        /* \"#utility.yul\":7925:7945   */\n      sub\n        /* \"#utility.yul\":7921:7922   */\n      0x00\n        /* \"#utility.yul\":7910:7919   */\n      dup4\n        /* \"#utility.yul\":7906:7923   */\n      add\n        /* \"#utility.yul\":7899:7946   */\n      mstore\n        /* \"#utility.yul\":7963:8094   */\n      tag_200\n        /* \"#utility.yul\":8089:8093   */\n      dup2\n        /* \"#utility.yul\":7963:8094   */\n      tag_124\n      jump\t// in\n    tag_200:\n        /* \"#utility.yul\":7955:8094   */\n      swap1\n      pop\n        /* \"#utility.yul\":7682:8101   */\n      swap2\n      swap1\n      pop\n      jump\t// out\n        /* \"#utility.yul\":8107:8287   */\n    tag_125:\n        /* \"#utility.yul\":8155:8232   */\n      0x4e487b7100000000000000000000000000000000000000000000000000000000\n        /* \"#utility.yul\":8152:8153   */\n      0x00\n        /* \"#utility.yul\":8145:8233   */\n      mstore\n        /* \"#utility.yul\":8252:8256   */\n      0x11\n        /* \"#utility.yul\":8249:8250   */\n      0x04\n        /* \"#utility.yul\":8242:8257   */\n      mstore\n        /* \"#utility.yul\":8276:8280   */\n      0x24\n        /* \"#utility.yul\":8273:8274   */\n      0x00\n        /* \"#utility.yul\":8266:8281   */\n      revert\n        /* \"#utility.yul\":8293:8484   */\n    tag_98:\n        /* \"#utility.yul\":8333:8337   */\n      0x00\n        /* \"#utility.yul\":8353:8373   */\n      tag_203\n        /* \"#utility.yul\":8371:8372   */\n      dup3\n        /* \"#utility.yul\":8353:8373   */\n      tag_101\n      jump\t// in\n    tag_203:\n        /* \"#utility.yul\":8348:8373   */\n      swap2\n      pop\n        /* \"#utility.yul\":8387:8407   */\n      tag_204\n        /* \"#utility.yul\":8405:8406   */\n      dup4\n        /* \"#utility.yul\":8387:8407   */\n      tag_101\n      jump\t// in\n    tag_204:\n        /* \"#utility.yul\":8382:8407   */\n      swap3\n      pop\n        /* \"#utility.yul\":8426:8427   */\n      dup3\n        /* \"#utility.yul\":8423:8424   */\n      dup3\n        /* \"#utility.yul\":8420:8428   */\n      lt\n        /* \"#utility.yul\":8417:8451   */\n      iszero\n      tag_205\n      jumpi\n        /* \"#utility.yul\":8431:8449   */\n      tag_206\n      tag_125\n      jump\t// in\n    tag_206:\n        /* \"#utility.yul\":8417:8451   */\n    tag_205:\n        /* \"#utility.yul\":8476:8477   */\n      dup3\n        /* \"#utility.yul\":8473:8474   */\n      dup3\n        /* \"#utility.yul\":8469:8478   */\n      sub\n        /* \"#utility.yul\":8461:8478   */\n      swap1\n      pop\n        /* \"#utility.yul\":8293:8484   */\n      swap3\n      swap2\n      pop\n      pop\n      jump\t// out\n\n    auxdata: 0xa2646970667358221220fc6efcd1970b2dff17ee29c54372ec20780de27a50b7b24dcacdc0bd0efb6b7f64736f6c634300080d0033\n}\n",
				"bytecode": {
					"linkReferences": {},
					"object": "608060405234801561001057600080fd5b5061002d61002261003260201b60201c565b61003a60201b60201c565b6100fe565b600033905090565b60008060009054906101000a900473ffffffffffffffffffffffffffffffffffffffff169050816000806101000a81548173ffffffffffffffffffffffffffffffffffffffff021916908373ffffffffffffffffffffffffffffffffffffffff1602179055508173ffffffffffffffffffffffffffffffffffffffff168173ffffffffffffffffffffffffffffffffffffffff167f8be0079c531659141344cd1fd0a4f28419497f9722a3daafe3b4186f6b6457e060405160405180910390a35050565b610d958061010d6000396000f3fe6080604052600436106100745760003560e01c8063715018a61161004e578063715018a6146101565780638da5cb5b1461016d578063c107532914610198578063f2fde38b146101c157610075565b8063310ec4a7146100c5578063329a27e7146100ee5780633e5beab91461011957610075565b5b3373ffffffffffffffffffffffffffffffffffffffff167fa0237b7b3e1727ecc208904784abf18c6b22f5c44f97dab6ef7d99baaefedfee346040516100bb919061092d565b60405180910390a2005b3480156100d157600080fd5b506100ec60048036038101906100e791906109d7565b6101ea565b005b3480156100fa57600080fd5b50610103610354565b604051610110919061092d565b60405180910390f35b34801561012557600080fd5b50610140600480360381019061013b9190610a17565b61035c565b60405161014d919061092d565b60405180910390f35b34801561016257600080fd5b5061016b610374565b005b34801561017957600080fd5b506101826103fc565b60405161018f9190610a53565b60405180910390f35b3480156101a457600080fd5b506101bf60048036038101906101ba9190610aac565b610425565b005b3480156101cd57600080fd5b506101e860048036038101906101e39190610a17565b610607565b005b6101f26106fe565b73ffffffffffffffffffffffffffffffffffffffff166102106103fc565b73ffffffffffffffffffffffffffffffffffffffff1614610266576040517f08c379a000000000000000000000000000000000000000000000000000000000815260040161025d90610b49565b60405180910390fd5b3373ffffffffffffffffffffffffffffffffffffffff168273ffffffffffffffffffffffffffffffffffffffff167f96798bba4b94a2230e56e98161b1b80164fe3e9c5a30176e53c96c2e2347fda8600160008673ffffffffffffffffffffffffffffffffffffffff1673ffffffffffffffffffffffffffffffffffffffff1681526020019081526020016000205484604051610304929190610b69565b60405180910390a380600160008473ffffffffffffffffffffffffffffffffffffffff1673ffffffffffffffffffffffffffffffffffffffff168152602001908152602001600020819055505050565b600047905090565b60016020528060005260406000206000915090505481565b61037c6106fe565b73ffffffffffffffffffffffffffffffffffffffff1661039a6103fc565b73ffffffffffffffffffffffffffffffffffffffff16146103f0576040517f08c379a00000000000000000000000000000000000000000000000000000000081526004016103e790610b49565b60405180910390fd5b6103fa6000610706565b565b60008060009054906101000a900473ffffffffffffffffffffffffffffffffffffffff16905090565b8061042e6103fc565b73ffffffffffffffffffffffffffffffffffffffff163373ffffffffffffffffffffffffffffffffffffffff1614806104a6575080600160003373ffffffffffffffffffffffffffffffffffffffff1673ffffffffffffffffffffffffffffffffffffffff1681526020019081526020016000205410155b6104e5576040517f08c379a00000000000000000000000000000000000000000000000000000000081526004016104dc90610bde565b60405180910390fd5b47821115610528576040517f08c379a000000000000000000000000000000000000000000000000000000000815260040161051f90610c4a565b60405180910390fd5b6105306103fc565b73ffffffffffffffffffffffffffffffffffffffff163373ffffffffffffffffffffffffffffffffffffffff161461056d5761056c33836107ca565b5b8273ffffffffffffffffffffffffffffffffffffffff167f8a43c200a722669df503c8997c4ae4af96d8849cba45c39bccf948d45223e770836040516105b3919061092d565b60405180910390a28273ffffffffffffffffffffffffffffffffffffffff166108fc839081150290604051600060405180830381858888f19350505050158015610601573d6000803e3d6000fd5b50505050565b61060f6106fe565b73ffffffffffffffffffffffffffffffffffffffff1661062d6103fc565b73ffffffffffffffffffffffffffffffffffffffff1614610683576040517f08c379a000000000000000000000000000000000000000000000000000000000815260040161067a90610b49565b60405180910390fd5b600073ffffffffffffffffffffffffffffffffffffffff168173ffffffffffffffffffffffffffffffffffffffff16036106f2576040517f08c379a00000000000000000000000000000000000000000000000000000000081526004016106e990610cdc565b60405180910390fd5b6106fb81610706565b50565b600033905090565b60008060009054906101000a900473ffffffffffffffffffffffffffffffffffffffff169050816000806101000a81548173ffffffffffffffffffffffffffffffffffffffff021916908373ffffffffffffffffffffffffffffffffffffffff1602179055508173ffffffffffffffffffffffffffffffffffffffff168173ffffffffffffffffffffffffffffffffffffffff167f8be0079c531659141344cd1fd0a4f28419497f9722a3daafe3b4186f6b6457e060405160405180910390a35050565b3373ffffffffffffffffffffffffffffffffffffffff168273ffffffffffffffffffffffffffffffffffffffff167f96798bba4b94a2230e56e98161b1b80164fe3e9c5a30176e53c96c2e2347fda8600160008673ffffffffffffffffffffffffffffffffffffffff1673ffffffffffffffffffffffffffffffffffffffff1681526020019081526020016000205484600160008873ffffffffffffffffffffffffffffffffffffffff1673ffffffffffffffffffffffffffffffffffffffff168152602001908152602001600020546108a49190610d2b565b6040516108b2929190610b69565b60405180910390a380600160008473ffffffffffffffffffffffffffffffffffffffff1673ffffffffffffffffffffffffffffffffffffffff16815260200190815260200160002060008282546109099190610d2b565b925050819055505050565b6000819050919050565b61092781610914565b82525050565b6000602082019050610942600083018461091e565b92915050565b600080fd5b600073ffffffffffffffffffffffffffffffffffffffff82169050919050565b60006109788261094d565b9050919050565b6109888161096d565b811461099357600080fd5b50565b6000813590506109a58161097f565b92915050565b6109b481610914565b81146109bf57600080fd5b50565b6000813590506109d1816109ab565b92915050565b600080604083850312156109ee576109ed610948565b5b60006109fc85828601610996565b9250506020610a0d858286016109c2565b9150509250929050565b600060208284031215610a2d57610a2c610948565b5b6000610a3b84828501610996565b91505092915050565b610a4d8161096d565b82525050565b6000602082019050610a686000830184610a44565b92915050565b6000610a798261094d565b9050919050565b610a8981610a6e565b8114610a9457600080fd5b50565b600081359050610aa681610a80565b92915050565b60008060408385031215610ac357610ac2610948565b5b6000610ad185828601610a97565b9250506020610ae2858286016109c2565b9150509250929050565b600082825260208201905092915050565b7f4f776e61626c653a2063616c6c6572206973206e6f7420746865206f776e6572600082015250565b6000610b33602083610aec565b9150610b3e82610afd565b602082019050919050565b60006020820190508181036000830152610b6281610b26565b9050919050565b6000604082019050610b7e600083018561091e565b610b8b602083018461091e565b9392505050565b7f596f7520617265206e6f7420616c6c6f77656421210000000000000000000000600082015250565b6000610bc8601583610aec565b9150610bd382610b92565b602082019050919050565b60006020820190508181036000830152610bf781610bbb565b9050919050565b7f496e73756666696369656e742057616c6c542062616c616e63652e0000000000600082015250565b6000610c34601b83610aec565b9150610c3f82610bfe565b602082019050919050565b60006020820190508181036000830152610c6381610c27565b9050919050565b7f4f776e61626c653a206e6577206f776e657220697320746865207a65726f206160008201527f6464726573730000000000000000000000000000000000000000000000000000602082015250565b6000610cc6602683610aec565b9150610cd182610c6a565b604082019050919050565b60006020820190508181036000830152610cf581610cb9565b9050919050565b7f4e487b7100000000000000000000000000000000000000000000000000000000600052601160045260246000fd5b6000610d3682610914565b9150610d4183610914565b925082821015610d5457610d53610cfc565b5b82820390509291505056fea2646970667358221220fc6efcd1970b2dff17ee29c54372ec20780de27a50b7b24dcacdc0bd0efb6b7f64736f6c634300080d0033",
					"opcodes": "PUSH1 0x80 PUSH1 0x40 MSTORE CALLVALUE DUP1 ISZERO PUSH2 0x10 JUMPI PUSH1 0x0 DUP1 REVERT JUMPDEST POP PUSH2 0x2D PUSH2 0x22 PUSH2 0x32 PUSH1 0x20 SHL PUSH1 0x20 SHR JUMP JUMPDEST PUSH2 0x3A PUSH1 0x20 SHL PUSH1 0x20 SHR JUMP JUMPDEST PUSH2 0xFE JUMP JUMPDEST PUSH1 0x0 CALLER SWAP1 POP SWAP1 JUMP JUMPDEST PUSH1 0x0 DUP1 PUSH1 0x0 SWAP1 SLOAD SWAP1 PUSH2 0x100 EXP SWAP1 DIV PUSH20 0xFFFFFFFFFFFFFFFFFFFFFFFFFFFFFFFFFFFFFFFF AND SWAP1 POP DUP2 PUSH1 0x0 DUP1 PUSH2 0x100 EXP DUP2 SLOAD DUP2 PUSH20 0xFFFFFFFFFFFFFFFFFFFFFFFFFFFFFFFFFFFFFFFF MUL NOT AND SWAP1 DUP4 PUSH20 0xFFFFFFFFFFFFFFFFFFFFFFFFFFFFFFFFFFFFFFFF AND MUL OR SWAP1 SSTORE POP DUP2 PUSH20 0xFFFFFFFFFFFFFFFFFFFFFFFFFFFFFFFFFFFFFFFF AND DUP2 PUSH20 0xFFFFFFFFFFFFFFFFFFFFFFFFFFFFFFFFFFFFFFFF AND PUSH32 0x8BE0079C531659141344CD1FD0A4F28419497F9722A3DAAFE3B4186F6B6457E0 PUSH1 0x40 MLOAD PUSH1 0x40 MLOAD DUP1 SWAP2 SUB SWAP1 LOG3 POP POP JUMP JUMPDEST PUSH2 0xD95 DUP1 PUSH2 0x10D PUSH1 0x0 CODECOPY PUSH1 0x0 RETURN INVALID PUSH1 0x80 PUSH1 0x40 MSTORE PUSH1 0x4 CALLDATASIZE LT PUSH2 0x74 JUMPI PUSH1 0x0 CALLDATALOAD PUSH1 0xE0 SHR DUP1 PUSH4 0x715018A6 GT PUSH2 0x4E JUMPI DUP1 PUSH4 0x715018A6 EQ PUSH2 0x156 JUMPI DUP1 PUSH4 0x8DA5CB5B EQ PUSH2 0x16D JUMPI DUP1 PUSH4 0xC1075329 EQ PUSH2 0x198 JUMPI DUP1 PUSH4 0xF2FDE38B EQ PUSH2 0x1C1 JUMPI PUSH2 0x75 JUMP JUMPDEST DUP1 PUSH4 0x310EC4A7 EQ PUSH2 0xC5 JUMPI DUP1 PUSH4 0x329A27E7 EQ PUSH2 0xEE JUMPI DUP1 PUSH4 0x3E5BEAB9 EQ PUSH2 0x119 JUMPI PUSH2 0x75 JUMP JUMPDEST JUMPDEST CALLER PUSH20 0xFFFFFFFFFFFFFFFFFFFFFFFFFFFFFFFFFFFFFFFF AND PUSH32 0xA0237B7B3E1727ECC208904784ABF18C6B22F5C44F97DAB6EF7D99BAAEFEDFEE CALLVALUE PUSH1 0x40 MLOAD PUSH2 0xBB SWAP2 SWAP1 PUSH2 0x92D JUMP JUMPDEST PUSH1 0x40 MLOAD DUP1 SWAP2 SUB SWAP1 LOG2 STOP JUMPDEST CALLVALUE DUP1 ISZERO PUSH2 0xD1 JUMPI PUSH1 0x0 DUP1 REVERT JUMPDEST POP PUSH2 0xEC PUSH1 0x4 DUP1 CALLDATASIZE SUB DUP2 ADD SWAP1 PUSH2 0xE7 SWAP2 SWAP1 PUSH2 0x9D7 JUMP JUMPDEST PUSH2 0x1EA JUMP JUMPDEST STOP JUMPDEST CALLVALUE DUP1 ISZERO PUSH2 0xFA JUMPI PUSH1 0x0 DUP1 REVERT JUMPDEST POP PUSH2 0x103 PUSH2 0x354 JUMP JUMPDEST PUSH1 0x40 MLOAD PUSH2 0x110 SWAP2 SWAP1 PUSH2 0x92D JUMP JUMPDEST PUSH1 0x40 MLOAD DUP1 SWAP2 SUB SWAP1 RETURN JUMPDEST CALLVALUE DUP1 ISZERO PUSH2 0x125 JUMPI PUSH1 0x0 DUP1 REVERT JUMPDEST POP PUSH2 0x140 PUSH1 0x4 DUP1 CALLDATASIZE SUB DUP2 ADD SWAP1 PUSH2 0x13B SWAP2 SWAP1 PUSH2 0xA17 JUMP JUMPDEST PUSH2 0x35C JUMP JUMPDEST PUSH1 0x40 MLOAD PUSH2 0x14D SWAP2 SWAP1 PUSH2 0x92D JUMP JUMPDEST PUSH1 0x40 MLOAD DUP1 SWAP2 SUB SWAP1 RETURN JUMPDEST CALLVALUE DUP1 ISZERO PUSH2 0x162 JUMPI PUSH1 0x0 DUP1 REVERT JUMPDEST POP PUSH2 0x16B PUSH2 0x374 JUMP JUMPDEST STOP JUMPDEST CALLVALUE DUP1 ISZERO PUSH2 0x179 JUMPI PUSH1 0x0 DUP1 REVERT JUMPDEST POP PUSH2 0x182 PUSH2 0x3FC JUMP JUMPDEST PUSH1 0x40 MLOAD PUSH2 0x18F SWAP2 SWAP1 PUSH2 0xA53 JUMP JUMPDEST PUSH1 0x40 MLOAD DUP1 SWAP2 SUB SWAP1 RETURN JUMPDEST CALLVALUE DUP1 ISZERO PUSH2 0x1A4 JUMPI PUSH1 0x0 DUP1 REVERT JUMPDEST POP PUSH2 0x1BF PUSH1 0x4 DUP1 CALLDATASIZE SUB DUP2 ADD SWAP1 PUSH2 0x1BA SWAP2 SWAP1 PUSH2 0xAAC JUMP JUMPDEST PUSH2 0x425 JUMP JUMPDEST STOP JUMPDEST CALLVALUE DUP1 ISZERO PUSH2 0x1CD JUMPI PUSH1 0x0 DUP1 REVERT JUMPDEST POP PUSH2 0x1E8 PUSH1 0x4 DUP1 CALLDATASIZE SUB DUP2 ADD SWAP1 PUSH2 0x1E3 SWAP2 SWAP1 PUSH2 0xA17 JUMP JUMPDEST PUSH2 0x607 JUMP JUMPDEST STOP JUMPDEST PUSH2 0x1F2 PUSH2 0x6FE JUMP JUMPDEST PUSH20 0xFFFFFFFFFFFFFFFFFFFFFFFFFFFFFFFFFFFFFFFF AND PUSH2 0x210 PUSH2 0x3FC JUMP JUMPDEST PUSH20 0xFFFFFFFFFFFFFFFFFFFFFFFFFFFFFFFFFFFFFFFF AND EQ PUSH2 0x266 JUMPI PUSH1 0x40 MLOAD PUSH32 0x8C379A000000000000000000000000000000000000000000000000000000000 DUP2 MSTORE PUSH1 0x4 ADD PUSH2 0x25D SWAP1 PUSH2 0xB49 JUMP JUMPDEST PUSH1 0x40 MLOAD DUP1 SWAP2 SUB SWAP1 REVERT JUMPDEST CALLER PUSH20 0xFFFFFFFFFFFFFFFFFFFFFFFFFFFFFFFFFFFFFFFF AND DUP3 PUSH20 0xFFFFFFFFFFFFFFFFFFFFFFFFFFFFFFFFFFFFFFFF AND PUSH32 0x96798BBA4B94A2230E56E98161B1B80164FE3E9C5A30176E53C96C2E2347FDA8 PUSH1 0x1 PUSH1 0x0 DUP7 PUSH20 0xFFFFFFFFFFFFFFFFFFFFFFFFFFFFFFFFFFFFFFFF AND PUSH20 0xFFFFFFFFFFFFFFFFFFFFFFFFFFFFFFFFFFFFFFFF AND DUP2 MSTORE PUSH1 0x20 ADD SWAP1 DUP2 MSTORE PUSH1 0x20 ADD PUSH1 0x0 KECCAK256 SLOAD DUP5 PUSH1 0x40 MLOAD PUSH2 0x304 SWAP3 SWAP2 SWAP1 PUSH2 0xB69 JUMP JUMPDEST PUSH1 0x40 MLOAD DUP1 SWAP2 SUB SWAP1 LOG3 DUP1 PUSH1 0x1 PUSH1 0x0 DUP5 PUSH20 0xFFFFFFFFFFFFFFFFFFFFFFFFFFFFFFFFFFFFFFFF AND PUSH20 0xFFFFFFFFFFFFFFFFFFFFFFFFFFFFFFFFFFFFFFFF AND DUP2 MSTORE PUSH1 0x20 ADD SWAP1 DUP2 MSTORE PUSH1 0x20 ADD PUSH1 0x0 KECCAK256 DUP2 SWAP1 SSTORE POP POP POP JUMP JUMPDEST PUSH1 0x0 SELFBALANCE SWAP1 POP SWAP1 JUMP JUMPDEST PUSH1 0x1 PUSH1 0x20 MSTORE DUP1 PUSH1 0x0 MSTORE PUSH1 0x40 PUSH1 0x0 KECCAK256 PUSH1 0x0 SWAP2 POP SWAP1 POP SLOAD DUP2 JUMP JUMPDEST PUSH2 0x37C PUSH2 0x6FE JUMP JUMPDEST PUSH20 0xFFFFFFFFFFFFFFFFFFFFFFFFFFFFFFFFFFFFFFFF AND PUSH2 0x39A PUSH2 0x3FC JUMP JUMPDEST PUSH20 0xFFFFFFFFFFFFFFFFFFFFFFFFFFFFFFFFFFFFFFFF AND EQ PUSH2 0x3F0 JUMPI PUSH1 0x40 MLOAD PUSH32 0x8C379A000000000000000000000000000000000000000000000000000000000 DUP2 MSTORE PUSH1 0x4 ADD PUSH2 0x3E7 SWAP1 PUSH2 0xB49 JUMP JUMPDEST PUSH1 0x40 MLOAD DUP1 SWAP2 SUB SWAP1 REVERT JUMPDEST PUSH2 0x3FA PUSH1 0x0 PUSH2 0x706 JUMP JUMPDEST JUMP JUMPDEST PUSH1 0x0 DUP1 PUSH1 0x0 SWAP1 SLOAD SWAP1 PUSH2 0x100 EXP SWAP1 DIV PUSH20 0xFFFFFFFFFFFFFFFFFFFFFFFFFFFFFFFFFFFFFFFF AND SWAP1 POP SWAP1 JUMP JUMPDEST DUP1 PUSH2 0x42E PUSH2 0x3FC JUMP JUMPDEST PUSH20 0xFFFFFFFFFFFFFFFFFFFFFFFFFFFFFFFFFFFFFFFF AND CALLER PUSH20 0xFFFFFFFFFFFFFFFFFFFFFFFFFFFFFFFFFFFFFFFF AND EQ DUP1 PUSH2 0x4A6 JUMPI POP DUP1 PUSH1 0x1 PUSH1 0x0 CALLER PUSH20 0xFFFFFFFFFFFFFFFFFFFFFFFFFFFFFFFFFFFFFFFF AND PUSH20 0xFFFFFFFFFFFFFFFFFFFFFFFFFFFFFFFFFFFFFFFF AND DUP2 MSTORE PUSH1 0x20 ADD SWAP1 DUP2 MSTORE PUSH1 0x20 ADD PUSH1 0x0 KECCAK256 SLOAD LT ISZERO JUMPDEST PUSH2 0x4E5 JUMPI PUSH1 0x40 MLOAD PUSH32 0x8C379A000000000000000000000000000000000000000000000000000000000 DUP2 MSTORE PUSH1 0x4 ADD PUSH2 0x4DC SWAP1 PUSH2 0xBDE JUMP JUMPDEST PUSH1 0x40 MLOAD DUP1 SWAP2 SUB SWAP1 REVERT JUMPDEST SELFBALANCE DUP3 GT ISZERO PUSH2 0x528 JUMPI PUSH1 0x40 MLOAD PUSH32 0x8C379A000000000000000000000000000000000000000000000000000000000 DUP2 MSTORE PUSH1 0x4 ADD PUSH2 0x51F SWAP1 PUSH2 0xC4A JUMP JUMPDEST PUSH1 0x40 MLOAD DUP1 SWAP2 SUB SWAP1 REVERT JUMPDEST PUSH2 0x530 PUSH2 0x3FC JUMP JUMPDEST PUSH20 0xFFFFFFFFFFFFFFFFFFFFFFFFFFFFFFFFFFFFFFFF AND CALLER PUSH20 0xFFFFFFFFFFFFFFFFFFFFFFFFFFFFFFFFFFFFFFFF AND EQ PUSH2 0x56D JUMPI PUSH2 0x56C CALLER DUP4 PUSH2 0x7CA JUMP JUMPDEST JUMPDEST DUP3 PUSH20 0xFFFFFFFFFFFFFFFFFFFFFFFFFFFFFFFFFFFFFFFF AND PUSH32 0x8A43C200A722669DF503C8997C4AE4AF96D8849CBA45C39BCCF948D45223E770 DUP4 PUSH1 0x40 MLOAD PUSH2 0x5B3 SWAP2 SWAP1 PUSH2 0x92D JUMP JUMPDEST PUSH1 0x40 MLOAD DUP1 SWAP2 SUB SWAP1 LOG2 DUP3 PUSH20 0xFFFFFFFFFFFFFFFFFFFFFFFFFFFFFFFFFFFFFFFF AND PUSH2 0x8FC DUP4 SWAP1 DUP2 ISZERO MUL SWAP1 PUSH1 0x40 MLOAD PUSH1 0x0 PUSH1 0x40 MLOAD DUP1 DUP4 SUB DUP2 DUP6 DUP9 DUP9 CALL SWAP4 POP POP POP POP ISZERO DUP1 ISZERO PUSH2 0x601 JUMPI RETURNDATASIZE PUSH1 0x0 DUP1 RETURNDATACOPY RETURNDATASIZE PUSH1 0x0 REVERT JUMPDEST POP POP POP POP JUMP JUMPDEST PUSH2 0x60F PUSH2 0x6FE JUMP JUMPDEST PUSH20 0xFFFFFFFFFFFFFFFFFFFFFFFFFFFFFFFFFFFFFFFF AND PUSH2 0x62D PUSH2 0x3FC JUMP JUMPDEST PUSH20 0xFFFFFFFFFFFFFFFFFFFFFFFFFFFFFFFFFFFFFFFF AND EQ PUSH2 0x683 JUMPI PUSH1 0x40 MLOAD PUSH32 0x8C379A000000000000000000000000000000000000000000000000000000000 DUP2 MSTORE PUSH1 0x4 ADD PUSH2 0x67A SWAP1 PUSH2 0xB49 JUMP JUMPDEST PUSH1 0x40 MLOAD DUP1 SWAP2 SUB SWAP1 REVERT JUMPDEST PUSH1 0x0 PUSH20 0xFFFFFFFFFFFFFFFFFFFFFFFFFFFFFFFFFFFFFFFF AND DUP2 PUSH20 0xFFFFFFFFFFFFFFFFFFFFFFFFFFFFFFFFFFFFFFFF AND SUB PUSH2 0x6F2 JUMPI PUSH1 0x40 MLOAD PUSH32 0x8C379A000000000000000000000000000000000000000000000000000000000 DUP2 MSTORE PUSH1 0x4 ADD PUSH2 0x6E9 SWAP1 PUSH2 0xCDC JUMP JUMPDEST PUSH1 0x40 MLOAD DUP1 SWAP2 SUB SWAP1 REVERT JUMPDEST PUSH2 0x6FB DUP2 PUSH2 0x706 JUMP JUMPDEST POP JUMP JUMPDEST PUSH1 0x0 CALLER SWAP1 POP SWAP1 JUMP JUMPDEST PUSH1 0x0 DUP1 PUSH1 0x0 SWAP1 SLOAD SWAP1 PUSH2 0x100 EXP SWAP1 DIV PUSH20 0xFFFFFFFFFFFFFFFFFFFFFFFFFFFFFFFFFFFFFFFF AND SWAP1 POP DUP2 PUSH1 0x0 DUP1 PUSH2 0x100 EXP DUP2 SLOAD DUP2 PUSH20 0xFFFFFFFFFFFFFFFFFFFFFFFFFFFFFFFFFFFFFFFF MUL NOT AND SWAP1 DUP4 PUSH20 0xFFFFFFFFFFFFFFFFFFFFFFFFFFFFFFFFFFFFFFFF AND MUL OR SWAP1 SSTORE POP DUP2 PUSH20 0xFFFFFFFFFFFFFFFFFFFFFFFFFFFFFFFFFFFFFFFF AND DUP2 PUSH20 0xFFFFFFFFFFFFFFFFFFFFFFFFFFFFFFFFFFFFFFFF AND PUSH32 0x8BE0079C531659141344CD1FD0A4F28419497F9722A3DAAFE3B4186F6B6457E0 PUSH1 0x40 MLOAD PUSH1 0x40 MLOAD DUP1 SWAP2 SUB SWAP1 LOG3 POP POP JUMP JUMPDEST CALLER PUSH20 0xFFFFFFFFFFFFFFFFFFFFFFFFFFFFFFFFFFFFFFFF AND DUP3 PUSH20 0xFFFFFFFFFFFFFFFFFFFFFFFFFFFFFFFFFFFFFFFF AND PUSH32 0x96798BBA4B94A2230E56E98161B1B80164FE3E9C5A30176E53C96C2E2347FDA8 PUSH1 0x1 PUSH1 0x0 DUP7 PUSH20 0xFFFFFFFFFFFFFFFFFFFFFFFFFFFFFFFFFFFFFFFF AND PUSH20 0xFFFFFFFFFFFFFFFFFFFFFFFFFFFFFFFFFFFFFFFF AND DUP2 MSTORE PUSH1 0x20 ADD SWAP1 DUP2 MSTORE PUSH1 0x20 ADD PUSH1 0x0 KECCAK256 SLOAD DUP5 PUSH1 0x1 PUSH1 0x0 DUP9 PUSH20 0xFFFFFFFFFFFFFFFFFFFFFFFFFFFFFFFFFFFFFFFF AND PUSH20 0xFFFFFFFFFFFFFFFFFFFFFFFFFFFFFFFFFFFFFFFF AND DUP2 MSTORE PUSH1 0x20 ADD SWAP1 DUP2 MSTORE PUSH1 0x20 ADD PUSH1 0x0 KECCAK256 SLOAD PUSH2 0x8A4 SWAP2 SWAP1 PUSH2 0xD2B JUMP JUMPDEST PUSH1 0x40 MLOAD PUSH2 0x8B2 SWAP3 SWAP2 SWAP1 PUSH2 0xB69 JUMP JUMPDEST PUSH1 0x40 MLOAD DUP1 SWAP2 SUB SWAP1 LOG3 DUP1 PUSH1 0x1 PUSH1 0x0 DUP5 PUSH20 0xFFFFFFFFFFFFFFFFFFFFFFFFFFFFFFFFFFFFFFFF AND PUSH20 0xFFFFFFFFFFFFFFFFFFFFFFFFFFFFFFFFFFFFFFFF AND DUP2 MSTORE PUSH1 0x20 ADD SWAP1 DUP2 MSTORE PUSH1 0x20 ADD PUSH1 0x0 KECCAK256 PUSH1 0x0 DUP3 DUP3 SLOAD PUSH2 0x909 SWAP2 SWAP1 PUSH2 0xD2B JUMP JUMPDEST SWAP3 POP POP DUP2 SWAP1 SSTORE POP POP POP JUMP JUMPDEST PUSH1 0x0 DUP2 SWAP1 POP SWAP2 SWAP1 POP JUMP JUMPDEST PUSH2 0x927 DUP2 PUSH2 0x914 JUMP JUMPDEST DUP3 MSTORE POP POP JUMP JUMPDEST PUSH1 0x0 PUSH1 0x20 DUP3 ADD SWAP1 POP PUSH2 0x942 PUSH1 0x0 DUP4 ADD DUP5 PUSH2 0x91E JUMP JUMPDEST SWAP3 SWAP2 POP POP JUMP JUMPDEST PUSH1 0x0 DUP1 REVERT JUMPDEST PUSH1 0x0 PUSH20 0xFFFFFFFFFFFFFFFFFFFFFFFFFFFFFFFFFFFFFFFF DUP3 AND SWAP1 POP SWAP2 SWAP1 POP JUMP JUMPDEST PUSH1 0x0 PUSH2 0x978 DUP3 PUSH2 0x94D JUMP JUMPDEST SWAP1 POP SWAP2 SWAP1 POP JUMP JUMPDEST PUSH2 0x988 DUP2 PUSH2 0x96D JUMP JUMPDEST DUP2 EQ PUSH2 0x993 JUMPI PUSH1 0x0 DUP1 REVERT JUMPDEST POP JUMP JUMPDEST PUSH1 0x0 DUP2 CALLDATALOAD SWAP1 POP PUSH2 0x9A5 DUP2 PUSH2 0x97F JUMP JUMPDEST SWAP3 SWAP2 POP POP JUMP JUMPDEST PUSH2 0x9B4 DUP2 PUSH2 0x914 JUMP JUMPDEST DUP2 EQ PUSH2 0x9BF JUMPI PUSH1 0x0 DUP1 REVERT JUMPDEST POP JUMP JUMPDEST PUSH1 0x0 DUP2 CALLDATALOAD SWAP1 POP PUSH2 0x9D1 DUP2 PUSH2 0x9AB JUMP JUMPDEST SWAP3 SWAP2 POP POP JUMP JUMPDEST PUSH1 0x0 DUP1 PUSH1 0x40 DUP4 DUP6 SUB SLT ISZERO PUSH2 0x9EE JUMPI PUSH2 0x9ED PUSH2 0x948 JUMP JUMPDEST JUMPDEST PUSH1 0x0 PUSH2 0x9FC DUP6 DUP3 DUP7 ADD PUSH2 0x996 JUMP JUMPDEST SWAP3 POP POP PUSH1 0x20 PUSH2 0xA0D DUP6 DUP3 DUP7 ADD PUSH2 0x9C2 JUMP JUMPDEST SWAP2 POP POP SWAP3 POP SWAP3 SWAP1 POP JUMP JUMPDEST PUSH1 0x0 PUSH1 0x20 DUP3 DUP5 SUB SLT ISZERO PUSH2 0xA2D JUMPI PUSH2 0xA2C PUSH2 0x948 JUMP JUMPDEST JUMPDEST PUSH1 0x0 PUSH2 0xA3B DUP5 DUP3 DUP6 ADD PUSH2 0x996 JUMP JUMPDEST SWAP2 POP POP SWAP3 SWAP2 POP POP JUMP JUMPDEST PUSH2 0xA4D DUP2 PUSH2 0x96D JUMP JUMPDEST DUP3 MSTORE POP POP JUMP JUMPDEST PUSH1 0x0 PUSH1 0x20 DUP3 ADD SWAP1 POP PUSH2 0xA68 PUSH1 0x0 DUP4 ADD DUP5 PUSH2 0xA44 JUMP JUMPDEST SWAP3 SWAP2 POP POP JUMP JUMPDEST PUSH1 0x0 PUSH2 0xA79 DUP3 PUSH2 0x94D JUMP JUMPDEST SWAP1 POP SWAP2 SWAP1 POP JUMP JUMPDEST PUSH2 0xA89 DUP2 PUSH2 0xA6E JUMP JUMPDEST DUP2 EQ PUSH2 0xA94 JUMPI PUSH1 0x0 DUP1 REVERT JUMPDEST POP JUMP JUMPDEST PUSH1 0x0 DUP2 CALLDATALOAD SWAP1 POP PUSH2 0xAA6 DUP2 PUSH2 0xA80 JUMP JUMPDEST SWAP3 SWAP2 POP POP JUMP JUMPDEST PUSH1 0x0 DUP1 PUSH1 0x40 DUP4 DUP6 SUB SLT ISZERO PUSH2 0xAC3 JUMPI PUSH2 0xAC2 PUSH2 0x948 JUMP JUMPDEST JUMPDEST PUSH1 0x0 PUSH2 0xAD1 DUP6 DUP3 DUP7 ADD PUSH2 0xA97 JUMP JUMPDEST SWAP3 POP POP PUSH1 0x20 PUSH2 0xAE2 DUP6 DUP3 DUP7 ADD PUSH2 0x9C2 JUMP JUMPDEST SWAP2 POP POP SWAP3 POP SWAP3 SWAP1 POP JUMP JUMPDEST PUSH1 0x0 DUP3 DUP3 MSTORE PUSH1 0x20 DUP3 ADD SWAP1 POP SWAP3 SWAP2 POP POP JUMP JUMPDEST PUSH32 0x4F776E61626C653A2063616C6C6572206973206E6F7420746865206F776E6572 PUSH1 0x0 DUP3 ADD MSTORE POP JUMP JUMPDEST PUSH1 0x0 PUSH2 0xB33 PUSH1 0x20 DUP4 PUSH2 0xAEC JUMP JUMPDEST SWAP2 POP PUSH2 0xB3E DUP3 PUSH2 0xAFD JUMP JUMPDEST PUSH1 0x20 DUP3 ADD SWAP1 POP SWAP2 SWAP1 POP JUMP JUMPDEST PUSH1 0x0 PUSH1 0x20 DUP3 ADD SWAP1 POP DUP2 DUP2 SUB PUSH1 0x0 DUP4 ADD MSTORE PUSH2 0xB62 DUP2 PUSH2 0xB26 JUMP JUMPDEST SWAP1 POP SWAP2 SWAP1 POP JUMP JUMPDEST PUSH1 0x0 PUSH1 0x40 DUP3 ADD SWAP1 POP PUSH2 0xB7E PUSH1 0x0 DUP4 ADD DUP6 PUSH2 0x91E JUMP JUMPDEST PUSH2 0xB8B PUSH1 0x20 DUP4 ADD DUP5 PUSH2 0x91E JUMP JUMPDEST SWAP4 SWAP3 POP POP POP JUMP JUMPDEST PUSH32 0x596F7520617265206E6F7420616C6C6F77656421210000000000000000000000 PUSH1 0x0 DUP3 ADD MSTORE POP JUMP JUMPDEST PUSH1 0x0 PUSH2 0xBC8 PUSH1 0x15 DUP4 PUSH2 0xAEC JUMP JUMPDEST SWAP2 POP PUSH2 0xBD3 DUP3 PUSH2 0xB92 JUMP JUMPDEST PUSH1 0x20 DUP3 ADD SWAP1 POP SWAP2 SWAP1 POP JUMP JUMPDEST PUSH1 0x0 PUSH1 0x20 DUP3 ADD SWAP1 POP DUP2 DUP2 SUB PUSH1 0x0 DUP4 ADD MSTORE PUSH2 0xBF7 DUP2 PUSH2 0xBBB JUMP JUMPDEST SWAP1 POP SWAP2 SWAP1 POP JUMP JUMPDEST PUSH32 0x496E73756666696369656E742057616C6C542062616C616E63652E0000000000 PUSH1 0x0 DUP3 ADD MSTORE POP JUMP JUMPDEST PUSH1 0x0 PUSH2 0xC34 PUSH1 0x1B DUP4 PUSH2 0xAEC JUMP JUMPDEST SWAP2 POP PUSH2 0xC3F DUP3 PUSH2 0xBFE JUMP JUMPDEST PUSH1 0x20 DUP3 ADD SWAP1 POP SWAP2 SWAP1 POP JUMP JUMPDEST PUSH1 0x0 PUSH1 0x20 DUP3 ADD SWAP1 POP DUP2 DUP2 SUB PUSH1 0x0 DUP4 ADD MSTORE PUSH2 0xC63 DUP2 PUSH2 0xC27 JUMP JUMPDEST SWAP1 POP SWAP2 SWAP1 POP JUMP JUMPDEST PUSH32 0x4F776E61626C653A206E6577206F776E657220697320746865207A65726F2061 PUSH1 0x0 DUP3 ADD MSTORE PUSH32 0x6464726573730000000000000000000000000000000000000000000000000000 PUSH1 0x20 DUP3 ADD MSTORE POP JUMP JUMPDEST PUSH1 0x0 PUSH2 0xCC6 PUSH1 0x26 DUP4 PUSH2 0xAEC JUMP JUMPDEST SWAP2 POP PUSH2 0xCD1 DUP3 PUSH2 0xC6A JUMP JUMPDEST PUSH1 0x40 DUP3 ADD SWAP1 POP SWAP2 SWAP1 POP JUMP JUMPDEST PUSH1 0x0 PUSH1 0x20 DUP3 ADD SWAP1 POP DUP2 DUP2 SUB PUSH1 0x0 DUP4 ADD MSTORE PUSH2 0xCF5 DUP2 PUSH2 0xCB9 JUMP JUMPDEST SWAP1 POP SWAP2 SWAP1 POP JUMP JUMPDEST PUSH32 0x4E487B7100000000000000000000000000000000000000000000000000000000 PUSH1 0x0 MSTORE PUSH1 0x11 PUSH1 0x4 MSTORE PUSH1 0x24 PUSH1 0x0 REVERT JUMPDEST PUSH1 0x0 PUSH2 0xD36 DUP3 PUSH2 0x914 JUMP JUMPDEST SWAP2 POP PUSH2 0xD41 DUP4 PUSH2 0x914 JUMP JUMPDEST SWAP3 POP DUP3 DUP3 LT ISZERO PUSH2 0xD54 JUMPI PUSH2 0xD53 PUSH2 0xCFC JUMP JUMPDEST JUMPDEST DUP3 DUP3 SUB SWAP1 POP SWAP3 SWAP2 POP POP JUMP INVALID LOG2 PUSH5 0x6970667358 0x22 SLT KECCAK256 0xFC PUSH15 0xFCD1970B2DFF17EE29C54372EC2078 0xD 0xE2 PUSH27 0x50B7B24DCACDC0BD0EFB6B7F64736F6C634300080D003300000000 "
				},
				"gasEstimates": {
					"creation": {
						"codeDepositCost": "695400",
						"executionCost": "infinite",
						"totalCost": "infinite"
					},
					"external": {
						"": "1725",
						"allowance(address)": "2859",
						"getWalletBalance()": "362",
						"owner()": "2544",
						"renounceOwnership()": "30374",
						"setAllowance(address,uint256)": "infinite",
						"transferOwnership(address)": "30786",
						"withdrawFunds(address,uint256)": "infinite"
					}
				},
				"methodIdentifiers": {
					"allowance(address)": "3e5beab9",
					"getWalletBalance()": "329a27e7",
					"owner()": "8da5cb5b",
					"renounceOwnership()": "715018a6",
					"setAllowance(address,uint256)": "310ec4a7",
					"transferOwnership(address)": "f2fde38b",
					"withdrawFunds(address,uint256)": "c1075329"
				}
			},
			"userdoc": {
				"kind": "user",
				"methods": {},
				"version": 1
			}
		}
	}
}