{
	"data": {
		"bytecode": {
			"linkReferences": {
				"Libraries2.sol": {
					"Search": [
						{
							"length": 20,
							"start": 291
						}
					]
				}
			},
			"object": "608060405234801561001057600080fd5b50610395806100206000396000f3fe608060405234801561001057600080fd5b50600436106100415760003560e01c806371e5ee5f14610046578063e33b870714610076578063e81cf24c14610092575b600080fd5b610060600480360381019061005b9190610218565b6100ae565b60405161006d9190610254565b60405180910390f35b610090600480360381019061008b9190610218565b6100d2565b005b6100ac60048036038101906100a7919061026f565b6100fe565b005b600081815481106100be57600080fd5b906000526020600020016000915090505481565b600081908060018154018082558091505060019003906000526020600020016000909190919091505550565b60008073__$f53ff5401bba9d0133b3dfab23320e97ed$__6324fef5c89091856040518363ffffffff1660e01b815260040161013b9291906102c5565b602060405180830381865af4158015610158573d6000803e3d6000fd5b505050506040513d601f19601f8201168201806040525081019061017c9190610303565b9050600181036101b45760008290806001815401808255809150506001900390600052602060002001600090919091909150556101d8565b81600082815481106101c9576101c8610330565b5b90600052602060002001819055505b505050565b600080fd5b6000819050919050565b6101f5816101e2565b811461020057600080fd5b50565b600081359050610212816101ec565b92915050565b60006020828403121561022e5761022d6101dd565b5b600061023c84828501610203565b91505092915050565b61024e816101e2565b82525050565b60006020820190506102696000830184610245565b92915050565b60008060408385031215610286576102856101dd565b5b600061029485828601610203565b92505060206102a585828601610203565b9150509250929050565b8082525050565b6102bf816101e2565b82525050565b60006040820190506102da60008301856102af565b6102e760208301846102b6565b9392505050565b6000815190506102fd816101ec565b92915050565b600060208284031215610319576103186101dd565b5b6000610327848285016102ee565b91505092915050565b7f4e487b7100000000000000000000000000000000000000000000000000000000600052603260045260246000fdfea264697066735822122076a1afed528d903962388986ed94a583ba56c80d4a7a8ce91367c554611bc0f364736f6c634300080d0033",
			"opcodes": "PUSH1 0x80 PUSH1 0x40 MSTORE CALLVALUE DUP1 ISZERO PUSH2 0x10 JUMPI PUSH1 0x0 DUP1 REVERT JUMPDEST POP PUSH2 0x395 DUP1 PUSH2 0x20 PUSH1 0x0 CODECOPY PUSH1 0x0 RETURN INVALID PUSH1 0x80 PUSH1 0x40 MSTORE CALLVALUE DUP1 ISZERO PUSH2 0x10 JUMPI PUSH1 0x0 DUP1 REVERT JUMPDEST POP PUSH1 0x4 CALLDATASIZE LT PUSH2 0x41 JUMPI PUSH1 0x0 CALLDATALOAD PUSH1 0xE0 SHR DUP1 PUSH4 0x71E5EE5F EQ PUSH2 0x46 JUMPI DUP1 PUSH4 0xE33B8707 EQ PUSH2 0x76 JUMPI DUP1 PUSH4 0xE81CF24C EQ PUSH2 0x92 JUMPI JUMPDEST PUSH1 0x0 DUP1 REVERT JUMPDEST PUSH2 0x60 PUSH1 0x4 DUP1 CALLDATASIZE SUB DUP2 ADD SWAP1 PUSH2 0x5B SWAP2 SWAP1 PUSH2 0x218 JUMP JUMPDEST PUSH2 0xAE JUMP JUMPDEST PUSH1 0x40 MLOAD PUSH2 0x6D SWAP2 SWAP1 PUSH2 0x254 JUMP JUMPDEST PUSH1 0x40 MLOAD DUP1 SWAP2 SUB SWAP1 RETURN JUMPDEST PUSH2 0x90 PUSH1 0x4 DUP1 CALLDATASIZE SUB DUP2 ADD SWAP1 PUSH2 0x8B SWAP2 SWAP1 PUSH2 0x218 JUMP JUMPDEST PUSH2 0xD2 JUMP JUMPDEST STOP JUMPDEST PUSH2 0xAC PUSH1 0x4 DUP1 CALLDATASIZE SUB DUP2 ADD SWAP1 PUSH2 0xA7 SWAP2 SWAP1 PUSH2 0x26F JUMP JUMPDEST PUSH2 0xFE JUMP JUMPDEST STOP JUMPDEST PUSH1 0x0 DUP2 DUP2 SLOAD DUP2 LT PUSH2 0xBE JUMPI PUSH1 0x0 DUP1 REVERT JUMPDEST SWAP1 PUSH1 0x0 MSTORE PUSH1 0x20 PUSH1 0x0 KECCAK256 ADD PUSH1 0x0 SWAP2 POP SWAP1 POP SLOAD DUP2 JUMP JUMPDEST PUSH1 0x0 DUP2 SWAP1 DUP1 PUSH1 0x1 DUP2 SLOAD ADD DUP1 DUP3 SSTORE DUP1 SWAP2 POP POP PUSH1 0x1 SWAP1 SUB SWAP1 PUSH1 0x0 MSTORE PUSH1 0x20 PUSH1 0x0 KECCAK256 ADD PUSH1 0x0 SWAP1 SWAP2 SWAP1 SWAP2 SWAP1 SWAP2 POP SSTORE POP JUMP JUMPDEST PUSH1 0x0 DUP1 PUSH20 0x0 PUSH4 0x24FEF5C8 SWAP1 SWAP2 DUP6 PUSH1 0x40 MLOAD DUP4 PUSH4 0xFFFFFFFF AND PUSH1 0xE0 SHL DUP2 MSTORE PUSH1 0x4 ADD PUSH2 0x13B SWAP3 SWAP2 SWAP1 PUSH2 0x2C5 JUMP JUMPDEST PUSH1 0x20 PUSH1 0x40 MLOAD DUP1 DUP4 SUB DUP2 DUP7 GAS DELEGATECALL ISZERO DUP1 ISZERO PUSH2 0x158 JUMPI RETURNDATASIZE PUSH1 0x0 DUP1 RETURNDATACOPY RETURNDATASIZE PUSH1 0x0 REVERT JUMPDEST POP POP POP POP PUSH1 0x40 MLOAD RETURNDATASIZE PUSH1 0x1F NOT PUSH1 0x1F DUP3 ADD AND DUP3 ADD DUP1 PUSH1 0x40 MSTORE POP DUP2 ADD SWAP1 PUSH2 0x17C SWAP2 SWAP1 PUSH2 0x303 JUMP JUMPDEST SWAP1 POP PUSH1 0x1 DUP2 SUB PUSH2 0x1B4 JUMPI PUSH1 0x0 DUP3 SWAP1 DUP1 PUSH1 0x1 DUP2 SLOAD ADD DUP1 DUP3 SSTORE DUP1 SWAP2 POP POP PUSH1 0x1 SWAP1 SUB SWAP1 PUSH1 0x0 MSTORE PUSH1 0x20 PUSH1 0x0 KECCAK256 ADD PUSH1 0x0 SWAP1 SWAP2 SWAP1 SWAP2 SWAP1 SWAP2 POP SSTORE PUSH2 0x1D8 JUMP JUMPDEST DUP2 PUSH1 0x0 DUP3 DUP2 SLOAD DUP2 LT PUSH2 0x1C9 JUMPI PUSH2 0x1C8 PUSH2 0x330 JUMP JUMPDEST JUMPDEST SWAP1 PUSH1 0x0 MSTORE PUSH1 0x20 PUSH1 0x0 KECCAK256 ADD DUP2 SWAP1 SSTORE POP JUMPDEST POP POP POP JUMP JUMPDEST PUSH1 0x0 DUP1 REVERT JUMPDEST PUSH1 0x0 DUP2 SWAP1 POP SWAP2 SWAP1 POP JUMP JUMPDEST PUSH2 0x1F5 DUP2 PUSH2 0x1E2 JUMP JUMPDEST DUP2 EQ PUSH2 0x200 JUMPI PUSH1 0x0 DUP1 REVERT JUMPDEST POP JUMP JUMPDEST PUSH1 0x0 DUP2 CALLDATALOAD SWAP1 POP PUSH2 0x212 DUP2 PUSH2 0x1EC JUMP JUMPDEST SWAP3 SWAP2 POP POP JUMP JUMPDEST PUSH1 0x0 PUSH1 0x20 DUP3 DUP5 SUB SLT ISZERO PUSH2 0x22E JUMPI PUSH2 0x22D PUSH2 0x1DD JUMP JUMPDEST JUMPDEST PUSH1 0x0 PUSH2 0x23C DUP5 DUP3 DUP6 ADD PUSH2 0x203 JUMP JUMPDEST SWAP2 POP POP SWAP3 SWAP2 POP POP JUMP JUMPDEST PUSH2 0x24E DUP2 PUSH2 0x1E2 JUMP JUMPDEST DUP3 MSTORE POP POP JUMP JUMPDEST PUSH1 0x0 PUSH1 0x20 DUP3 ADD SWAP1 POP PUSH2 0x269 PUSH1 0x0 DUP4 ADD DUP5 PUSH2 0x245 JUMP JUMPDEST SWAP3 SWAP2 POP POP JUMP JUMPDEST PUSH1 0x0 DUP1 PUSH1 0x40 DUP4 DUP6 SUB SLT ISZERO PUSH2 0x286 JUMPI PUSH2 0x285 PUSH2 0x1DD JUMP JUMPDEST JUMPDEST PUSH1 0x0 PUSH2 0x294 DUP6 DUP3 DUP7 ADD PUSH2 0x203 JUMP JUMPDEST SWAP3 POP POP PUSH1 0x20 PUSH2 0x2A5 DUP6 DUP3 DUP7 ADD PUSH2 0x203 JUMP JUMPDEST SWAP2 POP POP SWAP3 POP SWAP3 SWAP1 POP JUMP JUMPDEST DUP1 DUP3 MSTORE POP POP JUMP JUMPDEST PUSH2 0x2BF DUP2 PUSH2 0x1E2 JUMP JUMPDEST DUP3 MSTORE POP POP JUMP JUMPDEST PUSH1 0x0 PUSH1 0x40 DUP3 ADD SWAP1 POP PUSH2 0x2DA PUSH1 0x0 DUP4 ADD DUP6 PUSH2 0x2AF JUMP JUMPDEST PUSH2 0x2E7 PUSH1 0x20 DUP4 ADD DUP5 PUSH2 0x2B6 JUMP JUMPDEST SWAP4 SWAP3 POP POP POP JUMP JUMPDEST PUSH1 0x0 DUP2 MLOAD SWAP1 POP PUSH2 0x2FD DUP2 PUSH2 0x1EC JUMP JUMPDEST SWAP3 SWAP2 POP POP JUMP JUMPDEST PUSH1 0x0 PUSH1 0x20 DUP3 DUP5 SUB SLT ISZERO PUSH2 0x319 JUMPI PUSH2 0x318 PUSH2 0x1DD JUMP JUMPDEST JUMPDEST PUSH1 0x0 PUSH2 0x327 DUP5 DUP3 DUP6 ADD PUSH2 0x2EE JUMP JUMPDEST SWAP2 POP POP SWAP3 SWAP2 POP POP JUMP JUMPDEST PUSH32 0x4E487B7100000000000000000000000000000000000000000000000000000000 PUSH1 0x0 MSTORE PUSH1 0x32 PUSH1 0x4 MSTORE PUSH1 0x24 PUSH1 0x0 REVERT INVALID LOG2 PUSH5 0x6970667358 0x22 SLT KECCAK256 PUSH23 0xA1AFED528D903962388986ED94A583BA56C80D4A7A8CE9 SGT PUSH8 0xC554611BC0F36473 PUSH16 0x6C634300080D00330000000000000000 "
		},
		"gasEstimates": {
			"creation": {
				"codeDepositCost": "183400",
				"executionCost": "226",
				"totalCost": "183626"
			},
			"external": {
				"append(uint256)": "46829",
				"arr(uint256)": "infinite",
				"replace(uint256,uint256)": "infinite"
			}
		},
		"methodIdentifiers": {
			"append(uint256)": "e33b8707",
			"arr(uint256)": "71e5ee5f",
			"replace(uint256,uint256)": "e81cf24c"
		}
	},
	"abi": [
		{
			"inputs": [
				{
					"internalType": "uint256",
					"name": "val",
					"type": "uint256"
				}
			],
			"name": "append",
			"outputs": [],
			"stateMutability": "nonpayable",
			"type": "function"
		},
		{
			"inputs": [
				{
					"internalType": "uint256",
					"name": "",
					"type": "uint256"
				}
			],
			"name": "arr",
			"outputs": [
				{
					"internalType": "uint256",
					"name": "",
					"type": "uint256"
				}
			],
			"stateMutability": "view",
			"type": "function"
		},
		{
			"inputs": [
				{
					"internalType": "uint256",
					"name": "_old",
					"type": "uint256"
				},
				{
					"internalType": "uint256",
					"name": "_new",
					"type": "uint256"
				}
			],
			"name": "replace",
			"outputs": [],
			"stateMutability": "nonpayable",
			"type": "function"
		}
	]
}